{
  "_format": "hh-sol-artifact-1",
  "contractName": "AtomArbitrage",
  "sourceName": "backend/contracts/AtomArbitrage.sol",
  "abi": [
    {
      "inputs": [],
      "stateMutability": "nonpayable",
      "type": "constructor"
    },
    {
      "anonymous": false,
      "inputs": [
        {
          "indexed": true,
          "internalType": "address",
          "name": "tokenA",
          "type": "address"
        },
        {
          "indexed": true,
          "internalType": "address",
          "name": "tokenB",
          "type": "address"
        },
        {
          "indexed": false,
          "internalType": "uint256",
          "name": "amountIn",
          "type": "uint256"
        },
        {
          "indexed": false,
          "internalType": "uint256",
          "name": "profit",
          "type": "uint256"
        },
        {
          "indexed": false,
          "internalType": "enum AtomArbitrage.DEX",
          "name": "buyDex",
          "type": "uint8"
        },
        {
          "indexed": false,
          "internalType": "enum AtomArbitrage.DEX",
          "name": "sellDex",
          "type": "uint8"
        },
        {
          "indexed": true,
          "internalType": "address",
          "name": "executor",
          "type": "address"
        }
      ],
      "name": "ArbitrageExecuted",
      "type": "event"
    },
    {
      "anonymous": false,
      "inputs": [
        {
          "indexed": true,
          "internalType": "address",
          "name": "caller",
          "type": "address"
        },
        {
          "indexed": false,
          "internalType": "uint256",
          "name": "timestamp",
          "type": "uint256"
        }
      ],
      "name": "EmergencyPause",
      "type": "event"
    },
    {
      "anonymous": false,
      "inputs": [
        {
          "indexed": true,
          "internalType": "address",
          "name": "caller",
          "type": "address"
        },
        {
          "indexed": false,
          "internalType": "uint256",
          "name": "timestamp",
          "type": "uint256"
        }
      ],
      "name": "EmergencyUnpause",
      "type": "event"
    },
    {
      "anonymous": false,
      "inputs": [
        {
          "indexed": true,
          "internalType": "address",
          "name": "caller",
          "type": "address"
        },
        {
          "indexed": false,
          "internalType": "address[]",
          "name": "tokens",
          "type": "address[]"
        },
        {
          "indexed": false,
          "internalType": "uint256",
          "name": "timestamp",
          "type": "uint256"
        }
      ],
      "name": "EmergencyWithdrawal",
      "type": "event"
    },
    {
      "anonymous": false,
      "inputs": [
        {
          "indexed": true,
          "internalType": "address",
          "name": "asset",
          "type": "address"
        },
        {
          "indexed": false,
          "internalType": "uint256",
          "name": "amount",
          "type": "uint256"
        },
        {
          "indexed": false,
          "internalType": "uint256",
          "name": "premium",
          "type": "uint256"
        },
        {
          "indexed": false,
          "internalType": "bool",
          "name": "success",
          "type": "bool"
        }
      ],
      "name": "FlashLoanExecuted",
      "type": "event"
    },
    {
      "anonymous": false,
      "inputs": [
        {
          "indexed": true,
          "internalType": "address",
          "name": "previousOwner",
          "type": "address"
        },
        {
          "indexed": true,
          "internalType": "address",
          "name": "newOwner",
          "type": "address"
        }
      ],
      "name": "OwnershipTransferred",
      "type": "event"
    },
    {
      "anonymous": false,
      "inputs": [
        {
          "indexed": false,
          "internalType": "address",
          "name": "account",
          "type": "address"
        }
      ],
      "name": "Paused",
      "type": "event"
    },
    {
      "anonymous": false,
      "inputs": [
        {
          "indexed": true,
          "internalType": "address",
          "name": "token",
          "type": "address"
        },
        {
          "indexed": false,
          "internalType": "uint256",
          "name": "amount",
          "type": "uint256"
        },
        {
          "indexed": false,
          "internalType": "uint256",
          "name": "timestamp",
          "type": "uint256"
        }
      ],
      "name": "ProfitExtracted",
      "type": "event"
    },
    {
      "anonymous": false,
      "inputs": [
        {
          "indexed": true,
          "internalType": "address",
          "name": "tokenA",
          "type": "address"
        },
        {
          "indexed": true,
          "internalType": "address",
          "name": "tokenB",
          "type": "address"
        },
        {
          "indexed": true,
          "internalType": "address",
          "name": "tokenC",
          "type": "address"
        },
        {
          "indexed": false,
          "internalType": "uint256",
          "name": "amountIn",
          "type": "uint256"
        },
        {
          "indexed": false,
          "internalType": "uint256",
          "name": "profit",
          "type": "uint256"
        },
        {
          "indexed": false,
          "internalType": "uint256",
          "name": "timestamp",
          "type": "uint256"
        }
      ],
      "name": "TriangularArbitrageExecuted",
      "type": "event"
    },
    {
      "anonymous": false,
      "inputs": [
        {
          "indexed": false,
          "internalType": "address",
          "name": "account",
          "type": "address"
        }
      ],
      "name": "Unpaused",
      "type": "event"
    },
    {
      "inputs": [],
      "name": "ADDRESSES_PROVIDER",
      "outputs": [
        {
          "internalType": "contract IPoolAddressesProvider",
          "name": "",
          "type": "address"
        }
      ],
      "stateMutability": "view",
      "type": "function"
    },
    {
      "inputs": [],
      "name": "BALANCER_VAULT",
      "outputs": [
        {
          "internalType": "contract IVault",
          "name": "",
          "type": "address"
        }
      ],
      "stateMutability": "view",
      "type": "function"
    },
    {
      "inputs": [],
      "name": "BASIS_POINTS",
      "outputs": [
        {
          "internalType": "uint256",
          "name": "",
          "type": "uint256"
        }
      ],
      "stateMutability": "view",
      "type": "function"
    },
    {
      "inputs": [],
      "name": "CURVE_REGISTRY",
      "outputs": [
        {
          "internalType": "contract ICurveRegistry",
          "name": "",
          "type": "address"
        }
      ],
      "stateMutability": "view",
      "type": "function"
    },
    {
      "inputs": [],
      "name": "ETH_PRICE_USD",
      "outputs": [
        {
          "internalType": "uint256",
          "name": "",
          "type": "uint256"
        }
      ],
      "stateMutability": "view",
      "type": "function"
    },
    {
      "inputs": [],
      "name": "MAX_FLASH_LOAN_AMOUNT",
      "outputs": [
        {
          "internalType": "uint256",
          "name": "",
          "type": "uint256"
        }
      ],
      "stateMutability": "view",
      "type": "function"
    },
    {
      "inputs": [],
      "name": "MAX_GAS_COST_USD",
      "outputs": [
        {
          "internalType": "uint256",
          "name": "",
          "type": "uint256"
        }
      ],
      "stateMutability": "view",
      "type": "function"
    },
    {
      "inputs": [],
      "name": "MIN_PROFIT_BASIS_POINTS",
      "outputs": [
        {
          "internalType": "uint256",
          "name": "",
          "type": "uint256"
        }
      ],
      "stateMutability": "view",
      "type": "function"
    },
    {
      "inputs": [],
      "name": "SUSHISWAP_ROUTER",
      "outputs": [
        {
          "internalType": "contract IUniswapV2Router",
          "name": "",
          "type": "address"
        }
      ],
      "stateMutability": "view",
      "type": "function"
    },
    {
      "inputs": [],
      "name": "UNISWAP_ROUTER",
      "outputs": [
        {
          "internalType": "contract IUniswapV2Router",
          "name": "",
          "type": "address"
        }
      ],
      "stateMutability": "view",
      "type": "function"
    },
    {
      "inputs": [
        {
          "internalType": "address",
          "name": "tokenA",
          "type": "address"
        },
        {
          "internalType": "address",
          "name": "tokenB",
          "type": "address"
        },
        {
          "internalType": "uint256",
          "name": "amountIn",
          "type": "uint256"
        },
        {
          "internalType": "enum AtomArbitrage.DEX",
          "name": "buyDex",
          "type": "uint8"
        },
        {
          "internalType": "enum AtomArbitrage.DEX",
          "name": "sellDex",
          "type": "uint8"
        },
        {
          "internalType": "bytes",
          "name": "buyData",
          "type": "bytes"
        },
        {
          "internalType": "bytes",
          "name": "sellData",
          "type": "bytes"
        }
      ],
      "name": "_simulateArbitrage",
      "outputs": [
        {
          "internalType": "uint256",
          "name": "finalAmount",
          "type": "uint256"
        }
      ],
      "stateMutability": "view",
      "type": "function"
    },
    {
      "inputs": [
        {
          "internalType": "address",
          "name": "tokenA",
          "type": "address"
        },
        {
          "internalType": "address",
          "name": "tokenB",
          "type": "address"
        },
        {
          "internalType": "uint256",
          "name": "amountIn",
          "type": "uint256"
        },
        {
          "internalType": "enum AtomArbitrage.DEX",
          "name": "buyDex",
          "type": "uint8"
        },
        {
          "internalType": "enum AtomArbitrage.DEX",
          "name": "sellDex",
          "type": "uint8"
        },
        {
          "internalType": "bytes",
          "name": "buyData",
          "type": "bytes"
        },
        {
          "internalType": "bytes",
          "name": "sellData",
          "type": "bytes"
        }
      ],
      "name": "calculateMultiDexProfit",
      "outputs": [
        {
          "internalType": "uint256",
          "name": "profit",
          "type": "uint256"
        },
        {
          "internalType": "bool",
          "name": "profitable",
          "type": "bool"
        }
      ],
      "stateMutability": "view",
      "type": "function"
    },
    {
      "inputs": [],
      "name": "emergencyPause",
      "outputs": [],
      "stateMutability": "nonpayable",
      "type": "function"
    },
    {
      "inputs": [],
      "name": "emergencyUnpause",
      "outputs": [],
      "stateMutability": "nonpayable",
      "type": "function"
    },
    {
      "inputs": [
        {
          "internalType": "address",
          "name": "token",
          "type": "address"
        }
      ],
      "name": "emergencyWithdraw",
      "outputs": [],
      "stateMutability": "nonpayable",
      "type": "function"
    },
    {
      "inputs": [
        {
          "internalType": "address[]",
          "name": "tokens",
          "type": "address[]"
        }
      ],
      "name": "emergencyWithdrawAll",
      "outputs": [],
      "stateMutability": "nonpayable",
      "type": "function"
    },
    {
      "inputs": [
        {
          "internalType": "uint256",
          "name": "estimatedGasUnits",
          "type": "uint256"
        },
        {
          "internalType": "uint256",
          "name": "gasPriceGwei",
          "type": "uint256"
        }
      ],
      "name": "estimateGasCostUSD",
      "outputs": [
        {
          "internalType": "uint256",
          "name": "gasCostUSD",
          "type": "uint256"
        }
      ],
      "stateMutability": "pure",
      "type": "function"
    },
    {
      "inputs": [
        {
          "internalType": "address",
          "name": "asset",
          "type": "address"
        },
        {
          "internalType": "uint256",
          "name": "amount",
          "type": "uint256"
        },
        {
          "internalType": "bytes",
          "name": "params",
          "type": "bytes"
        }
      ],
      "name": "executeArbitrage",
      "outputs": [],
      "stateMutability": "nonpayable",
      "type": "function"
    },
    {
      "inputs": [
        {
          "internalType": "address[]",
          "name": "tokens",
          "type": "address[]"
        },
        {
          "internalType": "uint256[]",
          "name": "amounts",
          "type": "uint256[]"
        },
        {
          "internalType": "bytes",
          "name": "params",
          "type": "bytes"
        }
      ],
      "name": "executeBalancerFlashLoan",
      "outputs": [],
      "stateMutability": "nonpayable",
      "type": "function"
    },
    {
      "inputs": [
        {
          "internalType": "address",
          "name": "asset",
          "type": "address"
        },
        {
          "internalType": "uint256",
          "name": "amount",
          "type": "uint256"
        },
        {
          "internalType": "uint256",
          "name": "premium",
          "type": "uint256"
        },
        {
          "internalType": "address",
          "name": "initiator",
          "type": "address"
        },
        {
          "internalType": "bytes",
          "name": "params",
          "type": "bytes"
        }
      ],
      "name": "executeOperation",
      "outputs": [
        {
          "internalType": "bool",
          "name": "",
          "type": "bool"
        }
      ],
      "stateMutability": "nonpayable",
      "type": "function"
    },
    {
      "inputs": [
        {
          "internalType": "address",
          "name": "tokenA",
          "type": "address"
        },
        {
          "internalType": "address",
          "name": "tokenB",
          "type": "address"
        },
        {
          "internalType": "address",
          "name": "tokenC",
          "type": "address"
        },
        {
          "internalType": "uint256",
          "name": "amount",
          "type": "uint256"
        }
      ],
      "name": "executeTriangularArbitrage",
      "outputs": [],
      "stateMutability": "nonpayable",
      "type": "function"
    },
    {
      "inputs": [
        {
          "internalType": "uint256",
          "name": "estimatedGasUnits",
          "type": "uint256"
        }
      ],
      "name": "getMaxGasPriceForLimit",
      "outputs": [
        {
          "internalType": "uint256",
          "name": "maxGasPriceGwei",
          "type": "uint256"
        }
      ],
      "stateMutability": "pure",
      "type": "function"
    },
    {
      "inputs": [
        {
          "internalType": "uint256",
          "name": "estimatedGasUnits",
          "type": "uint256"
        },
        {
          "internalType": "uint256",
          "name": "gasPriceGwei",
          "type": "uint256"
        }
      ],
      "name": "isGasCostAcceptable",
      "outputs": [
        {
          "internalType": "bool",
          "name": "acceptable",
          "type": "bool"
        },
        {
          "internalType": "uint256",
          "name": "gasCostUSD",
          "type": "uint256"
        }
      ],
      "stateMutability": "pure",
      "type": "function"
    },
    {
      "inputs": [],
      "name": "isPaused",
      "outputs": [
        {
          "internalType": "bool",
          "name": "",
          "type": "bool"
        }
      ],
      "stateMutability": "view",
      "type": "function"
    },
    {
      "inputs": [],
      "name": "owner",
      "outputs": [
        {
          "internalType": "address",
          "name": "",
          "type": "address"
        }
      ],
      "stateMutability": "view",
      "type": "function"
    },
    {
      "inputs": [],
      "name": "paused",
      "outputs": [
        {
          "internalType": "bool",
          "name": "",
          "type": "bool"
        }
      ],
      "stateMutability": "view",
      "type": "function"
    },
    {
      "inputs": [
        {
          "internalType": "address[]",
          "name": "tokens",
          "type": "address[]"
        },
        {
          "internalType": "uint256[]",
          "name": "amounts",
          "type": "uint256[]"
        },
        {
          "internalType": "uint256[]",
          "name": "",
          "type": "uint256[]"
        },
        {
          "internalType": "bytes",
          "name": "userData",
          "type": "bytes"
        }
      ],
      "name": "receiveFlashLoan",
      "outputs": [],
      "stateMutability": "nonpayable",
      "type": "function"
    },
    {
      "inputs": [],
      "name": "renounceOwnership",
      "outputs": [],
      "stateMutability": "nonpayable",
      "type": "function"
    },
    {
      "inputs": [
        {
          "internalType": "address",
          "name": "tokenA",
          "type": "address"
        },
        {
          "internalType": "address",
          "name": "tokenB",
          "type": "address"
        },
        {
          "internalType": "address",
          "name": "tokenC",
          "type": "address"
        },
        {
          "internalType": "uint256",
          "name": "amount",
          "type": "uint256"
        }
      ],
      "name": "shouldExecute",
      "outputs": [
        {
          "internalType": "bool",
          "name": "shouldExecute",
          "type": "bool"
        },
        {
          "internalType": "uint256",
          "name": "expectedProfit",
          "type": "uint256"
        }
      ],
      "stateMutability": "view",
      "type": "function"
    },
    {
      "inputs": [
        {
          "internalType": "address",
          "name": "newOwner",
          "type": "address"
        }
      ],
      "name": "transferOwnership",
      "outputs": [],
      "stateMutability": "nonpayable",
      "type": "function"
    },
    {
      "inputs": [],
      "name": "withdrawETH",
      "outputs": [],
      "stateMutability": "nonpayable",
      "type": "function"
    },
    {
      "inputs": [
        {
          "internalType": "address",
          "name": "token",
          "type": "address"
        },
        {
          "internalType": "uint256",
          "name": "amount",
          "type": "uint256"
        }
      ],
      "name": "withdrawToken",
      "outputs": [],
      "stateMutability": "nonpayable",
      "type": "function"
    },
    {
      "stateMutability": "payable",
      "type": "receive"
    }
  ],
  "bytecode": "0x608080604052346100635760016000556001543360018060a01b0382167f8be0079c531659141344cd1fd0a4f28419497f9722a3daafe3b4186f6b6457e0600080a36001600160a81b0319163360ff60a01b1916176001556134f690816100698239f35b600080fdfe6080604081815260049182361015610022575b505050361561002057600080fd5b005b600090813560e01c9081630542975c146119e35750806306ec9b9e146119c657806308e44852146118415780631b11d0ff146115e7578063277754ed146115b8578063461387c8146111355780634a4e3bd51461106e5780634a9dd70b1461103a57806351858e2714610fad5780635c975abb14610ad65780636e85962014610f365780636ff1c9bc14610e68578063715018a614610e0b578063720387cb14610de55780637c1d953914610b9e5780637e8db6b314610b825780638da5cb5b14610b595780639e281a9814610b19578063a852b22714610afd578063b187bd2614610ad6578063b7ec8f2614610a7b578063b942717b14610a4c578063bc16384614610a1d578063bd81b4701461088b578063ce6a9f0114610709578063d8264920146106da578063e086e5ec1461068a578063e1f1c4a71461066d578063f04f2707146102f3578063f2fde38b14610222578063f59e3a4c146101e15763f9b2d6aa0361001257346101de5760203660031901126101de576107d08335818102949181159186041417156101cb57602083633b9aca006101c387611f1a565b049051908152f35b634e487b7160e01b825260119052602490fd5b80fd5b50903461021e5761021a906102016101f836611a98565b929190916132e7565b9151901515815260208101919091529081906040820190565b0390f35b5080fd5b5091346102ef5760203660031901126102ef5761023d611a41565b90610246611d6f565b6001600160a01b0391821692831561029d575050600154826bffffffffffffffffffffffff60a01b821617600155167f8be0079c531659141344cd1fd0a4f28419497f9722a3daafe3b4186f6b6457e0600080a380f35b906020608492519162461bcd60e51b8352820152602660248201527f4f776e61626c653a206e6577206f776e657220697320746865207a65726f206160448201526564647265737360d01b6064820152fd5b8280fd5b50346101de5760803660031901126101de576001600160401b0383358181116102ef576103239036908601611c49565b92602492833583811161021e5761033d9036908801611caf565b936044938435818111610669576103579036908a01611caf565b506064358181116106695761036f9036908a01611d28565b9673ba12222222228d8ba445958a75a0704d566bf2c893610391853314612099565b88518901986020998a8101918b81830312610669578b8101519086821161066157019182916101409283910312610669578851956103ce87611ba4565b6103d98d8501611f4e565b87526103e68a8501611f4e565b878e015260608401518a88015260808401518e81101561066557606088015260a08401518e81101561066557608088015260c084015181811161066557828e610431928701016123dc565b60a088015260e084015190811161066157908c610450928501016123dc565b60c08601526101008281015160e08701526101208084015191870191909152910151908401526001600160a01b039261049f908461048d85612421565b51166104988b612421565b5190612465565b1561062057826104ae83612421565b5116898b868951809481936370a0823160e01b835230908301525afa80156106165782906105e2575b61050191506104f16104e88b612421565b518210156120e3565b6104fa8a612421565b519061212f565b9961050b89612421565b51906064820291808304606414901517156105d0575061271061053191048b101561213c565b805b825181101561059057806105868b8b61055c848961055461058b988b61242e565b51169261242e565b518b519263a9059cbb60e01b908401528a8a8401528c8301528b825261058182611bf6565b6121da565b612020565b610533565b50887f26f6bbbd455b9507bac0682b6ff4a332a2834a438d602a13bdb22d491d440f3c878c866105bf87612421565b51169382519182524290820152a280f35b634e487b7160e01b8352601190528482fd5b508981813d831161060f575b6105f88183611c11565b8101031261060a5761050190516104d7565b600080fd5b503d6105ee565b87513d84823e3d90fd5b855162461bcd60e51b8152808b018a9052601a818601527f41726269747261676520657865637574696f6e206661696c656400000000000081890152606490fd5b8480fd5b8580fd5b8380fd5b50903461021e578160031936011261021e57602090516127108152f35b50903461021e578160031936011261021e576106a4611d6f565b8180808060018060a01b036001541647908282156106d1575bf1156106c7575080f35b51903d90823e3d90fd5b506108fc6106bd565b50903461021e578160031936011261021e5760209051737a250d5630b4cf539739df2c5dacb4c659f2488d8152f35b50823461021e57600319926060368501126102ef576001600160401b039382358581116106615761073d9036908501611a11565b90602435878111610887576107559036908701611a11565b90976044359081116108835761076e9036908801611a6b565b919093610779611d6f565b610781611fca565b885b828110610857575098889973ba12222222228d8ba445958a75a0704d566bf2c894853b15610853576107d29189519a632e1c224f60e11b8c5230908c0152608060248c015260848b0191612055565b88810390960160448901528186526001600160fb1b03821161084f5761081988958694602086948d9a8b9760051b80928483013701601c8682030160648701520191611f62565b03925af19081156108465750610832575b506001905580f35b61083b90611b7b565b6101de57808261082a565b513d84823e3d90fd5b8880fd5b8a80fd5b806105866a084595161401484a00000061087661087e948f889061202f565b351115611dc7565b610783565b8780fd5b8680fd5b50823461021e5761089b36611ad9565b8b51634a9dd70b60e01b81526001600160a01b03998a16818c0152989097166024890152604488018690529497958795949093906108dd906064880190612442565b608486016108ea91612442565b60a4850160e0905260e485019061090092611f62565b906003198483030160c485015261091692611f62565b03823091815a93602094fa8492816109ea575b5061094157505050805b825191825215156020820152f35b9091928383116000146109e057610958848461212f565b93670de0b6b3a764000093848102908082048614901517156109cd5761098461098e9261098992611f44565b61343f565b6134a4565b92620493e03a81029081043a036109cd5704916107d0928381029381850414901517156101cb575050816109c3575b50610933565b90508111836109bd565b634e487b7160e01b835260118452602483fd5b9250505080610933565b9092506020813d8211610a15575b81610a0560209383611c11565b8101031261060a57519186610929565b3d91506109f8565b50903461021e578160031936011261021e576020905173ba12222222228d8ba445958a75a0704d566bf2c88152f35b50903461021e578160031936011261021e57602090517390e00ace148ca3b23ac1bc8c240c2a7dd9c2d7f58152f35b508290346101de57610a8c36611b65565b90633b9aca00918281029281840414901517156109cd5790610aad91611ef1565b916107d0928381029381850414901517156101cb57602083670de0b6b3a7640000865191048152f35b50903461021e578160031936011261021e5760209060ff60015460a01c1690519015158152f35b50903461021e578160031936011261021e576020905160328152f35b50903461021e573660031901126101de57610b56610b35611a41565b610b3d611d6f565b600154602435916001600160a01b039182169116612188565b80f35b50903461021e578160031936011261021e5760015490516001600160a01b039091168152602090f35b50903461021e578160031936011261021e576020905160648152f35b509190346102ef5760603660031901126102ef57610bba611a41565b91602435926044356001600160401b03811161066557610bdd9036908401611a6b565b9190610be7611d6f565b610bef611fca565b610bf7611f83565b610c0e6a084595161401484a000000871115611dc7565b610c1a83820182611e13565b6101208101516107d090818102918183041490151715610dd257610c3d90611f1a565b3a11610d8f5761010001513a11610d4c57845163026b1d5f60e01b8152879490939291906020858281732f39d218133afab8f2b819b1066c7e434ad94e9e5afa948515610d42578695610d07575b506001600160a01b0394851693843b15610887578692610cd99189519a8b98899788966310ac2ddf60e21b88523090880152166024860152604485015260a0606485015260a4840191611f62565b82608483015203925af19081156108465750610cf8575b506001815580f35b610d0190611b7b565b38610cf0565b9094506020813d8211610d3a575b81610d2260209383611c11565b8101031261066557610d3390611f4e565b9338610c8b565b3d9150610d15565b87513d88823e3d90fd5b845162461bcd60e51b8152602081860152601c60248201527f47617320707269636520657863656564732075736572206c696d6974000000006044820152606490fd5b855162461bcd60e51b8152602081870152601b60248201527f476173207072696365206578636565647320243530206c696d697400000000006044820152606490fd5b634e487b7160e01b895260118652602489fd5b50903461021e578160031936011261021e57602090516a084595161401484a0000008152f35b50346101de57806003193601126101de57610e24611d6f565b600180546001600160a01b0319811690915581906001600160a01b03167f8be0079c531659141344cd1fd0a4f28419497f9722a3daafe3b4186f6b6457e08280a380f35b509190346102ef5760203660031901126102ef5782610e85611a41565b92610e8e611d6f565b6001600160a01b0393841680610ebc57505080808093946001541647908282156106d157f1156106c7575080f35b91509260015416908251936370a0823160e01b85523090850152602084602481845afa928315610f2d57508492610ef8575b610b569350612188565b91506020833d8211610f25575b81610f1260209383611c11565b8101031261066957610b56925191610eee565b3d9150610f05565b513d86823e3d90fd5b50346101de57610f4536611b65565b90633b9aca0091828102928184041490151715610f9a5790610f6691611ef1565b926107d0938481029481860414901517156101cb5782516032670de0b6b3a764000086049081111582526020820152604090f35b634e487b7160e01b835260118552602483fd5b50903461021e578160031936011261021e57610fc7611d6f565b610fcf611f83565b6001805460ff60a01b1916600160a01b17905580513381527f62e78cea01bee320cd4e420270b5ea74000d11b0c9f74754ebdbfc544b05a25890602090a1514281527f6eae7d8f48015fddc9502717696ac737bec3d20c703c3958a689f8f48574718360203392a280f35b50903461021e5760209061106761106261105336611ad9565b98959194929396509650613077565b613077565b9051908152f35b5091346102ef57826003193601126102ef57611088611d6f565b6001549060ff8260a01c16156110fb575060ff60a01b191660015580513381527f5db9ee0a495bf2e6ff9c91a7834c1ba4fdd244a5e8aa4e537bd38aeae4b073aa90602090a1514281527f3fc6beefa3f4115babe1a3d46940222e37b39b9ef03dc7b79f832dbcc3da6abf60203392a280f35b606490602084519162461bcd60e51b8352820152601460248201527314185d5cd8589b194e881b9bdd081c185d5cd95960621b6044820152fd5b509190346102ef5761114636611a98565b91929390611152611d6f565b61115a611fca565b611162611f83565b821561157557640ba43b74003a1161153257815190633d678e9360e21b825260018060a01b0380809716958689850152169560249187838501521696604490888285015260649186838601528585608481305afa948515611528578b908c966114eb575b50156114a05786830294838604880361148e57612710809604116114445785516370a0823160e01b8152308382015260209490858183818d5afa90811561143a578d91611409575b5061121889613412565b80156113c95761122790613412565b80156113895761123690613412565b90811561134957808211156113405761124e9161212f565b955b86156113015780870290878204036112ef5761126e89601792611f44565b106112b15750508451958652505083015242908201527f919178a7cfbad0dbb48692aca8206ec0d73c586862e2364207dce10b480570e590606090a46001815580f35b865162461bcd60e51b8152928301859052601f908301527f41746f6d4172626974726167653a2042454c4f575f4d494e5f5350524541440090820152fd5b50634e487b7160e01b8c52601183528bfd5b50865162461bcd60e51b81529283018590526018908301527f41746f6d4172626974726167653a204e4f5f50524f464954000000000000000090820152fd5b50508b95611250565b5050865162461bcd60e51b8152928301859052601d908301527f41746f6d4172626974726167653a20535741505f43415f4641494c454400000090820152fd5b5050865162461bcd60e51b8152928301859052601d908301527f41746f6d4172626974726167653a20535741505f42435f4641494c454400000090820152fd5b5050865162461bcd60e51b8152928301859052601d908301527f41746f6d4172626974726167653a20535741505f41425f4641494c454400000090820152fd5b90508581813d8311611433575b6114208183611c11565b8101031261142f57513861120e565b8c80fd5b503d611416565b88513d8f823e3d90fd5b6084927f41746f6d4172626974726167653a20494e53554646494349454e545f50524f4661125560f21b9260228760208b519762461bcd60e51b8952880152860152840152820152fd5b634e487b7160e01b8c5260118352848cfd5b6084927f41746f6d4172626974726167653a2042454c4f575f32334250535f5448524553631213d31160e21b928660208a519662461bcd60e51b885287015280860152840152820152fd5b809650878092503d8311611521575b6115048183611c11565b81010312610853576020611517866121cd565b95015194386111c6565b503d6114fa565b86513d8d823e3d90fd5b815162461bcd60e51b8152602081880152601b60248201527f41746f6d4172626974726167653a204741535f544f4f5f4849474800000000006044820152606490fd5b815162461bcd60e51b8152602081880152601a60248201527f41746f6d4172626974726167653a205a45524f5f414d4f554e540000000000006044820152606490fd5b50903461021e578160031936011261021e576020905173d9e1ce17f2641f24ae83637ab66a2cca9c378b9f8152f35b5091346102ef5760a03660031901126102ef57611602611a41565b6064356001600160a01b038181169592602435926044359190889003610661576084356001600160401b038111610665576116409036908801611a6b565b885163026b1d5f60e01b815260209a908b818b81732f39d218133afab8f2b819b1066c7e434ad94e9e5afa80156118375787908a906117ff575b6116879250163314612099565b30036117c8578161169d916116a4930190611e13565b8583612465565b926116af83866120d6565b91169587516370a0823160e01b8152308282015289816024818b5afa80156117be578390889061178d575b6116f092506116eb828210156120e3565b61212f565b956064860291868304606414871517156101cb57505087947f26f6bbbd455b9507bac0682b6ff4a332a2834a438d602a13bdb22d491d440f3c9694889461176b7fe7055bb7f757aae8cfbf6ea2247e26371914425f5500c1d720f0746ae1ff880395611764612710606097048a101561213c565b3388612188565b87519283528b830152151586820152a281519081524286820152a25160018152f35b50508981813d83116117b7575b6117a48183611c11565b8101031261088757826116f091516116da565b503d61179a565b89513d89823e3d90fd5b885162461bcd60e51b81528089018b9052601160248201527024b73b30b634b21034b734ba34b0ba37b960791b6044820152606490fd5b50508b81813d8311611830575b6118168183611c11565b8101031261084f578661182b61168792611f4e565b61167a565b503d61180c565b8b513d8b823e3d90fd5b50903461021e57602090816003193601126102ef5783356001600160401b038111610669576118739036908601611a11565b9461187c611d6f565b47611995575b845b8681106118d1575050906118c27fea2bcd87c5043ce3e7a1e667e111b822df66a3967a487953c5df28043bef0d8f9286835193808552840191612055565b9242908201528033930390a280f35b60246001600160a01b0386816118f06118eb868d8a61202f565b6133d3565b168751938480926370a0823160e01b825230898301525afa91821561198b57889261195a575b50918161192e938a8394611933575b50505050612020565b611884565b6119456118eb6119519584938b61202f565b16906001541690612188565b8038808a611925565b9091508681813d8311611984575b6119728183611c11565b8101031261088357519061192e611916565b503d611968565b86513d8a823e3d90fd5b8480808060018060a01b036001541647908282156119bd575bf16118825782513d86823e3d90fd5b506108fc6119ae565b50903461021e578160031936011261021e57602090516107d08152f35b90503461021e578160031936011261021e5780732f39d218133afab8f2b819b1066c7e434ad94e9e60209252f35b9181601f8401121561060a578235916001600160401b03831161060a576020808501948460051b01011161060a57565b600435906001600160a01b038216820361060a57565b35906001600160a01b038216820361060a57565b9181601f8401121561060a578235916001600160401b03831161060a576020838186019501011161060a57565b608090600319011261060a576001600160a01b03600435818116810361060a5791602435828116810361060a5791604435908116810361060a579060643590565b9060e060031983011261060a576001600160a01b0391600435838116810361060a5792602435908116810361060a579160443591606435600481101561060a5791608435600481101561060a57916001600160401b039160a43583811161060a5782611b4791600401611a6b565b9390939260c43591821161060a57611b6191600401611a6b565b9091565b604090600319011261060a576004359060243590565b6001600160401b038111611b8e57604052565b634e487b7160e01b600052604160045260246000fd5b61014081019081106001600160401b03821117611b8e57604052565b606081019081106001600160401b03821117611b8e57604052565b604081019081106001600160401b03821117611b8e57604052565b608081019081106001600160401b03821117611b8e57604052565b90601f801991011681019081106001600160401b03821117611b8e57604052565b6001600160401b038111611b8e5760051b60200190565b81601f8201121561060a57803591611c6083611c32565b92611c6e6040519485611c11565b808452602092838086019260051b82010192831161060a578301905b828210611c98575050505090565b838091611ca484611a57565b815201910190611c8a565b81601f8201121561060a57803591611cc683611c32565b92611cd46040519485611c11565b808452602092838086019260051b82010192831161060a578301905b828210611cfe575050505090565b81358152908301908301611cf0565b6001600160401b038111611b8e57601f01601f191660200190565b81601f8201121561060a57803590611d3f82611d0d565b92611d4d6040519485611c11565b8284526020838301011161060a57816000926020809301838601378301015290565b6001546001600160a01b03163303611d8357565b606460405162461bcd60e51b815260206004820152602060248201527f4f776e61626c653a2063616c6c6572206973206e6f7420746865206f776e65726044820152fd5b15611dce57565b60405162461bcd60e51b815260206004820152601960248201527f416d6f756e742065786365656473202431304d206c696d6974000000000000006044820152606490fd5b60208183031261060a5780356001600160401b039182821161060a5701906101408284031261060a5760405192611e4984611ba4565b611e5283611a57565b8452611e6060208401611a57565b6020850152604083013560408501526060830135600481101561060a5760608501526080830135600481101561060a57608085015260a083013582811161060a5781611ead918501611d28565b60a085015260c083013591821161060a57611ec9918301611d28565b60c083015260e081013560e08301526101008082013590830152610120809101359082015290565b81810292918115918404141715611f0457565b634e487b7160e01b600052601160045260246000fd5b8015611f2e576802b5e3af16b18800000490565b634e487b7160e01b600052601260045260246000fd5b8115611f2e570490565b51906001600160a01b038216820361060a57565b908060209392818452848401376000828201840152601f01601f1916010190565b60ff60015460a01c16611f9257565b60405162461bcd60e51b815260206004820152601060248201526f14185d5cd8589b194e881c185d5cd95960821b6044820152606490fd5b600260005414611fdb576002600055565b60405162461bcd60e51b815260206004820152601f60248201527f5265656e7472616e637947756172643a207265656e7472616e742063616c6c006044820152606490fd5b6000198114611f045760010190565b919081101561203f5760051b0190565b634e487b7160e01b600052603260045260246000fd5b91908082526020809201929160005b828110612072575050505090565b909192938280600192838060a01b0361208a89611a57565b16815201950193929101612064565b156120a057565b60405162461bcd60e51b815260206004820152600e60248201526d24b73b30b634b21031b0b63632b960911b6044820152606490fd5b91908201809211611f0457565b156120ea57565b60405162461bcd60e51b815260206004820152601d60248201527f496e73756666696369656e742062616c616e636520746f2072657061790000006044820152606490fd5b91908203918211611f0457565b1561214357565b60405162461bcd60e51b815260206004820152601960248201527f50726f6669742062656c6f77203125207468726573686f6c64000000000000006044820152606490fd5b60405163a9059cbb60e01b60208201526001600160a01b03909216602483015260448201929092526121cb9161058182606481015b03601f198101845283611c11565b565b5190811515820361060a57565b604051612238916001600160a01b03166121f382611bdb565b6000806020958685527f5361666545524332303a206c6f772d6c6576656c2063616c6c206661696c656487860152868151910182855af16122326122c7565b916122f7565b80518281159182156122a8575b50509050156122515750565b6084906040519062461bcd60e51b82526004820152602a60248201527f5361666545524332303a204552433230206f7065726174696f6e20646964206e6044820152691bdd081cdd58d8d9595960b21b6064820152fd5b838092935001031261060a57816122bf91016121cd565b808238612245565b3d156122f2573d906122d882611d0d565b916122e66040519384611c11565b82523d6000602084013e565b606090565b91929015612359575081511561230b575090565b3b156123145790565b60405162461bcd60e51b815260206004820152601d60248201527f416464726573733a2063616c6c20746f206e6f6e2d636f6e74726163740000006044820152606490fd5b82519091501561236c5750805190602001fd5b60405162461bcd60e51b8152602060048201529081906123909060248301906123b7565b0390fd5b60005b8381106123a75750506000910152565b8181015183820152602001612397565b906020916123d081518092818552858086019101612394565b601f01601f1916010190565b81601f8201121561060a5780516123f281611d0d565b926124006040519485611c11565b8184526020828401011161060a5761241e9160208085019101612394565b90565b80511561203f5760200190565b805182101561203f5760209160051b010190565b90600482101561244f5752565b634e487b7160e01b600052602160045260246000fd5b6060830191825191600492838110156125cd5790612489918360a0880151926126f2565b60208501805160808701805192959390926001600160a01b0392831691858210156126dd57906124bf929160c08b0151926126f2565b966000858911156126d757506124d5858961212f565b975b60e0820151891061269d57670de0b6b3a76400009081810290808204831490151715612688576109896109848861250d93611f44565b1561264c5761252761012083015161010084015190611ef1565b046107d090818102918183041490151715612637578811156125e2578180915116955116955191838310156125cd575192808410156125b857506080926125a87f99f5f2282ea6a09a6f4eca16f69a79543bd628094c28102155974b489b01959a95936125b293600154169960405195865260208601526040850190612442565b6060830190612442565ba4600190565b602190634e487b7160e01b6000525260246000fd5b602184634e487b7160e01b6000525260246000fd5b60405162461bcd60e51b8152602081860152602860248201527f47617320656666696369656e637920746f6f206c6f77202d206e65676174697660448201526719481c1c9bd99a5d60c21b6064820152608490fd5b601185634e487b7160e01b6000525260246000fd5b60405162461bcd60e51b8152602081870152601560248201527410995b1bddc80c8cd89c1cc81d1a1c995cda1bdb19605a1b6044820152606490fd5b601186634e487b7160e01b6000525260246000fd5b60405162461bcd60e51b81526020818701526013602482015272125b9cdd59999a58da595b9d081c1c9bd99a5d606a1b6044820152606490fd5b976124d7565b602186634e487b7160e01b6000525260246000fd5b9091939293600481101561244f5780612905575083518401602094858183031261060a5785810151916001600160401b03831161060a576127399287809201920101612f1a565b9060018060a01b031690604051948086019563095ea7b360e01b93848852737a250d5630b4cf539739df2c5dacb4c659f2488d948560248401528660448401526044835261278683611bf6565b600080809a85519082865af161279a6122c7565b816128c9575b50806128bf575b15612888575b5050505061012c42019283421161287457916127f691868094604051968795869485936338ed173960e01b8552600485015284602485015260a0604485015260a4840190612ff9565b90306064840152608483015203925af1908115612869578391612847575b5080516000198101919082116128335761282f92935061242e565b5190565b634e487b7160e01b84526011600452602484fd5b61286391503d8085833e61285b8183611c11565b810190612f80565b38612814565b6040513d85823e3d90fd5b634e487b7160e01b86526011600452602486fd5b6128b6936105819160405191820152866024820152896044820152604481526128b081611bf6565b826121da565b388080806127ad565b50813b15156127a7565b809150518581159182156128e2575b50509050386127a0565b838092935001031261290157846128f991016121cd565b8085386128d8565b8980fd5b6001810361298e575083518401602094858183031261060a5785810151916001600160401b03831161060a576129419287809201920101612f1a565b9060018060a01b031690604051948086019563095ea7b360e01b9384885273d9e1ce17f2641f24ae83637ab66a2cca9c378b9f948560248401528660448401526044835261278683611bf6565b600281959392949514600014612cf657508151820160208382031261060a5760208301516001600160401b039384821161060a57019060408282031261060a57604051916040830183811086821117611b8e576040526020810151835260408101519185831161060a57612a09926020809201920101612f1a565b602082810191825260405163095ea7b360e01b91810182815273ba12222222228d8ba445958a75a0704d566bf2c860248301526044808301879052825292966001600160a01b031693926000908190612a6184611bf6565b83519082885af1612a706122c7565b81612cbf575b5080612cb5575b15612c64575b505051935180516000198101908111611f04576001600160a01b0391612aa9919061242e565b5116906040519460c0860186811086821117611b8e57604052855260006020860152604085015260608401526080830152604051612ae681611bdb565b6002815261060f60f31b602082015260a0830152604051906080820190811182821017611b8e57604052308152600060208201523060408201526000606082015261012c42014211611f04576040516352bbbe2960e01b815260e06004820152825160e482015260208301519092600282101561244f576020926060612bb560a08795948695610104870152600180831b03604082015116610124870152600180831b0384820151166101448701526080810151610164870152015160c06101848601526101a48501906123b7565b82516001600160a01b0390811660248601528684015115156044860152604084015116606485015291015115156084830152600060a483018190524261012c0160c484015291900390829073ba12222222228d8ba445958a75a0704d566bf2c85af1908115612c5857600091612c29575090565b90506020813d602011612c50575b81612c4460209383611c11565b8101031261060a575190565b3d9150612c37565b6040513d6000823e3d90fd5b612ca8612cae9260405190602082015273ba12222222228d8ba445958a75a0704d566bf2c860248201526000604482015260448152612ca281611bf6565b856121da565b836121da565b3880612a83565b50833b1515612a7d565b8051801592508215612cd4575b505038612a76565b819250906020918101031261060a576020612cef91016121cd565b3880612ccc565b909290600314612d375760405162461bcd60e51b815260206004820152600f60248201526e0aadce6eae0e0dee4e8cac840888ab608b1b6044820152606490fd5b60608280518101031261060a5782916040938492835192612d5784611bc0565b6020938492612d67848401611f4e565b90818352612d886060612d7b8a8701613036565b9587860196875201613036565b888401908152885163095ea7b360e01b8782018181526001600160a01b0395861660248401819052604484019a909a5290989295909493909291908416612dd282606481016121bd565b60009b8c80809885519082865af19a612de96122c7565b9b80612ec7575b60849a9b9c5080612ebd575b15612e8d575b50505050505116935191519389519889958694630f7c084960e21b8652600f0b6004860152600f0b602485015260448401528160648401525af1938415612e8257508193612e51575b50505090565b9091809350813d8311612e7b575b612e698183611c11565b810103126101de575051388080612e4b565b503d612e5f565b51913d9150823e3d90fd5b612eb3946105819251918d8301526024820152876044820152604481526128b081611bf6565b3880808d81612e02565b50823b1515612dfc565b508b519b8c159c8d15612ee0575b509a9b8c9b50612df0565b919598508094979a9c508092509a9295989a010312610853579289989795928d8c9693612f118c60849b98016121cd565b9b9a9938612ed5565b81601f8201121561060a57805191612f3183611c32565b92612f3f6040519485611c11565b808452602092838086019260051b82010192831161060a578301905b828210612f69575050505090565b838091612f7584611f4e565b815201910190612f5b565b602090818184031261060a578051906001600160401b03821161060a57019180601f8401121561060a578251612fb581611c32565b93612fc36040519586611c11565b818552838086019260051b82010192831161060a578301905b828210612fea575050505090565b81518152908301908301612fdc565b90815180825260208080930193019160005b828110613019575050505090565b83516001600160a01b03168552938101939281019260010161300b565b519081600f0b820361060a57565b359081600f0b820361060a57565b9060208282031261060a5781356001600160401b03811161060a5761241e9201611c49565b91909392600494858110156126dd578061314257508161309d916130c794930190613052565b6040519163d06ca61f60e01b83528583015260406024830152818060009485936044830190612ff9565b0381737a250d5630b4cf539739df2c5dacb4c659f2488d5afa90811561313757829161311d575b50805160001981019290831161310a575061282f92935061242e565b634e487b7160e01b815260118552602490fd5b61313191503d8084833e61285b8183611c11565b386130ee565b6040513d84823e3d90fd5b6001810361319e57508161309d9161315c94930190613052565b038173d9e1ce17f2641f24ae83637ab66a2cca9c378b9f5afa90811561313757829161311d5750805160001981019290831161310a575061282f92935061242e565b939493600281036131dd57505050906063820291808304606314901517156131c857506064900490565b601190634e487b7160e01b6000525260246000fd5b6003146132285760405162461bcd60e51b8152602081860152601e60248201527f556e737570706f727465642044455820666f722073696d756c6174696f6e00006044820152606490fd5b816060918101031261060a57604092606484519261324584611bc0565b61324e81611a57565b808552602095869561327189613265898701613044565b95868a85015201613044565b98899101526040519788958694635e0d443f60e01b8652600f0b90850152600f0b6024840152604483015260018060a01b03165afa908115612c58576000916132bb575b50905090565b82813d83116132e0575b6132cf8183611c11565b810103126101de57505180386132b5565b503d6132c5565b9261332961332f61330e8397966133088761330288846133e7565b976133e7565b966133e7565b600094613329670de0b6b3a764000097888096819489611ef1565b04611ef1565b04818111156133c957613342925061212f565b92612710808502908582041485151715611f045761336282601792611f44565b10155b156133bd5761337484826120d6565b828102928184041490151715611f045761098461339391602693611f44565b600081126133af575b1191600083156133aa575090565b905090565b6133b89061342e565b61339c565b50509050600090600090565b5050926000613365565b356001600160a01b038116810361060a5790565b6001600160a01b039182169116101561340657670de444324c2a800090565b670ddd2935029d800090565b6103e590818102918183041490151715611f04576103e8900490565b600160ff1b8114611f045760000390565b670de0b6b3a76400009081811061347b57670de0b6b3a763ffff198101908111611f045761271090818102918183041490151715611f04570490565b9081810391818311611f0457612710808402938404149082141715611f045761241e910461342e565b602e90600081126134b3571190565b6134bc9061342e565b119056fea264697066735822122048df4f14b60edf686071f3946f6e74cf1ce67495c9e528c0350f8e88cf26433c64736f6c63430008140033",
  "linkReferences": {},
  "deployedLinkReferences": {}
}