{"backend/contracts/AEONMathTester.sol":{"AEONMathTester":{"abi":[{"inputs":[{"internalType":"uint256","name":"price1","type":"uint256"},{"internalType":"uint256","name":"price2","type":"uint256"}],"name":"calculateSpreadBps","outputs":[{"internalType":"int256","name":"","type":"int256"}],"stateMutability":"pure","type":"function"},{"inputs":[{"internalType":"uint256","name":"expectedProfitUSD","type":"uint256"},{"internalType":"uint256","name":"gasUsed","type":"uint256"},{"internalType":"uint256","name":"gasPriceWei","type":"uint256"}],"name":"efficiencyScore","outputs":[{"internalType":"int256","name":"","type":"int256"}],"stateMutability":"pure","type":"function"},{"inputs":[{"internalType":"uint256","name":"balanceIn","type":"uint256"},{"internalType":"uint256","name":"balanceOut","type":"uint256"},{"internalType":"uint256","name":"weightIn","type":"uint256"},{"internalType":"uint256","name":"weightOut","type":"uint256"}],"name":"getBalancerImpliedPrice","outputs":[{"internalType":"uint256","name":"","type":"uint256"}],"stateMutability":"pure","type":"function"},{"inputs":[],"name":"getCurrentBlockNumber","outputs":[{"internalType":"uint256","name":"","type":"uint256"}],"stateMutability":"view","type":"function"},{"inputs":[],"name":"getCurrentTimestamp","outputs":[{"internalType":"uint256","name":"","type":"uint256"}],"stateMutability":"view","type":"function"},{"inputs":[{"internalType":"int256","name":"spreadBps","type":"int256"},{"internalType":"uint256","name":"feeBps","type":"uint256"}],"name":"isAboveThreshold","outputs":[{"internalType":"bool","name":"","type":"bool"}],"stateMutability":"pure","type":"function"}],"devdoc":{"details":"Test contract to expose AEONMathStandalone library functions for testing","kind":"dev","methods":{"calculateSpreadBps(uint256,uint256)":{"details":"Calculate spread in basis points between two prices"},"efficiencyScore(uint256,uint256,uint256)":{"details":"Calculate efficiency score"},"getBalancerImpliedPrice(uint256,uint256,uint256,uint256)":{"details":"Calculate Balancer implied price"},"getCurrentBlockNumber()":{"details":"Test helper: Get current block number"},"getCurrentTimestamp()":{"details":"Test helper: Get current block timestamp"},"isAboveThreshold(int256,uint256)":{"details":"Check if spread is above threshold after accounting for fees"}},"title":"AEONMathTester","version":1},"evm":{"bytecode":{"linkReferences":{},"object":"6080806040523461001657610301908161001c8239f35b600080fdfe608060408181526004918236101561001657600080fd5b600090813560e01c908163548d83d11461020b575080636c9230db146101f05780636fd902e1146101d15780639543e61c146101aa578063bc91970a146101065763e12d22ff1461006657600080fd5b346101035760803660031901126101035750602435606435811515806100fa575b156100b757906100aa6100a06100b09360209635610234565b9160443590610234565b9061025d565b9051908152f35b825162461bcd60e51b8152602081860152601960248201527f496e76616c6964206f757470757420706f6f6c207374617465000000000000006044820152606490fd5b50801515610087565b80fd5b5034610103578160031936011261010357823560243591821561017457828203918083116101615783612710808502948504149114171561014e576020846100b0858561025d565b634e487b7160e01b815260118552602490fd5b634e487b7160e01b825260118652602482fd5b835162461bcd60e51b8152602081870152601060248201526f4469766973696f6e206279207a65726f60801b6044820152606490fd5b503461010357606036600319011261010357506100b060209260443590602435903561027d565b5090346101ec57816003193601126101ec5760209051438152f35b5080fd5b5090346101ec57816003193601126101ec5760209051428152f35b90508383346102305736600319011261022c57602092506024359035138152f35b8280fd5b8380fd5b8181029291811591840414171561024757565b634e487b7160e01b600052601160045260246000fd5b8115610267570490565b634e487b7160e01b600052601260045260246000fd5b90610292670de0b6b3a7640000938492610234565b049081156102b657828102928184041490151715610247576102b39161025d565b90565b9050818102918183041490151715610247579056fea2646970667358221220802ceecafd038d0f1206f2567429db02e8041eea3f3e7bed1490a7175c259b4764736f6c63430008140033","opcodes":"PUSH1 0x80 DUP1 PUSH1 0x40 MSTORE CALLVALUE PUSH2 0x16 JUMPI PUSH2 0x301 SWAP1 DUP2 PUSH2 0x1C DUP3 CODECOPY RETURN JUMPDEST PUSH1 0x0 DUP1 REVERT INVALID PUSH1 0x80 PUSH1 0x40 DUP2 DUP2 MSTORE PUSH1 0x4 SWAP2 DUP3 CALLDATASIZE LT ISZERO PUSH2 0x16 JUMPI PUSH1 0x0 DUP1 REVERT JUMPDEST PUSH1 0x0 SWAP1 DUP2 CALLDATALOAD PUSH1 0xE0 SHR SWAP1 DUP2 PUSH4 0x548D83D1 EQ PUSH2 0x20B JUMPI POP DUP1 PUSH4 0x6C9230DB EQ PUSH2 0x1F0 JUMPI DUP1 PUSH4 0x6FD902E1 EQ PUSH2 0x1D1 JUMPI DUP1 PUSH4 0x9543E61C EQ PUSH2 0x1AA JUMPI DUP1 PUSH4 0xBC91970A EQ PUSH2 0x106 JUMPI PUSH4 0xE12D22FF EQ PUSH2 0x66 JUMPI PUSH1 0x0 DUP1 REVERT JUMPDEST CALLVALUE PUSH2 0x103 JUMPI PUSH1 0x80 CALLDATASIZE PUSH1 0x3 NOT ADD SLT PUSH2 0x103 JUMPI POP PUSH1 0x24 CALLDATALOAD PUSH1 0x64 CALLDATALOAD DUP2 ISZERO ISZERO DUP1 PUSH2 0xFA JUMPI JUMPDEST ISZERO PUSH2 0xB7 JUMPI SWAP1 PUSH2 0xAA PUSH2 0xA0 PUSH2 0xB0 SWAP4 PUSH1 0x20 SWAP7 CALLDATALOAD PUSH2 0x234 JUMP JUMPDEST SWAP2 PUSH1 0x44 CALLDATALOAD SWAP1 PUSH2 0x234 JUMP JUMPDEST SWAP1 PUSH2 0x25D JUMP JUMPDEST SWAP1 MLOAD SWAP1 DUP2 MSTORE RETURN JUMPDEST DUP3 MLOAD PUSH3 0x461BCD PUSH1 0xE5 SHL DUP2 MSTORE PUSH1 0x20 DUP2 DUP7 ADD MSTORE PUSH1 0x19 PUSH1 0x24 DUP3 ADD MSTORE PUSH32 0x496E76616C6964206F757470757420706F6F6C20737461746500000000000000 PUSH1 0x44 DUP3 ADD MSTORE PUSH1 0x64 SWAP1 REVERT JUMPDEST POP DUP1 ISZERO ISZERO PUSH2 0x87 JUMP JUMPDEST DUP1 REVERT JUMPDEST POP CALLVALUE PUSH2 0x103 JUMPI DUP2 PUSH1 0x3 NOT CALLDATASIZE ADD SLT PUSH2 0x103 JUMPI DUP3 CALLDATALOAD PUSH1 0x24 CALLDATALOAD SWAP2 DUP3 ISZERO PUSH2 0x174 JUMPI DUP3 DUP3 SUB SWAP2 DUP1 DUP4 GT PUSH2 0x161 JUMPI DUP4 PUSH2 0x2710 DUP1 DUP6 MUL SWAP5 DUP6 DIV EQ SWAP2 EQ OR ISZERO PUSH2 0x14E JUMPI PUSH1 0x20 DUP5 PUSH2 0xB0 DUP6 DUP6 PUSH2 0x25D JUMP JUMPDEST PUSH4 0x4E487B71 PUSH1 0xE0 SHL DUP2 MSTORE PUSH1 0x11 DUP6 MSTORE PUSH1 0x24 SWAP1 REVERT JUMPDEST PUSH4 0x4E487B71 PUSH1 0xE0 SHL DUP3 MSTORE PUSH1 0x11 DUP7 MSTORE PUSH1 0x24 DUP3 REVERT JUMPDEST DUP4 MLOAD PUSH3 0x461BCD PUSH1 0xE5 SHL DUP2 MSTORE PUSH1 0x20 DUP2 DUP8 ADD MSTORE PUSH1 0x10 PUSH1 0x24 DUP3 ADD MSTORE PUSH16 0x4469766973696F6E206279207A65726F PUSH1 0x80 SHL PUSH1 0x44 DUP3 ADD MSTORE PUSH1 0x64 SWAP1 REVERT JUMPDEST POP CALLVALUE PUSH2 0x103 JUMPI PUSH1 0x60 CALLDATASIZE PUSH1 0x3 NOT ADD SLT PUSH2 0x103 JUMPI POP PUSH2 0xB0 PUSH1 0x20 SWAP3 PUSH1 0x44 CALLDATALOAD SWAP1 PUSH1 0x24 CALLDATALOAD SWAP1 CALLDATALOAD PUSH2 0x27D JUMP JUMPDEST POP SWAP1 CALLVALUE PUSH2 0x1EC JUMPI DUP2 PUSH1 0x3 NOT CALLDATASIZE ADD SLT PUSH2 0x1EC JUMPI PUSH1 0x20 SWAP1 MLOAD NUMBER DUP2 MSTORE RETURN JUMPDEST POP DUP1 REVERT JUMPDEST POP SWAP1 CALLVALUE PUSH2 0x1EC JUMPI DUP2 PUSH1 0x3 NOT CALLDATASIZE ADD SLT PUSH2 0x1EC JUMPI PUSH1 0x20 SWAP1 MLOAD TIMESTAMP DUP2 MSTORE RETURN JUMPDEST SWAP1 POP DUP4 DUP4 CALLVALUE PUSH2 0x230 JUMPI CALLDATASIZE PUSH1 0x3 NOT ADD SLT PUSH2 0x22C JUMPI PUSH1 0x20 SWAP3 POP PUSH1 0x24 CALLDATALOAD SWAP1 CALLDATALOAD SGT DUP2 MSTORE RETURN JUMPDEST DUP3 DUP1 REVERT JUMPDEST DUP4 DUP1 REVERT JUMPDEST DUP2 DUP2 MUL SWAP3 SWAP2 DUP2 ISZERO SWAP2 DUP5 DIV EQ OR ISZERO PUSH2 0x247 JUMPI JUMP JUMPDEST PUSH4 0x4E487B71 PUSH1 0xE0 SHL PUSH1 0x0 MSTORE PUSH1 0x11 PUSH1 0x4 MSTORE PUSH1 0x24 PUSH1 0x0 REVERT JUMPDEST DUP2 ISZERO PUSH2 0x267 JUMPI DIV SWAP1 JUMP JUMPDEST PUSH4 0x4E487B71 PUSH1 0xE0 SHL PUSH1 0x0 MSTORE PUSH1 0x12 PUSH1 0x4 MSTORE PUSH1 0x24 PUSH1 0x0 REVERT JUMPDEST SWAP1 PUSH2 0x292 PUSH8 0xDE0B6B3A7640000 SWAP4 DUP5 SWAP3 PUSH2 0x234 JUMP JUMPDEST DIV SWAP1 DUP2 ISZERO PUSH2 0x2B6 JUMPI DUP3 DUP2 MUL SWAP3 DUP2 DUP5 DIV EQ SWAP1 ISZERO OR ISZERO PUSH2 0x247 JUMPI PUSH2 0x2B3 SWAP2 PUSH2 0x25D JUMP JUMPDEST SWAP1 JUMP JUMPDEST SWAP1 POP DUP2 DUP2 MUL SWAP2 DUP2 DUP4 DIV EQ SWAP1 ISZERO OR ISZERO PUSH2 0x247 JUMPI SWAP1 JUMP INVALID LOG2 PUSH5 0x6970667358 0x22 SLT KECCAK256 DUP1 0x2C 0xEE 0xCA REVERT SUB DUP14 0xF SLT MOD CALLCODE JUMP PUSH21 0x29DB02E8041EEA3F3E7BED1490A7175C259B476473 PUSH16 0x6C634300081400330000000000000000 "},"gasEstimates":{"creation":{"codeDepositCost":"153800","executionCost":"208","totalCost":"154008"},"external":{"calculateSpreadBps(uint256,uint256)":"444","efficiencyScore(uint256,uint256,uint256)":"520","getBalancerImpliedPrice(uint256,uint256,uint256,uint256)":"infinite","getCurrentBlockNumber()":"218","getCurrentTimestamp()":"196","isAboveThreshold(int256,uint256)":"187"}},"methodIdentifiers":{"calculateSpreadBps(uint256,uint256)":"bc91970a","efficiencyScore(uint256,uint256,uint256)":"9543e61c","getBalancerImpliedPrice(uint256,uint256,uint256,uint256)":"e12d22ff","getCurrentBlockNumber()":"6fd902e1","getCurrentTimestamp()":"6c9230db","isAboveThreshold(int256,uint256)":"548d83d1"}},"storageLayout":{"storage":[],"types":null},"userdoc":{"kind":"user","methods":{},"version":1}}}}