{"backend/contracts/MockPoolAddressesProvider.sol":{"MockPoolAddressesProvider":{"abi":[{"inputs":[],"stateMutability":"nonpayable","type":"constructor"},{"inputs":[],"name":"getACLAdmin","outputs":[{"internalType":"address","name":"","type":"address"}],"stateMutability":"view","type":"function"},{"inputs":[],"name":"getACLManager","outputs":[{"internalType":"address","name":"","type":"address"}],"stateMutability":"view","type":"function"},{"inputs":[{"internalType":"bytes32","name":"id","type":"bytes32"}],"name":"getAddress","outputs":[{"internalType":"address","name":"","type":"address"}],"stateMutability":"view","type":"function"},{"inputs":[],"name":"getMarketId","outputs":[{"internalType":"string","name":"","type":"string"}],"stateMutability":"view","type":"function"},{"inputs":[],"name":"getPool","outputs":[{"internalType":"address","name":"","type":"address"}],"stateMutability":"view","type":"function"},{"inputs":[],"name":"getPoolConfigurator","outputs":[{"internalType":"address","name":"","type":"address"}],"stateMutability":"view","type":"function"},{"inputs":[],"name":"getPoolDataProvider","outputs":[{"internalType":"address","name":"","type":"address"}],"stateMutability":"view","type":"function"},{"inputs":[],"name":"getPriceOracle","outputs":[{"internalType":"address","name":"","type":"address"}],"stateMutability":"view","type":"function"},{"inputs":[],"name":"getPriceOracleSentinel","outputs":[{"internalType":"address","name":"","type":"address"}],"stateMutability":"view","type":"function"},{"inputs":[{"internalType":"address","name":"newAclAdmin","type":"address"}],"name":"setACLAdmin","outputs":[],"stateMutability":"nonpayable","type":"function"},{"inputs":[{"internalType":"address","name":"newAclManager","type":"address"}],"name":"setACLManager","outputs":[],"stateMutability":"nonpayable","type":"function"},{"inputs":[{"internalType":"bytes32","name":"id","type":"bytes32"},{"internalType":"address","name":"newAddress","type":"address"}],"name":"setAddress","outputs":[],"stateMutability":"nonpayable","type":"function"},{"inputs":[{"internalType":"string","name":"newMarketId","type":"string"}],"name":"setMarketId","outputs":[],"stateMutability":"nonpayable","type":"function"},{"inputs":[{"internalType":"address","name":"newPoolConfiguratorImpl","type":"address"}],"name":"setPoolConfiguratorImpl","outputs":[],"stateMutability":"nonpayable","type":"function"},{"inputs":[{"internalType":"address","name":"newDataProvider","type":"address"}],"name":"setPoolDataProvider","outputs":[],"stateMutability":"nonpayable","type":"function"},{"inputs":[{"internalType":"address","name":"newPoolImpl","type":"address"}],"name":"setPoolImpl","outputs":[],"stateMutability":"nonpayable","type":"function"},{"inputs":[{"internalType":"address","name":"newPriceOracle","type":"address"}],"name":"setPriceOracle","outputs":[],"stateMutability":"nonpayable","type":"function"},{"inputs":[{"internalType":"address","name":"newPriceOracleSentinel","type":"address"}],"name":"setPriceOracleSentinel","outputs":[],"stateMutability":"nonpayable","type":"function"}],"devdoc":{"details":"Mock implementation of AAVE's IPoolAddressesProvider for testing","kind":"dev","methods":{},"title":"MockPoolAddressesProvider","version":1},"evm":{"bytecode":{"linkReferences":{},"object":"60808060405234610139576007546001908181811c9116801561012f575b602082101461011957601f81116100d0575b50507f54657374204d61726b65740000000000000000000000000000000000000000166007556102ba8181016001600160401b038111838210176100ba578291610bb2833903906000f080156100ae57600080546001600160a01b0319166001600160a01b0392909216919091179055604051610a73908161013f8239f35b6040513d6000823e3d90fd5b634e487b7160e01b600052604160045260246000fd5b6007600052601f0160051c7fa66cc928b5edb82af9bd49922954155ab7b0942694bea4ce44661d9a8736c688908101905b81811061010e575061002f565b600081558201610101565b634e487b7160e01b600052602260045260246000fd5b90607f169061001d565b600080fdfe608060408181526004918236101561001657600080fd5b600092833560e01c918263026b1d5f14610840575081630e67178c1461081857816321f8a721146107e7578163530e784f146107ae578163568ef470146106755781635eb88d3d1461064c578163631adfca14610623578163707cd716146105fa57816374944cec146105c157816376d84ffc1461058a578163a156440614610554578163ca446dd914610374578163e44e9ed11461033b578163e4ca28b714610302578163e860accb146102d9578163ed301ca9146102a0578163f67b184714610116575063fca513a8146100eb57600080fd5b3461011257816003193601126101125760025490516001600160a01b039091168152602090f35b5080fd5b833461029d576020918260031936011261011257803567ffffffffffffffff9182821161029557366023830112156102955781013591821161029957602490368284830101116102955761016b60075461087f565b601f8111610237575b508394601f84116001146101b457509383948394936101a7575b5050508160011b916000199060031b1c19161760075580f35b010135905083808061018e565b601f198416957fa66cc928b5edb82af9bd49922954155ab7b0942694bea4ce44661d9a8736c688939186905b88821061021d575050846001969710610201575b50505050811b0160075580f35b60001960f88660031b161c1992010135169055838080806101f4565b8060018497868395968901013581550196019201906101e0565b7fa66cc928b5edb82af9bd49922954155ab7b0942694bea4ce44661d9a8736c688601f850160051c81019187861061028b575b601f0160051c01905b8181106102805750610174565b858155600101610273565b909150819061026a565b8380fd5b8280fd5b80fd5b833461029d57602036600319011261029d576001600160a01b036102c2610864565b166001600160601b0360a01b600354161760035580f35b50503461011257816003193601126101125760065490516001600160a01b039091168152602090f35b833461029d57602036600319011261029d576001600160a01b03610324610864565b166001600160601b0360a01b600154161760015580f35b833461029d57602036600319011261029d576001600160a01b0361035d610864565b166001600160601b0360a01b600654161760065580f35b9190503461029957366003190112610112576024356001600160a01b03811690823590829003610295577f5d5c2d2522b7f6ec8d1c86f44956b9ecd4376b1842cd263d54a5368aa149486d81036103d9575082546001600160a01b0319161782555080f35b7f7ac30f54e4a5d88ecad45a0103446836c9967d1e8d22f2fbe70930162fb0624b8103610419575090506001600160601b0360a01b600154161760015580f35b7fdd24a0f121e5ab7c3e97c63eaaf859e0b46792c3e0edfd86e2b3ad50f63011d88103610459575090506001600160601b0360a01b600254161760025580f35b7fc287a3aa39c31ece62d3fa9ff394eec87eda2b6600ae0d39b3edebe7593fce728103610499575090506001600160601b0360a01b600354161760035580f35b7f7b712d922b13ad4caade18fe1173c3b60a52cf9139e1553859c706733397224481036104d3575081546001600160a01b03191617905580f35b9091507f850bfd4b118fcb6d899cca9a9fb41471772c200f1c36c2493c98d3bc7a305d65810361051457506001600160601b0360a01b600554161760055580f35b7f5164d5c7193030abda56ab2da6b1ecfb83373a1a97075675ab8548ca2be633d91461053e575080f35b6001600160601b0360a01b600654161760065580f35b833461029d57602036600319011261029d576001600160a01b03610576610864565b82546001600160a01b031916911617815580f35b839034610112576020366003190112610112576001600160a01b036105ad610864565b82546001600160a01b031916911617905580f35b833461029d57602036600319011261029d576001600160a01b036105e3610864565b166001600160601b0360a01b600554161760055580f35b50503461011257816003193601126101125760035490516001600160a01b039091168152602090f35b50503461011257816003193601126101125760015490516001600160a01b039091168152602090f35b50503461011257816003193601126101125760055490516001600160a01b039091168152602090f35b82843461029d578060031936011261029d5781518181926007546106988161087f565b808552906001908181169081156107905750600114610736575b5050601f801994859203011682019482861067ffffffffffffffff871117610723575091849192828552602090818452845191828186015281955b83871061070b5750508394508582601f949501015201168101030190f35b868101820151898801890152958101958895506106ed565b634e487b7160e01b825260419052602490fd5b600784528392507fa66cc928b5edb82af9bd49922954155ab7b0942694bea4ce44661d9a8736c6885b82841061077557505050820160200186806106b2565b8054602085890181019190915287965090930192810161075f565b9150506020925060ff191682850152151560051b83010186806106b2565b833461029d57602036600319011261029d576001600160a01b036107d0610864565b166001600160601b0360a01b600254161760025580f35b82843461029d57602036600319011261029d5750610807602092356108b9565b90516001600160a01b039091168152f35b9050346102995782600319360112610299575490516001600160a01b03909116815260209150f35b84903461011257816003193601126101125790546001600160a01b03168152602090f35b600435906001600160a01b038216820361087a57565b600080fd5b90600182811c921680156108af575b602083101461089957565b634e487b7160e01b600052602260045260246000fd5b91607f169161088e565b7f5d5c2d2522b7f6ec8d1c86f44956b9ecd4376b1842cd263d54a5368aa149486d81036108f057506000546001600160a01b031690565b7f7ac30f54e4a5d88ecad45a0103446836c9967d1e8d22f2fbe70930162fb0624b810361092757506001546001600160a01b031690565b7fdd24a0f121e5ab7c3e97c63eaaf859e0b46792c3e0edfd86e2b3ad50f63011d8810361095e57506002546001600160a01b031690565b7fc287a3aa39c31ece62d3fa9ff394eec87eda2b6600ae0d39b3edebe7593fce72810361099557506003546001600160a01b031690565b7f7b712d922b13ad4caade18fe1173c3b60a52cf9139e1553859c706733397224481036109cc57506004546001600160a01b031690565b7f850bfd4b118fcb6d899cca9a9fb41471772c200f1c36c2493c98d3bc7a305d658103610a0357506005546001600160a01b031690565b7f5164d5c7193030abda56ab2da6b1ecfb83373a1a97075675ab8548ca2be633d914610a2e57600090565b6006546001600160a01b03169056fea2646970667358221220ad55eb80456c1e45f29293502e8fad162c8994233f81154aa67400a45007d09864736f6c63430008140033608080604052346100165761029e908161001c8239f35b600080fdfe608080604052600436101561001357600080fd5b600090813560e01c90816342b0b77c1461012c57508063573ade81146100f3578063617ba037146100c357806369328dec146100935763a415bcad1461005857600080fd5b346100905760a036600319011261009057610071610226565b5061007a610257565b506084356001600160a01b038116036100905780f35b80fd5b5034610090576060366003190112610090576100ad610226565b506100b6610241565b5060206040516024358152f35b5034610090576080366003190112610090576100dd610226565b506100e6610241565b506100ef610257565b5080f35b50346100905760803660031901126100905761010d610226565b506064356001600160a01b038116036100905760206040516024358152f35b9050346102225760a036600319011261022257610147610226565b6024356001600160a01b03818116939184900361021e5760443560643567ffffffffffffffff80821161021a573660238301121561021a57816004013590811161021a5736910160240111610216576084359061ffff8216809203610212576009810290808204600914811517156101fe57916127107fb15a931ea801b56bc8ac75fd70ac0319a2ff7f06dc7b6e9a59714167d8879ca394926080948752896020880152046040860152606085015233941692a480f35b634e487b7160e01b88526011600452602488fd5b8680fd5b8580fd5b8780fd5b8480fd5b5080fd5b600435906001600160a01b038216820361023c57565b600080fd5b604435906001600160a01b038216820361023c57565b6064359061ffff8216820361023c5756fea2646970667358221220b419bf4939bbee55011decd7ca3d74a51b607a781210585cce043dc528d4491264736f6c63430008140033","opcodes":"PUSH1 0x80 DUP1 PUSH1 0x40 MSTORE CALLVALUE PUSH2 0x139 JUMPI PUSH1 0x7 SLOAD PUSH1 0x1 SWAP1 DUP2 DUP2 DUP2 SHR SWAP2 AND DUP1 ISZERO PUSH2 0x12F JUMPI JUMPDEST PUSH1 0x20 DUP3 LT EQ PUSH2 0x119 JUMPI PUSH1 0x1F DUP2 GT PUSH2 0xD0 JUMPI JUMPDEST POP POP PUSH32 0x54657374204D61726B6574000000000000000000000000000000000000000016 PUSH1 0x7 SSTORE PUSH2 0x2BA DUP2 DUP2 ADD PUSH1 0x1 PUSH1 0x1 PUSH1 0x40 SHL SUB DUP2 GT DUP4 DUP3 LT OR PUSH2 0xBA JUMPI DUP3 SWAP2 PUSH2 0xBB2 DUP4 CODECOPY SUB SWAP1 PUSH1 0x0 CREATE DUP1 ISZERO PUSH2 0xAE JUMPI PUSH1 0x0 DUP1 SLOAD PUSH1 0x1 PUSH1 0x1 PUSH1 0xA0 SHL SUB NOT AND PUSH1 0x1 PUSH1 0x1 PUSH1 0xA0 SHL SUB SWAP3 SWAP1 SWAP3 AND SWAP2 SWAP1 SWAP2 OR SWAP1 SSTORE PUSH1 0x40 MLOAD PUSH2 0xA73 SWAP1 DUP2 PUSH2 0x13F DUP3 CODECOPY RETURN JUMPDEST PUSH1 0x40 MLOAD RETURNDATASIZE PUSH1 0x0 DUP3 RETURNDATACOPY RETURNDATASIZE SWAP1 REVERT JUMPDEST PUSH4 0x4E487B71 PUSH1 0xE0 SHL PUSH1 0x0 MSTORE PUSH1 0x41 PUSH1 0x4 MSTORE PUSH1 0x24 PUSH1 0x0 REVERT JUMPDEST PUSH1 0x7 PUSH1 0x0 MSTORE PUSH1 0x1F ADD PUSH1 0x5 SHR PUSH32 0xA66CC928B5EDB82AF9BD49922954155AB7B0942694BEA4CE44661D9A8736C688 SWAP1 DUP2 ADD SWAP1 JUMPDEST DUP2 DUP2 LT PUSH2 0x10E JUMPI POP PUSH2 0x2F JUMP JUMPDEST PUSH1 0x0 DUP2 SSTORE DUP3 ADD PUSH2 0x101 JUMP JUMPDEST PUSH4 0x4E487B71 PUSH1 0xE0 SHL PUSH1 0x0 MSTORE PUSH1 0x22 PUSH1 0x4 MSTORE PUSH1 0x24 PUSH1 0x0 REVERT JUMPDEST SWAP1 PUSH1 0x7F AND SWAP1 PUSH2 0x1D JUMP JUMPDEST PUSH1 0x0 DUP1 REVERT INVALID PUSH1 0x80 PUSH1 0x40 DUP2 DUP2 MSTORE PUSH1 0x4 SWAP2 DUP3 CALLDATASIZE LT ISZERO PUSH2 0x16 JUMPI PUSH1 0x0 DUP1 REVERT JUMPDEST PUSH1 0x0 SWAP3 DUP4 CALLDATALOAD PUSH1 0xE0 SHR SWAP2 DUP3 PUSH4 0x26B1D5F EQ PUSH2 0x840 JUMPI POP DUP2 PUSH4 0xE67178C EQ PUSH2 0x818 JUMPI DUP2 PUSH4 0x21F8A721 EQ PUSH2 0x7E7 JUMPI DUP2 PUSH4 0x530E784F EQ PUSH2 0x7AE JUMPI DUP2 PUSH4 0x568EF470 EQ PUSH2 0x675 JUMPI DUP2 PUSH4 0x5EB88D3D EQ PUSH2 0x64C JUMPI DUP2 PUSH4 0x631ADFCA EQ PUSH2 0x623 JUMPI DUP2 PUSH4 0x707CD716 EQ PUSH2 0x5FA JUMPI DUP2 PUSH4 0x74944CEC EQ PUSH2 0x5C1 JUMPI DUP2 PUSH4 0x76D84FFC EQ PUSH2 0x58A JUMPI DUP2 PUSH4 0xA1564406 EQ PUSH2 0x554 JUMPI DUP2 PUSH4 0xCA446DD9 EQ PUSH2 0x374 JUMPI DUP2 PUSH4 0xE44E9ED1 EQ PUSH2 0x33B JUMPI DUP2 PUSH4 0xE4CA28B7 EQ PUSH2 0x302 JUMPI DUP2 PUSH4 0xE860ACCB EQ PUSH2 0x2D9 JUMPI DUP2 PUSH4 0xED301CA9 EQ PUSH2 0x2A0 JUMPI DUP2 PUSH4 0xF67B1847 EQ PUSH2 0x116 JUMPI POP PUSH4 0xFCA513A8 EQ PUSH2 0xEB JUMPI PUSH1 0x0 DUP1 REVERT JUMPDEST CALLVALUE PUSH2 0x112 JUMPI DUP2 PUSH1 0x3 NOT CALLDATASIZE ADD SLT PUSH2 0x112 JUMPI PUSH1 0x2 SLOAD SWAP1 MLOAD PUSH1 0x1 PUSH1 0x1 PUSH1 0xA0 SHL SUB SWAP1 SWAP2 AND DUP2 MSTORE PUSH1 0x20 SWAP1 RETURN JUMPDEST POP DUP1 REVERT JUMPDEST DUP4 CALLVALUE PUSH2 0x29D JUMPI PUSH1 0x20 SWAP2 DUP3 PUSH1 0x3 NOT CALLDATASIZE ADD SLT PUSH2 0x112 JUMPI DUP1 CALLDATALOAD PUSH8 0xFFFFFFFFFFFFFFFF SWAP2 DUP3 DUP3 GT PUSH2 0x295 JUMPI CALLDATASIZE PUSH1 0x23 DUP4 ADD SLT ISZERO PUSH2 0x295 JUMPI DUP2 ADD CALLDATALOAD SWAP2 DUP3 GT PUSH2 0x299 JUMPI PUSH1 0x24 SWAP1 CALLDATASIZE DUP3 DUP5 DUP4 ADD ADD GT PUSH2 0x295 JUMPI PUSH2 0x16B PUSH1 0x7 SLOAD PUSH2 0x87F JUMP JUMPDEST PUSH1 0x1F DUP2 GT PUSH2 0x237 JUMPI JUMPDEST POP DUP4 SWAP5 PUSH1 0x1F DUP5 GT PUSH1 0x1 EQ PUSH2 0x1B4 JUMPI POP SWAP4 DUP4 SWAP5 DUP4 SWAP5 SWAP4 PUSH2 0x1A7 JUMPI JUMPDEST POP POP POP DUP2 PUSH1 0x1 SHL SWAP2 PUSH1 0x0 NOT SWAP1 PUSH1 0x3 SHL SHR NOT AND OR PUSH1 0x7 SSTORE DUP1 RETURN JUMPDEST ADD ADD CALLDATALOAD SWAP1 POP DUP4 DUP1 DUP1 PUSH2 0x18E JUMP JUMPDEST PUSH1 0x1F NOT DUP5 AND SWAP6 PUSH32 0xA66CC928B5EDB82AF9BD49922954155AB7B0942694BEA4CE44661D9A8736C688 SWAP4 SWAP2 DUP7 SWAP1 JUMPDEST DUP9 DUP3 LT PUSH2 0x21D JUMPI POP POP DUP5 PUSH1 0x1 SWAP7 SWAP8 LT PUSH2 0x201 JUMPI JUMPDEST POP POP POP POP DUP2 SHL ADD PUSH1 0x7 SSTORE DUP1 RETURN JUMPDEST PUSH1 0x0 NOT PUSH1 0xF8 DUP7 PUSH1 0x3 SHL AND SHR NOT SWAP3 ADD ADD CALLDATALOAD AND SWAP1 SSTORE DUP4 DUP1 DUP1 DUP1 PUSH2 0x1F4 JUMP JUMPDEST DUP1 PUSH1 0x1 DUP5 SWAP8 DUP7 DUP4 SWAP6 SWAP7 DUP10 ADD ADD CALLDATALOAD DUP2 SSTORE ADD SWAP7 ADD SWAP3 ADD SWAP1 PUSH2 0x1E0 JUMP JUMPDEST PUSH32 0xA66CC928B5EDB82AF9BD49922954155AB7B0942694BEA4CE44661D9A8736C688 PUSH1 0x1F DUP6 ADD PUSH1 0x5 SHR DUP2 ADD SWAP2 DUP8 DUP7 LT PUSH2 0x28B JUMPI JUMPDEST PUSH1 0x1F ADD PUSH1 0x5 SHR ADD SWAP1 JUMPDEST DUP2 DUP2 LT PUSH2 0x280 JUMPI POP PUSH2 0x174 JUMP JUMPDEST DUP6 DUP2 SSTORE PUSH1 0x1 ADD PUSH2 0x273 JUMP JUMPDEST SWAP1 SWAP2 POP DUP2 SWAP1 PUSH2 0x26A JUMP JUMPDEST DUP4 DUP1 REVERT JUMPDEST DUP3 DUP1 REVERT JUMPDEST DUP1 REVERT JUMPDEST DUP4 CALLVALUE PUSH2 0x29D JUMPI PUSH1 0x20 CALLDATASIZE PUSH1 0x3 NOT ADD SLT PUSH2 0x29D JUMPI PUSH1 0x1 PUSH1 0x1 PUSH1 0xA0 SHL SUB PUSH2 0x2C2 PUSH2 0x864 JUMP JUMPDEST AND PUSH1 0x1 PUSH1 0x1 PUSH1 0x60 SHL SUB PUSH1 0xA0 SHL PUSH1 0x3 SLOAD AND OR PUSH1 0x3 SSTORE DUP1 RETURN JUMPDEST POP POP CALLVALUE PUSH2 0x112 JUMPI DUP2 PUSH1 0x3 NOT CALLDATASIZE ADD SLT PUSH2 0x112 JUMPI PUSH1 0x6 SLOAD SWAP1 MLOAD PUSH1 0x1 PUSH1 0x1 PUSH1 0xA0 SHL SUB SWAP1 SWAP2 AND DUP2 MSTORE PUSH1 0x20 SWAP1 RETURN JUMPDEST DUP4 CALLVALUE PUSH2 0x29D JUMPI PUSH1 0x20 CALLDATASIZE PUSH1 0x3 NOT ADD SLT PUSH2 0x29D JUMPI PUSH1 0x1 PUSH1 0x1 PUSH1 0xA0 SHL SUB PUSH2 0x324 PUSH2 0x864 JUMP JUMPDEST AND PUSH1 0x1 PUSH1 0x1 PUSH1 0x60 SHL SUB PUSH1 0xA0 SHL PUSH1 0x1 SLOAD AND OR PUSH1 0x1 SSTORE DUP1 RETURN JUMPDEST DUP4 CALLVALUE PUSH2 0x29D JUMPI PUSH1 0x20 CALLDATASIZE PUSH1 0x3 NOT ADD SLT PUSH2 0x29D JUMPI PUSH1 0x1 PUSH1 0x1 PUSH1 0xA0 SHL SUB PUSH2 0x35D PUSH2 0x864 JUMP JUMPDEST AND PUSH1 0x1 PUSH1 0x1 PUSH1 0x60 SHL SUB PUSH1 0xA0 SHL PUSH1 0x6 SLOAD AND OR PUSH1 0x6 SSTORE DUP1 RETURN JUMPDEST SWAP2 SWAP1 POP CALLVALUE PUSH2 0x299 JUMPI CALLDATASIZE PUSH1 0x3 NOT ADD SLT PUSH2 0x112 JUMPI PUSH1 0x24 CALLDATALOAD PUSH1 0x1 PUSH1 0x1 PUSH1 0xA0 SHL SUB DUP2 AND SWAP1 DUP3 CALLDATALOAD SWAP1 DUP3 SWAP1 SUB PUSH2 0x295 JUMPI PUSH32 0x5D5C2D2522B7F6EC8D1C86F44956B9ECD4376B1842CD263D54A5368AA149486D DUP2 SUB PUSH2 0x3D9 JUMPI POP DUP3 SLOAD PUSH1 0x1 PUSH1 0x1 PUSH1 0xA0 SHL SUB NOT AND OR DUP3 SSTORE POP DUP1 RETURN JUMPDEST PUSH32 0x7AC30F54E4A5D88ECAD45A0103446836C9967D1E8D22F2FBE70930162FB0624B DUP2 SUB PUSH2 0x419 JUMPI POP SWAP1 POP PUSH1 0x1 PUSH1 0x1 PUSH1 0x60 SHL SUB PUSH1 0xA0 SHL PUSH1 0x1 SLOAD AND OR PUSH1 0x1 SSTORE DUP1 RETURN JUMPDEST PUSH32 0xDD24A0F121E5AB7C3E97C63EAAF859E0B46792C3E0EDFD86E2B3AD50F63011D8 DUP2 SUB PUSH2 0x459 JUMPI POP SWAP1 POP PUSH1 0x1 PUSH1 0x1 PUSH1 0x60 SHL SUB PUSH1 0xA0 SHL PUSH1 0x2 SLOAD AND OR PUSH1 0x2 SSTORE DUP1 RETURN JUMPDEST PUSH32 0xC287A3AA39C31ECE62D3FA9FF394EEC87EDA2B6600AE0D39B3EDEBE7593FCE72 DUP2 SUB PUSH2 0x499 JUMPI POP SWAP1 POP PUSH1 0x1 PUSH1 0x1 PUSH1 0x60 SHL SUB PUSH1 0xA0 SHL PUSH1 0x3 SLOAD AND OR PUSH1 0x3 SSTORE DUP1 RETURN JUMPDEST PUSH32 0x7B712D922B13AD4CAADE18FE1173C3B60A52CF9139E1553859C7067333972244 DUP2 SUB PUSH2 0x4D3 JUMPI POP DUP2 SLOAD PUSH1 0x1 PUSH1 0x1 PUSH1 0xA0 SHL SUB NOT AND OR SWAP1 SSTORE DUP1 RETURN JUMPDEST SWAP1 SWAP2 POP PUSH32 0x850BFD4B118FCB6D899CCA9A9FB41471772C200F1C36C2493C98D3BC7A305D65 DUP2 SUB PUSH2 0x514 JUMPI POP PUSH1 0x1 PUSH1 0x1 PUSH1 0x60 SHL SUB PUSH1 0xA0 SHL PUSH1 0x5 SLOAD AND OR PUSH1 0x5 SSTORE DUP1 RETURN JUMPDEST PUSH32 0x5164D5C7193030ABDA56AB2DA6B1ECFB83373A1A97075675AB8548CA2BE633D9 EQ PUSH2 0x53E JUMPI POP DUP1 RETURN JUMPDEST PUSH1 0x1 PUSH1 0x1 PUSH1 0x60 SHL SUB PUSH1 0xA0 SHL PUSH1 0x6 SLOAD AND OR PUSH1 0x6 SSTORE DUP1 RETURN JUMPDEST DUP4 CALLVALUE PUSH2 0x29D JUMPI PUSH1 0x20 CALLDATASIZE PUSH1 0x3 NOT ADD SLT PUSH2 0x29D JUMPI PUSH1 0x1 PUSH1 0x1 PUSH1 0xA0 SHL SUB PUSH2 0x576 PUSH2 0x864 JUMP JUMPDEST DUP3 SLOAD PUSH1 0x1 PUSH1 0x1 PUSH1 0xA0 SHL SUB NOT AND SWAP2 AND OR DUP2 SSTORE DUP1 RETURN JUMPDEST DUP4 SWAP1 CALLVALUE PUSH2 0x112 JUMPI PUSH1 0x20 CALLDATASIZE PUSH1 0x3 NOT ADD SLT PUSH2 0x112 JUMPI PUSH1 0x1 PUSH1 0x1 PUSH1 0xA0 SHL SUB PUSH2 0x5AD PUSH2 0x864 JUMP JUMPDEST DUP3 SLOAD PUSH1 0x1 PUSH1 0x1 PUSH1 0xA0 SHL SUB NOT AND SWAP2 AND OR SWAP1 SSTORE DUP1 RETURN JUMPDEST DUP4 CALLVALUE PUSH2 0x29D JUMPI PUSH1 0x20 CALLDATASIZE PUSH1 0x3 NOT ADD SLT PUSH2 0x29D JUMPI PUSH1 0x1 PUSH1 0x1 PUSH1 0xA0 SHL SUB PUSH2 0x5E3 PUSH2 0x864 JUMP JUMPDEST AND PUSH1 0x1 PUSH1 0x1 PUSH1 0x60 SHL SUB PUSH1 0xA0 SHL PUSH1 0x5 SLOAD AND OR PUSH1 0x5 SSTORE DUP1 RETURN JUMPDEST POP POP CALLVALUE PUSH2 0x112 JUMPI DUP2 PUSH1 0x3 NOT CALLDATASIZE ADD SLT PUSH2 0x112 JUMPI PUSH1 0x3 SLOAD SWAP1 MLOAD PUSH1 0x1 PUSH1 0x1 PUSH1 0xA0 SHL SUB SWAP1 SWAP2 AND DUP2 MSTORE PUSH1 0x20 SWAP1 RETURN JUMPDEST POP POP CALLVALUE PUSH2 0x112 JUMPI DUP2 PUSH1 0x3 NOT CALLDATASIZE ADD SLT PUSH2 0x112 JUMPI PUSH1 0x1 SLOAD SWAP1 MLOAD PUSH1 0x1 PUSH1 0x1 PUSH1 0xA0 SHL SUB SWAP1 SWAP2 AND DUP2 MSTORE PUSH1 0x20 SWAP1 RETURN JUMPDEST POP POP CALLVALUE PUSH2 0x112 JUMPI DUP2 PUSH1 0x3 NOT CALLDATASIZE ADD SLT PUSH2 0x112 JUMPI PUSH1 0x5 SLOAD SWAP1 MLOAD PUSH1 0x1 PUSH1 0x1 PUSH1 0xA0 SHL SUB SWAP1 SWAP2 AND DUP2 MSTORE PUSH1 0x20 SWAP1 RETURN JUMPDEST DUP3 DUP5 CALLVALUE PUSH2 0x29D JUMPI DUP1 PUSH1 0x3 NOT CALLDATASIZE ADD SLT PUSH2 0x29D JUMPI DUP2 MLOAD DUP2 DUP2 SWAP3 PUSH1 0x7 SLOAD PUSH2 0x698 DUP2 PUSH2 0x87F JUMP JUMPDEST DUP1 DUP6 MSTORE SWAP1 PUSH1 0x1 SWAP1 DUP2 DUP2 AND SWAP1 DUP2 ISZERO PUSH2 0x790 JUMPI POP PUSH1 0x1 EQ PUSH2 0x736 JUMPI JUMPDEST POP POP PUSH1 0x1F DUP1 NOT SWAP5 DUP6 SWAP3 SUB ADD AND DUP3 ADD SWAP5 DUP3 DUP7 LT PUSH8 0xFFFFFFFFFFFFFFFF DUP8 GT OR PUSH2 0x723 JUMPI POP SWAP2 DUP5 SWAP2 SWAP3 DUP3 DUP6 MSTORE PUSH1 0x20 SWAP1 DUP2 DUP5 MSTORE DUP5 MLOAD SWAP2 DUP3 DUP2 DUP7 ADD MSTORE DUP2 SWAP6 JUMPDEST DUP4 DUP8 LT PUSH2 0x70B JUMPI POP POP DUP4 SWAP5 POP DUP6 DUP3 PUSH1 0x1F SWAP5 SWAP6 ADD ADD MSTORE ADD AND DUP2 ADD SUB ADD SWAP1 RETURN JUMPDEST DUP7 DUP2 ADD DUP3 ADD MLOAD DUP10 DUP9 ADD DUP10 ADD MSTORE SWAP6 DUP2 ADD SWAP6 DUP9 SWAP6 POP PUSH2 0x6ED JUMP JUMPDEST PUSH4 0x4E487B71 PUSH1 0xE0 SHL DUP3 MSTORE PUSH1 0x41 SWAP1 MSTORE PUSH1 0x24 SWAP1 REVERT JUMPDEST PUSH1 0x7 DUP5 MSTORE DUP4 SWAP3 POP PUSH32 0xA66CC928B5EDB82AF9BD49922954155AB7B0942694BEA4CE44661D9A8736C688 JUMPDEST DUP3 DUP5 LT PUSH2 0x775 JUMPI POP POP POP DUP3 ADD PUSH1 0x20 ADD DUP7 DUP1 PUSH2 0x6B2 JUMP JUMPDEST DUP1 SLOAD PUSH1 0x20 DUP6 DUP10 ADD DUP2 ADD SWAP2 SWAP1 SWAP2 MSTORE DUP8 SWAP7 POP SWAP1 SWAP4 ADD SWAP3 DUP2 ADD PUSH2 0x75F JUMP JUMPDEST SWAP2 POP POP PUSH1 0x20 SWAP3 POP PUSH1 0xFF NOT AND DUP3 DUP6 ADD MSTORE ISZERO ISZERO PUSH1 0x5 SHL DUP4 ADD ADD DUP7 DUP1 PUSH2 0x6B2 JUMP JUMPDEST DUP4 CALLVALUE PUSH2 0x29D JUMPI PUSH1 0x20 CALLDATASIZE PUSH1 0x3 NOT ADD SLT PUSH2 0x29D JUMPI PUSH1 0x1 PUSH1 0x1 PUSH1 0xA0 SHL SUB PUSH2 0x7D0 PUSH2 0x864 JUMP JUMPDEST AND PUSH1 0x1 PUSH1 0x1 PUSH1 0x60 SHL SUB PUSH1 0xA0 SHL PUSH1 0x2 SLOAD AND OR PUSH1 0x2 SSTORE DUP1 RETURN JUMPDEST DUP3 DUP5 CALLVALUE PUSH2 0x29D JUMPI PUSH1 0x20 CALLDATASIZE PUSH1 0x3 NOT ADD SLT PUSH2 0x29D JUMPI POP PUSH2 0x807 PUSH1 0x20 SWAP3 CALLDATALOAD PUSH2 0x8B9 JUMP JUMPDEST SWAP1 MLOAD PUSH1 0x1 PUSH1 0x1 PUSH1 0xA0 SHL SUB SWAP1 SWAP2 AND DUP2 MSTORE RETURN JUMPDEST SWAP1 POP CALLVALUE PUSH2 0x299 JUMPI DUP3 PUSH1 0x3 NOT CALLDATASIZE ADD SLT PUSH2 0x299 JUMPI SLOAD SWAP1 MLOAD PUSH1 0x1 PUSH1 0x1 PUSH1 0xA0 SHL SUB SWAP1 SWAP2 AND DUP2 MSTORE PUSH1 0x20 SWAP2 POP RETURN JUMPDEST DUP5 SWAP1 CALLVALUE PUSH2 0x112 JUMPI DUP2 PUSH1 0x3 NOT CALLDATASIZE ADD SLT PUSH2 0x112 JUMPI SWAP1 SLOAD PUSH1 0x1 PUSH1 0x1 PUSH1 0xA0 SHL SUB AND DUP2 MSTORE PUSH1 0x20 SWAP1 RETURN JUMPDEST PUSH1 0x4 CALLDATALOAD SWAP1 PUSH1 0x1 PUSH1 0x1 PUSH1 0xA0 SHL SUB DUP3 AND DUP3 SUB PUSH2 0x87A JUMPI JUMP JUMPDEST PUSH1 0x0 DUP1 REVERT JUMPDEST SWAP1 PUSH1 0x1 DUP3 DUP2 SHR SWAP3 AND DUP1 ISZERO PUSH2 0x8AF JUMPI JUMPDEST PUSH1 0x20 DUP4 LT EQ PUSH2 0x899 JUMPI JUMP JUMPDEST PUSH4 0x4E487B71 PUSH1 0xE0 SHL PUSH1 0x0 MSTORE PUSH1 0x22 PUSH1 0x4 MSTORE PUSH1 0x24 PUSH1 0x0 REVERT JUMPDEST SWAP2 PUSH1 0x7F AND SWAP2 PUSH2 0x88E JUMP JUMPDEST PUSH32 0x5D5C2D2522B7F6EC8D1C86F44956B9ECD4376B1842CD263D54A5368AA149486D DUP2 SUB PUSH2 0x8F0 JUMPI POP PUSH1 0x0 SLOAD PUSH1 0x1 PUSH1 0x1 PUSH1 0xA0 SHL SUB AND SWAP1 JUMP JUMPDEST PUSH32 0x7AC30F54E4A5D88ECAD45A0103446836C9967D1E8D22F2FBE70930162FB0624B DUP2 SUB PUSH2 0x927 JUMPI POP PUSH1 0x1 SLOAD PUSH1 0x1 PUSH1 0x1 PUSH1 0xA0 SHL SUB AND SWAP1 JUMP JUMPDEST PUSH32 0xDD24A0F121E5AB7C3E97C63EAAF859E0B46792C3E0EDFD86E2B3AD50F63011D8 DUP2 SUB PUSH2 0x95E JUMPI POP PUSH1 0x2 SLOAD PUSH1 0x1 PUSH1 0x1 PUSH1 0xA0 SHL SUB AND SWAP1 JUMP JUMPDEST PUSH32 0xC287A3AA39C31ECE62D3FA9FF394EEC87EDA2B6600AE0D39B3EDEBE7593FCE72 DUP2 SUB PUSH2 0x995 JUMPI POP PUSH1 0x3 SLOAD PUSH1 0x1 PUSH1 0x1 PUSH1 0xA0 SHL SUB AND SWAP1 JUMP JUMPDEST PUSH32 0x7B712D922B13AD4CAADE18FE1173C3B60A52CF9139E1553859C7067333972244 DUP2 SUB PUSH2 0x9CC JUMPI POP PUSH1 0x4 SLOAD PUSH1 0x1 PUSH1 0x1 PUSH1 0xA0 SHL SUB AND SWAP1 JUMP JUMPDEST PUSH32 0x850BFD4B118FCB6D899CCA9A9FB41471772C200F1C36C2493C98D3BC7A305D65 DUP2 SUB PUSH2 0xA03 JUMPI POP PUSH1 0x5 SLOAD PUSH1 0x1 PUSH1 0x1 PUSH1 0xA0 SHL SUB AND SWAP1 JUMP JUMPDEST PUSH32 0x5164D5C7193030ABDA56AB2DA6B1ECFB83373A1A97075675AB8548CA2BE633D9 EQ PUSH2 0xA2E JUMPI PUSH1 0x0 SWAP1 JUMP JUMPDEST PUSH1 0x6 SLOAD PUSH1 0x1 PUSH1 0x1 PUSH1 0xA0 SHL SUB AND SWAP1 JUMP INVALID LOG2 PUSH5 0x6970667358 0x22 SLT KECCAK256 0xAD SSTORE 0xEB DUP1 GASLIMIT PUSH13 0x1E45F29293502E8FAD162C8994 0x23 EXTCODEHASH DUP2 ISZERO 0x4A 0xA6 PUSH21 0xA45007D09864736F6C6343000814003360808060 BLOCKHASH MSTORE CALLVALUE PUSH2 0x16 JUMPI PUSH2 0x29E SWAP1 DUP2 PUSH2 0x1C DUP3 CODECOPY RETURN JUMPDEST PUSH1 0x0 DUP1 REVERT INVALID PUSH1 0x80 DUP1 PUSH1 0x40 MSTORE PUSH1 0x4 CALLDATASIZE LT ISZERO PUSH2 0x13 JUMPI PUSH1 0x0 DUP1 REVERT JUMPDEST PUSH1 0x0 SWAP1 DUP2 CALLDATALOAD PUSH1 0xE0 SHR SWAP1 DUP2 PUSH4 0x42B0B77C EQ PUSH2 0x12C JUMPI POP DUP1 PUSH4 0x573ADE81 EQ PUSH2 0xF3 JUMPI DUP1 PUSH4 0x617BA037 EQ PUSH2 0xC3 JUMPI DUP1 PUSH4 0x69328DEC EQ PUSH2 0x93 JUMPI PUSH4 0xA415BCAD EQ PUSH2 0x58 JUMPI PUSH1 0x0 DUP1 REVERT JUMPDEST CALLVALUE PUSH2 0x90 JUMPI PUSH1 0xA0 CALLDATASIZE PUSH1 0x3 NOT ADD SLT PUSH2 0x90 JUMPI PUSH2 0x71 PUSH2 0x226 JUMP JUMPDEST POP PUSH2 0x7A PUSH2 0x257 JUMP JUMPDEST POP PUSH1 0x84 CALLDATALOAD PUSH1 0x1 PUSH1 0x1 PUSH1 0xA0 SHL SUB DUP2 AND SUB PUSH2 0x90 JUMPI DUP1 RETURN JUMPDEST DUP1 REVERT JUMPDEST POP CALLVALUE PUSH2 0x90 JUMPI PUSH1 0x60 CALLDATASIZE PUSH1 0x3 NOT ADD SLT PUSH2 0x90 JUMPI PUSH2 0xAD PUSH2 0x226 JUMP JUMPDEST POP PUSH2 0xB6 PUSH2 0x241 JUMP JUMPDEST POP PUSH1 0x20 PUSH1 0x40 MLOAD PUSH1 0x24 CALLDATALOAD DUP2 MSTORE RETURN JUMPDEST POP CALLVALUE PUSH2 0x90 JUMPI PUSH1 0x80 CALLDATASIZE PUSH1 0x3 NOT ADD SLT PUSH2 0x90 JUMPI PUSH2 0xDD PUSH2 0x226 JUMP JUMPDEST POP PUSH2 0xE6 PUSH2 0x241 JUMP JUMPDEST POP PUSH2 0xEF PUSH2 0x257 JUMP JUMPDEST POP DUP1 RETURN JUMPDEST POP CALLVALUE PUSH2 0x90 JUMPI PUSH1 0x80 CALLDATASIZE PUSH1 0x3 NOT ADD SLT PUSH2 0x90 JUMPI PUSH2 0x10D PUSH2 0x226 JUMP JUMPDEST POP PUSH1 0x64 CALLDATALOAD PUSH1 0x1 PUSH1 0x1 PUSH1 0xA0 SHL SUB DUP2 AND SUB PUSH2 0x90 JUMPI PUSH1 0x20 PUSH1 0x40 MLOAD PUSH1 0x24 CALLDATALOAD DUP2 MSTORE RETURN JUMPDEST SWAP1 POP CALLVALUE PUSH2 0x222 JUMPI PUSH1 0xA0 CALLDATASIZE PUSH1 0x3 NOT ADD SLT PUSH2 0x222 JUMPI PUSH2 0x147 PUSH2 0x226 JUMP JUMPDEST PUSH1 0x24 CALLDATALOAD PUSH1 0x1 PUSH1 0x1 PUSH1 0xA0 SHL SUB DUP2 DUP2 AND SWAP4 SWAP2 DUP5 SWAP1 SUB PUSH2 0x21E JUMPI PUSH1 0x44 CALLDATALOAD PUSH1 0x64 CALLDATALOAD PUSH8 0xFFFFFFFFFFFFFFFF DUP1 DUP3 GT PUSH2 0x21A JUMPI CALLDATASIZE PUSH1 0x23 DUP4 ADD SLT ISZERO PUSH2 0x21A JUMPI DUP2 PUSH1 0x4 ADD CALLDATALOAD SWAP1 DUP2 GT PUSH2 0x21A JUMPI CALLDATASIZE SWAP2 ADD PUSH1 0x24 ADD GT PUSH2 0x216 JUMPI PUSH1 0x84 CALLDATALOAD SWAP1 PUSH2 0xFFFF DUP3 AND DUP1 SWAP3 SUB PUSH2 0x212 JUMPI PUSH1 0x9 DUP2 MUL SWAP1 DUP1 DUP3 DIV PUSH1 0x9 EQ DUP2 ISZERO OR ISZERO PUSH2 0x1FE JUMPI SWAP2 PUSH2 0x2710 PUSH32 0xB15A931EA801B56BC8AC75FD70AC0319A2FF7F06DC7B6E9A59714167D8879CA3 SWAP5 SWAP3 PUSH1 0x80 SWAP5 DUP8 MSTORE DUP10 PUSH1 0x20 DUP9 ADD MSTORE DIV PUSH1 0x40 DUP7 ADD MSTORE PUSH1 0x60 DUP6 ADD MSTORE CALLER SWAP5 AND SWAP3 LOG4 DUP1 RETURN JUMPDEST PUSH4 0x4E487B71 PUSH1 0xE0 SHL DUP9 MSTORE PUSH1 0x11 PUSH1 0x4 MSTORE PUSH1 0x24 DUP9 REVERT JUMPDEST DUP7 DUP1 REVERT JUMPDEST DUP6 DUP1 REVERT JUMPDEST DUP8 DUP1 REVERT JUMPDEST DUP5 DUP1 REVERT JUMPDEST POP DUP1 REVERT JUMPDEST PUSH1 0x4 CALLDATALOAD SWAP1 PUSH1 0x1 PUSH1 0x1 PUSH1 0xA0 SHL SUB DUP3 AND DUP3 SUB PUSH2 0x23C JUMPI JUMP JUMPDEST PUSH1 0x0 DUP1 REVERT JUMPDEST PUSH1 0x44 CALLDATALOAD SWAP1 PUSH1 0x1 PUSH1 0x1 PUSH1 0xA0 SHL SUB DUP3 AND DUP3 SUB PUSH2 0x23C JUMPI JUMP JUMPDEST PUSH1 0x64 CALLDATALOAD SWAP1 PUSH2 0xFFFF DUP3 AND DUP3 SUB PUSH2 0x23C JUMPI JUMP INVALID LOG2 PUSH5 0x6970667358 0x22 SLT KECCAK256 0xB4 NOT 0xBF 0x49 CODECOPY 0xBB 0xEE SSTORE ADD SAR 0xEC 0xD7 0xCA RETURNDATASIZE PUSH21 0xA51B607A781210585CCE043DC528D4491264736F6C PUSH4 0x43000814 STOP CALLER "},"gasEstimates":{"creation":{"codeDepositCost":"535000","executionCost":"infinite","totalCost":"infinite"},"external":{"getACLAdmin()":"2323","getACLManager()":"2455","getAddress(bytes32)":"2555","getMarketId()":"infinite","getPool()":"2289","getPoolConfigurator()":"2433","getPoolDataProvider()":"2609","getPriceOracle()":"2670","getPriceOracleSentinel()":"2411","setACLAdmin(address)":"24677","setACLManager(address)":"24806","setAddress(bytes32,address)":"24856","setMarketId(string)":"infinite","setPoolConfiguratorImpl(address)":"24762","setPoolDataProvider(address)":"24740","setPoolImpl(address)":"24696","setPriceOracle(address)":"24542","setPriceOracleSentinel(address)":"24652"}},"methodIdentifiers":{"getACLAdmin()":"0e67178c","getACLManager()":"707cd716","getAddress(bytes32)":"21f8a721","getMarketId()":"568ef470","getPool()":"026b1d5f","getPoolConfigurator()":"631adfca","getPoolDataProvider()":"e860accb","getPriceOracle()":"fca513a8","getPriceOracleSentinel()":"5eb88d3d","setACLAdmin(address)":"76d84ffc","setACLManager(address)":"ed301ca9","setAddress(bytes32,address)":"ca446dd9","setMarketId(string)":"f67b1847","setPoolConfiguratorImpl(address)":"e4ca28b7","setPoolDataProvider(address)":"e44e9ed1","setPoolImpl(address)":"a1564406","setPriceOracle(address)":"530e784f","setPriceOracleSentinel(address)":"74944cec"}},"storageLayout":{"storage":[{"astId":116,"contract":"backend/contracts/MockPoolAddressesProvider.sol:MockPoolAddressesProvider","label":"_pool","offset":0,"slot":"0","type":"t_address"},{"astId":118,"contract":"backend/contracts/MockPoolAddressesProvider.sol:MockPoolAddressesProvider","label":"_poolConfigurator","offset":0,"slot":"1","type":"t_address"},{"astId":120,"contract":"backend/contracts/MockPoolAddressesProvider.sol:MockPoolAddressesProvider","label":"_priceOracle","offset":0,"slot":"2","type":"t_address"},{"astId":122,"contract":"backend/contracts/MockPoolAddressesProvider.sol:MockPoolAddressesProvider","label":"_aclManager","offset":0,"slot":"3","type":"t_address"},{"astId":124,"contract":"backend/contracts/MockPoolAddressesProvider.sol:MockPoolAddressesProvider","label":"_aclAdmin","offset":0,"slot":"4","type":"t_address"},{"astId":126,"contract":"backend/contracts/MockPoolAddressesProvider.sol:MockPoolAddressesProvider","label":"_priceOracleSentinel","offset":0,"slot":"5","type":"t_address"},{"astId":128,"contract":"backend/contracts/MockPoolAddressesProvider.sol:MockPoolAddressesProvider","label":"_dataProvider","offset":0,"slot":"6","type":"t_address"},{"astId":130,"contract":"backend/contracts/MockPoolAddressesProvider.sol:MockPoolAddressesProvider","label":"_marketId","offset":0,"slot":"7","type":"t_string_storage"}],"types":{"t_address":{"encoding":"inplace","label":"address","numberOfBytes":"20"},"t_string_storage":{"encoding":"bytes","label":"string","numberOfBytes":"32"}}},"userdoc":{"kind":"user","methods":{},"version":1}}}}