{"backend/contracts/MockPoolAddressesProvider.sol":{"MockPool":{"abi":[{"anonymous":false,"inputs":[{"indexed":true,"internalType":"address","name":"target","type":"address"},{"indexed":true,"internalType":"address","name":"initiator","type":"address"},{"indexed":true,"internalType":"address","name":"asset","type":"address"},{"indexed":false,"internalType":"uint256","name":"amount","type":"uint256"},{"indexed":false,"internalType":"uint256","name":"interestRateMode","type":"uint256"},{"indexed":false,"internalType":"uint256","name":"premium","type":"uint256"},{"indexed":false,"internalType":"uint16","name":"referralCode","type":"uint16"}],"name":"FlashLoan","type":"event"},{"inputs":[{"internalType":"address","name":"asset","type":"address"},{"internalType":"uint256","name":"amount","type":"uint256"},{"internalType":"uint256","name":"interestRateMode","type":"uint256"},{"internalType":"uint16","name":"referralCode","type":"uint16"},{"internalType":"address","name":"onBehalfOf","type":"address"}],"name":"borrow","outputs":[],"stateMutability":"nonpayable","type":"function"},{"inputs":[{"internalType":"address","name":"receiverAddress","type":"address"},{"internalType":"address","name":"asset","type":"address"},{"internalType":"uint256","name":"amount","type":"uint256"},{"internalType":"bytes","name":"params","type":"bytes"},{"internalType":"uint16","name":"referralCode","type":"uint16"}],"name":"flashLoanSimple","outputs":[],"stateMutability":"nonpayable","type":"function"},{"inputs":[{"internalType":"address","name":"asset","type":"address"},{"internalType":"uint256","name":"amount","type":"uint256"},{"internalType":"uint256","name":"interestRateMode","type":"uint256"},{"internalType":"address","name":"onBehalfOf","type":"address"}],"name":"repay","outputs":[{"internalType":"uint256","name":"","type":"uint256"}],"stateMutability":"nonpayable","type":"function"},{"inputs":[{"internalType":"address","name":"asset","type":"address"},{"internalType":"uint256","name":"amount","type":"uint256"},{"internalType":"address","name":"onBehalfOf","type":"address"},{"internalType":"uint16","name":"referralCode","type":"uint16"}],"name":"supply","outputs":[],"stateMutability":"nonpayable","type":"function"},{"inputs":[{"internalType":"address","name":"asset","type":"address"},{"internalType":"uint256","name":"amount","type":"uint256"},{"internalType":"address","name":"to","type":"address"}],"name":"withdraw","outputs":[{"internalType":"uint256","name":"","type":"uint256"}],"stateMutability":"nonpayable","type":"function"}],"devdoc":{"details":"Mock implementation of AAVE's IPool for testing flash loans","kind":"dev","methods":{},"title":"MockPool","version":1},"evm":{"bytecode":{"linkReferences":{},"object":"608080604052346100165761029e908161001c8239f35b600080fdfe608080604052600436101561001357600080fd5b600090813560e01c90816342b0b77c1461012c57508063573ade81146100f3578063617ba037146100c357806369328dec146100935763a415bcad1461005857600080fd5b346100905760a036600319011261009057610071610226565b5061007a610257565b506084356001600160a01b038116036100905780f35b80fd5b5034610090576060366003190112610090576100ad610226565b506100b6610241565b5060206040516024358152f35b5034610090576080366003190112610090576100dd610226565b506100e6610241565b506100ef610257565b5080f35b50346100905760803660031901126100905761010d610226565b506064356001600160a01b038116036100905760206040516024358152f35b9050346102225760a036600319011261022257610147610226565b6024356001600160a01b03818116939184900361021e5760443560643567ffffffffffffffff80821161021a573660238301121561021a57816004013590811161021a5736910160240111610216576084359061ffff8216809203610212576009810290808204600914811517156101fe57916127107fb15a931ea801b56bc8ac75fd70ac0319a2ff7f06dc7b6e9a59714167d8879ca394926080948752896020880152046040860152606085015233941692a480f35b634e487b7160e01b88526011600452602488fd5b8680fd5b8580fd5b8780fd5b8480fd5b5080fd5b600435906001600160a01b038216820361023c57565b600080fd5b604435906001600160a01b038216820361023c57565b6064359061ffff8216820361023c5756fea2646970667358221220b419bf4939bbee55011decd7ca3d74a51b607a781210585cce043dc528d4491264736f6c63430008140033","opcodes":"PUSH1 0x80 DUP1 PUSH1 0x40 MSTORE CALLVALUE PUSH2 0x16 JUMPI PUSH2 0x29E SWAP1 DUP2 PUSH2 0x1C DUP3 CODECOPY RETURN JUMPDEST PUSH1 0x0 DUP1 REVERT INVALID PUSH1 0x80 DUP1 PUSH1 0x40 MSTORE PUSH1 0x4 CALLDATASIZE LT ISZERO PUSH2 0x13 JUMPI PUSH1 0x0 DUP1 REVERT JUMPDEST PUSH1 0x0 SWAP1 DUP2 CALLDATALOAD PUSH1 0xE0 SHR SWAP1 DUP2 PUSH4 0x42B0B77C EQ PUSH2 0x12C JUMPI POP DUP1 PUSH4 0x573ADE81 EQ PUSH2 0xF3 JUMPI DUP1 PUSH4 0x617BA037 EQ PUSH2 0xC3 JUMPI DUP1 PUSH4 0x69328DEC EQ PUSH2 0x93 JUMPI PUSH4 0xA415BCAD EQ PUSH2 0x58 JUMPI PUSH1 0x0 DUP1 REVERT JUMPDEST CALLVALUE PUSH2 0x90 JUMPI PUSH1 0xA0 CALLDATASIZE PUSH1 0x3 NOT ADD SLT PUSH2 0x90 JUMPI PUSH2 0x71 PUSH2 0x226 JUMP JUMPDEST POP PUSH2 0x7A PUSH2 0x257 JUMP JUMPDEST POP PUSH1 0x84 CALLDATALOAD PUSH1 0x1 PUSH1 0x1 PUSH1 0xA0 SHL SUB DUP2 AND SUB PUSH2 0x90 JUMPI DUP1 RETURN JUMPDEST DUP1 REVERT JUMPDEST POP CALLVALUE PUSH2 0x90 JUMPI PUSH1 0x60 CALLDATASIZE PUSH1 0x3 NOT ADD SLT PUSH2 0x90 JUMPI PUSH2 0xAD PUSH2 0x226 JUMP JUMPDEST POP PUSH2 0xB6 PUSH2 0x241 JUMP JUMPDEST POP PUSH1 0x20 PUSH1 0x40 MLOAD PUSH1 0x24 CALLDATALOAD DUP2 MSTORE RETURN JUMPDEST POP CALLVALUE PUSH2 0x90 JUMPI PUSH1 0x80 CALLDATASIZE PUSH1 0x3 NOT ADD SLT PUSH2 0x90 JUMPI PUSH2 0xDD PUSH2 0x226 JUMP JUMPDEST POP PUSH2 0xE6 PUSH2 0x241 JUMP JUMPDEST POP PUSH2 0xEF PUSH2 0x257 JUMP JUMPDEST POP DUP1 RETURN JUMPDEST POP CALLVALUE PUSH2 0x90 JUMPI PUSH1 0x80 CALLDATASIZE PUSH1 0x3 NOT ADD SLT PUSH2 0x90 JUMPI PUSH2 0x10D PUSH2 0x226 JUMP JUMPDEST POP PUSH1 0x64 CALLDATALOAD PUSH1 0x1 PUSH1 0x1 PUSH1 0xA0 SHL SUB DUP2 AND SUB PUSH2 0x90 JUMPI PUSH1 0x20 PUSH1 0x40 MLOAD PUSH1 0x24 CALLDATALOAD DUP2 MSTORE RETURN JUMPDEST SWAP1 POP CALLVALUE PUSH2 0x222 JUMPI PUSH1 0xA0 CALLDATASIZE PUSH1 0x3 NOT ADD SLT PUSH2 0x222 JUMPI PUSH2 0x147 PUSH2 0x226 JUMP JUMPDEST PUSH1 0x24 CALLDATALOAD PUSH1 0x1 PUSH1 0x1 PUSH1 0xA0 SHL SUB DUP2 DUP2 AND SWAP4 SWAP2 DUP5 SWAP1 SUB PUSH2 0x21E JUMPI PUSH1 0x44 CALLDATALOAD PUSH1 0x64 CALLDATALOAD PUSH8 0xFFFFFFFFFFFFFFFF DUP1 DUP3 GT PUSH2 0x21A JUMPI CALLDATASIZE PUSH1 0x23 DUP4 ADD SLT ISZERO PUSH2 0x21A JUMPI DUP2 PUSH1 0x4 ADD CALLDATALOAD SWAP1 DUP2 GT PUSH2 0x21A JUMPI CALLDATASIZE SWAP2 ADD PUSH1 0x24 ADD GT PUSH2 0x216 JUMPI PUSH1 0x84 CALLDATALOAD SWAP1 PUSH2 0xFFFF DUP3 AND DUP1 SWAP3 SUB PUSH2 0x212 JUMPI PUSH1 0x9 DUP2 MUL SWAP1 DUP1 DUP3 DIV PUSH1 0x9 EQ DUP2 ISZERO OR ISZERO PUSH2 0x1FE JUMPI SWAP2 PUSH2 0x2710 PUSH32 0xB15A931EA801B56BC8AC75FD70AC0319A2FF7F06DC7B6E9A59714167D8879CA3 SWAP5 SWAP3 PUSH1 0x80 SWAP5 DUP8 MSTORE DUP10 PUSH1 0x20 DUP9 ADD MSTORE DIV PUSH1 0x40 DUP7 ADD MSTORE PUSH1 0x60 DUP6 ADD MSTORE CALLER SWAP5 AND SWAP3 LOG4 DUP1 RETURN JUMPDEST PUSH4 0x4E487B71 PUSH1 0xE0 SHL DUP9 MSTORE PUSH1 0x11 PUSH1 0x4 MSTORE PUSH1 0x24 DUP9 REVERT JUMPDEST DUP7 DUP1 REVERT JUMPDEST DUP6 DUP1 REVERT JUMPDEST DUP8 DUP1 REVERT JUMPDEST DUP5 DUP1 REVERT JUMPDEST POP DUP1 REVERT JUMPDEST PUSH1 0x4 CALLDATALOAD SWAP1 PUSH1 0x1 PUSH1 0x1 PUSH1 0xA0 SHL SUB DUP3 AND DUP3 SUB PUSH2 0x23C JUMPI JUMP JUMPDEST PUSH1 0x0 DUP1 REVERT JUMPDEST PUSH1 0x44 CALLDATALOAD SWAP1 PUSH1 0x1 PUSH1 0x1 PUSH1 0xA0 SHL SUB DUP3 AND DUP3 SUB PUSH2 0x23C JUMPI JUMP JUMPDEST PUSH1 0x64 CALLDATALOAD SWAP1 PUSH2 0xFFFF DUP3 AND DUP3 SUB PUSH2 0x23C JUMPI JUMP INVALID LOG2 PUSH5 0x6970667358 0x22 SLT KECCAK256 0xB4 NOT 0xBF 0x49 CODECOPY 0xBB 0xEE SSTORE ADD SAR 0xEC 0xD7 0xCA RETURNDATASIZE PUSH21 0xA51B607A781210585CCE043DC528D4491264736F6C PUSH4 0x43000814 STOP CALLER "},"gasEstimates":{"creation":{"codeDepositCost":"134000","executionCost":"184","totalCost":"134184"},"external":{"borrow(address,uint256,uint256,uint16,address)":"407","flashLoanSimple(address,address,uint256,bytes,uint16)":"3497","repay(address,uint256,uint256,address)":"306","supply(address,uint256,address,uint16)":"399","withdraw(address,uint256,address)":"382"}},"methodIdentifiers":{"borrow(address,uint256,uint256,uint16,address)":"a415bcad","flashLoanSimple(address,address,uint256,bytes,uint16)":"42b0b77c","repay(address,uint256,uint256,address)":"573ade81","supply(address,uint256,address,uint16)":"617ba037","withdraw(address,uint256,address)":"69328dec"}},"storageLayout":{"storage":[],"types":null},"userdoc":{"kind":"user","methods":{},"version":1}}}}