{
  "_format": "hh-sol-artifact-1",
  "contractName": "AEON",
  "sourceName": "backend/contracts/AEON.sol",
  "abi": [
    {
      "inputs": [
        {
          "internalType": "address",
          "name": "_poolAddressesProvider",
          "type": "address"
        }
      ],
      "stateMutability": "nonpayable",
      "type": "constructor"
    },
    {
      "anonymous": false,
      "inputs": [
        {
          "indexed": true,
          "internalType": "bytes32",
          "name": "opportunityId",
          "type": "bytes32"
        },
        {
          "indexed": false,
          "internalType": "uint256",
          "name": "profit",
          "type": "uint256"
        },
        {
          "indexed": false,
          "internalType": "uint256",
          "name": "gasUsed",
          "type": "uint256"
        }
      ],
      "name": "AEONExecuted",
      "type": "event"
    },
    {
      "anonymous": false,
      "inputs": [
        {
          "components": [
            {
              "internalType": "uint256",
              "name": "minSpreadBps",
              "type": "uint256"
            },
            {
              "internalType": "uint256",
              "name": "maxGasPrice",
              "type": "uint256"
            },
            {
              "internalType": "uint256",
              "name": "maxSlippageBps",
              "type": "uint256"
            },
            {
              "internalType": "uint256",
              "name": "minProfitUSD",
              "type": "uint256"
            },
            {
              "internalType": "uint256",
              "name": "maxFlashLoanAmount",
              "type": "uint256"
            },
            {
              "internalType": "bool",
              "name": "autonomousMode",
              "type": "bool"
            },
            {
              "internalType": "uint256",
              "name": "executionCooldown",
              "type": "uint256"
            }
          ],
          "indexed": false,
          "internalType": "struct AEON.AEONConfig",
          "name": "newConfig",
          "type": "tuple"
        }
      ],
      "name": "ConfigUpdated",
      "type": "event"
    },
    {
      "anonymous": false,
      "inputs": [
        {
          "indexed": false,
          "internalType": "uint256",
          "name": "totalExecutions",
          "type": "uint256"
        },
        {
          "indexed": false,
          "internalType": "uint256",
          "name": "totalProfit",
          "type": "uint256"
        }
      ],
      "name": "EcosystemStateUpdated",
      "type": "event"
    },
    {
      "anonymous": false,
      "inputs": [
        {
          "indexed": true,
          "internalType": "bytes32",
          "name": "opportunityId",
          "type": "bytes32"
        },
        {
          "indexed": false,
          "internalType": "int256",
          "name": "spreadBps",
          "type": "int256"
        }
      ],
      "name": "OpportunityDetected",
      "type": "event"
    },
    {
      "anonymous": false,
      "inputs": [
        {
          "indexed": true,
          "internalType": "address",
          "name": "previousOwner",
          "type": "address"
        },
        {
          "indexed": true,
          "internalType": "address",
          "name": "newOwner",
          "type": "address"
        }
      ],
      "name": "OwnershipTransferred",
      "type": "event"
    },
    {
      "anonymous": false,
      "inputs": [
        {
          "indexed": false,
          "internalType": "address",
          "name": "account",
          "type": "address"
        }
      ],
      "name": "Paused",
      "type": "event"
    },
    {
      "anonymous": false,
      "inputs": [
        {
          "indexed": false,
          "internalType": "address",
          "name": "account",
          "type": "address"
        }
      ],
      "name": "Unpaused",
      "type": "event"
    },
    {
      "inputs": [],
      "name": "ADDRESSES_PROVIDER",
      "outputs": [
        {
          "internalType": "contract IPoolAddressesProvider",
          "name": "",
          "type": "address"
        }
      ],
      "stateMutability": "view",
      "type": "function"
    },
    {
      "inputs": [],
      "name": "DAI",
      "outputs": [
        {
          "internalType": "address",
          "name": "",
          "type": "address"
        }
      ],
      "stateMutability": "view",
      "type": "function"
    },
    {
      "inputs": [],
      "name": "GHO",
      "outputs": [
        {
          "internalType": "address",
          "name": "",
          "type": "address"
        }
      ],
      "stateMutability": "view",
      "type": "function"
    },
    {
      "inputs": [],
      "name": "POOL",
      "outputs": [
        {
          "internalType": "contract IPool",
          "name": "",
          "type": "address"
        }
      ],
      "stateMutability": "view",
      "type": "function"
    },
    {
      "inputs": [],
      "name": "USDC",
      "outputs": [
        {
          "internalType": "address",
          "name": "",
          "type": "address"
        }
      ],
      "stateMutability": "view",
      "type": "function"
    },
    {
      "inputs": [],
      "name": "WETH",
      "outputs": [
        {
          "internalType": "address",
          "name": "",
          "type": "address"
        }
      ],
      "stateMutability": "view",
      "type": "function"
    },
    {
      "inputs": [
        {
          "components": [
            {
              "internalType": "address",
              "name": "tokenA",
              "type": "address"
            },
            {
              "internalType": "address",
              "name": "tokenB",
              "type": "address"
            },
            {
              "internalType": "address",
              "name": "tokenC",
              "type": "address"
            },
            {
              "internalType": "uint256",
              "name": "amountIn",
              "type": "uint256"
            },
            {
              "internalType": "int256",
              "name": "spreadBps",
              "type": "int256"
            },
            {
              "internalType": "uint256",
              "name": "estimatedProfit",
              "type": "uint256"
            },
            {
              "internalType": "uint256",
              "name": "gasEstimate",
              "type": "uint256"
            },
            {
              "internalType": "bool",
              "name": "isValid",
              "type": "bool"
            },
            {
              "internalType": "uint256",
              "name": "detectedAt",
              "type": "uint256"
            }
          ],
          "internalType": "struct AEON.Opportunity",
          "name": "opp",
          "type": "tuple"
        }
      ],
      "name": "_performSwapAB",
      "outputs": [
        {
          "internalType": "uint256",
          "name": "",
          "type": "uint256"
        }
      ],
      "stateMutability": "nonpayable",
      "type": "function"
    },
    {
      "inputs": [
        {
          "components": [
            {
              "internalType": "address",
              "name": "tokenA",
              "type": "address"
            },
            {
              "internalType": "address",
              "name": "tokenB",
              "type": "address"
            },
            {
              "internalType": "address",
              "name": "tokenC",
              "type": "address"
            },
            {
              "internalType": "uint256",
              "name": "amountIn",
              "type": "uint256"
            },
            {
              "internalType": "int256",
              "name": "spreadBps",
              "type": "int256"
            },
            {
              "internalType": "uint256",
              "name": "estimatedProfit",
              "type": "uint256"
            },
            {
              "internalType": "uint256",
              "name": "gasEstimate",
              "type": "uint256"
            },
            {
              "internalType": "bool",
              "name": "isValid",
              "type": "bool"
            },
            {
              "internalType": "uint256",
              "name": "detectedAt",
              "type": "uint256"
            }
          ],
          "internalType": "struct AEON.Opportunity",
          "name": "opp",
          "type": "tuple"
        },
        {
          "internalType": "uint256",
          "name": "amountB",
          "type": "uint256"
        }
      ],
      "name": "_performSwapBC",
      "outputs": [
        {
          "internalType": "uint256",
          "name": "",
          "type": "uint256"
        }
      ],
      "stateMutability": "nonpayable",
      "type": "function"
    },
    {
      "inputs": [
        {
          "components": [
            {
              "internalType": "address",
              "name": "tokenA",
              "type": "address"
            },
            {
              "internalType": "address",
              "name": "tokenB",
              "type": "address"
            },
            {
              "internalType": "address",
              "name": "tokenC",
              "type": "address"
            },
            {
              "internalType": "uint256",
              "name": "amountIn",
              "type": "uint256"
            },
            {
              "internalType": "int256",
              "name": "spreadBps",
              "type": "int256"
            },
            {
              "internalType": "uint256",
              "name": "estimatedProfit",
              "type": "uint256"
            },
            {
              "internalType": "uint256",
              "name": "gasEstimate",
              "type": "uint256"
            },
            {
              "internalType": "bool",
              "name": "isValid",
              "type": "bool"
            },
            {
              "internalType": "uint256",
              "name": "detectedAt",
              "type": "uint256"
            }
          ],
          "internalType": "struct AEON.Opportunity",
          "name": "opp",
          "type": "tuple"
        },
        {
          "internalType": "uint256",
          "name": "amountC",
          "type": "uint256"
        }
      ],
      "name": "_performSwapCA",
      "outputs": [
        {
          "internalType": "uint256",
          "name": "",
          "type": "uint256"
        }
      ],
      "stateMutability": "nonpayable",
      "type": "function"
    },
    {
      "inputs": [
        {
          "internalType": "uint256",
          "name": "",
          "type": "uint256"
        }
      ],
      "name": "activeOpportunities",
      "outputs": [
        {
          "internalType": "bytes32",
          "name": "",
          "type": "bytes32"
        }
      ],
      "stateMutability": "view",
      "type": "function"
    },
    {
      "inputs": [
        {
          "internalType": "address",
          "name": "",
          "type": "address"
        }
      ],
      "name": "authorizedTokens",
      "outputs": [
        {
          "internalType": "bool",
          "name": "",
          "type": "bool"
        }
      ],
      "stateMutability": "view",
      "type": "function"
    },
    {
      "inputs": [],
      "name": "config",
      "outputs": [
        {
          "internalType": "uint256",
          "name": "minSpreadBps",
          "type": "uint256"
        },
        {
          "internalType": "uint256",
          "name": "maxGasPrice",
          "type": "uint256"
        },
        {
          "internalType": "uint256",
          "name": "maxSlippageBps",
          "type": "uint256"
        },
        {
          "internalType": "uint256",
          "name": "minProfitUSD",
          "type": "uint256"
        },
        {
          "internalType": "uint256",
          "name": "maxFlashLoanAmount",
          "type": "uint256"
        },
        {
          "internalType": "bool",
          "name": "autonomousMode",
          "type": "bool"
        },
        {
          "internalType": "uint256",
          "name": "executionCooldown",
          "type": "uint256"
        }
      ],
      "stateMutability": "view",
      "type": "function"
    },
    {
      "inputs": [],
      "name": "executeAEON",
      "outputs": [],
      "stateMutability": "nonpayable",
      "type": "function"
    },
    {
      "inputs": [
        {
          "internalType": "address",
          "name": "asset",
          "type": "address"
        },
        {
          "internalType": "uint256",
          "name": "amount",
          "type": "uint256"
        },
        {
          "internalType": "uint256",
          "name": "premium",
          "type": "uint256"
        },
        {
          "internalType": "address",
          "name": "initiator",
          "type": "address"
        },
        {
          "internalType": "bytes",
          "name": "params",
          "type": "bytes"
        }
      ],
      "name": "executeOperation",
      "outputs": [
        {
          "internalType": "bool",
          "name": "",
          "type": "bool"
        }
      ],
      "stateMutability": "nonpayable",
      "type": "function"
    },
    {
      "inputs": [],
      "name": "getEcosystemHealth",
      "outputs": [
        {
          "components": [
            {
              "internalType": "uint256",
              "name": "totalExecutions",
              "type": "uint256"
            },
            {
              "internalType": "uint256",
              "name": "successfulExecutions",
              "type": "uint256"
            },
            {
              "internalType": "uint256",
              "name": "totalProfitUSD",
              "type": "uint256"
            },
            {
              "internalType": "uint256",
              "name": "totalGasSpent",
              "type": "uint256"
            },
            {
              "internalType": "uint256",
              "name": "lastExecutionTime",
              "type": "uint256"
            },
            {
              "internalType": "uint256",
              "name": "averageSpreadBps",
              "type": "uint256"
            },
            {
              "internalType": "bool",
              "name": "isHealthy",
              "type": "bool"
            }
          ],
          "internalType": "struct AEON.EcosystemState",
          "name": "",
          "type": "tuple"
        }
      ],
      "stateMutability": "view",
      "type": "function"
    },
    {
      "inputs": [
        {
          "internalType": "bytes32",
          "name": "",
          "type": "bytes32"
        }
      ],
      "name": "opportunities",
      "outputs": [
        {
          "internalType": "address",
          "name": "tokenA",
          "type": "address"
        },
        {
          "internalType": "address",
          "name": "tokenB",
          "type": "address"
        },
        {
          "internalType": "address",
          "name": "tokenC",
          "type": "address"
        },
        {
          "internalType": "uint256",
          "name": "amountIn",
          "type": "uint256"
        },
        {
          "internalType": "int256",
          "name": "spreadBps",
          "type": "int256"
        },
        {
          "internalType": "uint256",
          "name": "estimatedProfit",
          "type": "uint256"
        },
        {
          "internalType": "uint256",
          "name": "gasEstimate",
          "type": "uint256"
        },
        {
          "internalType": "bool",
          "name": "isValid",
          "type": "bool"
        },
        {
          "internalType": "uint256",
          "name": "detectedAt",
          "type": "uint256"
        }
      ],
      "stateMutability": "view",
      "type": "function"
    },
    {
      "inputs": [],
      "name": "owner",
      "outputs": [
        {
          "internalType": "address",
          "name": "",
          "type": "address"
        }
      ],
      "stateMutability": "view",
      "type": "function"
    },
    {
      "inputs": [],
      "name": "pause",
      "outputs": [],
      "stateMutability": "nonpayable",
      "type": "function"
    },
    {
      "inputs": [],
      "name": "paused",
      "outputs": [
        {
          "internalType": "bool",
          "name": "",
          "type": "bool"
        }
      ],
      "stateMutability": "view",
      "type": "function"
    },
    {
      "inputs": [],
      "name": "renounceOwnership",
      "outputs": [],
      "stateMutability": "nonpayable",
      "type": "function"
    },
    {
      "inputs": [],
      "name": "state",
      "outputs": [
        {
          "internalType": "uint256",
          "name": "totalExecutions",
          "type": "uint256"
        },
        {
          "internalType": "uint256",
          "name": "successfulExecutions",
          "type": "uint256"
        },
        {
          "internalType": "uint256",
          "name": "totalProfitUSD",
          "type": "uint256"
        },
        {
          "internalType": "uint256",
          "name": "totalGasSpent",
          "type": "uint256"
        },
        {
          "internalType": "uint256",
          "name": "lastExecutionTime",
          "type": "uint256"
        },
        {
          "internalType": "uint256",
          "name": "averageSpreadBps",
          "type": "uint256"
        },
        {
          "internalType": "bool",
          "name": "isHealthy",
          "type": "bool"
        }
      ],
      "stateMutability": "view",
      "type": "function"
    },
    {
      "inputs": [
        {
          "internalType": "address",
          "name": "",
          "type": "address"
        }
      ],
      "name": "tokenProfits",
      "outputs": [
        {
          "internalType": "uint256",
          "name": "",
          "type": "uint256"
        }
      ],
      "stateMutability": "view",
      "type": "function"
    },
    {
      "inputs": [
        {
          "internalType": "address",
          "name": "newOwner",
          "type": "address"
        }
      ],
      "name": "transferOwnership",
      "outputs": [],
      "stateMutability": "nonpayable",
      "type": "function"
    },
    {
      "inputs": [],
      "name": "unpause",
      "outputs": [],
      "stateMutability": "nonpayable",
      "type": "function"
    },
    {
      "inputs": [
        {
          "components": [
            {
              "internalType": "uint256",
              "name": "minSpreadBps",
              "type": "uint256"
            },
            {
              "internalType": "uint256",
              "name": "maxGasPrice",
              "type": "uint256"
            },
            {
              "internalType": "uint256",
              "name": "maxSlippageBps",
              "type": "uint256"
            },
            {
              "internalType": "uint256",
              "name": "minProfitUSD",
              "type": "uint256"
            },
            {
              "internalType": "uint256",
              "name": "maxFlashLoanAmount",
              "type": "uint256"
            },
            {
              "internalType": "bool",
              "name": "autonomousMode",
              "type": "bool"
            },
            {
              "internalType": "uint256",
              "name": "executionCooldown",
              "type": "uint256"
            }
          ],
          "internalType": "struct AEON.AEONConfig",
          "name": "newConfig",
          "type": "tuple"
        }
      ],
      "name": "updateConfig",
      "outputs": [],
      "stateMutability": "nonpayable",
      "type": "function"
    },
    {
      "inputs": [
        {
          "internalType": "address",
          "name": "token",
          "type": "address"
        },
        {
          "internalType": "uint256",
          "name": "amount",
          "type": "uint256"
        }
      ],
      "name": "withdrawProfits",
      "outputs": [],
      "stateMutability": "nonpayable",
      "type": "function"
    }
  ],
  "bytecode": "0x60c0604090808252346200029857620021fa8038038091620000228285620002cf565b83396001600160a01b039182916200003e9190810190620002f3565b1690816080528251809263026b1d5f60e01b825281600460209586935afa80156200028d57829160009162000259575b501660a052600190816000558154610100600160a81b033360081b1660018060a81b03198216178355845191339160081c167f8be0079c531659141344cd1fd0a4f28419497f9722a3daafe3b4186f6b6457e0600080a3620000d0816200029d565b60178152640ba43b7400808483015261012c8086840152678ac7230489e8000091826060850152601e60c06a084595161401484a000000958660808201528760a082015201526017600255600355600455600555600655601260ff199282846007541617600755601e6008558260c086516200014c816200029d565b600081526000848201526000888201526000606082015260006080820152600060a0820152015260006009556000600a556000600b556000600c556000600d556000600e558284600f541617600f557350c5725949a6f0c72e6c4a641f24049a917db0cb6000525282600020818382541617905573036cbd53842c5426634e7929541ec2318f3dcf7e6000528260002081838254161790557342000000000000000000000000000000000000066000528260002081838254161790557340d16fc0246ad3160ccc09b8d0d3a2cd28ae6c2f600052826000209182541617905551611ee59081620003158239608051816111b4015260a0518181816102d701528181610af50152610e3f0152f35b6200027e9150843d861162000285575b620002758183620002cf565b810190620002f3565b386200006e565b503d62000269565b84513d6000823e3d90fd5b600080fd5b60e081019081106001600160401b03821117620002b957604052565b634e487b7160e01b600052604160045260246000fd5b601f909101601f19168101906001600160401b03821190821017620002b957604052565b908160209103126200029857516001600160a01b038116810362000298579056fe608060408181526004908136101561001657600080fd5b60009260e08435811c9182630542975c146111a0575081631b11d0ff14610dcd5781633d83450614610d3c5781633f4ba83a14610ca55781635c975abb14610c81578163697659f214610c49578163715018a614610be85781637317768914610b245781637535d24614610ae057816375d9233414610aa6578163793507bb146108cd57816379502c5514610a52578163825826b11461095b5781638456cb591461090157816389a30271146108d25781638bd72316146108cd5781638da5cb5b146108a05781639bc7c58614610862578163aafc965114610765578163ad5c464814610743578163b8d008f314610714578163c19d93fb146106bf57508063cdf3f0eb1461065c578063e0bab4c414610629578063f2fde38b146105505763f628d3841461014457600080fd5b3461054c578260031936011261054c57600283541461050957600283556101696114be565b60ff60075416156104c657610183600d5460085490611439565b421061048b5760039182543a11610449578384938351946101a386611291565b8451956101af87611291565b7350c5725949a6f0c72e6c4a641f24049a917db0cb9687815273036cbd53842c5426634e7929541ec2318f3dcf7e90602098828a8301527340d16fc0246ad3160ccc09b8d0d3a2cd28ae6c2f91828a8201528452885161020e81611291565b6006602160991b0181528a8101849052898101829052848b015288519261023484611291565b8352898301528782015286820152875b8381106103e657505050508061025d575b846001815580f35b84526010835281842061027761027282611446565b611935565b156102555761028590611446565b9260608401908151600654106103ab576102a3845191820186611962565b610120815261014081019467ffffffffffffffff861192828710841761039857868652905190518792916001600160a01b037f00000000000000000000000000000000000000000000000000000000000000008116929116823b15610394576310ac2ddf60e21b89523061014485015261016484015261018483015260a06101a483015286918290849061033b6101e48201826119c6565b6101c482018390520361013f1901925af1801561038a57610368575b5050505042600d5538808080610255565b61037757505238808080610357565b634e487b7160e01b845260419052602483fd5b83513d87823e3d90fd5b8480fd5b634e487b7160e01b885260418552602488fd5b9050606492519162461bcd60e51b8352820152601660248201527541454f4e3a20414d4f554e545f544f4f5f4c4152474560501b6044820152fd5b6103f58160051b830151611555565b8061040a575b5061040590611502565b610244565b808a5260108952878a208701548a811261043b575b84811161042d575b506103fb565b909550925061040538610427565b61044490611511565b61041f565b6020606492519162461bcd60e51b8352820152601860248201527f41454f4e3a204741535f50524943455f544f4f5f4849474800000000000000006044820152fd5b906020606492519162461bcd60e51b8352820152601560248201527441454f4e3a20434f4f4c444f574e5f41435449564560581b6044820152fd5b906020606492519162461bcd60e51b8352820152601e60248201527f41454f4e3a204155544f4e4f4d4f55535f4d4f44455f44495341424c454400006044820152fd5b906020606492519162461bcd60e51b8352820152601f60248201527f5265656e7472616e637947756172643a207265656e7472616e742063616c6c006044820152fd5b8280fd5b50903461054c57602036600319011261054c5761056b6111e3565b6105736113de565b6001600160a01b038181169390929084156105d757505060018054610100600160a81b03198116600893841b610100600160a81b031617909155901c167f8be0079c531659141344cd1fd0a4f28419497f9722a3daafe3b4186f6b6457e08380a380f35b906020608492519162461bcd60e51b8352820152602660248201527f4f776e61626c653a206e6577206f776e657220697320746865207a65726f206160448201526564647265737360d01b6064820152fd5b838234610658578160031936011261065857602090517350c5725949a6f0c72e6c4a641f24049a917db0cb8152f35b5080fd5b5091346106bc576101203660031901126106bc57606061067b366112ec565b610686303314611d49565b0151916063830292808404606314901517156106a9576020836064865191048152f35b634e487b7160e01b825260119052602490fd5b80fd5b8285346106bc57806003193601126106bc575060095490600a5490600b54600c54600d5491600e549360ff600f541695815197885260208801528601526060850152608084015260a0830152151560c0820152f35b848334610658578160031936011261065857602090517340d16fc0246ad3160ccc09b8d0d3a2cd28ae6c2f8152f35b848334610658578160031936011261065857516006602160991b018152602090f35b828585346106585782600319360112610658576107806111e3565b906024359161078d6113de565b6001600160a01b03908116808552601160205285852054909290841161081f57508394610809610817928461081c975260116020528288206107d0878254611928565b905560015460081c16915194859263a9059cbb60e01b60208501526024840160209093929193604081019460018060a01b031681520152565b03601f1981018452836112ca565b611a06565b80f35b606490602087519162461bcd60e51b8352820152601960248201527f41454f4e3a20494e53554646494349454e545f50524f464954000000000000006044820152fd5b8483346106585760203660031901126106585760209160ff9082906001600160a01b0361088d6111e3565b1681526012855220541690519015158152f35b848334610658578160031936011261065857600154905160089190911c6001600160a01b03168152602090f35b61137c565b8483346106585781600319360112610658576020905173036cbd53842c5426634e7929541ec2318f3dcf7e8152f35b84833461065857816003193601126106585760207f62e78cea01bee320cd4e420270b5ea74000d11b0c9f74754ebdbfc544b05a2589161093f6113de565b6109476114be565b600160ff198154161760015551338152a180f35b9192905034610a4e5781600319360112610a4e57825161097a8161125f565b81358152602081019360243585528082019060443582526060830160643581526080840191608435835260a435938415158503610a4a577f33204ecc04703a649dba9774d125ba1fec2c9f207c081cbce153a0cbbc32b05a9860a0870195865260c087019660c43588526109ec6113de565b519788600255815160035582519055835160055584516006558551151560ff80196007541691161760075586516008558251978852516020880152519086015251606085015251608084015251151560a08301525160c0820152a180f35b8980fd5b8380fd5b828486346106bc57806003193601126106bc57506002549160035491546005546006549160ff6007541693600854958151978852602088015286015260608501526080840152151560a083015260c0820152f35b5050903461054c57602036600319011261054c5735916013548310156106bc5750610ad2602092611212565b91905490519160031b1c8152f35b848334610658578160031936011261065857517f00000000000000000000000000000000000000000000000000000000000000006001600160a01b03168152602090f35b8285346106bc57806003193601126106bc5760c08251610b438161125f565b82815282602082015282848201528260608201528260808201528260a082015201528051610b708161125f565b60095491828252600a549060208301918252600b5490808401918252600c549060608501918252600d549260808601938452600e549460a0870195865260c060ff600f541697019615158752825197885251602088015251908601525160608501525160808401525160a083015251151560c0820152f35b84346106bc57806003193601126106bc57610c016113de565b60018054610100600160a81b03198116909155819060081c6001600160a01b03167f8be0079c531659141344cd1fd0a4f28419497f9722a3daafe3b4186f6b6457e08280a380f35b8483346106585760203660031901126106585760209181906001600160a01b03610c716111e3565b1681526011845220549051908152f35b84833461065857816003193601126106585760209060ff6001541690519015158152f35b5050903461054c578260031936011261054c57610cc06113de565b6001549060ff821615610d02575060ff1916600155513381527f5db9ee0a495bf2e6ff9c91a7834c1ba4fdd244a5e8aa4e537bd38aeae4b073aa90602090a180f35b606490602084519162461bcd60e51b8352820152601460248201527314185d5cd8589b194e881b9bdd081c185d5cd95960621b6044820152fd5b905034610a4e576020366003190112610a4e5781610120948435815260106020522060018060a01b0392838254169484600184015416946002840154169060038401549084015490600585015492600686015494600860ff6007890154169701549881519a8b5260208b01528901526060880152608087015260a086015260c0850152151590830152610100820152f35b939050346106bc5760a03660031901126106bc57610de96111e3565b6001600160a01b03936064358581169392919084900361054c576084359567ffffffffffffffff8088116103945736602389011215610394578783013590811161039457870197602498368a82011161119c57827f00000000000000000000000000000000000000000000000000000000000000001696873303611163573003611121578861012091031261039457865197610e84896112ad565b610e8f8a82016111fe565b8952610e9d604482016111fe565b986020998a8201908152610eb3606484016111fe565b8a830190815260848401356060840152608083019360a4810135855260a084019560c4820135875260e482013560c086015261010482013590811515820361111d5785015261012401356101008401528a9291908c905a93610f1f610f1782611bf3565b955a90611928565b94611062575b5050505050505050610f3a6044358935611439565b9216928215908115610ff0575b5015610f8f5750835163095ea7b360e01b818701526001600160a01b03909316958301958652602086015292939192610f8892610817908390604001610809565b5160018152f35b845162461bcd60e51b81529081018690526036818801527f5361666545524332303a20617070726f76652066726f6d206e6f6e2d7a65726f60448201527520746f206e6f6e2d7a65726f20616c6c6f77616e636560501b6064820152608490fd5b90508551636eb1769f60e11b8152308382015285898201528781604481885afa918215611057578092611027575b50501538610f47565b9091508782813d8311611050575b61103f81836112ca565b810103126106bc575051388061101e565b503d611035565b8751903d90823e3d90fd5b6110bd7f6b415c30cb9027c92884fc418e637f3379adc1f285f71622bb66dafa58349f3797611092600954611502565b6009556110a0600a54611502565b600a556110af87600c54611439565b600c55600e54905190611439565b60011c600e5551925190518551928301936001600160601b03199283809260601b16865260601b16603484015260601b166048820152603c815261110081611291565b51902093519082519182528b820152a238808781808b8180610f25565b8b80fd5b875162461bcd60e51b81526020818601526017818c01527f41454f4e3a20494e56414c49445f494e49544941544f520000000000000000006044820152606490fd5b885162461bcd60e51b81526020818701526014818d01527320a2a7a71d1024a72b20a624a22fa1a0a62622a960611b6044820152606490fd5b8580fd5b8590346106585781600319360112610658577f00000000000000000000000000000000000000000000000000000000000000006001600160a01b03168152602090f35b600435906001600160a01b03821682036111f957565b600080fd5b35906001600160a01b03821682036111f957565b6013548110156112495760136000527f66de8ffda797e3de9c05e8fc57b3bf0ec28a930d40b0d285d93c06501cf6a0900190600090565b634e487b7160e01b600052603260045260246000fd5b60e0810190811067ffffffffffffffff82111761127b57604052565b634e487b7160e01b600052604160045260246000fd5b6060810190811067ffffffffffffffff82111761127b57604052565b610120810190811067ffffffffffffffff82111761127b57604052565b90601f8019910116810190811067ffffffffffffffff82111761127b57604052565b6101209060031901126111f95760405190611306826112ad565b816001600160a01b0360043581811681036111f957825260243581811681036111f957602083015260443590811681036111f95760408201526064356060820152608435608082015260a43560a082015260c43560c082015260e43580151581036111f95760e082015261010061010435910152565b346111f9576101403660031901126111f957611397366112ec565b50610124356113a7303314611d49565b6063810290808204606314901517156113c857602090606460405191048152f35b634e487b7160e01b600052601160045260246000fd5b60015460081c6001600160a01b031633036113f557565b606460405162461bcd60e51b815260206004820152602060248201527f4f776e61626c653a2063616c6c6572206973206e6f7420746865206f776e65726044820152fd5b919082018092116113c857565b90604051611453816112ad565b82546001600160a01b03908116825260018401548116602083015260028401541660408201526003830154606082015260048301546080820152600583015460a0820152600683015460c0820152600783015460ff16151560e0820152600890920154610100830152565b60ff600154166114ca57565b60405162461bcd60e51b815260206004820152601060248201526f14185d5cd8589b194e881c185d5cd95960821b6044820152606490fd5b60001981146113c85760010190565b600160ff1b81146113c85760000390565b818102929181159184041417156113c857565b811561153f570490565b634e487b7160e01b600052601260045260246000fd5b9060018060a01b0361157161156c8285511661188d565b611dbe565b91602085019061158661156c8284511661188d565b929093604088019561159d61156c8589511661188d565b90958215611885575b50811561187d575b50611849576402540be400908181028181048314821517156113c857866115d491611535565b95828102908082048414901517156113c857856115f091611535565b948281029281840414901517156113c85761160a91611535565b9260009369021e19e0c9bab2400000958087029087820403611869579061164791611641670de0b6b3a76400009485809304611522565b04611522565b049284841115611860575069021e19e0c9bab23fffff1983019283116113c85782612710908181029181830414901517156113c857846017910410155b15611855576127108084029084820414841517156113c857849004946116a986611d8b565b15611849578751938251928251936040519460208601976001600160601b03199283809260601b168a5260601b16603487015260601b16604885015242605c850152605c8452608084019684881067ffffffffffffffff89111761127b578580806008998b604052885190209d511693511694511691611728896112ad565b885260a0850193845260c0850191825260e0850190815261010085019189835261012086019384526101408601946206ddd086526101806101608801976001895201974289528d60005260106020528060406000209b5116916001600160601b0360a01b92838d5416178c558160018d019151168382541617905560028b0192511690825416179055516003880155516004870155516005860155516006850155600784019051151560ff8019835416911617905551910155601354906801000000000000000082101561127b5760207f127af658c4dd069ad1872399bb2b8928f413c7fe9a77c4ac51bef91d423ab52c9161182b846001889601601355611212565b81549060031b9086821b91600019901b1916179055604051908152a2565b50600096505050505050565b506000955050505050565b92506000611684565b634e487b7160e01b86526011600452602486fd5b9050386115ae565b9150386115a6565b6001600160a01b03167350c5725949a6f0c72e6c4a641f24049a917db0cb811461190f5773036cbd53842c5426634e7929541ec2318f3dcf7e81146118f6576006602160991b01146118de57600090565b73d276fcf34d54a9267738e680a72b7eaf2e54f2e490565b5073d30e2101a97dcbaebcbc04f14c3f624e67a3516590565b5073591e79239a7d679378ec8c847e5038150364c78f90565b919082039182116113c857565b61012c61194761010083015142611928565b1161195c576080611959910151611d8b565b90565b50600090565b60018060a01b038082511683528060208301511660208401526040820151166040830152606081015160608301526080810151608083015260a081015160a083015260c081015160c083015260e0810151151560e083015261010080910151910152565b919082519283825260005b8481106119f2575050826000602080949584010152601f8019910116010190565b6020818301810151848301820152016119d1565b60018060a01b0316906040516040810167ffffffffffffffff908281108282111761127b576040526020938483527f5361666545524332303a206c6f772d6c6576656c2063616c6c206661696c6564858401526000808587829751910182855af1903d15611b4b573d928311611b375790611aa193929160405192611a9488601f19601f84011601856112ca565b83523d868885013e611b56565b805191821591848315611b13575b505050905015611abc5750565b6084906040519062461bcd60e51b82526004820152602a60248201527f5361666545524332303a204552433230206f7065726174696f6e20646964206e6044820152691bdd081cdd58d8d9595960b21b6064820152fd5b919381809450010312610658578201519081151582036106bc575080388084611aaf565b634e487b7160e01b85526041600452602485fd5b90611aa19392506060915b91929015611bb85750815115611b6a575090565b3b15611b735790565b60405162461bcd60e51b815260206004820152601d60248201527f416464726573733a2063616c6c20746f206e6f6e2d636f6e74726163740000006044820152606490fd5b825190915015611bcb5750805190602001fd5b60405162461bcd60e51b815260206004820152908190611bef9060248301906119c6565b0390fd5b60405163cdf3f0eb60e01b8152611c0d6004820183611962565b60009160206101248184828188305af1859481611d1a575b50611c31575050505090565b60405163793507bb60e01b815293611c4c6004860185611962565b81850152610144908285838189305af1869581611ce7575b50611c7157505050505090565b82916040519586926345eb918b60e11b8452611c906004850188611962565b8301528187305af19283918594611cb7575b5050611cad57505090565b6060015110919050565b9080929450813d8311611ce0575b611ccf81836112ca565b81010312610a4e5751913880611ca2565b503d611cc5565b9095508381813d8311611d13575b611cff81836112ca565b81010312611d0f57519438611c64565b8680fd5b503d611cf5565b9094508281813d8311611d42575b611d3281836112ca565b8101031261119c57519338611c25565b503d611d28565b15611d5057565b60405162461bcd60e51b815260206004820152601360248201527241454f4e3a20494e5445524e414c5f4f4e4c5960681b6044820152606490fd5b60269060008112611d9a571190565b611da390611511565b1190565b519069ffffffffffffffffffff821682036111f957565b604051633fabe5a360e21b8152919060a090839060049082906001600160a01b03165afa91826000918294611e59575b50611dfd575060009150600190565b6000811315611e1457611da3610e10919342611928565b60405162461bcd60e51b815260206004820152601e60248201527f436861696e6c696e6b4f7261636c653a20494e56414c49445f505249434500006044820152606490fd5b9190935060a0823d8211611ea7575b81611e7560a093836112ca565b810103126106bc5750611e8781611da7565b506020810151611e9e608060608401519301611da7565b50909238611dee565b3d9150611e6856fea2646970667358221220eacc76a022b86465b4aa2f2d9b4d3a9b06716afd0253848a58fe994542175ba164736f6c63430008140033",
  "linkReferences": {},
  "deployedLinkReferences": {}
}