{
  "_format": "hh-sol-artifact-1",
  "contractName": "BaseAtomArbitrage",
  "sourceName": "backend/contracts/BaseAtomArbitrage.sol",
  "abi": [
    {
      "inputs": [],
      "stateMutability": "nonpayable",
      "type": "constructor"
    },
    {
      "anonymous": false,
      "inputs": [
        {
          "indexed": true,
          "internalType": "address",
          "name": "tokenA",
          "type": "address"
        },
        {
          "indexed": true,
          "internalType": "address",
          "name": "tokenB",
          "type": "address"
        },
        {
          "indexed": false,
          "internalType": "uint256",
          "name": "amountIn",
          "type": "uint256"
        },
        {
          "indexed": false,
          "internalType": "uint256",
          "name": "profit",
          "type": "uint256"
        },
        {
          "indexed": false,
          "internalType": "enum BaseAtomArbitrage.DEX",
          "name": "buyDex",
          "type": "uint8"
        },
        {
          "indexed": false,
          "internalType": "enum BaseAtomArbitrage.DEX",
          "name": "sellDex",
          "type": "uint8"
        },
        {
          "indexed": true,
          "internalType": "address",
          "name": "executor",
          "type": "address"
        }
      ],
      "name": "ArbitrageExecuted",
      "type": "event"
    },
    {
      "anonymous": false,
      "inputs": [
        {
          "indexed": true,
          "internalType": "address",
          "name": "asset",
          "type": "address"
        },
        {
          "indexed": false,
          "internalType": "uint256",
          "name": "amount",
          "type": "uint256"
        },
        {
          "indexed": false,
          "internalType": "uint256",
          "name": "premium",
          "type": "uint256"
        },
        {
          "indexed": false,
          "internalType": "bool",
          "name": "success",
          "type": "bool"
        }
      ],
      "name": "FlashLoanExecuted",
      "type": "event"
    },
    {
      "anonymous": false,
      "inputs": [
        {
          "indexed": true,
          "internalType": "address",
          "name": "previousOwner",
          "type": "address"
        },
        {
          "indexed": true,
          "internalType": "address",
          "name": "newOwner",
          "type": "address"
        }
      ],
      "name": "OwnershipTransferred",
      "type": "event"
    },
    {
      "anonymous": false,
      "inputs": [
        {
          "indexed": true,
          "internalType": "address",
          "name": "token",
          "type": "address"
        },
        {
          "indexed": false,
          "internalType": "uint256",
          "name": "amount",
          "type": "uint256"
        },
        {
          "indexed": false,
          "internalType": "uint256",
          "name": "timestamp",
          "type": "uint256"
        }
      ],
      "name": "ProfitExtracted",
      "type": "event"
    },
    {
      "inputs": [],
      "name": "ADDRESSES_PROVIDER",
      "outputs": [
        {
          "internalType": "contract IPoolAddressesProvider",
          "name": "",
          "type": "address"
        }
      ],
      "stateMutability": "view",
      "type": "function"
    },
    {
      "inputs": [],
      "name": "BALANCER_VAULT",
      "outputs": [
        {
          "internalType": "contract IVault",
          "name": "",
          "type": "address"
        }
      ],
      "stateMutability": "view",
      "type": "function"
    },
    {
      "inputs": [],
      "name": "BASIS_POINTS",
      "outputs": [
        {
          "internalType": "uint256",
          "name": "",
          "type": "uint256"
        }
      ],
      "stateMutability": "view",
      "type": "function"
    },
    {
      "inputs": [],
      "name": "CURVE_REGISTRY",
      "outputs": [
        {
          "internalType": "contract ICurveRegistry",
          "name": "",
          "type": "address"
        }
      ],
      "stateMutability": "view",
      "type": "function"
    },
    {
      "inputs": [],
      "name": "ETH_PRICE_USD",
      "outputs": [
        {
          "internalType": "uint256",
          "name": "",
          "type": "uint256"
        }
      ],
      "stateMutability": "view",
      "type": "function"
    },
    {
      "inputs": [],
      "name": "MAX_FLASH_LOAN_AMOUNT",
      "outputs": [
        {
          "internalType": "uint256",
          "name": "",
          "type": "uint256"
        }
      ],
      "stateMutability": "view",
      "type": "function"
    },
    {
      "inputs": [],
      "name": "MAX_GAS_COST_USD",
      "outputs": [
        {
          "internalType": "uint256",
          "name": "",
          "type": "uint256"
        }
      ],
      "stateMutability": "view",
      "type": "function"
    },
    {
      "inputs": [],
      "name": "MIN_PROFIT_BASIS_POINTS",
      "outputs": [
        {
          "internalType": "uint256",
          "name": "",
          "type": "uint256"
        }
      ],
      "stateMutability": "view",
      "type": "function"
    },
    {
      "inputs": [],
      "name": "SUSHISWAP_ROUTER",
      "outputs": [
        {
          "internalType": "contract IUniswapV2Router",
          "name": "",
          "type": "address"
        }
      ],
      "stateMutability": "view",
      "type": "function"
    },
    {
      "inputs": [],
      "name": "UNISWAP_ROUTER",
      "outputs": [
        {
          "internalType": "contract IUniswapV2Router",
          "name": "",
          "type": "address"
        }
      ],
      "stateMutability": "view",
      "type": "function"
    },
    {
      "inputs": [
        {
          "internalType": "address",
          "name": "token",
          "type": "address"
        }
      ],
      "name": "emergencyWithdraw",
      "outputs": [],
      "stateMutability": "nonpayable",
      "type": "function"
    },
    {
      "inputs": [
        {
          "internalType": "uint256",
          "name": "estimatedGasUnits",
          "type": "uint256"
        },
        {
          "internalType": "uint256",
          "name": "gasPriceGwei",
          "type": "uint256"
        }
      ],
      "name": "estimateGasCostUSD",
      "outputs": [
        {
          "internalType": "uint256",
          "name": "gasCostUSD",
          "type": "uint256"
        }
      ],
      "stateMutability": "pure",
      "type": "function"
    },
    {
      "inputs": [
        {
          "internalType": "address",
          "name": "asset",
          "type": "address"
        },
        {
          "internalType": "uint256",
          "name": "amount",
          "type": "uint256"
        },
        {
          "internalType": "bytes",
          "name": "params",
          "type": "bytes"
        }
      ],
      "name": "executeArbitrage",
      "outputs": [],
      "stateMutability": "nonpayable",
      "type": "function"
    },
    {
      "inputs": [
        {
          "internalType": "address[]",
          "name": "tokens",
          "type": "address[]"
        },
        {
          "internalType": "uint256[]",
          "name": "amounts",
          "type": "uint256[]"
        },
        {
          "internalType": "bytes",
          "name": "params",
          "type": "bytes"
        }
      ],
      "name": "executeBalancerFlashLoan",
      "outputs": [],
      "stateMutability": "nonpayable",
      "type": "function"
    },
    {
      "inputs": [
        {
          "internalType": "address",
          "name": "asset",
          "type": "address"
        },
        {
          "internalType": "uint256",
          "name": "amount",
          "type": "uint256"
        },
        {
          "internalType": "uint256",
          "name": "premium",
          "type": "uint256"
        },
        {
          "internalType": "address",
          "name": "initiator",
          "type": "address"
        },
        {
          "internalType": "bytes",
          "name": "params",
          "type": "bytes"
        }
      ],
      "name": "executeOperation",
      "outputs": [
        {
          "internalType": "bool",
          "name": "",
          "type": "bool"
        }
      ],
      "stateMutability": "nonpayable",
      "type": "function"
    },
    {
      "inputs": [
        {
          "internalType": "uint256",
          "name": "estimatedGasUnits",
          "type": "uint256"
        }
      ],
      "name": "getMaxGasPriceForLimit",
      "outputs": [
        {
          "internalType": "uint256",
          "name": "maxGasPriceGwei",
          "type": "uint256"
        }
      ],
      "stateMutability": "pure",
      "type": "function"
    },
    {
      "inputs": [
        {
          "internalType": "uint256",
          "name": "estimatedGasUnits",
          "type": "uint256"
        },
        {
          "internalType": "uint256",
          "name": "gasPriceGwei",
          "type": "uint256"
        }
      ],
      "name": "isGasCostAcceptable",
      "outputs": [
        {
          "internalType": "bool",
          "name": "acceptable",
          "type": "bool"
        },
        {
          "internalType": "uint256",
          "name": "gasCostUSD",
          "type": "uint256"
        }
      ],
      "stateMutability": "pure",
      "type": "function"
    },
    {
      "inputs": [],
      "name": "owner",
      "outputs": [
        {
          "internalType": "address",
          "name": "",
          "type": "address"
        }
      ],
      "stateMutability": "view",
      "type": "function"
    },
    {
      "inputs": [
        {
          "internalType": "address[]",
          "name": "tokens",
          "type": "address[]"
        },
        {
          "internalType": "uint256[]",
          "name": "amounts",
          "type": "uint256[]"
        },
        {
          "internalType": "uint256[]",
          "name": "",
          "type": "uint256[]"
        },
        {
          "internalType": "bytes",
          "name": "userData",
          "type": "bytes"
        }
      ],
      "name": "receiveFlashLoan",
      "outputs": [],
      "stateMutability": "nonpayable",
      "type": "function"
    },
    {
      "inputs": [],
      "name": "renounceOwnership",
      "outputs": [],
      "stateMutability": "nonpayable",
      "type": "function"
    },
    {
      "inputs": [
        {
          "internalType": "address",
          "name": "newOwner",
          "type": "address"
        }
      ],
      "name": "transferOwnership",
      "outputs": [],
      "stateMutability": "nonpayable",
      "type": "function"
    },
    {
      "inputs": [],
      "name": "withdrawETH",
      "outputs": [],
      "stateMutability": "nonpayable",
      "type": "function"
    },
    {
      "inputs": [
        {
          "internalType": "address",
          "name": "token",
          "type": "address"
        },
        {
          "internalType": "uint256",
          "name": "amount",
          "type": "uint256"
        }
      ],
      "name": "withdrawToken",
      "outputs": [],
      "stateMutability": "nonpayable",
      "type": "function"
    },
    {
      "stateMutability": "payable",
      "type": "receive"
    }
  ],
  "bytecode": "0x6080806040523461005e57600160008181558154336001600160a01b0319821681179093556001600160a01b0316907f8be0079c531659141344cd1fd0a4f28419497f9722a3daafe3b4186f6b6457e09080a36125cc90816100648239f35b600080fdfe6080604090808252600480361015610022575b505050361561002057600080fd5b005b600091823560e01c9081630542975c146110c65750806306ec9b9e146110a95780631b11d0ff14610e3b578063277754ed14610e0c5780636e85962014610da95780636ff1c9bc14610cdc578063715018a614610c7f578063720387cb14610c595780637c1d953914610a0e5780637e8db6b3146109f25780638da5cb5b146109c95780639e281a9814610989578063a852b2271461096d578063b7ec8f26146108ed578063b942717b146108be578063bc1638461461088f578063ce6a9f01146106dc578063d8264920146106ad578063e086e5ec1461065d578063e1f1c4a714610640578063f04f27071461026e578063f2fde38b1461019c5763f9b2d6aa036100125734610198576020366003190112610198576107d0813581810293918115918504141715610186575081156101715750633b9aca0060209251916801158e460913d0000004048152f35b601290634e487b7160e01b6000525260246000fd5b6011602492634e487b7160e01b835252fd5b5080fd5b5082903461026a57602036600319011261026a576101b86110f4565b906101c1611304565b6001600160a01b03918216928315610218575050600154826bffffffffffffffffffffffff60a01b821617600155167f8be0079c531659141344cd1fd0a4f28419497f9722a3daafe3b4186f6b6457e0600080a380f35b906020608492519162461bcd60e51b8352820152602660248201527f4f776e61626c653a206e6577206f776e657220697320746865207a65726f206160448201526564647265737360d01b6064820152fd5b8280fd5b509134610198576080366003190112610198578235916001600160401b039182841161019857366023850112156101985783850135916102ad8361122d565b926102ba8351948561120c565b8084526020958685016024809360051b8301019136831161061c5783899101915b8383106106285750505050803585811161026a576102fc9036908901611244565b94604494853582811161061c576103169036908b01611244565b5060643582811161061c5761032e9036908b016112bd565b9373ba12222222228d8ba445958a75a0704d566bf2c894610350863314611549565b805181018a8101918b81830312610624578b8101519086821161061c5701918291610140928391031261062457885195610389876111ba565b6103948d85016114af565b87526103a18a85016114af565b878e015260608401518a88015260808401518e81101561062057606088015260a08401518e81101561062057608088015260c084015181811161062057828e6103ec92870101611883565b60a088015260e084015190811161061c57908c61040b92850101611883565b60c08601526101008281015160e08701526101208084015191870191909152910151908401526001600160a01b039261045a9084610448856118c8565b51166104538b6118c8565b5190611922565b156105db5782610469836118c8565b5116898b868951809481936370a0823160e01b835230908301525afa80156105d157829061059d575b6104bc91506104ac6104a38b6118c8565b51821015611586565b6104b58a6118c8565b51906115d2565b996104c6896118c8565b519060648202918083046064149015171561058b57506127106104ec91048b10156115df565b805b825181101561054b57806105418b8b610517848961050f610546988b6118eb565b5116926118eb565b518b519263a9059cbb60e01b908401528a8a8401528c8301528b825261053c826111f1565b611688565b61153a565b6104ee565b50887f26f6bbbd455b9507bac0682b6ff4a332a2834a438d602a13bdb22d491d440f3c878c8661057a876118c8565b51169382519182524290820152a280f35b634e487b7160e01b8352601190528482fd5b508981813d83116105ca575b6105b3818361120c565b810103126105c5576104bc9051610492565b600080fd5b503d6105a9565b87513d84823e3d90fd5b855162461bcd60e51b8152808b018a9052601a818601527f41726269747261676520657865637574696f6e206661696c656400000000000081890152606490fd5b8480fd5b8580fd5b8380fd5b81906106338461110a565b81520191019088906102db565b828434610198578160031936011261019857602090516127108152f35b828434610198578160031936011261019857610677611304565b8180808060018060a01b036001541647908282156106a4575bf11561069a575080f35b51903d90823e3d90fd5b506108fc610690565b82843461019857816003193601126101985760209051734752ba5dbc23f44d87826276bf6fd6b1c372ad248152f35b5034610198576003199260603685011261026a576001600160401b0393823585811161061c5761070f9036908501611161565b95909160243582811161088b576107299036908701611161565b909260443590811161088757610742903690880161111e565b91909361074d611304565b6107556114e4565b885b828110610861575073ba12222222228d8ba445958a75a0704d566bf2c893843b1561085d578a885199632e1c224f60e11b8b5260848b019030908c0152608060248c01525260a48901968a9b5b808d1061083457505088870301604489015281865297985088976001600160fb1b038211610830576107f788958694602086948d9a8b9760051b80928483013701601c86820301606487015201916114c3565b03925af19081156108275750610810575b506001905580f35b61081990611191565b610824578038610808565b80fd5b513d84823e3d90fd5b8880fd5b90976001906001600160a01b0361084a8b61110a565b168152602080910199019c019b906107a4565b8980fd5b806105416a084595161401484a0000006108829360051b850135111561135c565b610757565b8780fd5b8680fd5b8284346101985781600319360112610198576020905173ba12222222228d8ba445958a75a0704d566bf2c88152f35b8284346101985781600319360112610198576020905173f98b45fa17de75fb1ad0e7afd971b0ca00e379fc8152f35b509034610824576108fd3661114b565b90633b9aca009182810292818404149015171561095a579061091e91611486565b916107d09283810293818504149015171561094757602083670de0b6b3a7640000865191048152f35b634e487b7160e01b825260119052602490fd5b634e487b7160e01b835260118452602483fd5b8284346101985781600319360112610198576020905160148152f35b82843461019857366003190112610824576109c66109a56110f4565b6109ad611304565b600154602435916001600160a01b03918216911661162b565b80f35b82843461019857816003193601126101985760015490516001600160a01b039091168152602090f35b8284346101985781600319360112610198576020905160648152f35b50823461026a57606036600319011261026a57610a296110f4565b91602435926044356001600160401b03811161062057610a4c903690840161111e565b9190610a56611304565b610a5e6114e4565b610a756a084595161401484a00000087111561135c565b610a81838201826113a8565b610a916101208201513a90611486565b6107d090818102918183041490151715610c4657670de0b6b3a76400006014910411610c035761010001513a11610bc057845163026b1d5f60e01b815287949093929190602085828173e20fcbdbffc4dd138ce8b2e6fbb6cb49777ad64d5afa948515610bb6578695610b7b575b506001600160a01b0394851693843b1561088b578692610b4d9189519a8b98899788966310ac2ddf60e21b88523090880152166024860152604485015260a0606485015260a48401916114c3565b82608483015203925af19081156108275750610b6c575b506001815580f35b610b7590611191565b81610b64565b9094506020813d8211610bae575b81610b966020938361120c565b8101031261062057610ba7906114af565b9389610aff565b3d9150610b89565b87513d88823e3d90fd5b845162461bcd60e51b8152602081860152601c60248201527f47617320707269636520657863656564732075736572206c696d6974000000006044820152606490fd5b855162461bcd60e51b8152602081870152601c60248201527f47617320636f7374206578636565647320243230206d6178696d756d000000006044820152606490fd5b634e487b7160e01b895260118652602489fd5b828434610198578160031936011261019857602090516a084595161401484a0000008152f35b8234610824578060031936011261082457610c98611304565b600180546001600160a01b0319811690915581906001600160a01b03167f8be0079c531659141344cd1fd0a4f28419497f9722a3daafe3b4186f6b6457e08280a380f35b50823461026a57602036600319011261026a5782610cf86110f4565b92610d01611304565b6001600160a01b0393841680610d2f57505080808093946001541647908282156106a457f11561069a575080f35b91509260015416908251936370a0823160e01b85523090850152602084602481845afa928315610da057508492610d6b575b6109c6935061162b565b91506020833d8211610d98575b81610d856020938361120c565b81010312610624576109c6925191610d61565b3d9150610d78565b513d86823e3d90fd5b50903461082457610db93661114b565b90633b9aca009182810292818404149015171561095a5790610dda91611486565b916107d0928381029381850414901517156109475783670de0b6b3a76400008404815190601481111582526020820152f35b82843461019857816003193601126101985760209051736bded42c6da8fbf0d2ba55b2fa120c5e0c8d78918152f35b5082903461026a5760a036600319011261026a57610e576110f4565b6064356001600160a01b03818116959260243592604435919088900361061c576084356001600160401b03811161062057610e95903690880161111e565b885163026b1d5f60e01b815260209a908b818b8173e20fcbdbffc4dd138ce8b2e6fbb6cb49777ad64d5afa801561109f5787908a90611067575b610edc9250163314611549565b30036110305781610ef291610ef99301906113a8565b8583611922565b928285019182861161101d57169587516370a0823160e01b8152308282015289816024818b5afa80156110135783908890610fe2575b610f459250610f4082821015611586565b6115d2565b9560648602918683046064148715171561094757505087947f26f6bbbd455b9507bac0682b6ff4a332a2834a438d602a13bdb22d491d440f3c96948894610fc07fe7055bb7f757aae8cfbf6ea2247e26371914425f5500c1d720f0746ae1ff880395610fb9612710606097048a10156115df565b338861162b565b87519283528b830152151586820152a281519081524286820152a25160018152f35b50508981813d831161100c575b610ff9818361120c565b8101031261088b5782610f459151610f2f565b503d610fef565b89513d89823e3d90fd5b634e487b7160e01b875260118852602487fd5b885162461bcd60e51b81528089018b9052601160248201527024b73b30b634b21034b734ba34b0ba37b960791b6044820152606490fd5b50508b81813d8311611098575b61107e818361120c565b810103126108305786611093610edc926114af565b610ecf565b503d611074565b8b513d8b823e3d90fd5b828434610198578160031936011261019857602090516107d08152f35b8390346101985781600319360112610198578073e20fcbdbffc4dd138ce8b2e6fbb6cb49777ad64d60209252f35b600435906001600160a01b03821682036105c557565b35906001600160a01b03821682036105c557565b9181601f840112156105c5578235916001600160401b0383116105c557602083818601950101116105c557565b60409060031901126105c5576004359060243590565b9181601f840112156105c5578235916001600160401b0383116105c5576020808501948460051b0101116105c557565b6001600160401b0381116111a457604052565b634e487b7160e01b600052604160045260246000fd5b61014081019081106001600160401b038211176111a457604052565b604081019081106001600160401b038211176111a457604052565b608081019081106001600160401b038211176111a457604052565b90601f801991011681019081106001600160401b038211176111a457604052565b6001600160401b0381116111a45760051b60200190565b81601f820112156105c55780359161125b8361122d565b92611269604051948561120c565b808452602092838086019260051b8201019283116105c5578301905b828210611293575050505090565b81358152908301908301611285565b6001600160401b0381116111a457601f01601f191660200190565b81601f820112156105c5578035906112d4826112a2565b926112e2604051948561120c565b828452602083830101116105c557816000926020809301838601378301015290565b6001546001600160a01b0316330361131857565b606460405162461bcd60e51b815260206004820152602060248201527f4f776e61626c653a2063616c6c6572206973206e6f7420746865206f776e65726044820152fd5b1561136357565b60405162461bcd60e51b815260206004820152601960248201527f416d6f756e742065786365656473202431304d206c696d6974000000000000006044820152606490fd5b6020818303126105c55780356001600160401b03918282116105c5570190610140828403126105c557604051926113de846111ba565b6113e78361110a565b84526113f56020840161110a565b602085015260408301356040850152606083013560048110156105c5576060850152608083013560048110156105c557608085015260a08301358281116105c557816114429185016112bd565b60a085015260c08301359182116105c55761145e9183016112bd565b60c083015260e081013560e08301526101008082013590830152610120809101359082015290565b8181029291811591840414171561149957565b634e487b7160e01b600052601160045260246000fd5b51906001600160a01b03821682036105c557565b908060209392818452848401376000828201840152601f01601f1916010190565b6002600054146114f5576002600055565b60405162461bcd60e51b815260206004820152601f60248201527f5265656e7472616e637947756172643a207265656e7472616e742063616c6c006044820152606490fd5b60001981146114995760010190565b1561155057565b60405162461bcd60e51b815260206004820152600e60248201526d24b73b30b634b21031b0b63632b960911b6044820152606490fd5b1561158d57565b60405162461bcd60e51b815260206004820152601d60248201527f496e73756666696369656e742062616c616e636520746f2072657061790000006044820152606490fd5b9190820391821161149957565b156115e657565b60405162461bcd60e51b815260206004820152601960248201527f50726f6669742062656c6f77203125207468726573686f6c64000000000000006044820152606490fd5b60405163a9059cbb60e01b60208201526001600160a01b039092166024830152604482019290925261166e9161053c82606481015b03601f19810184528361120c565b565b908160209103126105c5575180151581036105c55790565b6040516116e6916001600160a01b03166116a1826111d6565b6000806020958685527f5361666545524332303a206c6f772d6c6576656c2063616c6c206661696c656487860152868151910182855af16116e061176e565b9161179e565b805190828215928315611756575b505050156116ff5750565b6084906040519062461bcd60e51b82526004820152602a60248201527f5361666545524332303a204552433230206f7065726174696f6e20646964206e6044820152691bdd081cdd58d8d9595960b21b6064820152fd5b6117669350820181019101611670565b3882816116f4565b3d15611799573d9061177f826112a2565b9161178d604051938461120c565b82523d6000602084013e565b606090565b9192901561180057508151156117b2575090565b3b156117bb5790565b60405162461bcd60e51b815260206004820152601d60248201527f416464726573733a2063616c6c20746f206e6f6e2d636f6e74726163740000006044820152606490fd5b8251909150156118135750805190602001fd5b60405162461bcd60e51b81526020600482015290819061183790602483019061185e565b0390fd5b60005b83811061184e5750506000910152565b818101518382015260200161183e565b906020916118778151809281855285808601910161183b565b601f01601f1916010190565b81601f820112156105c5578051611899816112a2565b926118a7604051948561120c565b818452602082840101116105c5576118c5916020808501910161183b565b90565b8051156118d55760200190565b634e487b7160e01b600052603260045260246000fd5b80518210156118d55760209160051b010190565b90600482101561190c5752565b634e487b7160e01b600052602160045260246000fd5b606083019182519160049283811015611a2b5790611946918360a088015192611a97565b60208501805160808701805192959390926001600160a01b039283169185821015611a82579061197c929160c08b015192611a97565b84600091818111600014611a7a5761199492506115d2565b965b60e08101518810611a4057818091511695511695519183831015611a2b57519280841015611a165750608092611a067f99f5f2282ea6a09a6f4eca16f69a79543bd628094c28102155974b489b01959a9593611a10936001541699604051958652602086015260408501906118ff565b60608301906118ff565ba4600190565b602190634e487b7160e01b6000525260246000fd5b602184634e487b7160e01b6000525260246000fd5b60405162461bcd60e51b81526020818601526013602482015272125b9cdd59999a58da595b9d081c1c9bd99a5d606a1b6044820152606490fd5b505096611996565b602186634e487b7160e01b6000525260246000fd5b90939291600481101561190c5780611d415750815182019160209081818503126105c55781810151906001600160401b03948583116105c557611ae09284809201920101612522565b60405163095ea7b360e01b838201818152734752ba5dbc23f44d87826276bf6fd6b1c372ad246024840181905260448085018b9052845290986001600160a01b03969194939092918716611b33826111f1565b600080809c84519082855af1611b4761176e565b81611d11575b5080611d07575b15611cd1575b50505061012c420190814211611cbd57918893916040519687946338ed173960e01b865260a4860190600487015286602487015260a0604487015283518091528760c4870194019187905b89838310611c9d5750505050508380928692306064840152608483015203925af1928315611c92578593611c09575b5050815160001981019291508211611bf557611bf19293506118eb565b5190565b634e487b7160e01b84526011600452602484fd5b909192503d8086853e611c1c818561120c565b830192828185031261062057805191821161062057019180601f8401121561061c578251611c498161122d565b93611c57604051958661120c565b818552838086019260051b82010192831161088b578301905b828210611c835750505050388080611bd4565b81518152908301908301611c70565b6040513d87823e3d90fd5b8451821687528e99508b9850958601959390930192600190910190611ba5565b634e487b7160e01b89526011600452602489fd5b61053c611cff9360405190898201528760248201528c604482015260448152611cf9816111f1565b82611688565b388080611b5a565b50803b1515611b54565b80518015925089908315611d29575b50505038611b4d565b611d399350820181019101611670565b388881611d20565b6001949290858103611fbc5750805181019260209182818603126105c55782810151906001600160401b03958683116105c557611d849285809201920101612522565b60405163095ea7b360e01b848201818152736bded42c6da8fbf0d2ba55b2fa120c5e0c8d7891602484018190526044808501879052845290996001600160a01b03979195939092918816611dd7826111f1565b600080809d84519082855af1611deb61176e565b81611f8c575b5080611f82575b15611f52575b50505061012c420191824211611f3e57929095918994926040519788956338ed173960e01b875260a4870190600488015287602488015260a0604488015284518091528860c4880195019288905b8a838310611f21575050505050508380928692306064840152608483015203925af1928315611c92578593611e98575050815160001981019291508211611bf557611bf19293506118eb565b909192503d8086853e611eab818561120c565b830192828185031261062057805191821161062057019180601f8401121561061c578251611ed88161122d565b93611ee6604051958661120c565b818552838086019260051b82010192831161088b578301905b828210611f125750505050388080611bd4565b81518152908301908301611eff565b8551821688528f9a508c9950968701969094019390830190611e4c565b634e487b7160e01b8a52601160045260248afd5b61053c611f7a93604051908a8201528860248201528d604482015260448152611cf9816111f1565b388080611dfe565b50803b1515611df8565b8051801592508a908315611fa4575b50505038611df1565b611fb49350820181019101611670565b388981611f9b565b93945090926002810361231a575090815182016020838203126105c55760208301516001600160401b03938482116105c55701906040828203126105c5576040519160408301838110868211176111a457604052602081015183526040810151918583116105c557612035926020809201920101612522565b602082810191825260405163095ea7b360e01b91810182815273ba12222222228d8ba445958a75a0704d566bf2c860248301526044808301879052825292966001600160a01b03169392600090819061208d846111f1565b83519082885af161209c61176e565b816122eb575b50806122e1575b15612290575b505051935180516000198101908111611499576001600160a01b03916120d591906118eb565b5116906040519460c08601868110868211176111a457604052855260006020860152604085015260608401526080830152604051612112816111d6565b6002815261060f60f31b602082015260a08301526040519060808201908111828210176111a457604052308152600060208201523060408201526000606082015261012c42014211611499576040516352bbbe2960e01b815260e06004820152825160e482015260208301519092600282101561190c5760209260606121e160a08795948695610104870152600180831b03604082015116610124870152600180831b0384820151166101448701526080810151610164870152015160c06101848601526101a485019061185e565b82516001600160a01b0390811660248601528684015115156044860152604084015116606485015291015115156084830152600060a483018190524261012c0160c484015291900390829073ba12222222228d8ba445958a75a0704d566bf2c85af190811561228457600091612255575090565b90506020813d60201161227c575b816122706020938361120c565b810103126105c5575190565b3d9150612263565b6040513d6000823e3d90fd5b6122d46122da9260405190602082015273ba12222222228d8ba445958a75a0704d566bf2c8602482015260006044820152604481526122ce816111f1565b85611688565b83611688565b38806120af565b50833b15156120a9565b8051801592508215612300575b5050386120a2565b6123139250602080918301019101611670565b38806122f8565b6003146123585760405162461bcd60e51b815260206004820152600f60248201526e0aadce6eae0e0dee4e8cac840888ab608b1b6044820152606490fd5b6060818051810103126105c55760409283519060608201928284106001600160401b038511176111a45784938652608460209384936123988585016114af565b908183526123b960606123ac8c8801612588565b9688860197885201612588565b8a84019081528a5163095ea7b360e01b8882018181526001600160a01b0395861660248401819052604484019c909c52909a92959094939092919084166124038260648101611660565b8d60009c8d80809986519082875af161241a61176e565b816124f2575b50806124e8575b156124b8575b50505050505116935191519389519889958694630f7c084960e21b8652600f0b6004860152600f0b602485015260448401528160648401525af19384156124ad5750819361247c575b50505090565b9091809350813d83116124a6575b612494818361120c565b81010312610824575051388080612476565b503d61248a565b51913d9150823e3d90fd5b6124de9461053c9251918d830152602482015287604482015260448152611cf9816111f1565b3880808d8161242d565b50823b1515612427565b8051801592508e90831561250a575b50505038612420565b61251a9350820181019101611670565b388d81612501565b81601f820112156105c5578051916125398361122d565b92612547604051948561120c565b808452602092838086019260051b8201019283116105c5578301905b828210612571575050505090565b83809161257d846114af565b815201910190612563565b519081600f0b82036105c55756fea26469706673582212207fe8b4e41ef3933758bcc2447d1b59c8527bb86ec125f8834bdc602e5c1a179364736f6c63430008140033",
  "linkReferences": {},
  "deployedLinkReferences": {}
}