{
  "_format": "hh-sol-artifact-1",
  "contractName": "AEONMathTester",
  "sourceName": "backend/contracts/AEONMathTester.sol",
  "abi": [
    {
      "inputs": [
        {
          "internalType": "uint256",
          "name": "price1",
          "type": "uint256"
        },
        {
          "internalType": "uint256",
          "name": "price2",
          "type": "uint256"
        }
      ],
      "name": "calculateSpreadBps",
      "outputs": [
        {
          "internalType": "int256",
          "name": "",
          "type": "int256"
        }
      ],
      "stateMutability": "pure",
      "type": "function"
    },
    {
      "inputs": [
        {
          "internalType": "uint256",
          "name": "expectedProfitUSD",
          "type": "uint256"
        },
        {
          "internalType": "uint256",
          "name": "gasUsed",
          "type": "uint256"
        },
        {
          "internalType": "uint256",
          "name": "gasPriceWei",
          "type": "uint256"
        }
      ],
      "name": "efficiencyScore",
      "outputs": [
        {
          "internalType": "int256",
          "name": "",
          "type": "int256"
        }
      ],
      "stateMutability": "pure",
      "type": "function"
    },
    {
      "inputs": [
        {
          "internalType": "uint256",
          "name": "balanceIn",
          "type": "uint256"
        },
        {
          "internalType": "uint256",
          "name": "balanceOut",
          "type": "uint256"
        },
        {
          "internalType": "uint256",
          "name": "weightIn",
          "type": "uint256"
        },
        {
          "internalType": "uint256",
          "name": "weightOut",
          "type": "uint256"
        }
      ],
      "name": "getBalancerImpliedPrice",
      "outputs": [
        {
          "internalType": "uint256",
          "name": "",
          "type": "uint256"
        }
      ],
      "stateMutability": "pure",
      "type": "function"
    },
    {
      "inputs": [],
      "name": "getCurrentBlockNumber",
      "outputs": [
        {
          "internalType": "uint256",
          "name": "",
          "type": "uint256"
        }
      ],
      "stateMutability": "view",
      "type": "function"
    },
    {
      "inputs": [],
      "name": "getCurrentTimestamp",
      "outputs": [
        {
          "internalType": "uint256",
          "name": "",
          "type": "uint256"
        }
      ],
      "stateMutability": "view",
      "type": "function"
    },
    {
      "inputs": [
        {
          "internalType": "int256",
          "name": "spreadBps",
          "type": "int256"
        },
        {
          "internalType": "uint256",
          "name": "feeBps",
          "type": "uint256"
        }
      ],
      "name": "isAboveThreshold",
      "outputs": [
        {
          "internalType": "bool",
          "name": "",
          "type": "bool"
        }
      ],
      "stateMutability": "pure",
      "type": "function"
    }
  ],
  "bytecode": "0x6080806040523461001657610301908161001c8239f35b600080fdfe608060408181526004918236101561001657600080fd5b600090813560e01c908163548d83d11461020b575080636c9230db146101f05780636fd902e1146101d15780639543e61c146101aa578063bc91970a146101065763e12d22ff1461006657600080fd5b346101035760803660031901126101035750602435606435811515806100fa575b156100b757906100aa6100a06100b09360209635610234565b9160443590610234565b9061025d565b9051908152f35b825162461bcd60e51b8152602081860152601960248201527f496e76616c6964206f757470757420706f6f6c207374617465000000000000006044820152606490fd5b50801515610087565b80fd5b5034610103578160031936011261010357823560243591821561017457828203918083116101615783612710808502948504149114171561014e576020846100b0858561025d565b634e487b7160e01b815260118552602490fd5b634e487b7160e01b825260118652602482fd5b835162461bcd60e51b8152602081870152601060248201526f4469766973696f6e206279207a65726f60801b6044820152606490fd5b503461010357606036600319011261010357506100b060209260443590602435903561027d565b5090346101ec57816003193601126101ec5760209051438152f35b5080fd5b5090346101ec57816003193601126101ec5760209051428152f35b90508383346102305736600319011261022c57602092506024359035138152f35b8280fd5b8380fd5b8181029291811591840414171561024757565b634e487b7160e01b600052601160045260246000fd5b8115610267570490565b634e487b7160e01b600052601260045260246000fd5b90610292670de0b6b3a7640000938492610234565b049081156102b657828102928184041490151715610247576102b39161025d565b90565b9050818102918183041490151715610247579056fea2646970667358221220802ceecafd038d0f1206f2567429db02e8041eea3f3e7bed1490a7175c259b4764736f6c63430008140033",
  "linkReferences": {},
  "deployedLinkReferences": {}
}