{
  "_format": "hh-sol-artifact-1",
  "contractName": "FlashLoanArbitrage",
  "sourceName": "backend/contracts/FlashLoanArbitrage.sol",
  "abi": [
    {
      "inputs": [
        {
          "internalType": "address",
          "name": "_addressProvider",
          "type": "address"
        }
      ],
      "stateMutability": "nonpayable",
      "type": "constructor"
    },
    {
      "anonymous": false,
      "inputs": [
        {
          "indexed": true,
          "internalType": "address",
          "name": "token",
          "type": "address"
        },
        {
          "indexed": false,
          "internalType": "uint256",
          "name": "amountIn",
          "type": "uint256"
        },
        {
          "indexed": false,
          "internalType": "uint256",
          "name": "profit",
          "type": "uint256"
        },
        {
          "indexed": false,
          "internalType": "uint256",
          "name": "gasUsed",
          "type": "uint256"
        }
      ],
      "name": "ArbitrageExecuted",
      "type": "event"
    },
    {
      "anonymous": false,
      "inputs": [
        {
          "indexed": true,
          "internalType": "address",
          "name": "token",
          "type": "address"
        },
        {
          "indexed": false,
          "internalType": "uint256",
          "name": "amountIn",
          "type": "uint256"
        },
        {
          "indexed": false,
          "internalType": "string",
          "name": "reason",
          "type": "string"
        }
      ],
      "name": "ArbitrageFailed",
      "type": "event"
    },
    {
      "anonymous": false,
      "inputs": [
        {
          "indexed": true,
          "internalType": "address",
          "name": "asset",
          "type": "address"
        },
        {
          "indexed": false,
          "internalType": "uint256",
          "name": "amount",
          "type": "uint256"
        },
        {
          "indexed": false,
          "internalType": "uint256",
          "name": "profit",
          "type": "uint256"
        },
        {
          "indexed": false,
          "internalType": "uint256",
          "name": "flashLoanFee",
          "type": "uint256"
        }
      ],
      "name": "FlashLoanArbitrageExecuted",
      "type": "event"
    },
    {
      "anonymous": false,
      "inputs": [
        {
          "indexed": true,
          "internalType": "address",
          "name": "previousOwner",
          "type": "address"
        },
        {
          "indexed": true,
          "internalType": "address",
          "name": "newOwner",
          "type": "address"
        }
      ],
      "name": "OwnershipTransferred",
      "type": "event"
    },
    {
      "inputs": [],
      "name": "ADDRESSES_PROVIDER",
      "outputs": [
        {
          "internalType": "contract IPoolAddressesProvider",
          "name": "",
          "type": "address"
        }
      ],
      "stateMutability": "view",
      "type": "function"
    },
    {
      "inputs": [],
      "name": "POOL",
      "outputs": [
        {
          "internalType": "contract IPool",
          "name": "",
          "type": "address"
        }
      ],
      "stateMutability": "view",
      "type": "function"
    },
    {
      "inputs": [
        {
          "internalType": "address",
          "name": "",
          "type": "address"
        }
      ],
      "name": "authorizedCallers",
      "outputs": [
        {
          "internalType": "bool",
          "name": "",
          "type": "bool"
        }
      ],
      "stateMutability": "view",
      "type": "function"
    },
    {
      "inputs": [
        {
          "internalType": "string",
          "name": "",
          "type": "string"
        }
      ],
      "name": "dexRouters",
      "outputs": [
        {
          "internalType": "address",
          "name": "router",
          "type": "address"
        },
        {
          "internalType": "bool",
          "name": "enabled",
          "type": "bool"
        }
      ],
      "stateMutability": "view",
      "type": "function"
    },
    {
      "inputs": [
        {
          "internalType": "address",
          "name": "token",
          "type": "address"
        },
        {
          "internalType": "uint256",
          "name": "amount",
          "type": "uint256"
        }
      ],
      "name": "emergencyWithdraw",
      "outputs": [],
      "stateMutability": "nonpayable",
      "type": "function"
    },
    {
      "inputs": [
        {
          "internalType": "address",
          "name": "asset",
          "type": "address"
        },
        {
          "internalType": "uint256",
          "name": "amount",
          "type": "uint256"
        },
        {
          "internalType": "bytes",
          "name": "params",
          "type": "bytes"
        }
      ],
      "name": "executeArbitrage",
      "outputs": [
        {
          "internalType": "uint256",
          "name": "profit",
          "type": "uint256"
        }
      ],
      "stateMutability": "nonpayable",
      "type": "function"
    },
    {
      "inputs": [
        {
          "internalType": "address",
          "name": "asset",
          "type": "address"
        },
        {
          "internalType": "uint256",
          "name": "amount",
          "type": "uint256"
        },
        {
          "internalType": "bytes",
          "name": "params",
          "type": "bytes"
        }
      ],
      "name": "executeFlashLoanArbitrage",
      "outputs": [],
      "stateMutability": "nonpayable",
      "type": "function"
    },
    {
      "inputs": [
        {
          "internalType": "address",
          "name": "asset",
          "type": "address"
        },
        {
          "internalType": "uint256",
          "name": "amount",
          "type": "uint256"
        },
        {
          "internalType": "uint256",
          "name": "premium",
          "type": "uint256"
        },
        {
          "internalType": "address",
          "name": "initiator",
          "type": "address"
        },
        {
          "internalType": "bytes",
          "name": "params",
          "type": "bytes"
        }
      ],
      "name": "executeOperation",
      "outputs": [
        {
          "internalType": "bool",
          "name": "",
          "type": "bool"
        }
      ],
      "stateMutability": "nonpayable",
      "type": "function"
    },
    {
      "inputs": [
        {
          "internalType": "address",
          "name": "token",
          "type": "address"
        }
      ],
      "name": "getBalance",
      "outputs": [
        {
          "internalType": "uint256",
          "name": "",
          "type": "uint256"
        }
      ],
      "stateMutability": "view",
      "type": "function"
    },
    {
      "inputs": [],
      "name": "getSuccessRate",
      "outputs": [
        {
          "internalType": "uint256",
          "name": "",
          "type": "uint256"
        }
      ],
      "stateMutability": "view",
      "type": "function"
    },
    {
      "inputs": [],
      "name": "getTotalProfit",
      "outputs": [
        {
          "internalType": "uint256",
          "name": "",
          "type": "uint256"
        }
      ],
      "stateMutability": "view",
      "type": "function"
    },
    {
      "inputs": [],
      "name": "owner",
      "outputs": [
        {
          "internalType": "address",
          "name": "",
          "type": "address"
        }
      ],
      "stateMutability": "view",
      "type": "function"
    },
    {
      "inputs": [],
      "name": "paused",
      "outputs": [
        {
          "internalType": "bool",
          "name": "",
          "type": "bool"
        }
      ],
      "stateMutability": "view",
      "type": "function"
    },
    {
      "inputs": [
        {
          "internalType": "address",
          "name": "tokenA",
          "type": "address"
        },
        {
          "internalType": "address",
          "name": "tokenB",
          "type": "address"
        },
        {
          "internalType": "uint256",
          "name": "amount",
          "type": "uint256"
        },
        {
          "internalType": "string",
          "name": "buyDex",
          "type": "string"
        },
        {
          "internalType": "string",
          "name": "sellDex",
          "type": "string"
        },
        {
          "internalType": "uint256",
          "name": "minProfit",
          "type": "uint256"
        }
      ],
      "name": "performArbitrage",
      "outputs": [],
      "stateMutability": "nonpayable",
      "type": "function"
    },
    {
      "inputs": [],
      "name": "renounceOwnership",
      "outputs": [],
      "stateMutability": "nonpayable",
      "type": "function"
    },
    {
      "inputs": [
        {
          "internalType": "address",
          "name": "caller",
          "type": "address"
        },
        {
          "internalType": "bool",
          "name": "authorized",
          "type": "bool"
        }
      ],
      "name": "setAuthorizedCaller",
      "outputs": [],
      "stateMutability": "nonpayable",
      "type": "function"
    },
    {
      "inputs": [
        {
          "internalType": "bool",
          "name": "_paused",
          "type": "bool"
        }
      ],
      "name": "setPaused",
      "outputs": [],
      "stateMutability": "nonpayable",
      "type": "function"
    },
    {
      "inputs": [],
      "name": "successfulTrades",
      "outputs": [
        {
          "internalType": "uint256",
          "name": "",
          "type": "uint256"
        }
      ],
      "stateMutability": "view",
      "type": "function"
    },
    {
      "inputs": [],
      "name": "totalProfit",
      "outputs": [
        {
          "internalType": "uint256",
          "name": "",
          "type": "uint256"
        }
      ],
      "stateMutability": "view",
      "type": "function"
    },
    {
      "inputs": [],
      "name": "totalTrades",
      "outputs": [
        {
          "internalType": "uint256",
          "name": "",
          "type": "uint256"
        }
      ],
      "stateMutability": "view",
      "type": "function"
    },
    {
      "inputs": [
        {
          "internalType": "address",
          "name": "newOwner",
          "type": "address"
        }
      ],
      "name": "transferOwnership",
      "outputs": [],
      "stateMutability": "nonpayable",
      "type": "function"
    },
    {
      "inputs": [
        {
          "internalType": "string",
          "name": "dexName",
          "type": "string"
        },
        {
          "internalType": "address",
          "name": "router",
          "type": "address"
        },
        {
          "internalType": "bool",
          "name": "enabled",
          "type": "bool"
        }
      ],
      "name": "updateDEXRouter",
      "outputs": [],
      "stateMutability": "nonpayable",
      "type": "function"
    },
    {
      "stateMutability": "payable",
      "type": "receive"
    }
  ],
  "bytecode": "0x60c06040908082523462000200576200196e803803809162000022828562000237565b83396001600160a01b039182916200003e91908101906200025b565b1680608052825191829163026b1d5f60e01b835282600460209485935afa928315620001f5576002938291600091620001c1575b501660a05260008054336001600160a01b03198216811783558651939290918316907f8be0079c531659141344cd1fd0a4f28419497f9722a3daafe3b4186f6b6457e09080a360018055620000c78262000205565b7394cc0aac535ccdb3c01d6787d6413c739ae12bc48252828201600181528160278751660756e69737761760cc1b8152600780820152209351169280549360ff60a01b809351151560a01b169060018060a81b031980961617179055855192620001318462000205565b731b02da8cb0d097eb8d57a175b88c7d8b4799750684528484019260018452602988516807375736869737761760bc1b815260076009820152209451169184549351151560a01b16921617179055336000525280600020600160ff19825416179055516116f190816200027d823960805181611166015260a051818181610542015281816109600152610c220152f35b620001e69150843d8611620001ed575b620001dd818362000237565b8101906200025b565b3862000072565b503d620001d1565b84513d6000823e3d90fd5b600080fd5b604081019081106001600160401b038211176200022157604052565b634e487b7160e01b600052604160045260246000fd5b601f909101601f19168101906001600160401b038211908210176200022157604052565b908160209103126200020057516001600160a01b038116810362000200579056fe6080604081815260049182361015610022575b505050361561002057600080fd5b005b600092833560e01c9182630542975c146111525750816305785ad4146110d957816316c38b3c146110a25781631b11d0ff14610bc9578163454bbd2914610b77578163536fff6c14610b395781635c975abb14610b155781635e7ffa6714610aa25781636dfef2b9146109e9578163715018a61461098f5781637535d2461461094b5781637c1d9539146106fc57816386001519146106125781638da5cb5b146106d457816395ccea6714610631578163a9a4cbcc1461061257838263c1386ab9146104ed57508163e275c997146104cf578163ea0ef626146102ac578163f2fde38b146101df578163f8b2cb4f14610147575063fc213996146101265780610012565b346101435781600319360112610143576020906005549051908152f35b5080fd5b83833461014357602092836003193601126101db57836001600160a01b0361016d611195565b169160248451809481936370a0823160e01b835230908301525afa9283156101d0579261019c575b5051908152f35b9091508281813d83116101c9575b6101b48183611249565b810103126101c457519083610195565b600080fd5b503d6101aa565b8251903d90823e3d90fd5b8280fd5b9050346101db5760203660031901126101db576101fa611195565b9061020361132c565b6001600160a01b0391821692831561025a575050600054826bffffffffffffffffffffffff60a01b821617600055167f8be0079c531659141344cd1fd0a4f28419497f9722a3daafe3b4186f6b6457e0600080a380f35b906020608492519162461bcd60e51b8352820152602660248201527f4f776e61626c653a206e6577206f776e657220697320746865207a65726f206160448201526564647265737360d01b6064820152fd5b919050346101db5760c03660031901126101db576102c8611195565b6102d06111ab565b9160449283359460649182359067ffffffffffffffff918281116104cb576102fb903690850161126b565b916084359081116104cb57610313903690850161126b565b9130330361049057610326908988611590565b90811561045c57906103389291611590565b801561042957868111156103f35786610350916114c7565b9460a43586106103b457505050906103ae7fac5e73d65c7df1a72a57e0d680767c7e764095957ee44ec036b761799b56afd293925a9051958652602086019390935260408501929092526001600160a01b0316929081906060820190565b0390a280f35b7f50726f6669742062656c6f77206d696e696d756d207468726573686f6c64000090602085519362461bcd60e51b8552840152601e6024840152820152fd5b5072139bc8185c989a5d1c9859d9481c1c9bd99a5d606a1b85602085519362461bcd60e51b855284015260136024840152820152fd5b506f14d95b1b081cddd85c0819985a5b195960821b85602085519362461bcd60e51b855284015260106024840152820152fd5b5050506e109d5e481cddd85c0819985a5b1959608a1b85602085519362461bcd60e51b8552840152600f6024840152820152fd5b50505075496e7465726e616c2066756e6374696f6e206f6e6c7960501b85602085519362461bcd60e51b855284015260166024840152820152fd5b8980fd5b9050346101db57826003193601126101db5760209250549051908152f35b8091843461060e576104fe366112e5565b919492338752600260205260ff858820541680156105fb575b61052090611384565b61052f60ff60065416156113c1565b610537611402565b6001600160a01b03927f0000000000000000000000000000000000000000000000000000000000000000841692833b156105f757889582879360c4938a519b8c998a9889966310ac2ddf60e21b88523090880152166024860152604485015260a060648501528160a48501528484013783838284010152836084830152601f801991011681010301925af19081156105ee57506105d7575b506001805580f35b6105e090611203565b6105eb5780826105cf565b80fd5b513d84823e3d90fd5b8880fd5b5086546001600160a01b03163314610517565b5050fd5b5050346101435781600319360112610143576020906003549051908152f35b919050346101db57806003193601126101db57602061069492610652611195565b61065a61132c565b8554845163a9059cbb60e01b81526001600160a01b0391821693810193845260243560208501529586938492899290918491604090910190565b0393165af19081156105ee57506106a9575080f35b6106c99060203d81116106cd575b6106c18183611249565b810190611578565b5080f35b503d6106b7565b505034610143578160031936011261014357905490516001600160a01b039091168152602090f35b919050346101db5761070d366112e5565b9592903384526020966002885260ff86862054168015610938575b61073190611384565b61074060ff60065416156113c1565b610748611402565b81019160a0828403126109345761075e826111c1565b9161076a8982016111c1565b67ffffffffffffffff94828901358681116105f7578161078b91850161126b565b9560608401359081116105f757906107a491840161126b565b88516370a0823160e01b808252308c83015290976001600160a01b039586169791968d8a6024818c5afa998a1561092a578b9a6108fb575b50303b156108f7579261081292608095928c97958f8f8b90519b8c9a8b9a6375077b1360e11b8c5201359716921690880161147d565b038183305af180156108ed5788929186916108d0575b505060248651809481938252308a8301525afa9081156108c6578391610899575b50818111156108915761085c92506114c7565b915b61086a836003546114ea565b60035561087781546114f7565b90556108846005546114f7565b6005556001805551908152f35b50509161085e565b90508581813d83116108bf575b6108b08183611249565b810103126101c4575138610849565b503d6108a6565b84513d85823e3d90fd5b6108dc91929350611203565b6108e95786908438610828565b8380fd5b86513d87823e3d90fd5b8a80fd5b9099508d81813d8311610923575b6109138183611249565b810103126101c4575198386107dc565b503d610909565b8c513d8d823e3d90fd5b8480fd5b5084546001600160a01b03163314610728565b505034610143578160031936011261014357517f00000000000000000000000000000000000000000000000000000000000000006001600160a01b03168152602090f35b83346105eb57806003193601126105eb576109a861132c565b600080546001600160a01b0319811682556001600160a01b03167f8be0079c531659141344cd1fd0a4f28419497f9722a3daafe3b4186f6b6457e08280a380f35b9050346101db5760603660031901126101db5780359067ffffffffffffffff82116108e957610a1a9136910161126b565b610a226111ab565b604435918215158093036101c4576020610a6d91610a3e61132c565b81865196610a4b8861122d565b60018060a01b03809616885281880196875251938285809451938492016112c2565b8101600781520301902092511682549160ff60a01b9051151560a01b16916affffffffffffffffffffff60a81b161717905580f35b905082346105eb5760203660031901126105eb5781359067ffffffffffffffff82116105eb5750610adb610aed9260209236910161126b565b818451938285809451938492016112c2565b810160078152030190205460ff82519160018060a01b038116835260a01c1615156020820152f35b50503461014357816003193601126101435760209060ff6006541690519015158152f35b5050346101435760203660031901126101435760209160ff9082906001600160a01b03610b64611195565b1681526002855220541690519015158152f35b505034610143578060031936011261014357610b91611195565b90602435918215158093036101c457610ba861132c565b60018060a01b03168352600260205282209060ff8019835416911617905580f35b8284346105eb5760a03660031901126105eb57610be4611195565b926001600160a01b03606435818116908190036108e95767ffffffffffffffff9160843583811161109e57610c1c90369086016111d5565b829891987f0000000000000000000000000000000000000000000000000000000000000000169384330361105b57300361101857880160c08982031261101457610c65896111c1565b94602099610c748b82016111c1565b928a8201358381116108f75781610c8c91840161126b565b9260608301359081116108f75790610ca591830161126b565b968a5193866370a0823160e01b96878752308c88015216988d866024818d5afa95861561100a578c96610fdb575b50303b15610fd7578b9392918b918e5196879586956375077b1360e11b87528c6024359d60808f9401359616911695870195610d0e9661147d565b038183305af19081610fc4575b50610e4757505060018560033d11610e38575b6308c379a014610dd0575b610dc65791849391610d8595610d5489955b604435906114ea565b885163095ea7b360e01b81526001600160a01b03909316948301948552602085015290958693849291839160400190565b03925af1908115610dbb5750610d9e575b505160018152f35b610db490833d85116106cd576106c18183611249565b5082610d96565b8351903d90823e3d90fd5b85513d86823e3d90fd5b610dd8611506565b80610de4575b50610d39565b9050837f0e192ba196a0e3aed10f33e5881150a855fdcce8919368f474c59d3741573a72888a610e238a9583519384938985528401528c830190611458565b0390a2610e3085546114f7565b855588610dde565b508486803e855160e01c610d2e565b875191825230868301528882602481885afa918215610fba578792610f8b575b5080821115610f8457610e7a90826114c7565b60443591610e8883856114ea565b11610f325795610d5485938a967f1fc0d591c16a3ae7535bc1bdc204cafde83640975dfd66561b790e44dce7d6c4858c869b9997610d859d818111600014610f2657610f1e91610ed7916114c7565b915b610ee5836003546114ea565b600355610ef28c546114f7565b8c55610eff6005546114f7565b6005555192839287846040919493926060820195825260208201520152565b0390a2610d4b565b5050610f1e8791610ed9565b875162461bcd60e51b81528087018a9052602660248201527f496e73756666696369656e742066756e647320746f20726570617920666c617360448201526534103637b0b760d11b6064820152608490fd5b5085610e7a565b9091508881813d8311610fb3575b610fa38183611249565b810103126101c457519089610e67565b503d610f99565b88513d89823e3d90fd5b610fd090989198611203565b968a610d1b565b8b80fd5b9095508d81813d8311611003575b610ff38183611249565b81010312610fd75751948e610cd3565b503d610fe9565b8d513d8e823e3d90fd5b8680fd5b875162461bcd60e51b8152602081880152601f60248201527f496e69746961746f72206d757374206265207468697320636f6e7472616374006044820152606490fd5b885162461bcd60e51b8152602081890152601860248201527f43616c6c6572206d757374206265204141564520506f6f6c00000000000000006044820152606490fd5b8580fd5b8390346101435760203660031901126101435735801515809103610143576110c861132c565b60ff80196006541691161760065580f35b8284346105eb57806003193601126105eb578254908115908161114557600554916064830292808404606414901517156111325761111f57506020935004905b51908152f35b634e487b7160e01b815260128552602490fd5b634e487b7160e01b825260118652602482fd5b9150506020925090611119565b8490346101435781600319360112610143577f00000000000000000000000000000000000000000000000000000000000000006001600160a01b03168152602090f35b600435906001600160a01b03821682036101c457565b602435906001600160a01b03821682036101c457565b35906001600160a01b03821682036101c457565b9181601f840112156101c45782359167ffffffffffffffff83116101c457602083818601950101116101c457565b67ffffffffffffffff811161121757604052565b634e487b7160e01b600052604160045260246000fd5b6040810190811067ffffffffffffffff82111761121757604052565b90601f8019910116810190811067ffffffffffffffff82111761121757604052565b81601f820112156101c45780359067ffffffffffffffff821161121757604051926112a0601f8401601f191660200185611249565b828452602083830101116101c457816000926020809301838601378301015290565b60005b8381106112d55750506000910152565b81810151838201526020016112c5565b60606003198201126101c4576004356001600160a01b03811681036101c45791602435916044359067ffffffffffffffff82116101c457611328916004016111d5565b9091565b6000546001600160a01b0316330361134057565b606460405162461bcd60e51b815260206004820152602060248201527f4f776e61626c653a2063616c6c6572206973206e6f7420746865206f776e65726044820152fd5b1561138b57565b60405162461bcd60e51b815260206004820152600e60248201526d139bdd08185d5d1a1bdc9a5e995960921b6044820152606490fd5b156113c857565b60405162461bcd60e51b815260206004820152601260248201527110dbdb9d1c9858dd081a5cc81c185d5cd95960721b6044820152606490fd5b600260015414611413576002600155565b60405162461bcd60e51b815260206004820152601f60248201527f5265656e7472616e637947756172643a207265656e7472616e742063616c6c006044820152606490fd5b90602091611471815180928185528580860191016112c2565b601f01601f1916010190565b96959491936114c2936114b49260a096600180891b038092168b521660208a0152604089015260c0606089015260c0880190611458565b908682036080880152611458565b930152565b919082039182116114d457565b634e487b7160e01b600052601160045260246000fd5b919082018092116114d457565b60001981146114d45760010190565b600060443d1061156457604051600319913d83016004833e815167ffffffffffffffff918282113d6024840111176115675781840194855193841161156f573d85010160208487010111611567575061156492910160200190611249565b90565b949350505050565b50949350505050565b908160209103126101c4575180151581036101c45790565b91909160405182818094516115ab81602097888096016112c2565b81016007815203019020604051906115c28261122d565b546001600160a01b0380821680845260a09290921c60ff161515858401819052909291816116b1575b5015611678575160405163095ea7b360e01b81529082166001600160a01b031660048201526024810185905291839183916044918391600091165af1801561166c5761164e575b50506063810290808204606314901517156114d4576064900490565b8161166492903d106106cd576106c18183611249565b503880611632565b6040513d6000823e3d90fd5b60405162461bcd60e51b8152600481018590526011602482015270111156081b9bdd081cdd5c1c1bdc9d1959607a1b6044820152606490fd5b90501515386115eb56fea264697066735822122048b67f4cafeff84c651573f91230103eb7dcef87774b18960abb0b14cfc8d73f64736f6c63430008140033",
  "linkReferences": {},
  "deployedLinkReferences": {}
}