{
  "_format": "hh-sol-artifact-1",
  "contractName": "PriceMonitor",
  "sourceName": "contracts/PriceMonitor.sol",
  "abi": [
    {
      "inputs": [],
      "stateMutability": "nonpayable",
      "type": "constructor"
    },
    {
      "anonymous": false,
      "inputs": [
        {
          "indexed": true,
          "internalType": "address",
          "name": "tokenA",
          "type": "address"
        },
        {
          "indexed": true,
          "internalType": "address",
          "name": "tokenB",
          "type": "address"
        },
        {
          "indexed": true,
          "internalType": "address",
          "name": "dex",
          "type": "address"
        },
        {
          "indexed": false,
          "internalType": "int256",
          "name": "spreadBps",
          "type": "int256"
        },
        {
          "indexed": false,
          "internalType": "uint256",
          "name": "estimatedProfit",
          "type": "uint256"
        },
        {
          "indexed": false,
          "internalType": "string",
          "name": "dexType",
          "type": "string"
        }
      ],
      "name": "ArbitrageOpportunity",
      "type": "event"
    },
    {
      "anonymous": false,
      "inputs": [
        {
          "indexed": true,
          "internalType": "address",
          "name": "previousOwner",
          "type": "address"
        },
        {
          "indexed": true,
          "internalType": "address",
          "name": "newOwner",
          "type": "address"
        }
      ],
      "name": "OwnershipTransferred",
      "type": "event"
    },
    {
      "anonymous": false,
      "inputs": [
        {
          "indexed": true,
          "internalType": "address",
          "name": "token",
          "type": "address"
        },
        {
          "indexed": false,
          "internalType": "uint256",
          "name": "chainlinkPrice",
          "type": "uint256"
        },
        {
          "indexed": false,
          "internalType": "uint256",
          "name": "externalPrice",
          "type": "uint256"
        },
        {
          "indexed": false,
          "internalType": "uint256",
          "name": "impliedPrice",
          "type": "uint256"
        },
        {
          "indexed": false,
          "internalType": "int256",
          "name": "spreadBps",
          "type": "int256"
        }
      ],
      "name": "PriceUpdated",
      "type": "event"
    },
    {
      "anonymous": false,
      "inputs": [
        {
          "indexed": true,
          "internalType": "address",
          "name": "tokenA",
          "type": "address"
        },
        {
          "indexed": true,
          "internalType": "address",
          "name": "tokenB",
          "type": "address"
        },
        {
          "indexed": false,
          "internalType": "int256",
          "name": "spreadBps",
          "type": "int256"
        },
        {
          "indexed": false,
          "internalType": "uint256",
          "name": "threshold",
          "type": "uint256"
        }
      ],
      "name": "SpreadThresholdBreached",
      "type": "event"
    },
    {
      "inputs": [],
      "name": "MIN_CONFIDENCE_LEVEL",
      "outputs": [
        {
          "internalType": "uint256",
          "name": "",
          "type": "uint256"
        }
      ],
      "stateMutability": "view",
      "type": "function"
    },
    {
      "inputs": [],
      "name": "PRICE_STALENESS_THRESHOLD",
      "outputs": [
        {
          "internalType": "uint256",
          "name": "",
          "type": "uint256"
        }
      ],
      "stateMutability": "view",
      "type": "function"
    },
    {
      "inputs": [
        {
          "internalType": "bytes32",
          "name": "",
          "type": "bytes32"
        }
      ],
      "name": "activeAlerts",
      "outputs": [
        {
          "internalType": "address",
          "name": "tokenA",
          "type": "address"
        },
        {
          "internalType": "address",
          "name": "tokenB",
          "type": "address"
        },
        {
          "internalType": "address",
          "name": "dexAddress",
          "type": "address"
        },
        {
          "internalType": "int256",
          "name": "spreadBps",
          "type": "int256"
        },
        {
          "internalType": "uint256",
          "name": "estimatedProfit",
          "type": "uint256"
        },
        {
          "internalType": "uint256",
          "name": "timestamp",
          "type": "uint256"
        },
        {
          "internalType": "bool",
          "name": "isActive",
          "type": "bool"
        },
        {
          "internalType": "string",
          "name": "dexType",
          "type": "string"
        }
      ],
      "stateMutability": "view",
      "type": "function"
    },
    {
      "inputs": [
        {
          "internalType": "address",
          "name": "token",
          "type": "address"
        },
        {
          "internalType": "address",
          "name": "feedAddress",
          "type": "address"
        }
      ],
      "name": "addPriceFeed",
      "outputs": [],
      "stateMutability": "nonpayable",
      "type": "function"
    },
    {
      "inputs": [
        {
          "internalType": "uint256",
          "name": "",
          "type": "uint256"
        }
      ],
      "name": "alertIds",
      "outputs": [
        {
          "internalType": "bytes32",
          "name": "",
          "type": "bytes32"
        }
      ],
      "stateMutability": "view",
      "type": "function"
    },
    {
      "inputs": [
        {
          "internalType": "address",
          "name": "tokenA",
          "type": "address"
        },
        {
          "internalType": "address",
          "name": "tokenB",
          "type": "address"
        },
        {
          "internalType": "address",
          "name": "dexAddress",
          "type": "address"
        }
      ],
      "name": "calculateSpread",
      "outputs": [
        {
          "internalType": "int256",
          "name": "spreadBps",
          "type": "int256"
        },
        {
          "internalType": "uint256",
          "name": "impliedPrice",
          "type": "uint256"
        },
        {
          "internalType": "uint256",
          "name": "externalPrice",
          "type": "uint256"
        }
      ],
      "stateMutability": "view",
      "type": "function"
    },
    {
      "inputs": [
        {
          "internalType": "bytes32",
          "name": "alertId",
          "type": "bytes32"
        }
      ],
      "name": "deactivateAlert",
      "outputs": [],
      "stateMutability": "nonpayable",
      "type": "function"
    },
    {
      "inputs": [
        {
          "internalType": "address",
          "name": "",
          "type": "address"
        }
      ],
      "name": "externalPrices",
      "outputs": [
        {
          "internalType": "uint256",
          "name": "",
          "type": "uint256"
        }
      ],
      "stateMutability": "view",
      "type": "function"
    },
    {
      "inputs": [
        {
          "internalType": "uint256",
          "name": "limit",
          "type": "uint256"
        }
      ],
      "name": "getActiveAlerts",
      "outputs": [
        {
          "components": [
            {
              "internalType": "address",
              "name": "tokenA",
              "type": "address"
            },
            {
              "internalType": "address",
              "name": "tokenB",
              "type": "address"
            },
            {
              "internalType": "address",
              "name": "dexAddress",
              "type": "address"
            },
            {
              "internalType": "int256",
              "name": "spreadBps",
              "type": "int256"
            },
            {
              "internalType": "uint256",
              "name": "estimatedProfit",
              "type": "uint256"
            },
            {
              "internalType": "uint256",
              "name": "timestamp",
              "type": "uint256"
            },
            {
              "internalType": "bool",
              "name": "isActive",
              "type": "bool"
            },
            {
              "internalType": "string",
              "name": "dexType",
              "type": "string"
            }
          ],
          "internalType": "struct PriceMonitor.ArbitrageAlert[]",
          "name": "alerts",
          "type": "tuple[]"
        }
      ],
      "stateMutability": "view",
      "type": "function"
    },
    {
      "inputs": [
        {
          "internalType": "address",
          "name": "token",
          "type": "address"
        }
      ],
      "name": "getChainlinkPrice",
      "outputs": [
        {
          "internalType": "uint256",
          "name": "price",
          "type": "uint256"
        },
        {
          "internalType": "bool",
          "name": "isStale",
          "type": "bool"
        }
      ],
      "stateMutability": "view",
      "type": "function"
    },
    {
      "inputs": [
        {
          "internalType": "address",
          "name": "tokenA",
          "type": "address"
        },
        {
          "internalType": "address",
          "name": "tokenB",
          "type": "address"
        },
        {
          "internalType": "address",
          "name": "dexAddress",
          "type": "address"
        }
      ],
      "name": "getPriceData",
      "outputs": [
        {
          "components": [
            {
              "internalType": "uint256",
              "name": "chainlinkPrice",
              "type": "uint256"
            },
            {
              "internalType": "uint256",
              "name": "externalPrice",
              "type": "uint256"
            },
            {
              "internalType": "uint256",
              "name": "impliedPrice",
              "type": "uint256"
            },
            {
              "internalType": "int256",
              "name": "spreadBps",
              "type": "int256"
            },
            {
              "internalType": "uint256",
              "name": "timestamp",
              "type": "uint256"
            },
            {
              "internalType": "bool",
              "name": "isStale",
              "type": "bool"
            },
            {
              "internalType": "uint256",
              "name": "confidence",
              "type": "uint256"
            }
          ],
          "internalType": "struct PriceMonitor.PriceData",
          "name": "priceData",
          "type": "tuple"
        }
      ],
      "stateMutability": "view",
      "type": "function"
    },
    {
      "inputs": [
        {
          "internalType": "bytes32",
          "name": "",
          "type": "bytes32"
        }
      ],
      "name": "impliedPrices",
      "outputs": [
        {
          "internalType": "uint256",
          "name": "",
          "type": "uint256"
        }
      ],
      "stateMutability": "view",
      "type": "function"
    },
    {
      "inputs": [
        {
          "internalType": "address",
          "name": "",
          "type": "address"
        }
      ],
      "name": "lastPriceUpdate",
      "outputs": [
        {
          "internalType": "uint256",
          "name": "",
          "type": "uint256"
        }
      ],
      "stateMutability": "view",
      "type": "function"
    },
    {
      "inputs": [
        {
          "internalType": "address[][]",
          "name": "tokenPairs",
          "type": "address[][]"
        },
        {
          "internalType": "address[]",
          "name": "dexAddresses",
          "type": "address[]"
        },
        {
          "internalType": "uint256[]",
          "name": "amounts",
          "type": "uint256[]"
        }
      ],
      "name": "monitorArbitrageOpportunities",
      "outputs": [
        {
          "components": [
            {
              "internalType": "address",
              "name": "tokenA",
              "type": "address"
            },
            {
              "internalType": "address",
              "name": "tokenB",
              "type": "address"
            },
            {
              "internalType": "address",
              "name": "dexAddress",
              "type": "address"
            },
            {
              "internalType": "int256",
              "name": "spreadBps",
              "type": "int256"
            },
            {
              "internalType": "uint256",
              "name": "estimatedProfit",
              "type": "uint256"
            },
            {
              "internalType": "uint256",
              "name": "timestamp",
              "type": "uint256"
            },
            {
              "internalType": "bool",
              "name": "isActive",
              "type": "bool"
            },
            {
              "internalType": "string",
              "name": "dexType",
              "type": "string"
            }
          ],
          "internalType": "struct PriceMonitor.ArbitrageAlert[]",
          "name": "opportunities",
          "type": "tuple[]"
        }
      ],
      "stateMutability": "view",
      "type": "function"
    },
    {
      "inputs": [],
      "name": "owner",
      "outputs": [
        {
          "internalType": "address",
          "name": "",
          "type": "address"
        }
      ],
      "stateMutability": "view",
      "type": "function"
    },
    {
      "inputs": [
        {
          "internalType": "address",
          "name": "",
          "type": "address"
        }
      ],
      "name": "priceFeeds",
      "outputs": [
        {
          "internalType": "contract AggregatorV3Interface",
          "name": "",
          "type": "address"
        }
      ],
      "stateMutability": "view",
      "type": "function"
    },
    {
      "inputs": [],
      "name": "renounceOwnership",
      "outputs": [],
      "stateMutability": "nonpayable",
      "type": "function"
    },
    {
      "inputs": [],
      "name": "spreadAlertThreshold",
      "outputs": [
        {
          "internalType": "uint256",
          "name": "",
          "type": "uint256"
        }
      ],
      "stateMutability": "view",
      "type": "function"
    },
    {
      "inputs": [],
      "name": "totalAlertsGenerated",
      "outputs": [
        {
          "internalType": "uint256",
          "name": "",
          "type": "uint256"
        }
      ],
      "stateMutability": "view",
      "type": "function"
    },
    {
      "inputs": [
        {
          "internalType": "address",
          "name": "newOwner",
          "type": "address"
        }
      ],
      "name": "transferOwnership",
      "outputs": [],
      "stateMutability": "nonpayable",
      "type": "function"
    },
    {
      "inputs": [
        {
          "internalType": "address",
          "name": "token",
          "type": "address"
        },
        {
          "internalType": "uint256",
          "name": "price",
          "type": "uint256"
        },
        {
          "internalType": "string",
          "name": "source",
          "type": "string"
        }
      ],
      "name": "updateExternalPrice",
      "outputs": [],
      "stateMutability": "nonpayable",
      "type": "function"
    },
    {
      "inputs": [
        {
          "internalType": "address",
          "name": "tokenA",
          "type": "address"
        },
        {
          "internalType": "address",
          "name": "tokenB",
          "type": "address"
        },
        {
          "internalType": "address",
          "name": "dexAddress",
          "type": "address"
        },
        {
          "internalType": "uint256",
          "name": "price",
          "type": "uint256"
        },
        {
          "internalType": "string",
          "name": "dexType",
          "type": "string"
        }
      ],
      "name": "updateImpliedPrice",
      "outputs": [],
      "stateMutability": "nonpayable",
      "type": "function"
    },
    {
      "inputs": [
        {
          "internalType": "uint256",
          "name": "newThreshold",
          "type": "uint256"
        }
      ],
      "name": "updateSpreadThreshold",
      "outputs": [],
      "stateMutability": "nonpayable",
      "type": "function"
    }
  ],
  "bytecode": "0x6080806040523461010c5760008054336001600160a01b0319808316821784559273d276fcf34d54a9267738e680a72b7eaf2e54f2e492604092906001600160a01b03167f8be0079c531659141344cd1fd0a4f28419497f9722a3daafe3b4186f6b6457e08380a36001805560176006557350c5725949a6f0c72e6c4a641f24049a917db0cb8152600260205281812073591e79239a7d679378ec8c847e5038150364c78f8582541617905573036cbd53842c5426634e7929541ec2318f3dcf7e815281812073d30e2101a97dcbaebcbc04f14c3f624e67a35165858254161790557342000000000000000000000000000000000000068152209182541617905561201190816101128239f35b600080fdfe6080604052600436101561001257600080fd5b60003560e01c80630fe0634e1461018757806315f6fab41461018257806320a3b2651461017d57806359b43949146101785780635ba96ac9146101735780635da781621461016e5780636e3ae2f414610169578063715018a6146101645780637ed4538d1461015f578063853455941461015a57806389cc99f3146101555780638da5cb5b146101505780639dcb511a1461014b578063a6a0f4a014610146578063b6dafaeb14610141578063bd58fe561461013c578063ccf07b6f14610137578063ccfe0d6914610132578063d29048e71461012d578063e8a97a3e14610128578063f25b9caa14610123578063f2fde38b1461011e5763fba29b6d1461011957600080fd5b61107e565b610fb7565b610f9a565b610ec9565b610e8c565b610dcb565b610d7a565b610cf3565b610cd5565b610c03565b610b97565b610b6e565b6108f1565b610884565b610866565b610808565b6107ec565b6106f2565b6105b8565b610592565b610561565b6104c9565b6101d7565b6001600160a01b0381160361019d57565b600080fd5b606090600319011261019d576004356101ba8161018c565b906024356101c78161018c565b906044356101d48161018c565b90565b3461019d5761030f6102606102436102b96102306101f4366101a2565b95919490610200611593565b5061022261020d87611328565b95909860405192839160208301958b876114d0565b03601f1981018352826103c2565b5190206000526005602052604060002090565b546001600160a01b03909416600090815260036020526040902090565b5492811580610336575b1561032f5784905b60009181151580610326575b610313575b5061028f838688611cc2565b94610298611500565b968752602087015260408601526060850152426080850152151560a0840152565b60c08201526040519182918291909160c08060e0830194805184526020810151602085015260408101516040850152606081015160608501526080810151608085015260a0810151151560a08501520151910152565b0390f35b8161031f929350611dde565b9038610283565b5080151561027e565b8390610272565b5084151561026a565b602090600319011261019d5760043590565b90600182811c92168015610381575b602083101461036b57565b634e487b7160e01b600052602260045260246000fd5b91607f1691610360565b634e487b7160e01b600052604160045260246000fd5b61010081019081106001600160401b038211176103bd57604052565b61038b565b90601f801991011681019081106001600160401b038211176103bd57604052565b90604051918260008254926103f784610351565b9081845260019485811690816000146104665750600114610423575b5050610421925003836103c2565b565b9093915060005260209081600020936000915b81831061044e57505061042193508201013880610413565b85548884018501529485019487945091830191610436565b91505061042194506020925060ff191682840152151560051b8201013880610413565b919082519283825260005b8481106104b5575050826000602080949584010152601f8019910116010190565b602081830181015184830182015201610494565b3461019d576104d73661033f565b6000526007602052604060002060018060a01b039061030f828254169183600182015416936002820154169060038101546004820154600583015491610527600760ff60068701541695016103e3565b946040519889988952602089015260408801526060870152608086015260a0850152151560c08401526101008060e0850152830190610489565b3461019d5761056f3661033f565b610577611136565b6000908152600760205260409020600601805460ff19169055005b3461019d576105a03661033f565b60005260056020526020604060002054604051908152f35b3461019d57602036600319011261019d576004356105d4611136565b601781106105e157600655005b60405162461bcd60e51b815260206004820152601f60248201527f50726963654d6f6e69746f723a205448524553484f4c445f544f4f5f4c4f57006044820152606490fd5b602080820190808352835180925260409283810182858560051b8401019601946000925b85841061065b575050505050505090565b9091929394959685806106e1600193603f198682030188528b51858060a01b038082511683528482015116848301526106a1888201518984019060018060a01b03169052565b606081810151908301526080808201519083015260a0808201519083015260c08082015115159083015260e0809101519161010080928201520190610489565b99019401940192959493919061064a565b3461019d57602036600319011261019d57600854600435808211156107e557905b61071c8261164a565b906000905b801515806107dc575b156107cb5761074d61074361073e8361130c565b610d3e565b90549060031b1c90565b61076e6006610766836000526007602052604060002090565b015460ff1690565b610788575b5080156107835760001901610721565b611294565b916107a96107a46107c493946000526007602052604060002090565b611d57565b6107b382866117f1565b526107be81856117f1565b506116d2565b9038610773565b8183526040518061030f8582610626565b5083821061072a565b5080610713565b3461019d57600036600319011261019d57602060405160508152f35b3461019d5760008060031936011261086357610822611136565b80546001600160a01b03198116825581906001600160a01b03167f8be0079c531659141344cd1fd0a4f28419497f9722a3daafe3b4186f6b6457e08280a380f35b80fd5b3461019d57600036600319011261019d576020600954604051908152f35b3461019d57602036600319011261019d576004356108a18161018c565b60018060a01b031660005260036020526020604060002054604051908152f35b9181601f8401121561019d578235916001600160401b03831161019d576020808501948460051b01011161019d57565b3461019d5760608060031936011261019d5760046001600160401b03813581811161019d5761092390369084016108c1565b9060243583811161019d5761093b90369086016108c1565b9360443590811161019d5761095390369087016108c1565b96909480851480610b65575b610968906115db565b6109718561164a565b96600093845b87811061098c576040518061030f8c82610626565b6109a4600261099c838b8b6116e1565b905014611725565b6109c06109bb6109b5838b8b6116e1565b90611771565b611799565b6109d76109bb6109d1848c8c6116e1565b9061177a565b866109e66109bb858988611789565b6040805163ccfe0d6960e01b81526001600160a01b039586168982019081529486166020860152919094168385015291829081906060010381305afa908115610b60578891610b31575b508c8b610a3c83611ec4565b610a53575b50505050610a4e906116d2565b610977565b848392610a5f92611789565b3590610a6a91611ee2565b5090610a77848c8c6116e1565b610a8091611771565b610a8990611799565b92610a95858d8d6116e1565b610a9e9161177a565b610aa790611799565b90610ab3868a89611789565b610abc90611799565b91610ac561151f565b6001600160a01b0390961686526001600160a01b031660208601526001600160a01b03909116908401528288015260808201524260a0820152600160c0820152610b0d6117be565b60e0820152610b1c828c6117f1565b52610b27818b6117f1565b5038808c8b610a41565b610b519150873d8911610b59575b610b4981836103c2565b8101906117a3565b505038610a30565b503d610b3f565b611223565b5080881461095f565b3461019d57600036600319011261019d576000546040516001600160a01b039091168152602090f35b3461019d57602036600319011261019d576020600435610bb68161018c565b60018060a01b038091166000526002825260406000205416604051908152f35b9181601f8401121561019d578235916001600160401b03831161019d576020838186019501011161019d57565b3461019d5760a036600319011261019d57600435610c208161018c565b602435610c2c8161018c565b60443590610c398261018c565b6064356084356001600160401b03811161019d57610c5b903690600401610bd6565b939092610c69831515611484565b6040516020810190610c818161022286868c876114d0565b519020956000968752600560205283604088205586610c9f8761152c565b95610cad60405197886103c2565b8787523688820111610cd15787610cce98602092838a013787010152611a5f565b80f35b5080fd5b3461019d57600036600319011261019d576020600654604051908152f35b3461019d57602036600319011261019d576040610d1a600435610d158161018c565b611328565b825191825215156020820152f35b634e487b7160e01b600052603260045260246000fd5b600854811015610d755760086000527ff3f7a9fe364faab93b216da50a3214154f22a0a2b415b23a84c8169e8b636ee30190600090565b610d28565b3461019d57602036600319011261019d5760043560085481101561019d5760209060086000527ff3f7a9fe364faab93b216da50a3214154f22a0a2b415b23a84c8169e8b636ee30154604051908152f35b3461019d57610dd9366101a2565b9190610222610df6600094604051928391602083019587876114d0565b51902082526005602052604082205491610e0f82611328565b9290921580610e83575b15610e675750505b81151580610e5e575b610e3390611547565b61030f610e408284611dde565b91604051938493846040919493926060820195825260208201520152565b50801515610e2a565b6001600160a01b03168152600360205260409020549050610e21565b50821515610e19565b3461019d57602036600319011261019d57600435610ea98161018c565b60018060a01b031660005260046020526020604060002054604051908152f35b3461019d57604036600319011261019d57600435610ee68161018c565b60243590610ef38261018c565b610efb611136565b6001600160a01b039081169182151580610f8f575b15610f4a57610f489260005260026020521660406000209060018060a01b03166bffffffffffffffffffffffff60a01b825416179055565b005b60405162461bcd60e51b815260206004820152601a60248201527f50726963654d6f6e69746f723a205a45524f5f414444524553530000000000006044820152606490fd5b508181161515610f10565b3461019d57600036600319011261019d576020604051610e108152f35b3461019d57602036600319011261019d57600435610fd48161018c565b610fdc611136565b6001600160a01b03908116801561102a57600080546001600160a01b03198116831782559092167f8be0079c531659141344cd1fd0a4f28419497f9722a3daafe3b4186f6b6457e08380a380f35b60405162461bcd60e51b815260206004820152602660248201527f4f776e61626c653a206e6577206f776e657220697320746865207a65726f206160448201526564647265737360d01b6064820152608490fd5b3461019d57606036600319011261019d5760043561109b8161018c565b602435906044356001600160401b03811161019d576110be903690600401610bd6565b50506110c8611136565b6110d3821515611484565b60018060a01b03167fb20aa5a0003f39ede8b90f85060c58e1980638655f43ef010b8c10018688efdf608060009383855260036020528060408620556004602052426040862055604051908582526020820152846040820152846060820152a280f35b6000546001600160a01b0316330361114a57565b606460405162461bcd60e51b815260206004820152602060248201527f4f776e61626c653a2063616c6c6572206973206e6f7420746865206f776e65726044820152fd5b1561119557565b60405162461bcd60e51b815260206004820152601c60248201527f50726963654d6f6e69746f723a20464545445f4e4f545f464f554e44000000006044820152606490fd5b519069ffffffffffffffffffff8216820361019d57565b908160a091031261019d57611205816111da565b916020820151916040810151916101d46080606084015193016111da565b6040513d6000823e3d90fd5b1561123657565b60405162461bcd60e51b815260206004820152601b60248201527f50726963654d6f6e69746f723a20494e56414c49445f505249434500000000006044820152606490fd5b9081602091031261019d575160ff8116810361019d5790565b634e487b7160e01b600052601160045260246000fd5b60ff166012039060ff821161078357565b60ff16604d811161078357600a0a90565b9060648202918083046064149015171561078357565b906127109182810292818404149015171561078357565b8181029291811591840414171561078357565b60001981019190821161078357565b9190820391821161078357565b6001600160a01b03908116600090815260026020526040902054169061134f82151561118e565b604051633fabe5a360e21b815260a081600481865afa9283600092839561144b575b506113bb5760405162461bcd60e51b815260206004820152601d60248201527f50726963654d6f6e69746f723a20434841494e4c494e4b5f4552524f520000006044820152606490fd5b60206004916113cc6000851361122f565b60405163313ce56760e01b815292839182905afa908115610b6057610e109261140c611407611419946114129460009161141d575b506112aa565b6112bb565b906112f9565b934261131b565b1190565b61143e915060203d8111611444575b61143681836103c2565b81019061127b565b38611401565b503d61142c565b90945061147091925060a03d811161147d575b61146881836103c2565b8101906111f1565b5093925050919338611371565b503d61145e565b1561148b57565b60405162461bcd60e51b815260206004820152601860248201527f50726963654d6f6e69746f723a205a45524f5f505249434500000000000000006044820152606490fd5b6bffffffffffffffffffffffff19606092831b8116825292821b8316601482015292901b166028820152603c0190565b6040519060e082018281106001600160401b038211176103bd57604052565b60405190610421826103a1565b6001600160401b0381116103bd57601f01601f191660200190565b1561154e57565b60405162461bcd60e51b815260206004820152601c60248201527f50726963654d6f6e69746f723a20494e56414c49445f505249434553000000006044820152606490fd5b6040519060e082018281106001600160401b038211176103bd576040528160c06000918281528260208201528260408201528260608201528260808201528260a08201520152565b156115e257565b60405162461bcd60e51b815260206004820152602360248201527f50726963654d6f6e69746f723a2041525241595f4c454e4754485f4d49534d416044820152620a886960eb1b6064820152608490fd5b6001600160401b0381116103bd5760051b60200190565b9061165482611633565b604090611663825191826103c2565b8381528093611674601f1991611633565b019160005b8381106116865750505050565b6020908251611694816103a1565b6000815282600081830152600085830152606060008184015260006080840152600060a0840152600060c084015260e0830152828601015201611679565b60001981146107835760010190565b9190811015610d755760051b81013590601e198136030182121561019d5701908135916001600160401b03831161019d576020018260051b3603811361019d579190565b1561172c57565b60405162461bcd60e51b815260206004820152601a60248201527f50726963654d6f6e69746f723a20494e56414c49445f504149520000000000006044820152606490fd5b9015610d755790565b9060011015610d755760200190565b9190811015610d755760051b0190565b356101d48161018c565b9081606091031261019d578051916040602083015192015190565b60405190604082018281106001600160401b038211176103bd5760405260078252663ab735b737bbb760c91b6020830152565b8051821015610d755760209160051b010190565b600160ff1b81146107835760000390565b90601f811161182457505050565b600091825260208220906020601f850160051c83019410611860575b601f0160051c01915b82811061185557505050565b818155600101611849565b9092508290611840565b91909182516001600160401b0381116103bd576118918161188b8454610351565b84611816565b602080601f83116001146118cd5750819293946000926118c2575b50508160011b916000199060031b1c1916179055565b0151905038806118ac565b90601f198316956118e385600052602060002090565b926000905b88821061192057505083600195969710611907575b505050811b019055565b015160001960f88460031b161c191690553880806118fd565b806001859682949686015181550195019301906118e8565b815181546001600160a01b0319166001600160a01b039091161781556104219160079060e09060208101516001850180546001600160a01b0319166001600160a01b0390921691909117905560408101516002850180546001600160a01b0319166001600160a01b03909216919091179055606081015160038501556080810151600485015560a081015160058501556119ed6119d860c0830151151590565b600686019060ff801983541691151516179055565b0151910161186a565b600854680100000000000000008110156103bd576001810180600855811015610d755760086000527ff3f7a9fe364faab93b216da50a3214154f22a0a2b415b23a84c8169e8b636ee30155565b6101d49392606092825260208201528160408201520190610489565b93919093611a6c81611328565b9390931580611c99575b15611c7a5783925b8315611af35785611ab0857fb20aa5a0003f39ede8b90f85060c58e1980638655f43ef010b8c10018688efdf98611dde565b60408051978852602088019690965294860152606085018490526001600160a01b03838116969095879190608090a260008412611c6c57835b6006541115611afc575b50505050505050565b7f13d4bc335e4ceb595e870e3fc252d065df098cb0871efb93f98b8d71381eafb48587927fb1a96de7f6a4aff468a66e5720359bedb0c09465a7853dd43fbf1b04b7edb17797611c499a611c236040516020810190611b97816102228d898842928892605c9492916bffffffffffffffffffffffff199283809260601b16865260601b16601485015260601b166028830152603c8201520190565b519020611c1e611ba68c611f81565b509a611bc2611bb361151f565b6001600160a01b039092168252565b6001600160a01b03851660208201526001600160a01b03871660408201528c60608201528b60808201524260a0820152611bff60c0820160019052565b8a60e0820152611c19836000526007602052604060002090565b611938565b6119f6565b611c36611c316009546116d2565b600955565b16998a9560405193849316978984611a43565b0390a460065460408051928352602083019190915290a338808080808080611af3565b611c7584611805565b611ae9565b6001600160a01b03821660009081526003602052604090205492611a7e565b50831515611a76565b8115611cac570490565b634e487b7160e01b600052601260045260246000fd5b9091611d5057801515918280611d47575b611ce857505015611ce357605090565b603c90565b611d0e9250611d09908281811115611d3e5790611d049161131b565b6112cc565b611ca2565b6001811115611d38576003811115611d325760051015611d2d57603290565b604690565b50605590565b50605f90565b611d049161131b565b50801515611cd3565b5050601e90565b90611dd76007611d6561151f565b84546001600160a01b031681529360018101546001600160a01b0316602086015260028101546001600160a01b031660408601526003810154606086015260048101546080860152600581015460a0860152611dd1611dc8600683015460ff1690565b151560c0870152565b016103e3565b60e0830152565b908015611e71578115611e2057808210611e0757611d09611e02826101d49461131b565b6112e2565b80611d09611e026101d494611e1b9461131b565b611805565b60405162461bcd60e51b8152602060048201526024808201527f53707265616443616c63756c61746f723a205a45524f5f494d504c4945445f506044820152635249434560e01b6064820152608490fd5b60405162461bcd60e51b815260206004820152602560248201527f53707265616443616c63756c61746f723a205a45524f5f45585445524e414c5f604482015264505249434560d81b6064820152608490fd5b60179060008112611ed457101590565b611edd90611805565b101590565b908115611f3c57611f029060008112611f2e575b612710918291846112f9565b049160178102908104601703610783570480821115611f2857611f25908261131b565b91565b50600091565b611f3790611805565b611ef6565b60405162461bcd60e51b815260206004820152601d60248201527f53707265616443616c63756c61746f723a205a45524f5f414d4f554e540000006044820152606490fd5b60008112611fcd575b670de0b6b3a7640000908082029182040361078357612710900466082bd67afbc000811115611fc85766082bd67afbbfff1981018181116107835791565b600091565b611fd690611805565b611f8a56fea26469706673582212201286a1091409cb5e03d252dd58121ec8f44674bd1e249bdce7b29dfc721a405664736f6c63430008140033",
  "linkReferences": {},
  "deployedLinkReferences": {}
}