{
  "_format": "hh-sol-artifact-1",
  "contractName": "AtomArbitrage",
  "sourceName": "contracts/AtomArbitrage.sol",
  "abi": [
    {
      "inputs": [],
      "stateMutability": "nonpayable",
      "type": "constructor"
    },
    {
      "anonymous": false,
      "inputs": [
        {
          "indexed": true,
          "internalType": "address",
          "name": "tokenA",
          "type": "address"
        },
        {
          "indexed": true,
          "internalType": "address",
          "name": "tokenB",
          "type": "address"
        },
        {
          "indexed": false,
          "internalType": "uint256",
          "name": "amountIn",
          "type": "uint256"
        },
        {
          "indexed": false,
          "internalType": "uint256",
          "name": "profit",
          "type": "uint256"
        },
        {
          "indexed": false,
          "internalType": "enum AtomArbitrage.DEX",
          "name": "buyDex",
          "type": "uint8"
        },
        {
          "indexed": false,
          "internalType": "enum AtomArbitrage.DEX",
          "name": "sellDex",
          "type": "uint8"
        },
        {
          "indexed": true,
          "internalType": "address",
          "name": "executor",
          "type": "address"
        }
      ],
      "name": "ArbitrageExecuted",
      "type": "event"
    },
    {
      "anonymous": false,
      "inputs": [
        {
          "indexed": true,
          "internalType": "address",
          "name": "caller",
          "type": "address"
        },
        {
          "indexed": false,
          "internalType": "uint256",
          "name": "timestamp",
          "type": "uint256"
        }
      ],
      "name": "EmergencyPause",
      "type": "event"
    },
    {
      "anonymous": false,
      "inputs": [
        {
          "indexed": true,
          "internalType": "address",
          "name": "caller",
          "type": "address"
        },
        {
          "indexed": false,
          "internalType": "uint256",
          "name": "timestamp",
          "type": "uint256"
        }
      ],
      "name": "EmergencyUnpause",
      "type": "event"
    },
    {
      "anonymous": false,
      "inputs": [
        {
          "indexed": true,
          "internalType": "address",
          "name": "caller",
          "type": "address"
        },
        {
          "indexed": false,
          "internalType": "address[]",
          "name": "tokens",
          "type": "address[]"
        },
        {
          "indexed": false,
          "internalType": "uint256",
          "name": "timestamp",
          "type": "uint256"
        }
      ],
      "name": "EmergencyWithdrawal",
      "type": "event"
    },
    {
      "anonymous": false,
      "inputs": [
        {
          "indexed": true,
          "internalType": "address",
          "name": "asset",
          "type": "address"
        },
        {
          "indexed": false,
          "internalType": "uint256",
          "name": "amount",
          "type": "uint256"
        },
        {
          "indexed": false,
          "internalType": "uint256",
          "name": "premium",
          "type": "uint256"
        },
        {
          "indexed": false,
          "internalType": "bool",
          "name": "success",
          "type": "bool"
        }
      ],
      "name": "FlashLoanExecuted",
      "type": "event"
    },
    {
      "anonymous": false,
      "inputs": [
        {
          "indexed": true,
          "internalType": "address",
          "name": "previousOwner",
          "type": "address"
        },
        {
          "indexed": true,
          "internalType": "address",
          "name": "newOwner",
          "type": "address"
        }
      ],
      "name": "OwnershipTransferred",
      "type": "event"
    },
    {
      "anonymous": false,
      "inputs": [
        {
          "indexed": false,
          "internalType": "address",
          "name": "account",
          "type": "address"
        }
      ],
      "name": "Paused",
      "type": "event"
    },
    {
      "anonymous": false,
      "inputs": [
        {
          "indexed": true,
          "internalType": "address",
          "name": "token",
          "type": "address"
        },
        {
          "indexed": false,
          "internalType": "uint256",
          "name": "amount",
          "type": "uint256"
        },
        {
          "indexed": false,
          "internalType": "uint256",
          "name": "timestamp",
          "type": "uint256"
        }
      ],
      "name": "ProfitExtracted",
      "type": "event"
    },
    {
      "anonymous": false,
      "inputs": [
        {
          "indexed": true,
          "internalType": "address",
          "name": "tokenA",
          "type": "address"
        },
        {
          "indexed": true,
          "internalType": "address",
          "name": "tokenB",
          "type": "address"
        },
        {
          "indexed": true,
          "internalType": "address",
          "name": "tokenC",
          "type": "address"
        },
        {
          "indexed": false,
          "internalType": "uint256",
          "name": "amountIn",
          "type": "uint256"
        },
        {
          "indexed": false,
          "internalType": "uint256",
          "name": "profit",
          "type": "uint256"
        },
        {
          "indexed": false,
          "internalType": "uint256",
          "name": "timestamp",
          "type": "uint256"
        }
      ],
      "name": "TriangularArbitrageExecuted",
      "type": "event"
    },
    {
      "anonymous": false,
      "inputs": [
        {
          "indexed": false,
          "internalType": "address",
          "name": "account",
          "type": "address"
        }
      ],
      "name": "Unpaused",
      "type": "event"
    },
    {
      "inputs": [],
      "name": "ADDRESSES_PROVIDER",
      "outputs": [
        {
          "internalType": "contract IPoolAddressesProvider",
          "name": "",
          "type": "address"
        }
      ],
      "stateMutability": "view",
      "type": "function"
    },
    {
      "inputs": [],
      "name": "BALANCER_VAULT",
      "outputs": [
        {
          "internalType": "contract IVault",
          "name": "",
          "type": "address"
        }
      ],
      "stateMutability": "view",
      "type": "function"
    },
    {
      "inputs": [],
      "name": "BASIS_POINTS",
      "outputs": [
        {
          "internalType": "uint256",
          "name": "",
          "type": "uint256"
        }
      ],
      "stateMutability": "view",
      "type": "function"
    },
    {
      "inputs": [],
      "name": "CURVE_REGISTRY",
      "outputs": [
        {
          "internalType": "contract ICurveRegistry",
          "name": "",
          "type": "address"
        }
      ],
      "stateMutability": "view",
      "type": "function"
    },
    {
      "inputs": [],
      "name": "ETH_PRICE_USD",
      "outputs": [
        {
          "internalType": "uint256",
          "name": "",
          "type": "uint256"
        }
      ],
      "stateMutability": "view",
      "type": "function"
    },
    {
      "inputs": [],
      "name": "MAX_FLASH_LOAN_AMOUNT",
      "outputs": [
        {
          "internalType": "uint256",
          "name": "",
          "type": "uint256"
        }
      ],
      "stateMutability": "view",
      "type": "function"
    },
    {
      "inputs": [],
      "name": "MAX_GAS_COST_USD",
      "outputs": [
        {
          "internalType": "uint256",
          "name": "",
          "type": "uint256"
        }
      ],
      "stateMutability": "view",
      "type": "function"
    },
    {
      "inputs": [],
      "name": "MIN_PROFIT_BASIS_POINTS",
      "outputs": [
        {
          "internalType": "uint256",
          "name": "",
          "type": "uint256"
        }
      ],
      "stateMutability": "view",
      "type": "function"
    },
    {
      "inputs": [],
      "name": "SUSHISWAP_ROUTER",
      "outputs": [
        {
          "internalType": "contract IUniswapV2Router",
          "name": "",
          "type": "address"
        }
      ],
      "stateMutability": "view",
      "type": "function"
    },
    {
      "inputs": [],
      "name": "UNISWAP_ROUTER",
      "outputs": [
        {
          "internalType": "contract IUniswapV2Router",
          "name": "",
          "type": "address"
        }
      ],
      "stateMutability": "view",
      "type": "function"
    },
    {
      "inputs": [
        {
          "internalType": "address",
          "name": "tokenA",
          "type": "address"
        },
        {
          "internalType": "address",
          "name": "tokenB",
          "type": "address"
        },
        {
          "internalType": "uint256",
          "name": "amountIn",
          "type": "uint256"
        },
        {
          "internalType": "enum AtomArbitrage.DEX",
          "name": "buyDex",
          "type": "uint8"
        },
        {
          "internalType": "enum AtomArbitrage.DEX",
          "name": "sellDex",
          "type": "uint8"
        },
        {
          "internalType": "bytes",
          "name": "buyData",
          "type": "bytes"
        },
        {
          "internalType": "bytes",
          "name": "sellData",
          "type": "bytes"
        }
      ],
      "name": "_simulateArbitrage",
      "outputs": [
        {
          "internalType": "uint256",
          "name": "finalAmount",
          "type": "uint256"
        }
      ],
      "stateMutability": "view",
      "type": "function"
    },
    {
      "inputs": [
        {
          "internalType": "address",
          "name": "tokenA",
          "type": "address"
        },
        {
          "internalType": "address",
          "name": "tokenB",
          "type": "address"
        },
        {
          "internalType": "uint256",
          "name": "amountIn",
          "type": "uint256"
        },
        {
          "internalType": "enum AtomArbitrage.DEX",
          "name": "buyDex",
          "type": "uint8"
        },
        {
          "internalType": "enum AtomArbitrage.DEX",
          "name": "sellDex",
          "type": "uint8"
        },
        {
          "internalType": "bytes",
          "name": "buyData",
          "type": "bytes"
        },
        {
          "internalType": "bytes",
          "name": "sellData",
          "type": "bytes"
        }
      ],
      "name": "calculateMultiDexProfit",
      "outputs": [
        {
          "internalType": "uint256",
          "name": "profit",
          "type": "uint256"
        },
        {
          "internalType": "bool",
          "name": "profitable",
          "type": "bool"
        }
      ],
      "stateMutability": "view",
      "type": "function"
    },
    {
      "inputs": [],
      "name": "emergencyPause",
      "outputs": [],
      "stateMutability": "nonpayable",
      "type": "function"
    },
    {
      "inputs": [],
      "name": "emergencyUnpause",
      "outputs": [],
      "stateMutability": "nonpayable",
      "type": "function"
    },
    {
      "inputs": [
        {
          "internalType": "address",
          "name": "token",
          "type": "address"
        }
      ],
      "name": "emergencyWithdraw",
      "outputs": [],
      "stateMutability": "nonpayable",
      "type": "function"
    },
    {
      "inputs": [
        {
          "internalType": "address[]",
          "name": "tokens",
          "type": "address[]"
        }
      ],
      "name": "emergencyWithdrawAll",
      "outputs": [],
      "stateMutability": "nonpayable",
      "type": "function"
    },
    {
      "inputs": [
        {
          "internalType": "uint256",
          "name": "estimatedGasUnits",
          "type": "uint256"
        },
        {
          "internalType": "uint256",
          "name": "gasPriceGwei",
          "type": "uint256"
        }
      ],
      "name": "estimateGasCostUSD",
      "outputs": [
        {
          "internalType": "uint256",
          "name": "gasCostUSD",
          "type": "uint256"
        }
      ],
      "stateMutability": "pure",
      "type": "function"
    },
    {
      "inputs": [
        {
          "internalType": "address",
          "name": "asset",
          "type": "address"
        },
        {
          "internalType": "uint256",
          "name": "amount",
          "type": "uint256"
        },
        {
          "internalType": "bytes",
          "name": "params",
          "type": "bytes"
        }
      ],
      "name": "executeArbitrage",
      "outputs": [],
      "stateMutability": "nonpayable",
      "type": "function"
    },
    {
      "inputs": [
        {
          "internalType": "address[]",
          "name": "tokens",
          "type": "address[]"
        },
        {
          "internalType": "uint256[]",
          "name": "amounts",
          "type": "uint256[]"
        },
        {
          "internalType": "bytes",
          "name": "params",
          "type": "bytes"
        }
      ],
      "name": "executeBalancerFlashLoan",
      "outputs": [],
      "stateMutability": "nonpayable",
      "type": "function"
    },
    {
      "inputs": [
        {
          "internalType": "address",
          "name": "asset",
          "type": "address"
        },
        {
          "internalType": "uint256",
          "name": "amount",
          "type": "uint256"
        },
        {
          "internalType": "uint256",
          "name": "premium",
          "type": "uint256"
        },
        {
          "internalType": "address",
          "name": "initiator",
          "type": "address"
        },
        {
          "internalType": "bytes",
          "name": "params",
          "type": "bytes"
        }
      ],
      "name": "executeOperation",
      "outputs": [
        {
          "internalType": "bool",
          "name": "",
          "type": "bool"
        }
      ],
      "stateMutability": "nonpayable",
      "type": "function"
    },
    {
      "inputs": [
        {
          "internalType": "address",
          "name": "tokenA",
          "type": "address"
        },
        {
          "internalType": "address",
          "name": "tokenB",
          "type": "address"
        },
        {
          "internalType": "address",
          "name": "tokenC",
          "type": "address"
        },
        {
          "internalType": "uint256",
          "name": "amount",
          "type": "uint256"
        }
      ],
      "name": "executeTriangularArbitrage",
      "outputs": [],
      "stateMutability": "nonpayable",
      "type": "function"
    },
    {
      "inputs": [
        {
          "internalType": "uint256",
          "name": "estimatedGasUnits",
          "type": "uint256"
        }
      ],
      "name": "getMaxGasPriceForLimit",
      "outputs": [
        {
          "internalType": "uint256",
          "name": "maxGasPriceGwei",
          "type": "uint256"
        }
      ],
      "stateMutability": "pure",
      "type": "function"
    },
    {
      "inputs": [
        {
          "internalType": "uint256",
          "name": "estimatedGasUnits",
          "type": "uint256"
        },
        {
          "internalType": "uint256",
          "name": "gasPriceGwei",
          "type": "uint256"
        }
      ],
      "name": "isGasCostAcceptable",
      "outputs": [
        {
          "internalType": "bool",
          "name": "acceptable",
          "type": "bool"
        },
        {
          "internalType": "uint256",
          "name": "gasCostUSD",
          "type": "uint256"
        }
      ],
      "stateMutability": "pure",
      "type": "function"
    },
    {
      "inputs": [],
      "name": "isPaused",
      "outputs": [
        {
          "internalType": "bool",
          "name": "",
          "type": "bool"
        }
      ],
      "stateMutability": "view",
      "type": "function"
    },
    {
      "inputs": [],
      "name": "owner",
      "outputs": [
        {
          "internalType": "address",
          "name": "",
          "type": "address"
        }
      ],
      "stateMutability": "view",
      "type": "function"
    },
    {
      "inputs": [],
      "name": "paused",
      "outputs": [
        {
          "internalType": "bool",
          "name": "",
          "type": "bool"
        }
      ],
      "stateMutability": "view",
      "type": "function"
    },
    {
      "inputs": [
        {
          "internalType": "address[]",
          "name": "tokens",
          "type": "address[]"
        },
        {
          "internalType": "uint256[]",
          "name": "amounts",
          "type": "uint256[]"
        },
        {
          "internalType": "uint256[]",
          "name": "",
          "type": "uint256[]"
        },
        {
          "internalType": "bytes",
          "name": "userData",
          "type": "bytes"
        }
      ],
      "name": "receiveFlashLoan",
      "outputs": [],
      "stateMutability": "nonpayable",
      "type": "function"
    },
    {
      "inputs": [],
      "name": "renounceOwnership",
      "outputs": [],
      "stateMutability": "nonpayable",
      "type": "function"
    },
    {
      "inputs": [
        {
          "internalType": "address",
          "name": "tokenA",
          "type": "address"
        },
        {
          "internalType": "address",
          "name": "tokenB",
          "type": "address"
        },
        {
          "internalType": "address",
          "name": "tokenC",
          "type": "address"
        },
        {
          "internalType": "uint256",
          "name": "amount",
          "type": "uint256"
        }
      ],
      "name": "shouldExecute",
      "outputs": [
        {
          "internalType": "bool",
          "name": "canExecute",
          "type": "bool"
        },
        {
          "internalType": "uint256",
          "name": "expectedProfit",
          "type": "uint256"
        }
      ],
      "stateMutability": "view",
      "type": "function"
    },
    {
      "inputs": [
        {
          "internalType": "address",
          "name": "newOwner",
          "type": "address"
        }
      ],
      "name": "transferOwnership",
      "outputs": [],
      "stateMutability": "nonpayable",
      "type": "function"
    },
    {
      "inputs": [],
      "name": "withdrawETH",
      "outputs": [],
      "stateMutability": "nonpayable",
      "type": "function"
    },
    {
      "inputs": [
        {
          "internalType": "address",
          "name": "token",
          "type": "address"
        },
        {
          "internalType": "uint256",
          "name": "amount",
          "type": "uint256"
        }
      ],
      "name": "withdrawToken",
      "outputs": [],
      "stateMutability": "nonpayable",
      "type": "function"
    },
    {
      "stateMutability": "payable",
      "type": "receive"
    }
  ],
  "bytecode": "0x608080604052346100635760016000556001543360018060a01b0382167f8be0079c531659141344cd1fd0a4f28419497f9722a3daafe3b4186f6b6457e0600080a36001600160a81b0319163360ff60a01b1916176001556134e790816100698239f35b600080fdfe6080604081815260049182361015610022575b505050361561002057600080fd5b005b600090813560e01c9081630542975c14611a095750806306ec9b9e146119ec57806308e44852146118675780631b11d0ff1461160d578063277754ed146115de578063461387c81461115b5780634a4e3bd5146110945780634a9dd70b1461106057806351858e2714610fd35780635c975abb14610afc5780636e85962014610f5c5780636ff1c9bc14610e8e578063715018a614610e31578063720387cb14610e0b5780637c1d953914610bc45780637e8db6b314610ba85780638da5cb5b14610b7f5780639e281a9814610b3f578063a852b22714610b23578063b187bd2614610afc578063b7ec8f2614610a8e578063b942717b14610a5f578063bc16384614610a30578063bd81b4701461088b578063ce6a9f0114610709578063d8264920146106da578063e086e5ec1461068a578063e1f1c4a71461066d578063f04f2707146102f3578063f2fde38b14610222578063f59e3a4c146101e15763f9b2d6aa0361001257346101de5760203660031901126101de576107d08335818102949181159186041417156101cb57602083633b9aca006101c387611f40565b049051908152f35b634e487b7160e01b825260119052602490fd5b80fd5b50903461021e5761021a906102016101f836611abe565b929190916132e4565b9151901515815260208101919091529081906040820190565b0390f35b5080fd5b5091346102ef5760203660031901126102ef5761023d611a67565b90610246611d95565b6001600160a01b0391821692831561029d575050600154826bffffffffffffffffffffffff60a01b821617600155167f8be0079c531659141344cd1fd0a4f28419497f9722a3daafe3b4186f6b6457e0600080a380f35b906020608492519162461bcd60e51b8352820152602660248201527f4f776e61626c653a206e6577206f776e657220697320746865207a65726f206160448201526564647265737360d01b6064820152fd5b8280fd5b50346101de5760803660031901126101de576001600160401b0383358181116102ef576103239036908601611c6f565b92602492833583811161021e5761033d9036908801611cd5565b936044938435818111610669576103579036908a01611cd5565b506064358181116106695761036f9036908a01611d4e565b9673ba12222222228d8ba445958a75a0704d566bf2c8936103918533146120bf565b88518901986020998a8101918b81830312610669578b8101519086821161066157019182916101409283910312610669578851956103ce87611bca565b6103d98d8501611f74565b87526103e68a8501611f74565b878e015260608401518a88015260808401518e81101561066557606088015260a08401518e81101561066557608088015260c084015181811161066557828e61043192870101612402565b60a088015260e084015190811161066157908c61045092850101612402565b60c08601526101008281015160e08701526101208084015191870191909152910151908401526001600160a01b039261049f908461048d85612447565b51166104988b612447565b519061248b565b1561062057826104ae83612447565b5116898b868951809481936370a0823160e01b835230908301525afa80156106165782906105e2575b61050191506104f16104e88b612447565b51821015612109565b6104fa8a612447565b5190612155565b9961050b89612447565b51906064820291808304606414901517156105d0575061271061053191048b1015612162565b805b825181101561059057806105868b8b61055c848961055461058b988b612454565b511692612454565b518b519263a9059cbb60e01b908401528a8a8401528c8301528b825261058182611c1c565b612200565b612046565b610533565b50887f26f6bbbd455b9507bac0682b6ff4a332a2834a438d602a13bdb22d491d440f3c878c866105bf87612447565b51169382519182524290820152a280f35b634e487b7160e01b8352601190528482fd5b508981813d831161060f575b6105f88183611c37565b8101031261060a5761050190516104d7565b600080fd5b503d6105ee565b87513d84823e3d90fd5b855162461bcd60e51b8152808b018a9052601a818601527f41726269747261676520657865637574696f6e206661696c656400000000000081890152606490fd5b8480fd5b8580fd5b8380fd5b50903461021e578160031936011261021e57602090516127108152f35b50903461021e578160031936011261021e576106a4611d95565b8180808060018060a01b036001541647908282156106d1575bf1156106c7575080f35b51903d90823e3d90fd5b506108fc6106bd565b50903461021e578160031936011261021e5760209051737a250d5630b4cf539739df2c5dacb4c659f2488d8152f35b50823461021e57600319926060368501126102ef576001600160401b039382358581116106615761073d9036908501611a37565b90602435878111610887576107559036908701611a37565b90976044359081116108835761076e9036908801611a91565b919093610779611d95565b610781611ff0565b885b828110610857575098889973ba12222222228d8ba445958a75a0704d566bf2c894853b15610853576107d29189519a632e1c224f60e11b8c5230908c0152608060248c015260848b019161207b565b88810390960160448901528186526001600160fb1b03821161084f5761081988958694602086948d9a8b9760051b80928483013701601c8682030160648701520191611f88565b03925af19081156108465750610832575b506001905580f35b61083b90611ba1565b6101de57808261082a565b513d84823e3d90fd5b8880fd5b8a80fd5b806105866a084595161401484a00000061087661087e948f8890612055565b351115611ded565b610783565b8780fd5b8680fd5b508290346101de5761089c36611aff565b8b51634a9dd70b60e01b81526001600160a01b03998a16818d01529890971660248901526044880186905296989694958995949093906108e0906064880190612468565b608486016108ed91612468565b60a4850160e0905260e485019061090392611f88565b906003198483030160c485015261091992611f88565b03843091815a93602094fa809484956109fd575b50610947575050809150905b825191825215156020820152f35b808411156109f2576109598185612155565b93670de0b6b3a7640000908181029181830414901517156109df576109869161098191611f6a565b6133f5565b908282126109b65750602e905b119061099f3a8461342a565b826109ac575b5050610939565b13905083806109a5565b600160ff1b82146109cc5750602e908203610993565b634e487b7160e01b835260119052602482fd5b634e487b7160e01b845260118352602484fd5b505080915090610939565b9094506020813d8211610a28575b81610a1860209383611c37565b8101031261060a5751938661092d565b3d9150610a0b565b50903461021e578160031936011261021e576020905173ba12222222228d8ba445958a75a0704d566bf2c88152f35b50903461021e578160031936011261021e57602090517390e00ace148ca3b23ac1bc8c240c2a7dd9c2d7f58152f35b508290346101de57610a9f36611b8b565b90633b9aca0091828102928184041490151715610ae95790610ac091611f17565b916107d0928381029381850414901517156101cb57602083670de0b6b3a7640000865191048152f35b634e487b7160e01b835260118452602483fd5b50903461021e578160031936011261021e5760209060ff60015460a01c1690519015158152f35b50903461021e578160031936011261021e576020905160328152f35b50903461021e573660031901126101de57610b7c610b5b611a67565b610b63611d95565b600154602435916001600160a01b0391821691166121ae565b80f35b50903461021e578160031936011261021e5760015490516001600160a01b039091168152602090f35b50903461021e578160031936011261021e576020905160648152f35b509190346102ef5760603660031901126102ef57610be0611a67565b91602435926044356001600160401b03811161066557610c039036908401611a91565b9190610c0d611d95565b610c15611ff0565b610c1d611fa9565b610c346a084595161401484a000000871115611ded565b610c4083820182611e39565b6101208101516107d090818102918183041490151715610df857610c6390611f40565b3a11610db55761010001513a11610d7257845163026b1d5f60e01b8152879490939291906020858281732f39d218133afab8f2b819b1066c7e434ad94e9e5afa948515610d68578695610d2d575b506001600160a01b0394851693843b15610887578692610cff9189519a8b98899788966310ac2ddf60e21b88523090880152166024860152604485015260a0606485015260a4840191611f88565b82608483015203925af19081156108465750610d1e575b506001815580f35b610d2790611ba1565b38610d16565b9094506020813d8211610d60575b81610d4860209383611c37565b8101031261066557610d5990611f74565b9338610cb1565b3d9150610d3b565b87513d88823e3d90fd5b845162461bcd60e51b8152602081860152601c60248201527f47617320707269636520657863656564732075736572206c696d6974000000006044820152606490fd5b855162461bcd60e51b8152602081870152601b60248201527f476173207072696365206578636565647320243530206c696d697400000000006044820152606490fd5b634e487b7160e01b895260118652602489fd5b50903461021e578160031936011261021e57602090516a084595161401484a0000008152f35b50346101de57806003193601126101de57610e4a611d95565b600180546001600160a01b0319811690915581906001600160a01b03167f8be0079c531659141344cd1fd0a4f28419497f9722a3daafe3b4186f6b6457e08280a380f35b509190346102ef5760203660031901126102ef5782610eab611a67565b92610eb4611d95565b6001600160a01b0393841680610ee257505080808093946001541647908282156106d157f1156106c7575080f35b91509260015416908251936370a0823160e01b85523090850152602084602481845afa928315610f5357508492610f1e575b610b7c93506121ae565b91506020833d8211610f4b575b81610f3860209383611c37565b8101031261066957610b7c925191610f14565b3d9150610f2b565b513d86823e3d90fd5b50346101de57610f6b36611b8b565b90633b9aca0091828102928184041490151715610fc05790610f8c91611f17565b926107d0938481029481860414901517156101cb5782516032670de0b6b3a764000086049081111582526020820152604090f35b634e487b7160e01b835260118552602483fd5b50903461021e578160031936011261021e57610fed611d95565b610ff5611fa9565b6001805460ff60a01b1916600160a01b17905580513381527f62e78cea01bee320cd4e420270b5ea74000d11b0c9f74754ebdbfc544b05a25890602090a1514281527f6eae7d8f48015fddc9502717696ac737bec3d20c703c3958a689f8f48574718360203392a280f35b50903461021e5760209061108d61108861107936611aff565b98959194929396509650613074565b613074565b9051908152f35b5091346102ef57826003193601126102ef576110ae611d95565b6001549060ff8260a01c1615611121575060ff60a01b191660015580513381527f5db9ee0a495bf2e6ff9c91a7834c1ba4fdd244a5e8aa4e537bd38aeae4b073aa90602090a1514281527f3fc6beefa3f4115babe1a3d46940222e37b39b9ef03dc7b79f832dbcc3da6abf60203392a280f35b606490602084519162461bcd60e51b8352820152601460248201527314185d5cd8589b194e881b9bdd081c185d5cd95960621b6044820152fd5b509190346102ef5761116c36611abe565b91929390611178611d95565b611180611ff0565b611188611fa9565b821561159b57640ba43b74003a1161155857815190633d678e9360e21b825260018060a01b0380809716958689850152169560249187838501521696604490888285015260649186838601528585608481305afa94851561154e578b908c96611511575b50156114c6578683029483860488036114b4576127108096041161146a5785516370a0823160e01b8152308382015260209490858183818d5afa908115611460578d9161142f575b5061123e896133d9565b80156113ef5761124d906133d9565b80156113af5761125c906133d9565b90811561136f57808211156113665761127491612155565b955b86156113275780870290878204036113155761129489601792611f6a565b106112d75750508451958652505083015242908201527f919178a7cfbad0dbb48692aca8206ec0d73c586862e2364207dce10b480570e590606090a46001815580f35b865162461bcd60e51b8152928301859052601f908301527f41746f6d4172626974726167653a2042454c4f575f4d494e5f5350524541440090820152fd5b50634e487b7160e01b8c52601183528bfd5b50865162461bcd60e51b81529283018590526018908301527f41746f6d4172626974726167653a204e4f5f50524f464954000000000000000090820152fd5b50508b95611276565b5050865162461bcd60e51b8152928301859052601d908301527f41746f6d4172626974726167653a20535741505f43415f4641494c454400000090820152fd5b5050865162461bcd60e51b8152928301859052601d908301527f41746f6d4172626974726167653a20535741505f42435f4641494c454400000090820152fd5b5050865162461bcd60e51b8152928301859052601d908301527f41746f6d4172626974726167653a20535741505f41425f4641494c454400000090820152fd5b90508581813d8311611459575b6114468183611c37565b81010312611455575138611234565b8c80fd5b503d61143c565b88513d8f823e3d90fd5b6084927f41746f6d4172626974726167653a20494e53554646494349454e545f50524f4661125560f21b9260228760208b519762461bcd60e51b8952880152860152840152820152fd5b634e487b7160e01b8c5260118352848cfd5b6084927f41746f6d4172626974726167653a2042454c4f575f32334250535f5448524553631213d31160e21b928660208a519662461bcd60e51b885287015280860152840152820152fd5b809650878092503d8311611547575b61152a8183611c37565b8101031261085357602061153d866121f3565b95015194386111ec565b503d611520565b86513d8d823e3d90fd5b815162461bcd60e51b8152602081880152601b60248201527f41746f6d4172626974726167653a204741535f544f4f5f4849474800000000006044820152606490fd5b815162461bcd60e51b8152602081880152601a60248201527f41746f6d4172626974726167653a205a45524f5f414d4f554e540000000000006044820152606490fd5b50903461021e578160031936011261021e576020905173d9e1ce17f2641f24ae83637ab66a2cca9c378b9f8152f35b5091346102ef5760a03660031901126102ef57611628611a67565b6064356001600160a01b038181169592602435926044359190889003610661576084356001600160401b038111610665576116669036908801611a91565b885163026b1d5f60e01b815260209a908b818b81732f39d218133afab8f2b819b1066c7e434ad94e9e5afa801561185d5787908a90611825575b6116ad92501633146120bf565b30036117ee57816116c3916116ca930190611e39565b858361248b565b926116d583866120fc565b91169587516370a0823160e01b8152308282015289816024818b5afa80156117e457839088906117b3575b611716925061171182821015612109565b612155565b956064860291868304606414871517156101cb57505087947f26f6bbbd455b9507bac0682b6ff4a332a2834a438d602a13bdb22d491d440f3c969488946117917fe7055bb7f757aae8cfbf6ea2247e26371914425f5500c1d720f0746ae1ff88039561178a612710606097048a1015612162565b33886121ae565b87519283528b830152151586820152a281519081524286820152a25160018152f35b50508981813d83116117dd575b6117ca8183611c37565b8101031261088757826117169151611700565b503d6117c0565b89513d89823e3d90fd5b885162461bcd60e51b81528089018b9052601160248201527024b73b30b634b21034b734ba34b0ba37b960791b6044820152606490fd5b50508b81813d8311611856575b61183c8183611c37565b8101031261084f57866118516116ad92611f74565b6116a0565b503d611832565b8b513d8b823e3d90fd5b50903461021e57602090816003193601126102ef5783356001600160401b038111610669576118999036908601611a37565b946118a2611d95565b476119bb575b845b8681106118f7575050906118e87fea2bcd87c5043ce3e7a1e667e111b822df66a3967a487953c5df28043bef0d8f928683519380855284019161207b565b9242908201528033930390a280f35b60246001600160a01b038681611916611911868d8a612055565b61339a565b168751938480926370a0823160e01b825230898301525afa9182156119b1578892611980575b509181611954938a8394611959575b50505050612046565b6118aa565b61196b6119116119779584938b612055565b169060015416906121ae565b8038808a61194b565b9091508681813d83116119aa575b6119988183611c37565b8101031261088357519061195461193c565b503d61198e565b86513d8a823e3d90fd5b8480808060018060a01b036001541647908282156119e3575bf16118a85782513d86823e3d90fd5b506108fc6119d4565b50903461021e578160031936011261021e57602090516107d08152f35b90503461021e578160031936011261021e5780732f39d218133afab8f2b819b1066c7e434ad94e9e60209252f35b9181601f8401121561060a578235916001600160401b03831161060a576020808501948460051b01011161060a57565b600435906001600160a01b038216820361060a57565b35906001600160a01b038216820361060a57565b9181601f8401121561060a578235916001600160401b03831161060a576020838186019501011161060a57565b608090600319011261060a576001600160a01b03600435818116810361060a5791602435828116810361060a5791604435908116810361060a579060643590565b9060e060031983011261060a576001600160a01b0391600435838116810361060a5792602435908116810361060a579160443591606435600481101561060a5791608435600481101561060a57916001600160401b039160a43583811161060a5782611b6d91600401611a91565b9390939260c43591821161060a57611b8791600401611a91565b9091565b604090600319011261060a576004359060243590565b6001600160401b038111611bb457604052565b634e487b7160e01b600052604160045260246000fd5b61014081019081106001600160401b03821117611bb457604052565b606081019081106001600160401b03821117611bb457604052565b604081019081106001600160401b03821117611bb457604052565b608081019081106001600160401b03821117611bb457604052565b90601f801991011681019081106001600160401b03821117611bb457604052565b6001600160401b038111611bb45760051b60200190565b81601f8201121561060a57803591611c8683611c58565b92611c946040519485611c37565b808452602092838086019260051b82010192831161060a578301905b828210611cbe575050505090565b838091611cca84611a7d565b815201910190611cb0565b81601f8201121561060a57803591611cec83611c58565b92611cfa6040519485611c37565b808452602092838086019260051b82010192831161060a578301905b828210611d24575050505090565b81358152908301908301611d16565b6001600160401b038111611bb457601f01601f191660200190565b81601f8201121561060a57803590611d6582611d33565b92611d736040519485611c37565b8284526020838301011161060a57816000926020809301838601378301015290565b6001546001600160a01b03163303611da957565b606460405162461bcd60e51b815260206004820152602060248201527f4f776e61626c653a2063616c6c6572206973206e6f7420746865206f776e65726044820152fd5b15611df457565b60405162461bcd60e51b815260206004820152601960248201527f416d6f756e742065786365656473202431304d206c696d6974000000000000006044820152606490fd5b60208183031261060a5780356001600160401b039182821161060a5701906101408284031261060a5760405192611e6f84611bca565b611e7883611a7d565b8452611e8660208401611a7d565b6020850152604083013560408501526060830135600481101561060a5760608501526080830135600481101561060a57608085015260a083013582811161060a5781611ed3918501611d4e565b60a085015260c083013591821161060a57611eef918301611d4e565b60c083015260e081013560e08301526101008082013590830152610120809101359082015290565b81810292918115918404141715611f2a57565b634e487b7160e01b600052601160045260246000fd5b8015611f54576802b5e3af16b18800000490565b634e487b7160e01b600052601260045260246000fd5b8115611f54570490565b51906001600160a01b038216820361060a57565b908060209392818452848401376000828201840152601f01601f1916010190565b60ff60015460a01c16611fb857565b60405162461bcd60e51b815260206004820152601060248201526f14185d5cd8589b194e881c185d5cd95960821b6044820152606490fd5b600260005414612001576002600055565b60405162461bcd60e51b815260206004820152601f60248201527f5265656e7472616e637947756172643a207265656e7472616e742063616c6c006044820152606490fd5b6000198114611f2a5760010190565b91908110156120655760051b0190565b634e487b7160e01b600052603260045260246000fd5b91908082526020809201929160005b828110612098575050505090565b909192938280600192838060a01b036120b089611a7d565b1681520195019392910161208a565b156120c657565b60405162461bcd60e51b815260206004820152600e60248201526d24b73b30b634b21031b0b63632b960911b6044820152606490fd5b91908201809211611f2a57565b1561211057565b60405162461bcd60e51b815260206004820152601d60248201527f496e73756666696369656e742062616c616e636520746f2072657061790000006044820152606490fd5b91908203918211611f2a57565b1561216957565b60405162461bcd60e51b815260206004820152601960248201527f50726f6669742062656c6f77203125207468726573686f6c64000000000000006044820152606490fd5b60405163a9059cbb60e01b60208201526001600160a01b03909216602483015260448201929092526121f19161058182606481015b03601f198101845283611c37565b565b5190811515820361060a57565b60405161225e916001600160a01b031661221982611c01565b6000806020958685527f5361666545524332303a206c6f772d6c6576656c2063616c6c206661696c656487860152868151910182855af16122586122ed565b9161231d565b80518281159182156122ce575b50509050156122775750565b6084906040519062461bcd60e51b82526004820152602a60248201527f5361666545524332303a204552433230206f7065726174696f6e20646964206e6044820152691bdd081cdd58d8d9595960b21b6064820152fd5b838092935001031261060a57816122e591016121f3565b80823861226b565b3d15612318573d906122fe82611d33565b9161230c6040519384611c37565b82523d6000602084013e565b606090565b9192901561237f5750815115612331575090565b3b1561233a5790565b60405162461bcd60e51b815260206004820152601d60248201527f416464726573733a2063616c6c20746f206e6f6e2d636f6e74726163740000006044820152606490fd5b8251909150156123925750805190602001fd5b60405162461bcd60e51b8152602060048201529081906123b69060248301906123dd565b0390fd5b60005b8381106123cd5750506000910152565b81810151838201526020016123bd565b906020916123f6815180928185528580860191016123ba565b601f01601f1916010190565b81601f8201121561060a57805161241881611d33565b926124266040519485611c37565b8184526020828401011161060a5761244491602080850191016123ba565b90565b8051156120655760200190565b80518210156120655760209160051b010190565b9060048210156124755752565b634e487b7160e01b600052602160045260246000fd5b6060830191825191600492838110156125df57906124af918360a0880151926126ef565b60208501805160808701805192959390926001600160a01b0392831691858210156126da57906124e5929160c08b0151926126ef565b966000858911156126d457506124fb8589612155565b975b60e0820151891061269a57670de0b6b3a7640000908181029181830414901517156126855761253161098187601793611f6a565b131561264957600061254f610120830151610100840151908b61347b565b13156125f4578180915116955116955191838310156125df575192808410156125ca57506080926125ba7f99f5f2282ea6a09a6f4eca16f69a79543bd628094c28102155974b489b01959a95936125c493600154169960405195865260208601526040850190612468565b6060830190612468565ba4600190565b602190634e487b7160e01b6000525260246000fd5b602184634e487b7160e01b6000525260246000fd5b60405162461bcd60e51b8152602081860152602860248201527f47617320656666696369656e637920746f6f206c6f77202d206e65676174697660448201526719481c1c9bd99a5d60c21b6064820152608490fd5b60405162461bcd60e51b8152602081860152601560248201527410995b1bddc80c8cd89c1cc81d1a1c995cda1bdb19605a1b6044820152606490fd5b601185634e487b7160e01b6000525260246000fd5b60405162461bcd60e51b81526020818701526013602482015272125b9cdd59999a58da595b9d081c1c9bd99a5d606a1b6044820152606490fd5b976124fd565b602186634e487b7160e01b6000525260246000fd5b909193929360048110156124755780612902575083518401602094858183031261060a5785810151916001600160401b03831161060a576127369287809201920101612f17565b9060018060a01b031690604051948086019563095ea7b360e01b93848852737a250d5630b4cf539739df2c5dacb4c659f2488d948560248401528660448401526044835261278383611c1c565b600080809a85519082865af16127976122ed565b816128c6575b50806128bc575b15612885575b5050505061012c42019283421161287157916127f391868094604051968795869485936338ed173960e01b8552600485015284602485015260a0604485015260a4840190612ff6565b90306064840152608483015203925af1908115612866578391612844575b5080516000198101919082116128305761282c929350612454565b5190565b634e487b7160e01b84526011600452602484fd5b61286091503d8085833e6128588183611c37565b810190612f7d565b38612811565b6040513d85823e3d90fd5b634e487b7160e01b86526011600452602486fd5b6128b3936105819160405191820152866024820152896044820152604481526128ad81611c1c565b82612200565b388080806127aa565b50813b15156127a4565b809150518581159182156128df575b505090503861279d565b83809293500103126128fe57846128f691016121f3565b8085386128d5565b8980fd5b6001810361298b575083518401602094858183031261060a5785810151916001600160401b03831161060a5761293e9287809201920101612f17565b9060018060a01b031690604051948086019563095ea7b360e01b9384885273d9e1ce17f2641f24ae83637ab66a2cca9c378b9f948560248401528660448401526044835261278383611c1c565b600281959392949514600014612cf357508151820160208382031261060a5760208301516001600160401b039384821161060a57019060408282031261060a57604051916040830183811086821117611bb4576040526020810151835260408101519185831161060a57612a06926020809201920101612f17565b602082810191825260405163095ea7b360e01b91810182815273ba12222222228d8ba445958a75a0704d566bf2c860248301526044808301879052825292966001600160a01b031693926000908190612a5e84611c1c565b83519082885af1612a6d6122ed565b81612cbc575b5080612cb2575b15612c61575b505051935180516000198101908111611f2a576001600160a01b0391612aa69190612454565b5116906040519460c0860186811086821117611bb457604052855260006020860152604085015260608401526080830152604051612ae381611c01565b6002815261060f60f31b602082015260a0830152604051906080820190811182821017611bb457604052308152600060208201523060408201526000606082015261012c42014211611f2a576040516352bbbe2960e01b815260e06004820152825160e4820152602083015190926002821015612475576020926060612bb260a08795948695610104870152600180831b03604082015116610124870152600180831b0384820151166101448701526080810151610164870152015160c06101848601526101a48501906123dd565b82516001600160a01b0390811660248601528684015115156044860152604084015116606485015291015115156084830152600060a483018190524261012c0160c484015291900390829073ba12222222228d8ba445958a75a0704d566bf2c85af1908115612c5557600091612c26575090565b90506020813d602011612c4d575b81612c4160209383611c37565b8101031261060a575190565b3d9150612c34565b6040513d6000823e3d90fd5b612ca5612cab9260405190602082015273ba12222222228d8ba445958a75a0704d566bf2c860248201526000604482015260448152612c9f81611c1c565b85612200565b83612200565b3880612a80565b50833b1515612a7a565b8051801592508215612cd1575b505038612a73565b819250906020918101031261060a576020612cec91016121f3565b3880612cc9565b909290600314612d345760405162461bcd60e51b815260206004820152600f60248201526e0aadce6eae0e0dee4e8cac840888ab608b1b6044820152606490fd5b60608280518101031261060a5782916040938492835192612d5484611be6565b6020938492612d64848401611f74565b90818352612d856060612d788a8701613033565b9587860196875201613033565b888401908152885163095ea7b360e01b8782018181526001600160a01b0395861660248401819052604484019a909a5290989295909493909291908416612dcf82606481016121e3565b60009b8c80809885519082865af19a612de66122ed565b9b80612ec4575b60849a9b9c5080612eba575b15612e8a575b50505050505116935191519389519889958694630f7c084960e21b8652600f0b6004860152600f0b602485015260448401528160648401525af1938415612e7f57508193612e4e575b50505090565b9091809350813d8311612e78575b612e668183611c37565b810103126101de575051388080612e48565b503d612e5c565b51913d9150823e3d90fd5b612eb0946105819251918d8301526024820152876044820152604481526128ad81611c1c565b3880808d81612dff565b50823b1515612df9565b508b519b8c159c8d15612edd575b509a9b8c9b50612ded565b919598508094979a9c508092509a9295989a010312610853579289989795928d8c9693612f0e8c60849b98016121f3565b9b9a9938612ed2565b81601f8201121561060a57805191612f2e83611c58565b92612f3c6040519485611c37565b808452602092838086019260051b82010192831161060a578301905b828210612f66575050505090565b838091612f7284611f74565b815201910190612f58565b602090818184031261060a578051906001600160401b03821161060a57019180601f8401121561060a578251612fb281611c58565b93612fc06040519586611c37565b818552838086019260051b82010192831161060a578301905b828210612fe7575050505090565b81518152908301908301612fd9565b90815180825260208080930193019160005b828110613016575050505090565b83516001600160a01b031685529381019392810192600101613008565b519081600f0b820361060a57565b359081600f0b820361060a57565b9060208282031261060a5781356001600160401b03811161060a576124449201611c6f565b91909392600494858110156126da578061313f57508161309a916130c49493019061304f565b6040519163d06ca61f60e01b83528583015260406024830152818060009485936044830190612ff6565b0381737a250d5630b4cf539739df2c5dacb4c659f2488d5afa90811561313457829161311a575b508051600019810192908311613107575061282c929350612454565b634e487b7160e01b815260118552602490fd5b61312e91503d8084833e6128588183611c37565b386130eb565b6040513d84823e3d90fd5b6001810361319b57508161309a916131599493019061304f565b038173d9e1ce17f2641f24ae83637ab66a2cca9c378b9f5afa90811561313457829161311a57508051600019810192908311613107575061282c929350612454565b939493600281036131da57505050906063820291808304606314901517156131c557506064900490565b601190634e487b7160e01b6000525260246000fd5b6003146132255760405162461bcd60e51b8152602081860152601e60248201527f556e737570706f727465642044455820666f722073696d756c6174696f6e00006044820152606490fd5b816060918101031261060a57604092606484519261324284611be6565b61324b81611a7d565b808552602095869561326e89613262898701613041565b95868a85015201613041565b98899101526040519788958694635e0d443f60e01b8652600f0b90850152600f0b6024840152604483015260018060a01b03165afa908115612c55576000916132b8575b50905090565b82813d83116132dd575b6132cc8183611c37565b810103126101de57505180386132b2565b503d6132c2565b9261332661332c61330b839796613305876132ff88846133ae565b976133ae565b966133ae565b600094613326670de0b6b3a764000097888096819489611f17565b04611f17565b04818111156133905761333f9250612155565b9260015b156133845761335284826120fc565b828102928184041490151715611f2a5761098161337191600f93611f6a565b13916000831561337f575090565b905090565b50509050600090600090565b5050926000613343565b356001600160a01b038116810361060a5790565b6001600160a01b03918216911610156133cd57670de444324c2a800090565b670ddd2935029d800090565b6103e590818102918183041490151715611f2a576103e8900490565b670de0b6b3a763ffff198101908111611f2a5761271090818102918183041490151715611f2a57670de0b6b3a7640000900490565b620493e09180830292830403611f2a57670de0b6b3a764000080920490811561346657828102928184041490151715611f2a5761244491611f6a565b9050818102918183041490151715611f2a5790565b90613490670de0b6b3a7640000938492611f17565b0490811561346657828102928184041490151715611f2a5761244491611f6a56fea2646970667358221220406afac29168014140624deb6dc5c6e508e92b787bc093abbe49d722ab141a3d64736f6c63430008140033",
  "linkReferences": {},
  "deployedLinkReferences": {}
}