{
  "_format": "hh-sol-artifact-1",
  "contractName": "SpreadCalculator",
  "sourceName": "contracts/libraries/SpreadCalculator.sol",
  "abi": [
    {
      "inputs": [],
      "name": "BASIS_POINTS",
      "outputs": [
        {
          "internalType": "uint256",
          "name": "",
          "type": "uint256"
        }
      ],
      "stateMutability": "view",
      "type": "function"
    },
    {
      "inputs": [],
      "name": "FLASH_LOAN_FEE_BPS",
      "outputs": [
        {
          "internalType": "uint256",
          "name": "",
          "type": "uint256"
        }
      ],
      "stateMutability": "view",
      "type": "function"
    },
    {
      "inputs": [],
      "name": "GAS_BUFFER_BPS",
      "outputs": [
        {
          "internalType": "uint256",
          "name": "",
          "type": "uint256"
        }
      ],
      "stateMutability": "view",
      "type": "function"
    },
    {
      "inputs": [],
      "name": "MAX_SPREAD_BPS",
      "outputs": [
        {
          "internalType": "uint256",
          "name": "",
          "type": "uint256"
        }
      ],
      "stateMutability": "view",
      "type": "function"
    },
    {
      "inputs": [],
      "name": "MIN_SPREAD_BPS",
      "outputs": [
        {
          "internalType": "uint256",
          "name": "",
          "type": "uint256"
        }
      ],
      "stateMutability": "view",
      "type": "function"
    },
    {
      "inputs": [],
      "name": "PRECISION",
      "outputs": [
        {
          "internalType": "uint256",
          "name": "",
          "type": "uint256"
        }
      ],
      "stateMutability": "view",
      "type": "function"
    },
    {
      "inputs": [],
      "name": "PROFIT_MARGIN_BPS",
      "outputs": [
        {
          "internalType": "uint256",
          "name": "",
          "type": "uint256"
        }
      ],
      "stateMutability": "view",
      "type": "function"
    },
    {
      "inputs": [],
      "name": "TOTAL_COST_BPS",
      "outputs": [
        {
          "internalType": "uint256",
          "name": "",
          "type": "uint256"
        }
      ],
      "stateMutability": "view",
      "type": "function"
    }
  ],
  "bytecode": "0x6080806040523461001a576101489081610020823930815050f35b600080fdfe604060808152600436101561001357600080fd5b600090813560e01c80633fed1dac146100f6578063454aca9e146100df5780634ecdf77a146100da57806362462359146100ae57806368f0a1d9146100c457806398868bd5146100ae578063aaf5eb68146100915763e1f1c4a71461007757600080fd5b8160031936011261008d57602090516127108152f35b5080fd5b508160031936011261008d5760209051670de0b6b3a76400008152f35b508160031936011261008d576020905160178152f35b508160031936011261008d576020905160058152f35b6100f6565b508160031936011261008d57602090516103e88152f35b600036600319011261010d57602060405160098152f35b600080fdfea2646970667358221220992c889c5f54184ddc63792e50e3eb6616b914163434d9f7923bcbfe28fb280164736f6c63430008140033",
  "linkReferences": {},
  "deployedLinkReferences": {}
}