{
  "_format": "hh-sol-artifact-1",
  "contractName": "ArbitrageExecutionEngine",
  "sourceName": "backend/contracts/ArbitrageExecutionEngine.sol",
  "abi": [
    {
      "inputs": [
        {
          "internalType": "address",
          "name": "_triangularArbitrage",
          "type": "address"
        },
        {
          "internalType": "address",
          "name": "_priceMonitor",
          "type": "address"
        }
      ],
      "stateMutability": "nonpayable",
      "type": "constructor"
    },
    {
      "anonymous": false,
      "inputs": [
        {
          "indexed": true,
          "internalType": "bytes32",
          "name": "tripleId",
          "type": "bytes32"
        },
        {
          "indexed": false,
          "internalType": "uint256",
          "name": "amountIn",
          "type": "uint256"
        },
        {
          "indexed": false,
          "internalType": "uint256",
          "name": "profit",
          "type": "uint256"
        },
        {
          "indexed": false,
          "internalType": "bool",
          "name": "successful",
          "type": "bool"
        }
      ],
      "name": "ArbitrageExecuted",
      "type": "event"
    },
    {
      "anonymous": false,
      "inputs": [
        {
          "indexed": true,
          "internalType": "bytes32",
          "name": "tripleId",
          "type": "bytes32"
        },
        {
          "indexed": false,
          "internalType": "bool",
          "name": "enabled",
          "type": "bool"
        }
      ],
      "name": "AutoExecutionToggled",
      "type": "event"
    },
    {
      "anonymous": false,
      "inputs": [
        {
          "indexed": true,
          "internalType": "address",
          "name": "previousOwner",
          "type": "address"
        },
        {
          "indexed": true,
          "internalType": "address",
          "name": "newOwner",
          "type": "address"
        }
      ],
      "name": "OwnershipTransferred",
      "type": "event"
    },
    {
      "anonymous": false,
      "inputs": [
        {
          "indexed": false,
          "internalType": "address",
          "name": "account",
          "type": "address"
        }
      ],
      "name": "Paused",
      "type": "event"
    },
    {
      "anonymous": false,
      "inputs": [
        {
          "indexed": true,
          "internalType": "bytes32",
          "name": "tripleId",
          "type": "bytes32"
        },
        {
          "components": [
            {
              "internalType": "uint256",
              "name": "maxGasPrice",
              "type": "uint256"
            },
            {
              "internalType": "uint256",
              "name": "maxSlippageBps",
              "type": "uint256"
            },
            {
              "internalType": "uint256",
              "name": "minProfitBps",
              "type": "uint256"
            },
            {
              "internalType": "uint256",
              "name": "maxTradeSize",
              "type": "uint256"
            },
            {
              "internalType": "uint256",
              "name": "cooldownPeriod",
              "type": "uint256"
            },
            {
              "internalType": "bool",
              "name": "autoExecute",
              "type": "bool"
            },
            {
              "internalType": "uint256",
              "name": "riskLevel",
              "type": "uint256"
            }
          ],
          "indexed": false,
          "internalType": "struct ArbitrageExecutionEngine.ExecutionStrategy",
          "name": "strategy",
          "type": "tuple"
        }
      ],
      "name": "StrategyUpdated",
      "type": "event"
    },
    {
      "anonymous": false,
      "inputs": [
        {
          "indexed": true,
          "internalType": "bytes32",
          "name": "tripleId",
          "type": "bytes32"
        },
        {
          "indexed": false,
          "internalType": "string",
          "name": "name",
          "type": "string"
        },
        {
          "indexed": false,
          "internalType": "address",
          "name": "tokenA",
          "type": "address"
        },
        {
          "indexed": false,
          "internalType": "address",
          "name": "tokenB",
          "type": "address"
        },
        {
          "indexed": false,
          "internalType": "address",
          "name": "tokenC",
          "type": "address"
        }
      ],
      "name": "TripleAdded",
      "type": "event"
    },
    {
      "anonymous": false,
      "inputs": [
        {
          "indexed": false,
          "internalType": "address",
          "name": "account",
          "type": "address"
        }
      ],
      "name": "Unpaused",
      "type": "event"
    },
    {
      "inputs": [],
      "name": "MAX_TRIPLES",
      "outputs": [
        {
          "internalType": "uint256",
          "name": "",
          "type": "uint256"
        }
      ],
      "stateMutability": "view",
      "type": "function"
    },
    {
      "inputs": [],
      "name": "MIN_EXECUTION_INTERVAL",
      "outputs": [
        {
          "internalType": "uint256",
          "name": "",
          "type": "uint256"
        }
      ],
      "stateMutability": "view",
      "type": "function"
    },
    {
      "inputs": [
        {
          "internalType": "uint256",
          "name": "",
          "type": "uint256"
        }
      ],
      "name": "activeTripleIds",
      "outputs": [
        {
          "internalType": "bytes32",
          "name": "",
          "type": "bytes32"
        }
      ],
      "stateMutability": "view",
      "type": "function"
    },
    {
      "inputs": [],
      "name": "autoExecuteArbitrage",
      "outputs": [
        {
          "internalType": "uint256",
          "name": "executedCount",
          "type": "uint256"
        }
      ],
      "stateMutability": "nonpayable",
      "type": "function"
    },
    {
      "inputs": [],
      "name": "dailyLossTracker",
      "outputs": [
        {
          "internalType": "uint256",
          "name": "",
          "type": "uint256"
        }
      ],
      "stateMutability": "view",
      "type": "function"
    },
    {
      "inputs": [
        {
          "internalType": "bytes32",
          "name": "tripleId",
          "type": "bytes32"
        },
        {
          "internalType": "uint256",
          "name": "amount",
          "type": "uint256"
        }
      ],
      "name": "executeArbitrage",
      "outputs": [],
      "stateMutability": "nonpayable",
      "type": "function"
    },
    {
      "inputs": [
        {
          "internalType": "bytes32",
          "name": "",
          "type": "bytes32"
        },
        {
          "internalType": "uint256",
          "name": "",
          "type": "uint256"
        }
      ],
      "name": "executionHistory",
      "outputs": [
        {
          "internalType": "bytes32",
          "name": "tripleId",
          "type": "bytes32"
        },
        {
          "internalType": "uint256",
          "name": "amountIn",
          "type": "uint256"
        },
        {
          "internalType": "uint256",
          "name": "profit",
          "type": "uint256"
        },
        {
          "internalType": "uint256",
          "name": "gasUsed",
          "type": "uint256"
        },
        {
          "internalType": "uint256",
          "name": "timestamp",
          "type": "uint256"
        },
        {
          "internalType": "bool",
          "name": "successful",
          "type": "bool"
        },
        {
          "internalType": "string",
          "name": "failureReason",
          "type": "string"
        }
      ],
      "stateMutability": "view",
      "type": "function"
    },
    {
      "inputs": [],
      "name": "executionNonce",
      "outputs": [
        {
          "internalType": "uint256",
          "name": "",
          "type": "uint256"
        }
      ],
      "stateMutability": "view",
      "type": "function"
    },
    {
      "inputs": [
        {
          "internalType": "bytes32",
          "name": "tripleId",
          "type": "bytes32"
        },
        {
          "internalType": "uint256",
          "name": "limit",
          "type": "uint256"
        }
      ],
      "name": "getExecutionHistory",
      "outputs": [
        {
          "components": [
            {
              "internalType": "bytes32",
              "name": "tripleId",
              "type": "bytes32"
            },
            {
              "internalType": "uint256",
              "name": "amountIn",
              "type": "uint256"
            },
            {
              "internalType": "uint256",
              "name": "profit",
              "type": "uint256"
            },
            {
              "internalType": "uint256",
              "name": "gasUsed",
              "type": "uint256"
            },
            {
              "internalType": "uint256",
              "name": "timestamp",
              "type": "uint256"
            },
            {
              "internalType": "bool",
              "name": "successful",
              "type": "bool"
            },
            {
              "internalType": "string",
              "name": "failureReason",
              "type": "string"
            }
          ],
          "internalType": "struct ArbitrageExecutionEngine.ArbitrageExecution[]",
          "name": "executions",
          "type": "tuple[]"
        }
      ],
      "stateMutability": "view",
      "type": "function"
    },
    {
      "inputs": [],
      "name": "lastResetDay",
      "outputs": [
        {
          "internalType": "uint256",
          "name": "",
          "type": "uint256"
        }
      ],
      "stateMutability": "view",
      "type": "function"
    },
    {
      "inputs": [],
      "name": "maxDailyLoss",
      "outputs": [
        {
          "internalType": "uint256",
          "name": "",
          "type": "uint256"
        }
      ],
      "stateMutability": "view",
      "type": "function"
    },
    {
      "inputs": [],
      "name": "owner",
      "outputs": [
        {
          "internalType": "address",
          "name": "",
          "type": "address"
        }
      ],
      "stateMutability": "view",
      "type": "function"
    },
    {
      "inputs": [],
      "name": "pause",
      "outputs": [],
      "stateMutability": "nonpayable",
      "type": "function"
    },
    {
      "inputs": [],
      "name": "paused",
      "outputs": [
        {
          "internalType": "bool",
          "name": "",
          "type": "bool"
        }
      ],
      "stateMutability": "view",
      "type": "function"
    },
    {
      "inputs": [],
      "name": "priceMonitor",
      "outputs": [
        {
          "internalType": "contract PriceMonitor",
          "name": "",
          "type": "address"
        }
      ],
      "stateMutability": "view",
      "type": "function"
    },
    {
      "inputs": [
        {
          "internalType": "bytes32",
          "name": "",
          "type": "bytes32"
        }
      ],
      "name": "profitability",
      "outputs": [
        {
          "internalType": "uint256",
          "name": "",
          "type": "uint256"
        }
      ],
      "stateMutability": "view",
      "type": "function"
    },
    {
      "inputs": [],
      "name": "renounceOwnership",
      "outputs": [],
      "stateMutability": "nonpayable",
      "type": "function"
    },
    {
      "inputs": [],
      "name": "scanArbitrageOpportunities",
      "outputs": [
        {
          "internalType": "bytes32[]",
          "name": "opportunities",
          "type": "bytes32[]"
        },
        {
          "internalType": "uint256[]",
          "name": "expectedProfits",
          "type": "uint256[]"
        }
      ],
      "stateMutability": "view",
      "type": "function"
    },
    {
      "inputs": [
        {
          "internalType": "bytes32",
          "name": "",
          "type": "bytes32"
        }
      ],
      "name": "strategies",
      "outputs": [
        {
          "internalType": "uint256",
          "name": "maxGasPrice",
          "type": "uint256"
        },
        {
          "internalType": "uint256",
          "name": "maxSlippageBps",
          "type": "uint256"
        },
        {
          "internalType": "uint256",
          "name": "minProfitBps",
          "type": "uint256"
        },
        {
          "internalType": "uint256",
          "name": "maxTradeSize",
          "type": "uint256"
        },
        {
          "internalType": "uint256",
          "name": "cooldownPeriod",
          "type": "uint256"
        },
        {
          "internalType": "bool",
          "name": "autoExecute",
          "type": "bool"
        },
        {
          "internalType": "uint256",
          "name": "riskLevel",
          "type": "uint256"
        }
      ],
      "stateMutability": "view",
      "type": "function"
    },
    {
      "inputs": [
        {
          "internalType": "bytes32",
          "name": "",
          "type": "bytes32"
        }
      ],
      "name": "successRate",
      "outputs": [
        {
          "internalType": "uint256",
          "name": "",
          "type": "uint256"
        }
      ],
      "stateMutability": "view",
      "type": "function"
    },
    {
      "inputs": [
        {
          "internalType": "bytes32",
          "name": "tripleId",
          "type": "bytes32"
        },
        {
          "internalType": "bool",
          "name": "enabled",
          "type": "bool"
        }
      ],
      "name": "toggleAutoExecution",
      "outputs": [],
      "stateMutability": "nonpayable",
      "type": "function"
    },
    {
      "inputs": [
        {
          "internalType": "bytes32",
          "name": "",
          "type": "bytes32"
        }
      ],
      "name": "tokenTriples",
      "outputs": [
        {
          "internalType": "address",
          "name": "tokenA",
          "type": "address"
        },
        {
          "internalType": "address",
          "name": "tokenB",
          "type": "address"
        },
        {
          "internalType": "address",
          "name": "tokenC",
          "type": "address"
        },
        {
          "internalType": "string",
          "name": "name",
          "type": "string"
        },
        {
          "internalType": "uint256",
          "name": "priority",
          "type": "uint256"
        },
        {
          "internalType": "bool",
          "name": "isActive",
          "type": "bool"
        },
        {
          "internalType": "uint256",
          "name": "minAmount",
          "type": "uint256"
        },
        {
          "internalType": "uint256",
          "name": "maxAmount",
          "type": "uint256"
        },
        {
          "internalType": "uint256",
          "name": "lastExecuted",
          "type": "uint256"
        },
        {
          "internalType": "uint256",
          "name": "totalExecutions",
          "type": "uint256"
        },
        {
          "internalType": "uint256",
          "name": "totalProfit",
          "type": "uint256"
        }
      ],
      "stateMutability": "view",
      "type": "function"
    },
    {
      "inputs": [
        {
          "internalType": "address",
          "name": "newOwner",
          "type": "address"
        }
      ],
      "name": "transferOwnership",
      "outputs": [],
      "stateMutability": "nonpayable",
      "type": "function"
    },
    {
      "inputs": [],
      "name": "triangularArbitrage",
      "outputs": [
        {
          "internalType": "contract TriangularArbitrage",
          "name": "",
          "type": "address"
        }
      ],
      "stateMutability": "view",
      "type": "function"
    },
    {
      "inputs": [],
      "name": "unpause",
      "outputs": [],
      "stateMutability": "nonpayable",
      "type": "function"
    },
    {
      "inputs": [
        {
          "internalType": "bytes32",
          "name": "tripleId",
          "type": "bytes32"
        },
        {
          "components": [
            {
              "internalType": "uint256",
              "name": "maxGasPrice",
              "type": "uint256"
            },
            {
              "internalType": "uint256",
              "name": "maxSlippageBps",
              "type": "uint256"
            },
            {
              "internalType": "uint256",
              "name": "minProfitBps",
              "type": "uint256"
            },
            {
              "internalType": "uint256",
              "name": "maxTradeSize",
              "type": "uint256"
            },
            {
              "internalType": "uint256",
              "name": "cooldownPeriod",
              "type": "uint256"
            },
            {
              "internalType": "bool",
              "name": "autoExecute",
              "type": "bool"
            },
            {
              "internalType": "uint256",
              "name": "riskLevel",
              "type": "uint256"
            }
          ],
          "internalType": "struct ArbitrageExecutionEngine.ExecutionStrategy",
          "name": "newStrategy",
          "type": "tuple"
        }
      ],
      "name": "updateStrategy",
      "outputs": [],
      "stateMutability": "nonpayable",
      "type": "function"
    }
  ],
  "bytecode": "0x60c03462000ff557601f6200345138819003918201601f19168301916001600160401b0383118484101762000d0157808492604094855283398101031262000ff5576200005a602062000052836200106b565b92016200106b565b6001600081815581546001600160a81b0319811633600881811b610100600160a81b0316929092179094559394931c6001600160a01b0316907f8be0079c531659141344cd1fd0a4f28419497f9722a3daafe3b4186f6b6457e09080a3683635c9adc5dea000006009556001600160a01b039081166080521660a052604051620000e48162001033565b600c81526b4441492d555344432d47484f60a01b60208201526040517f50c5725949a6f0c72e6c4a641f24049a917db0cb00000000000000000000000060208201527f036cbd53842c5426634e7929541ec2318f3dcf7e00000000000000000000000060348201527f40d16fc0246ad3160ccc09b8d0d3a2cd28ae6c2f0000000000000000000000006048820152603c815262000181816200104f565b60208151910120604051620001968162000ffa565b7350c5725949a6f0c72e6c4a641f24049a917db0cb815273036cbd53842c5426634e7929541ec2318f3dcf7e60208083019182527340d16fc0246ad3160ccc09b8d0d3a2cd28ae6c2f60408085019182526060850187815260016080870181905260a0870181905268056bc75e2d6310000060c088015269021e19e0c9bab240000060e0880152600061010088018190526101208801819052610140880181905288815260029586905292909220865181546001600160a01b03199081166001600160a01b0392831617835596519382018054881694821694909417909355925193830180549095169390911692909217909255518051919291906001600160401b03821162000d01576003840154600181811c9116801562000fea575b602082101462000dea57601f811162000f9e575b50602090601f831160011462000f23579180600a94926101409460009262000f17575b50508160011b916000199060031b1c19161760038501555b608081015160048501556200032d60a08201511515600586019060ff801983541691151516179055565b60c0810151600685015560e081015160078501556101008101516008850155610120810151600985015501519101556040516200036a8162001017565b640ba43b7400815261012c602082015260066040820160178152620003fa6060840169021e19e0c9bab240000081526080850161012c815260a08601916001835260c087019460038652886000526004602052602060406000209880518a5501516001890155516002880155516003870155516004860155511515600585019060ff801983541691151516179055565b519101556003546801000000000000000081101562000d0157600181018060035581101562000ceb5781906003600052602060002001556040516080815282519283608083015260005b84811062000f005783600080516020620034318339815191528460a0818960008382840101527350c5725949a6f0c72e6c4a641f24049a917db0cb602083015273036cbd53842c5426634e7929541ec2318f3dcf7e60408301527340d16fc0246ad3160ccc09b8d0d3a2cd28ae6c2f6060830152601f80199101168101030190a2604051620004d38162001033565b600e81526d574554482d555344432d5742544360901b602082015260405160208101907f420000000000000000000000000000000000000600000000000000000000000082527f036cbd53842c5426634e7929541ec2318f3dcf7e00000000000000000000000060348201527f1bfd67037b42cf73acf2047067bd4f2c47d9bfd60000000000000000000000006048820152603c815262000574816200104f565b519020604051620005858162000ffa565b734200000000000000000000000000000000000006815273036cbd53842c5426634e7929541ec2318f3dcf7e6020808301918252731bfd67037b42cf73acf2047067bd4f2c47d9bfd6604080850191825260608501878152600260808701819052600160a088018190526802b5e3af16b188000060c089015269010f0cf064dd5920000060e089015260006101008901819052610120890181905261014089018190528981529582905292909420865181546001600160a01b03199081166001600160a01b0392831617835596519382018054881694821694909417909355925193830180549095169390911692909217909255518051919291906001600160401b03821162000d01576003840154600181811c9116801562000ef5575b602082101462000dea57601f811162000ea9575b50602090601f831160011462000e2e579180600a94926101409460009262000e22575b50508160011b916000199060031b1c19161760038501555b608081015160048501556200071c60a08201511515600586019060ff801983541691151516179055565b60c0810151600685015560e08101516007850155610100810151600885015561012081015160098501550151910155604051620007598162001017565b640ba43b7400815260066020820161012c8152620007e760408401601781526060850169010f0cf064dd592000008152608086019061012c825260a08701926001845260c088019560038752896000526004602052604060002098518955516001890155516002880155516003870155516004860155511515600585019060ff801983541691151516179055565b519101556003546801000000000000000081101562000d0157600181018060035581101562000ceb5781906003600052602060002001556040516080815282519283608083015260005b84811062000e0b5783600080516020620034318339815191528460a081896000838284010152734200000000000000000000000000000000000006602083015273036cbd53842c5426634e7929541ec2318f3dcf7e6040830152731bfd67037b42cf73acf2047067bd4f2c47d9bfd66060830152601f80199101168101030190a2604051620008c08162001033565b600c81526b555344542d4441492d47484f60a01b602082015260405160208101907fdac17f958d2ee523a2206206994597c13d831ec700000000000000000000000082527f50c5725949a6f0c72e6c4a641f24049a917db0cb00000000000000000000000060348201527f40d16fc0246ad3160ccc09b8d0d3a2cd28ae6c2f0000000000000000000000006048820152603c81526200095f816200104f565b519020604051620009708162000ffa565b73dac17f958d2ee523a2206206994597c13d831ec781527350c5725949a6f0c72e6c4a641f24049a917db0cb60208083019182527340d16fc0246ad3160ccc09b8d0d3a2cd28ae6c2f60408085019182526060850187815260036080870152600160a08701819052680ad78ebc5ac620000060c08801526901b1ae4d6e2ef500000060e0880152600061010088018190526101208801819052610140880181905288815260029586905292909220865181546001600160a01b03199081166001600160a01b0392831617835596519382018054881694821694909417909355925193830180549095169390911692909217909255518051919291906001600160401b03821162000d01576003840154600181811c9116801562000e00575b602082101462000dea57601f811162000d9e575b50602090601f831160011462000d23579180600a94926101409460009262000d17575b50508160011b916000199060031b1c19161760038501555b6080810151600485015562000b0760a08201511515600586019060ff801983541691151516179055565b60c0810151600685015560e0810151600785015561010081015160088501556101208101516009850155015191015560405162000b448162001017565b640ba43b7400815260066020820161012c815262000bd26040840160178152606085016901b1ae4d6e2ef50000008152608086019061012c825260a08701926001845260c088019560038752896000526004602052604060002098518955516001890155516002880155516003870155516004860155511515600585019060ff801983541691151516179055565b519101556003546801000000000000000081101562000d0157600181018060035581101562000ceb5781906003600052602060002001556040516080815282519283608083015260005b84811062000cd45783600080516020620034318339815191528460a08189600083828401015273dac17f958d2ee523a2206206994597c13d831ec760208301527350c5725949a6f0c72e6c4a641f24049a917db0cb60408301527340d16fc0246ad3160ccc09b8d0d3a2cd28ae6c2f6060830152601f80199101168101030190a26040516123b0908162001081823960805181818161080c015281816108cd0152611b53015260a05181818161152d01526120120152f35b80602080928401015160a082860101520162000c1c565b634e487b7160e01b600052603260045260246000fd5b634e487b7160e01b600052604160045260246000fd5b01519050888062000ac5565b906003850160005260206000209160005b601f198516811062000d85575092600a94926001926101409583601f1981161062000d6b575b505050811b01600385015562000add565b015160001960f88460031b161c1916905588808062000d5a565b9192602060018192868501518155019401920162000d34565b600385016000526020600020601f840160051c81016020851062000de2575b601f830160051c8201811062000dd557505062000aa2565b6000815560010162000dbd565b508062000dbd565b634e487b7160e01b600052602260045260246000fd5b90607f169062000a8e565b80602080928401015160a082860101520162000831565b015190508880620006da565b906003850160005260206000209160005b601f198516811062000e90575092600a94926001926101409583601f1981161062000e76575b505050811b016003850155620006f2565b015160001960f88460031b161c1916905588808062000e65565b9192602060018192868501518155019401920162000e3f565b600385016000526020600020601f840160051c81016020851062000eed575b601f830160051c8201811062000ee0575050620006b7565b6000815560010162000ec8565b508062000ec8565b90607f1690620006a3565b80602080928401015160a082860101520162000444565b015190503880620002eb565b906003850160005260206000209160005b601f198516811062000f85575092600a94926001926101409583601f1981161062000f6b575b505050811b01600385015562000303565b015160001960f88460031b161c1916905538808062000f5a565b9192602060018192868501518155019401920162000f34565b600385016000526020600020601f840160051c81016020851062000fe2575b601f830160051c8201811062000fd5575050620002c8565b6000815560010162000fbd565b508062000fbd565b90607f1690620002b4565b600080fd5b61016081019081106001600160401b0382111762000d0157604052565b60e081019081106001600160401b0382111762000d0157604052565b604081019081106001600160401b0382111762000d0157604052565b606081019081106001600160401b0382111762000d0157604052565b51906001600160a01b038216820362000ff55756fe608080604052600436101561001357600080fd5b60003560e01c9081623561f314611b405750806301bd43ef14611b225780630ac69a0414611aea5780631259a5c814611acc5780632bc957e31461155c5780632c1ff96f146115175780633f4ba83a146114835780633ff34eb9146114115780634d08188e146112045780634e788bc4146111d857806355d727b1146111bc5780635c975abb146111995780636321de7f1461117b578063715018a61461111a57806383047073146110ee5780638456cb591461109557806389f7a2da146110195780638c8e96f514610f535780638da5cb5b14610f265780639ea8741c14610f08578063a6329c7f14610e6f578063c1f3799b146105c0578063c3043d9f146105a4578063d7a6f9bb14610365578063f2fde38b1461028f5763f3df4b2f1461013c57600080fd5b3461023b5761010036600319011261023b5760043560e036602319011261023b57610165611d90565b6000818152600260205260409020546001600160a01b03161561024057806000526004602052604060002060243590818155604435918260018301556064358060028401556084359081600385015560a43580600486015560c435928315159283850361023b577f6735d67f4da00efd233b5a01d552453af13d5d755f709b608f8e6e4ba7096d75978761020c600697600560e09b019060ff801983541691151516179055565b60e4359687910155604051968752602087015260408601526060850152608084015260a083015260c0820152a2005b600080fd5b60405162461bcd60e51b815260206004820152602160248201527f417262697472616765456e67696e653a20545249504c455f4e4f545f464f554e6044820152601160fa1b6064820152608490fd5b3461023b57602036600319011261023b576004356001600160a01b038181169182810361023b576102be611d90565b82156103115760018054610100600160a81b03198116600893841b610100600160a81b031617909155901c167f8be0079c531659141344cd1fd0a4f28419497f9722a3daafe3b4186f6b6457e0600080a3005b60405162461bcd60e51b815260206004820152602660248201527f4f776e61626c653a206e6577206f776e657220697320746865207a65726f206160448201526564647265737360d01b6064820152608490fd5b3461023b57600036600319011261023b5760038054600061038582611e03565b9161038f81611e03565b9360005b828110610475575050506103a681611e03565b926103b082611e03565b9260005b83811061043b57848660405191829160408301604084528151809152606084019060208093019060005b818110610424575050508381038285015281808451928381520193019160005b82811061040d57505050500390f35b8351855286955093810193928101926001016103fe565b8251845287965092840192918401916001016103de565b806104496104709284611e51565b516104548289611e51565b5261045f8185611e51565b5161046a8288611e51565b52611e35565b6103b4565b61047e81611b82565b905490831b1c8060005260026020818152604060002090604051926104a284611c5f565b82546001600160a01b0390811685526001840154811683860152908301541660408401526104d1868301611cce565b60608401526004820154608084015260ff60058301541615801560a085015260068301549360c08101948552600784015460e0820152610140600a60088601549586610100850152600981015461012085015201549101526105975790600461054892856000525260046040600020015490611e44565b421061056057610559905182611f5e565b9081610570575b505061056b90611e35565b610393565b9461058f9161056b9396610584838a611e51565b5261046a828a611e51565b939087610560565b5050505061056b90611e35565b3461023b57600036600319011261023b57602060405160328152f35b3461023b576105ce36611bcf565b6105d6611eb6565b6105de611e72565b816000526002602052604060002060ff60058201541615610e2b57600681015482101580610e1d575b15610dd857826000526004602052604060002060405161062681611c7c565b81549081815260018301546020820152600283015460408201526003830154606082015260c060066004850154946080840195865260ff600582015416151560a085015201549101523a11610d93576008820154905161068591611e44565b4210610d4f57620151804204600b548111610d41575b50600a546009541115610cf2576106b1836122d7565b15610ca2576106c08284611f5e565b8015610c5d575a918460005260026020526040600020600a604051916106e583611c5f565b80546001600160a01b039081168452600182015481166020850152600282015416604084015261071760038201611cce565b60608401526004810154608084015260ff600582015416151560a0840152600681015460c0840152600781015460e084015260088101546101008401526009810154610120840152015461014082015260018060a01b038151169060018060a01b0360208201511690604060018060a01b039101511687600052600460205260026040600020015491604051938461014081011067ffffffffffffffff61014087011117610bc95761014085016040528452602084015260408301526000606083015260006080830152600060a08301528560c083015260e08201526000610100820152600161012082015260018060a01b037f0000000000000000000000000000000000000000000000000000000000000000163b1561023b5760408051636eabad7b60e11b815282516001600160a01b039081166004830152602084015181166024830152918301518216604482015260608301518216606482015260808301518216608482015260a0830151821660a482015260c083015160c482015260e083015160e48201526101008301511515610104820152610120909201511515610124830152600090829061014490829084907f0000000000000000000000000000000000000000000000000000000000000000165af19081610c4e575b50610c43576109096000935b5a90611e65565b856000526005602052604060002084600014610c3b5783915b8515610bf55760405180602081011067ffffffffffffffff602083011117610bc9576020810160405260008152905b6040519361095e85611c7c565b8985528860208601526040850152606084015242608084015285151560a084015260c0830152805468010000000000000000811015610bc9576109a691600182018155611d74565b919091610bdf578060c091518355602081015160018401556040810151600284015560608101516003840155608081015160048401556109fb60a08201511515600585019060ff801983541691151516179055565b015180519067ffffffffffffffff8211610bc957610a1c6006840154611c25565b601f8111610b7e575b50602090601f8311600114610ae6578260609795937fe4b807ac3cdd8babea130fa4526620c17e36e4758376cd21e2570ce37542cd8099979593600693600092610adb575b50508160011b916000199060031b1c1916179101555b610a8b600854611e35565b6008554260088201558260098201610aa38154611e35565b9055610ac5575b50604051928352602083015215156040820152a26001600055005b600a01610ad3828254611e44565b905586610aaa565b015190508b80610a6a565b906006840160005260206000209160005b601f1985168110610b665750837fe4b807ac3cdd8babea130fa4526620c17e36e4758376cd21e2570ce37542cd809997959360069360019360609b9997601f19811610610b4d575b505050811b01910155610a80565b015160001960f88460031b161c191690558b8080610b3f565b91926020600181928685015181550194019201610af7565b600684016000526020600020601f840160051c81019160208510610bbf575b601f0160051c01905b818110610bb35750610a25565b60008155600101610ba6565b9091508190610b9d565b634e487b7160e01b600052604160045260246000fd5b634e487b7160e01b600052600060045260246000fd5b60405180604081011067ffffffffffffffff604083011117610bc95760408101604052601081526f115e1958dd5d1a5bdb8819985a5b195960821b602082015290610951565b600091610922565b610909600193610902565b610c5790611c98565b866108f6565b60405162461bcd60e51b815260206004820152601f60248201527f417262697472616765456e67696e653a204e4f545f50524f46495441424c45006044820152606490fd5b60405162461bcd60e51b815260206004820152602260248201527f417262697472616765456e67696e653a2041454f4e5f434845434b5f4641494c604482015261115160f21b6064820152608490fd5b60405162461bcd60e51b815260206004820152602160248201527f417262697472616765456e67696e653a204441494c595f4c4f53535f4c494d496044820152601560fa1b6064820152608490fd5b6000600a55600b558361069b565b606460405162461bcd60e51b815260206004820152602060248201527f417262697472616765456e67696e653a20434f4f4c444f574e5f4143544956456044820152fd5b60405162461bcd60e51b815260206004820152601d60248201527f417262697472616765456e67696e653a204741535f544f4f5f484947480000006044820152606490fd5b60405162461bcd60e51b815260206004820152601f60248201527f417262697472616765456e67696e653a20494e56414c49445f414d4f554e54006044820152606490fd5b506007810154821115610607565b606460405162461bcd60e51b815260206004820152602060248201527f417262697472616765456e67696e653a20545249504c455f494e4143544956456044820152fd5b3461023b57610e7d36611bcf565b906000526005602052604060002090815481101561023b57610e9e91611d74565b508054610f046001830154926002810154906003810154600482015490610ecf600660ff6005860154169401611cce565b9360405197889788526020880152604087015260608601526080850152151560a084015260e060c084015260e0830190611be5565b0390f35b3461023b57600036600319011261023b576020600954604051908152f35b3461023b57600036600319011261023b5760015460405160089190911c6001600160a01b03168152602090f35b3461023b57602036600319011261023b576004356000526002602052604060002060018060a01b039081815416908260018201541692600282015416610f9b60038301611cce565b9160048101549260ff6005830154166006830154600784015491610fec600886015494600a6009880154970154976040519b8c9b8c5260208c015260408b01526101608060608c01528a0190611be5565b966080890152151560a088015260c087015260e08601526101008501526101208401526101408301520390f35b3461023b57604036600319011261023b576004356024358015159081810361023b577f8e01956116c505041939e5955a9b4b1ed3a7e9c723e8ae2cdebac03ef9cf9b309161108c60209261106b611d90565b856000526004845260056040600020019060ff801983541691151516179055565b604051908152a2005b3461023b57600036600319011261023b576110ae611d90565b6110b6611e72565b600160ff19815416176001557f62e78cea01bee320cd4e420270b5ea74000d11b0c9f74754ebdbfc544b05a2586020604051338152a1005b3461023b57602036600319011261023b5760043560005260076020526020604060002054604051908152f35b3461023b57600036600319011261023b57611133611d90565b60018054610100600160a81b0319811690915560009060081c6001600160a01b03167f8be0079c531659141344cd1fd0a4f28419497f9722a3daafe3b4186f6b6457e08280a3005b3461023b57600036600319011261023b576020600a54604051908152f35b3461023b57600036600319011261023b57602060ff600154166040519015158152f35b3461023b57600036600319011261023b576020604051603c8152f35b3461023b57602036600319011261023b5760043560005260066020526020604060002054604051908152f35b3461023b5761121236611bcf565b90600052600590602090828252604060002080549180831160001461140a575b61123b81611deb565b926112496040519485611cac565b818452601f1961125883611deb565b018560005b8281106113c457505050600019810190811160005b83811061131b57604080518881528751818a01819052600092818c1b83018101918a8c01918c9085015b8287106112a95785850386f35b90919293828061130b600193603f198a820301865260e089519182518152848301518582015260408301516040820152606080840151908201526080808401519082015260a0808401511515908201528160c080940151938201520190611be5565b960192019601959291909261129c565b816113ae57806113376113316113a99386611e65565b87611d74565b5061138960066040519261134a84611c7c565b8054845260018101548c85015260028101546040850152600381015460608501526004810154608085015260ff8d82015416151560a085015201611cce565b60c08201526113988289611e51565b526113a38188611e51565b50611e35565b611272565b634e487b7160e01b600052601160045260246000fd5b6040516113d081611c7c565b6000815260008382015260006040820152606060008183015260006080830152600060a083015260c082015282828901015201869061125d565b5081611232565b3461023b57602036600319011261023b57600435600052600460205260e0604060002080549060018101549060028101546003820154600483015491600660ff600586015416940154946040519687526020870152604086015260608501526080840152151560a083015260c0820152f35b3461023b57600036600319011261023b5761149c611d90565b60015460ff8116156114db5760ff19166001557f5db9ee0a495bf2e6ff9c91a7834c1ba4fdd244a5e8aa4e537bd38aeae4b073aa6020604051338152a1005b60405162461bcd60e51b815260206004820152601460248201527314185d5cd8589b194e881b9bdd081c185d5cd95960621b6044820152606490fd5b3461023b57600036600319011261023b576040517f00000000000000000000000000000000000000000000000000000000000000006001600160a01b03168152602090f35b3461023b57600036600319011261023b57611575611eb6565b61157d611e72565b60405163d7a6f9bb60e01b815260008082600481305afa918215611ac0576000906000936119c1575b5060005b815160001993908481019081116113ae578210156116865760005b6115d0838551611e65565b8581019081116113ae57811015611675576115eb8187611e51565b5190600181018082116113ae5761161292611606828a611e51565b51116116175750611e35565b6115c5565b6116218289611e51565b5161162c828a611e51565b51611637848b611e51565b52611642828a611e51565b5261166e6116508388611e51565b519161165c8189611e51565b51611667858a611e51565b5287611e51565b52876113a3565b50925061168190611e35565b6115aa565b82859160005b82518110806119b7575b156119a7576116a58184611e51565b518060005260026020526040600020600a604051916116c383611c5f565b80546001600160a01b03908116845260018201548116602085015260028201541660408401526116f560038201611cce565b60608401526004810154608084015260ff600582015416151560a0840152600681015460c0840152600781015460e0840152600881015461010084015260098101546101208401520154610140820152816000526004602052604060002060405161175f81611c7c565b815481526001820154602082015260028201546040820152600382015460608201526004820154608082015260c0600660ff6005850154161593841560a08501520154910152611910576117b38387611e51565b519082600052600260205260c06040600020600a604051916117d483611c5f565b80546001600160a01b039081168452600182015481166020850152600282015416604084015261180660038201611cce565b60608401526004810154608084015260ff600582015416151560a0840152600681015484840152600781015460e084015260088101546101008401526009810154610120840152015461014082015284600052600460205260406000209360405161187081611c7c565b85548152600186015460208201526002860154604082015260038601546060820190815260048701546080830152600587015460ff16151560a0830152600690960154930183905260c08201519281156119995791600a60c06118d86118e294606496611f2b565b9201510490611f3e565b04600101806001116113ae576118f791611f2b565b9151808311611990575b5060c0905b0151811015611920575b505061191b90611e35565b61168c565b611929826122d7565b1561191057303b1561023b576040519163c1f3799b60e01b83526004830152602482015260008160448183305af19081611981575b5061196c5761191b90611e35565b9061197961191b91611e35565b919085611910565b61198a90611c98565b8561195e565b915060c0611901565b50505060c091925091611906565b6020826001600055604051908152f35b5060058110611696565b9250503d806000843e6119d48184611cac565b82019160408184031261023b5780519067ffffffffffffffff9182811161023b5781019184601f8401121561023b57825191611a0f83611deb565b93611a1d6040519586611cac565b838552602093848087019160051b8301019188831161023b5785809101915b838310611ab0575091505081015191821161023b57019380601f8601121561023b578451611a6981611deb565b95611a776040519788611cac565b818752838088019260051b82010192831161023b578301905b828210611aa15750505050836115a6565b81518152908301908301611a90565b8251815291810191869101611a3c565b6040513d6000823e3d90fd5b3461023b57600036600319011261023b576020600b54604051908152f35b3461023b57602036600319011261023b5760043560035481101561023b57611b13602091611b82565b90549060031b1c604051908152f35b3461023b57600036600319011261023b576020600854604051908152f35b3461023b57600036600319011261023b577f00000000000000000000000000000000000000000000000000000000000000006001600160a01b03168152602090f35b600354811015611bb95760036000527fc2575a0e9e593c00f959f8c92f12db2869c3395a3b0502d05e2516446f71f85b0190600090565b634e487b7160e01b600052603260045260246000fd5b604090600319011261023b576004359060243590565b919082519283825260005b848110611c11575050826000602080949584010152601f8019910116010190565b602081830181015184830182015201611bf0565b90600182811c92168015611c55575b6020831014611c3f57565b634e487b7160e01b600052602260045260246000fd5b91607f1691611c34565b610160810190811067ffffffffffffffff821117610bc957604052565b60e0810190811067ffffffffffffffff821117610bc957604052565b67ffffffffffffffff8111610bc957604052565b90601f8019910116810190811067ffffffffffffffff821117610bc957604052565b9060405191826000825492611ce284611c25565b908184526001948581169081600014611d515750600114611d0e575b5050611d0c92500383611cac565b565b9093915060005260209081600020936000915b818310611d39575050611d0c93508201013880611cfe565b85548884018501529485019487945091830191611d21565b915050611d0c94506020925060ff191682840152151560051b8201013880611cfe565b8054821015611bb9576000526007602060002091020190600090565b60015460081c6001600160a01b03163303611da757565b606460405162461bcd60e51b815260206004820152602060248201527f4f776e61626c653a2063616c6c6572206973206e6f7420746865206f776e65726044820152fd5b67ffffffffffffffff8111610bc95760051b60200190565b90611e0d82611deb565b611e1a6040519182611cac565b8281528092611e2b601f1991611deb565b0190602036910137565b60001981146113ae5760010190565b919082018092116113ae57565b8051821015611bb95760209160051b010190565b919082039182116113ae57565b60ff60015416611e7e57565b60405162461bcd60e51b815260206004820152601060248201526f14185d5cd8589b194e881c185d5cd95960821b6044820152606490fd5b600260005414611ec7576002600055565b60405162461bcd60e51b815260206004820152601f60248201527f5265656e7472616e637947756172643a207265656e7472616e742063616c6c006044820152606490fd5b919082604091031261023b5760208251920151801515810361023b5790565b818102929181159184041417156113ae57565b8115611f48570490565b634e487b7160e01b600052601260045260246000fd5b919091600092600091825260026020526040808320908051611f7f81611c5f565b82546001600160a01b0390811682526001840154811660208301908152600285015482168385019081529193919290611fba60038701611cce565b6060830152600a60049687810154608085015260ff600582015416151560a0850152600681015460c0850152600781015460e085015260088101546101008501526009810154610120850152015461014083015284807f00000000000000000000000000000000000000000000000000000000000000001692511693835194635eac7f2b60e11b908187528887015260249685878981885afa91828c988d946122b2575b50612072575b505050505050505050505050565b818c955116938751948286528b86015287858b818a5afa86958161228d575b5061209d575b50612064565b87928a915116918351978893849283528d8301525afa90818b958c93612258575b506120cb575b8080612097565b15918261224f575b5081612246575b506120e8575b8080806120c4565b670de0b6b3a764000093848102818104861482151715612234578261210c91611f3e565b9185810290808204871490151715612234578361212891611f3e565b9285810290808204871490151715612234579061214491611f3e565b928115158061222b575b80612222575b156121e1575061216e61217493928561216e81948b611f2b565b04611f2b565b04838111156121d7578361218791611e65565b93612710928386029386850414861517156121c7575050506017916121ab91611f3e565b10155b6121bf575b808080808080806120e0565b9150386121b3565b634e487b7160e01b825260119052fd5b50505050806121ae565b5162461bcd60e51b8152602081880152601c818701527f53707265616443616c63756c61746f723a205a45524f5f5052494345000000006044820152606490fd5b50831515612154565b5082151561214e565b634e487b7160e01b8a5260118852868afd5b905015386120da565b159150386120d3565b90925061227c919550863d8811612286575b6122748183611cac565b810190611f0c565b94909491386120be565b503d61226a565b9095506122a8919650883d8a11612286576122748183611cac565b9590959438612091565b9093506122cd919850873d8911612286576122748183611cac565b979097923861205e565b60005260026020526040600020610140600a604051926122f684611c5f565b80546001600160a01b039081168552600182015481166020860152600282015416604085015261232860038201611cce565b60608501526004810154608085015260ff600582015416151560a0850152600681015460c0850152600781015460e085015260088101546101008501526009810154610120850152015491015260009056fea2646970667358221220ea144b90baac61abd31bd2cca34098f43d939913fa03428f0e4d100ba9e5126864736f6c6343000814003383e9e148ca5699b0e594d7095a1ca6dd85d03b02933f3f7c3603fbd59bbaf4a8",
  "linkReferences": {},
  "deployedLinkReferences": {}
}