{
  "_format": "hh-sol-artifact-1",
  "contractName": "AtomArbitrage",
  "sourceName": "contracts/ArbitrageBot.sol",
  "abi": [
    {
      "inputs": [
        {
          "internalType": "address",
          "name": "_addressProvider",
          "type": "address"
        }
      ],
      "stateMutability": "nonpayable",
      "type": "constructor"
    },
    {
      "anonymous": false,
      "inputs": [
        {
          "indexed": true,
          "internalType": "address",
          "name": "tokenIn",
          "type": "address"
        },
        {
          "indexed": true,
          "internalType": "address",
          "name": "tokenOut",
          "type": "address"
        },
        {
          "indexed": false,
          "internalType": "uint256",
          "name": "amountIn",
          "type": "uint256"
        },
        {
          "indexed": false,
          "internalType": "uint256",
          "name": "profit",
          "type": "uint256"
        },
        {
          "indexed": false,
          "internalType": "uint256",
          "name": "gasUsed",
          "type": "uint256"
        },
        {
          "indexed": false,
          "internalType": "string",
          "name": "dexPath",
          "type": "string"
        },
        {
          "indexed": false,
          "internalType": "uint256",
          "name": "timestamp",
          "type": "uint256"
        }
      ],
      "name": "ArbitrageExecuted",
      "type": "event"
    },
    {
      "anonymous": false,
      "inputs": [
        {
          "indexed": false,
          "internalType": "uint256",
          "name": "minProfitBasisPoints",
          "type": "uint256"
        },
        {
          "indexed": false,
          "internalType": "uint256",
          "name": "maxSlippageBasisPoints",
          "type": "uint256"
        },
        {
          "indexed": false,
          "internalType": "uint256",
          "name": "maxGasPrice",
          "type": "uint256"
        }
      ],
      "name": "ConfigUpdated",
      "type": "event"
    },
    {
      "anonymous": false,
      "inputs": [
        {
          "indexed": true,
          "internalType": "address",
          "name": "asset",
          "type": "address"
        },
        {
          "indexed": false,
          "internalType": "uint256",
          "name": "amount",
          "type": "uint256"
        },
        {
          "indexed": false,
          "internalType": "uint256",
          "name": "premium",
          "type": "uint256"
        },
        {
          "indexed": false,
          "internalType": "bool",
          "name": "success",
          "type": "bool"
        }
      ],
      "name": "FlashLoanExecuted",
      "type": "event"
    },
    {
      "anonymous": false,
      "inputs": [
        {
          "indexed": false,
          "internalType": "address",
          "name": "tokenA",
          "type": "address"
        },
        {
          "indexed": false,
          "internalType": "address",
          "name": "tokenB",
          "type": "address"
        },
        {
          "indexed": false,
          "internalType": "uint256",
          "name": "profitEstimate",
          "type": "uint256"
        },
        {
          "indexed": false,
          "internalType": "string",
          "name": "dexPair",
          "type": "string"
        },
        {
          "indexed": false,
          "internalType": "uint256",
          "name": "timestamp",
          "type": "uint256"
        }
      ],
      "name": "OpportunityDetected",
      "type": "event"
    },
    {
      "anonymous": false,
      "inputs": [
        {
          "indexed": true,
          "internalType": "address",
          "name": "previousOwner",
          "type": "address"
        },
        {
          "indexed": true,
          "internalType": "address",
          "name": "newOwner",
          "type": "address"
        }
      ],
      "name": "OwnershipTransferred",
      "type": "event"
    },
    {
      "anonymous": false,
      "inputs": [
        {
          "indexed": false,
          "internalType": "address",
          "name": "account",
          "type": "address"
        }
      ],
      "name": "Paused",
      "type": "event"
    },
    {
      "anonymous": false,
      "inputs": [
        {
          "indexed": true,
          "internalType": "address",
          "name": "owner",
          "type": "address"
        },
        {
          "indexed": true,
          "internalType": "address",
          "name": "token",
          "type": "address"
        },
        {
          "indexed": false,
          "internalType": "uint256",
          "name": "amount",
          "type": "uint256"
        },
        {
          "indexed": false,
          "internalType": "uint256",
          "name": "timestamp",
          "type": "uint256"
        }
      ],
      "name": "ProfitWithdrawn",
      "type": "event"
    },
    {
      "anonymous": false,
      "inputs": [
        {
          "indexed": false,
          "internalType": "address",
          "name": "account",
          "type": "address"
        }
      ],
      "name": "Unpaused",
      "type": "event"
    },
    {
      "stateMutability": "payable",
      "type": "fallback"
    },
    {
      "inputs": [],
      "name": "ADDRESSES_PROVIDER",
      "outputs": [
        {
          "internalType": "contract IPoolAddressesProvider",
          "name": "",
          "type": "address"
        }
      ],
      "stateMutability": "view",
      "type": "function"
    },
    {
      "inputs": [],
      "name": "BALANCER_VAULT",
      "outputs": [
        {
          "internalType": "contract IBalancerVault",
          "name": "",
          "type": "address"
        }
      ],
      "stateMutability": "view",
      "type": "function"
    },
    {
      "inputs": [],
      "name": "POOL",
      "outputs": [
        {
          "internalType": "contract IPool",
          "name": "",
          "type": "address"
        }
      ],
      "stateMutability": "view",
      "type": "function"
    },
    {
      "inputs": [],
      "name": "UNISWAP_V2_ROUTER",
      "outputs": [
        {
          "internalType": "contract IUniswapV2Router",
          "name": "",
          "type": "address"
        }
      ],
      "stateMutability": "view",
      "type": "function"
    },
    {
      "inputs": [],
      "name": "UNISWAP_V3_ROUTER",
      "outputs": [
        {
          "internalType": "contract IUniswapV3Router",
          "name": "",
          "type": "address"
        }
      ],
      "stateMutability": "view",
      "type": "function"
    },
    {
      "inputs": [
        {
          "components": [
            {
              "internalType": "address",
              "name": "tokenIn",
              "type": "address"
            },
            {
              "internalType": "address",
              "name": "tokenOut",
              "type": "address"
            },
            {
              "internalType": "uint256",
              "name": "amountIn",
              "type": "uint256"
            },
            {
              "internalType": "address[]",
              "name": "dexRouters",
              "type": "address[]"
            },
            {
              "internalType": "bytes[]",
              "name": "swapData",
              "type": "bytes[]"
            },
            {
              "internalType": "uint256",
              "name": "minProfit",
              "type": "uint256"
            }
          ],
          "internalType": "struct AtomArbitrage.ArbitrageParams",
          "name": "params",
          "type": "tuple"
        }
      ],
      "name": "_executeArbitrageLogic",
      "outputs": [
        {
          "internalType": "uint256",
          "name": "profit",
          "type": "uint256"
        },
        {
          "internalType": "string",
          "name": "dexPath",
          "type": "string"
        }
      ],
      "stateMutability": "nonpayable",
      "type": "function"
    },
    {
      "inputs": [
        {
          "internalType": "address",
          "name": "",
          "type": "address"
        },
        {
          "internalType": "address",
          "name": "",
          "type": "address"
        },
        {
          "internalType": "uint256",
          "name": "amountIn",
          "type": "uint256"
        },
        {
          "internalType": "address[]",
          "name": "",
          "type": "address[]"
        },
        {
          "internalType": "bytes[]",
          "name": "",
          "type": "bytes[]"
        }
      ],
      "name": "checkProfitability",
      "outputs": [
        {
          "internalType": "bool",
          "name": "profitable",
          "type": "bool"
        },
        {
          "internalType": "uint256",
          "name": "estimatedProfit",
          "type": "uint256"
        }
      ],
      "stateMutability": "pure",
      "type": "function"
    },
    {
      "inputs": [
        {
          "internalType": "string",
          "name": "",
          "type": "string"
        }
      ],
      "name": "dexPairProfits",
      "outputs": [
        {
          "internalType": "uint256",
          "name": "",
          "type": "uint256"
        }
      ],
      "stateMutability": "view",
      "type": "function"
    },
    {
      "inputs": [],
      "name": "emergencyETHRecovery",
      "outputs": [],
      "stateMutability": "nonpayable",
      "type": "function"
    },
    {
      "inputs": [
        {
          "internalType": "address",
          "name": "token",
          "type": "address"
        }
      ],
      "name": "emergencyTokenRecovery",
      "outputs": [],
      "stateMutability": "nonpayable",
      "type": "function"
    },
    {
      "inputs": [
        {
          "internalType": "address",
          "name": "asset",
          "type": "address"
        },
        {
          "internalType": "uint256",
          "name": "amount",
          "type": "uint256"
        },
        {
          "internalType": "bytes",
          "name": "params",
          "type": "bytes"
        }
      ],
      "name": "executeArbitrage",
      "outputs": [],
      "stateMutability": "nonpayable",
      "type": "function"
    },
    {
      "inputs": [
        {
          "internalType": "address",
          "name": "asset",
          "type": "address"
        },
        {
          "internalType": "uint256",
          "name": "amount",
          "type": "uint256"
        },
        {
          "internalType": "uint256",
          "name": "premium",
          "type": "uint256"
        },
        {
          "internalType": "address",
          "name": "initiator",
          "type": "address"
        },
        {
          "internalType": "bytes",
          "name": "params",
          "type": "bytes"
        }
      ],
      "name": "executeOperation",
      "outputs": [
        {
          "internalType": "bool",
          "name": "",
          "type": "bool"
        }
      ],
      "stateMutability": "nonpayable",
      "type": "function"
    },
    {
      "inputs": [],
      "name": "getAverageGasUsed",
      "outputs": [
        {
          "internalType": "uint256",
          "name": "",
          "type": "uint256"
        }
      ],
      "stateMutability": "view",
      "type": "function"
    },
    {
      "inputs": [],
      "name": "getConfig",
      "outputs": [
        {
          "internalType": "uint256",
          "name": "_minProfitBasisPoints",
          "type": "uint256"
        },
        {
          "internalType": "uint256",
          "name": "_maxSlippageBasisPoints",
          "type": "uint256"
        },
        {
          "internalType": "uint256",
          "name": "_maxGasPrice",
          "type": "uint256"
        },
        {
          "internalType": "uint256",
          "name": "_totalTrades",
          "type": "uint256"
        },
        {
          "internalType": "uint256",
          "name": "_successfulTrades",
          "type": "uint256"
        },
        {
          "internalType": "uint256",
          "name": "_totalProfit",
          "type": "uint256"
        },
        {
          "internalType": "uint256",
          "name": "_totalGasUsed",
          "type": "uint256"
        }
      ],
      "stateMutability": "view",
      "type": "function"
    },
    {
      "inputs": [
        {
          "internalType": "uint256",
          "name": "count",
          "type": "uint256"
        }
      ],
      "name": "getRecentTrades",
      "outputs": [
        {
          "components": [
            {
              "internalType": "address",
              "name": "tokenIn",
              "type": "address"
            },
            {
              "internalType": "address",
              "name": "tokenOut",
              "type": "address"
            },
            {
              "internalType": "uint256",
              "name": "amountIn",
              "type": "uint256"
            },
            {
              "internalType": "uint256",
              "name": "profit",
              "type": "uint256"
            },
            {
              "internalType": "uint256",
              "name": "gasUsed",
              "type": "uint256"
            },
            {
              "internalType": "string",
              "name": "dexPath",
              "type": "string"
            },
            {
              "internalType": "uint256",
              "name": "timestamp",
              "type": "uint256"
            },
            {
              "internalType": "bool",
              "name": "successful",
              "type": "bool"
            },
            {
              "internalType": "bytes32",
              "name": "txHash",
              "type": "bytes32"
            }
          ],
          "internalType": "struct AtomArbitrage.Trade[]",
          "name": "",
          "type": "tuple[]"
        }
      ],
      "stateMutability": "view",
      "type": "function"
    },
    {
      "inputs": [],
      "name": "getSuccessRate",
      "outputs": [
        {
          "internalType": "uint256",
          "name": "",
          "type": "uint256"
        }
      ],
      "stateMutability": "view",
      "type": "function"
    },
    {
      "inputs": [],
      "name": "getTotalProfit",
      "outputs": [
        {
          "internalType": "uint256",
          "name": "",
          "type": "uint256"
        }
      ],
      "stateMutability": "view",
      "type": "function"
    },
    {
      "inputs": [],
      "name": "getTradeHistoryCount",
      "outputs": [
        {
          "internalType": "uint256",
          "name": "",
          "type": "uint256"
        }
      ],
      "stateMutability": "view",
      "type": "function"
    },
    {
      "inputs": [],
      "name": "maxGasPrice",
      "outputs": [
        {
          "internalType": "uint256",
          "name": "",
          "type": "uint256"
        }
      ],
      "stateMutability": "view",
      "type": "function"
    },
    {
      "inputs": [],
      "name": "maxSlippageBasisPoints",
      "outputs": [
        {
          "internalType": "uint256",
          "name": "",
          "type": "uint256"
        }
      ],
      "stateMutability": "view",
      "type": "function"
    },
    {
      "inputs": [],
      "name": "minProfitBasisPoints",
      "outputs": [
        {
          "internalType": "uint256",
          "name": "",
          "type": "uint256"
        }
      ],
      "stateMutability": "view",
      "type": "function"
    },
    {
      "inputs": [],
      "name": "owner",
      "outputs": [
        {
          "internalType": "address",
          "name": "",
          "type": "address"
        }
      ],
      "stateMutability": "view",
      "type": "function"
    },
    {
      "inputs": [],
      "name": "pause",
      "outputs": [],
      "stateMutability": "nonpayable",
      "type": "function"
    },
    {
      "inputs": [],
      "name": "paused",
      "outputs": [
        {
          "internalType": "bool",
          "name": "",
          "type": "bool"
        }
      ],
      "stateMutability": "view",
      "type": "function"
    },
    {
      "inputs": [],
      "name": "renounceOwnership",
      "outputs": [],
      "stateMutability": "nonpayable",
      "type": "function"
    },
    {
      "inputs": [],
      "name": "successfulTrades",
      "outputs": [
        {
          "internalType": "uint256",
          "name": "",
          "type": "uint256"
        }
      ],
      "stateMutability": "view",
      "type": "function"
    },
    {
      "inputs": [
        {
          "internalType": "address",
          "name": "",
          "type": "address"
        }
      ],
      "name": "tokenProfits",
      "outputs": [
        {
          "internalType": "uint256",
          "name": "",
          "type": "uint256"
        }
      ],
      "stateMutability": "view",
      "type": "function"
    },
    {
      "inputs": [
        {
          "internalType": "address",
          "name": "",
          "type": "address"
        }
      ],
      "name": "tokenVolume",
      "outputs": [
        {
          "internalType": "uint256",
          "name": "",
          "type": "uint256"
        }
      ],
      "stateMutability": "view",
      "type": "function"
    },
    {
      "inputs": [],
      "name": "totalGasUsed",
      "outputs": [
        {
          "internalType": "uint256",
          "name": "",
          "type": "uint256"
        }
      ],
      "stateMutability": "view",
      "type": "function"
    },
    {
      "inputs": [],
      "name": "totalProfit",
      "outputs": [
        {
          "internalType": "uint256",
          "name": "",
          "type": "uint256"
        }
      ],
      "stateMutability": "view",
      "type": "function"
    },
    {
      "inputs": [],
      "name": "totalTrades",
      "outputs": [
        {
          "internalType": "uint256",
          "name": "",
          "type": "uint256"
        }
      ],
      "stateMutability": "view",
      "type": "function"
    },
    {
      "inputs": [
        {
          "internalType": "uint256",
          "name": "",
          "type": "uint256"
        }
      ],
      "name": "tradeHistory",
      "outputs": [
        {
          "internalType": "address",
          "name": "tokenIn",
          "type": "address"
        },
        {
          "internalType": "address",
          "name": "tokenOut",
          "type": "address"
        },
        {
          "internalType": "uint256",
          "name": "amountIn",
          "type": "uint256"
        },
        {
          "internalType": "uint256",
          "name": "profit",
          "type": "uint256"
        },
        {
          "internalType": "uint256",
          "name": "gasUsed",
          "type": "uint256"
        },
        {
          "internalType": "string",
          "name": "dexPath",
          "type": "string"
        },
        {
          "internalType": "uint256",
          "name": "timestamp",
          "type": "uint256"
        },
        {
          "internalType": "bool",
          "name": "successful",
          "type": "bool"
        },
        {
          "internalType": "bytes32",
          "name": "txHash",
          "type": "bytes32"
        }
      ],
      "stateMutability": "view",
      "type": "function"
    },
    {
      "inputs": [
        {
          "internalType": "address",
          "name": "newOwner",
          "type": "address"
        }
      ],
      "name": "transferOwnership",
      "outputs": [],
      "stateMutability": "nonpayable",
      "type": "function"
    },
    {
      "inputs": [],
      "name": "unpause",
      "outputs": [],
      "stateMutability": "nonpayable",
      "type": "function"
    },
    {
      "inputs": [
        {
          "internalType": "uint256",
          "name": "_minProfitBasisPoints",
          "type": "uint256"
        },
        {
          "internalType": "uint256",
          "name": "_maxSlippageBasisPoints",
          "type": "uint256"
        },
        {
          "internalType": "uint256",
          "name": "_maxGasPrice",
          "type": "uint256"
        }
      ],
      "name": "updateConfig",
      "outputs": [],
      "stateMutability": "nonpayable",
      "type": "function"
    },
    {
      "inputs": [
        {
          "internalType": "uint256",
          "name": "amount",
          "type": "uint256"
        }
      ],
      "name": "withdrawETH",
      "outputs": [],
      "stateMutability": "nonpayable",
      "type": "function"
    },
    {
      "inputs": [
        {
          "internalType": "address",
          "name": "token",
          "type": "address"
        },
        {
          "internalType": "uint256",
          "name": "amount",
          "type": "uint256"
        }
      ],
      "name": "withdrawToken",
      "outputs": [],
      "stateMutability": "nonpayable",
      "type": "function"
    },
    {
      "stateMutability": "payable",
      "type": "receive"
    }
  ],
  "bytecode": "0x60c080604052346200015757600460206200318080380380916200002482876200015c565b85396001600160a01b0393849162000040919081019062000196565b16806080526040519283809263026b1d5f60e01b82525afa80156200014b57829160009162000116575b501660a052600160005560015460405191339082167f8be0079c531659141344cd1fd0a4f28419497f9722a3daafe3b4186f6b6457e0600080a36001600160a81b0319163360ff60a01b191617600155603260025561012c600355640ba43b74006004556000600581905560068190556007819055600855612fc89081620001b8823960805181612032015260a051818181610ec201528181610fde0152818161154f0152611ae00152f35b6200013c915060203d811162000143575b6200013381836200015c565b81019062000196565b386200006a565b503d62000127565b6040513d6000823e3d90fd5b600080fd5b601f909101601f19168101906001600160401b038211908210176200018057604052565b634e487b7160e01b600052604160045260246000fd5b908160209103126200015757516001600160a01b038116810362000157579056fe608080604052600436101561001a575b50361561001857005b005b600090813560e01c9081630542975c1461201e5750806305785ad414612003578063075f631d14611f965780631b11d0ff146114fc578063331f566e146114de5780633667fc161461145c5780633de39c111461143e5780633f4ba83a146113a157806341c64a2f1461137257806349acbc4d146113545780634c2458a8146113315780634eaa6001146112d25780635b0c5dbd1461121e5780635c975abb146111f8578063697659f2146111bf578063715018a61461116257806373ad49461461100d5780637535d24614610fc85780637c1d953914610e595780638456cb5914610df65780638600151914610b565780638da5cb5b14610dcd5780639e281a9814610c815780639fbefb2614610c63578063a0b2eefe14610ba3578063a82ed9ec14610b74578063a9a4cbcc14610b56578063ae58c206146106e6578063bc163846146106b7578063c3f909d414610666578063c63877eb14610409578063d6b735b5146103eb578063e275c997146103cd578063e922c75c14610394578063f14210a6146102a5578063f2fde38b146101da5763fc2139960361000f57346101d757806003193601126101d7576020600754604051908152f35b80fd5b50346101d75760203660031901126101d7576101f461217a565b6101fc61236e565b6001600160a01b0390811690811561025157600154826bffffffffffffffffffffffff60a01b821617600155167f8be0079c531659141344cd1fd0a4f28419497f9722a3daafe3b4186f6b6457e0600080a380f35b60405162461bcd60e51b815260206004820152602660248201527f4f776e61626c653a206e6577206f776e657220697320746865207a65726f206160448201526564647265737360d01b6064820152608490fd5b50346101d75760203660031901126101d7576004356102c261236e565b6102ca61240d565b47811161034f57808291156102df8115612f0a565b828080808560018060a01b03958660015416908390610346575bf11561033b5760407fc47d27fd39a471117fc0e9b9713ab14c3b4cafb5eeb0aae4177d2817244d5d259160015416928151908152426020820152a36001815580f35b6040513d84823e3d90fd5b506108fc6102f9565b60405162461bcd60e51b815260206004820152601860248201527f496e73756666696369656e74204554482062616c616e636500000000000000006044820152606490fd5b50346101d75760203660031901126101d7576020906040906001600160a01b036103bc61217a565b168152600a83522054604051908152f35b50346101d757806003193601126101d7576020600654604051908152f35b50346101d757806003193601126101d7576020600254604051908152f35b50346101d75760208060031936011261066257600c5460043580821115610658579291925b61043781612357565b9161044560405193846120e4565b818352601f1961045483612357565b01845b8181106106065750506000198101908111845b838110610538575050505060405191838301848452825180915260408401948060408360051b870101940192955b8287106104a55785850386f35b909192938280600192603f19898203018552875190848060a01b0380835116825283830151168382015260408201516040820152606080830151908201526080808301519082015261050760a080840151906101208091850152830190612332565b9160c0808201519083015260e0810151151560e0830152610100809101519101529601920196019592919092610498565b819695966105f257806105566105516105ea9386612463565b612201565b5060086040519161056683612061565b80546001600160a01b0390811684526001820154168a8401526002810154604084015260038101546060840152600481015460808401526105a96005820161228c565b60a0840152600681015460c084015260ff600782015416151560e084015201546101008201526105d9828861279c565b526105e4818761279c565b50612e70565b95949561046a565b634e487b7160e01b87526011600452602487fd5b9580959660405161061681612061565b88815288838201528860408201526060898183015289608083015260a08201528860c08201528860e08201528861010082015282828801015201959495610457565b508092919261042e565b5080fd5b50346101d757806003193601126101d75760e0600254600354600454600654600754906005549260085494604051968752602087015260408601526060850152608084015260a083015260c0820152f35b50346101d757806003193601126101d757602060405173ba12222222228d8ba445958a75a0704d566bf2c88152f35b50346101d757600319602036820112610b39576001600160401b0360043511610b395760c09060043536030112610b39576040519061072482612093565b610732600435600401612190565b8252610742602460043501612190565b9060208301918252604460043501356040840152606460043501356001600160401b038111610b39576004350136602382011215610b395760048101359061078982612357565b9161079760405193846120e4565b8083526024602084019160051b83010191368311610b3957602401905b828210610b3e57505050606084015260846004350135906001600160401b038211610b39573660238360043501011215610b39576004828135010135916107fa83612357565b9261080860405194856120e4565b80845260208401913660248360051b8360043501010111610b39576024816004350101925b60248360051b836004350101018410610af157505050506080840191825260a084019260a460043501358452303303610ab85760018060a01b039261089a848751168584511660408901518761088660608c015161277f565b511691610893865161277f565b51936127d0565b908115610a7f57846108c79351169185885116610893876108be60608c015161278c565b5116935161278c565b6040850151811115610a425760408501516108e191612463565b925183106109fd57612710908184029184830414841517156109e95750604084015161090c916127b0565b600254116109ac57602461094182610932606061093961098c96610932838b015161277f565b5116612d84565b97015161278c565b93604051948161095b879351809260208087019101612157565b820163010169f160e51b602082015261097d8251809360208785019101612157565b010360048101855201836120e4565b6109a86040519283928352604060208401526040830190612332565b0390f35b60405162461bcd60e51b815260206004820152601560248201527450726f666974206d617267696e20746f6f206c6f7760581b6044820152606490fd5b634e487b7160e01b81526011600452602490fd5b60405162461bcd60e51b815260206004820152601e60248201527f50726f6669742062656c6f77206d696e696d756d207468726573686f6c6400006044820152606490fd5b60405162461bcd60e51b81526020600482015260156024820152744e6f2070726f666974206f70706f7274756e69747960581b6044820152606490fd5b60405162461bcd60e51b8152602060048201526011602482015270119a5c9cdd081cddd85c0819985a5b1959607a1b6044820152606490fd5b60405162461bcd60e51b815260206004820152601160248201527024b73a32b93730b610333ab731ba34b7b760791b6044820152606490fd5b83356001600160401b038111610b39578260043501019036604383011215610b395760208091610b2c60249436906044878201359101612120565b815201940193905061082d565b600080fd5b60208091610b4b84612190565b8152019101906107b4565b50346101d757806003193601126101d7576020600554604051908152f35b50346101d757806003193601126101d7576020604051734752ba5dbc23f44d87826276bf6fd6b1c372ad248152f35b50346101d75760203660031901126101d757610bbd61217a565b610bc561236e565b6001600160a01b03908116610bdb811515612ec6565b6040516370a0823160e01b815230600482015290602082602481845afa918215610c58578492610c25575b5081610c10578380f35b610c1e926001541690612f56565b3880808380f35b9091506020813d8211610c50575b81610c40602093836120e4565b81010312610b3957519038610c06565b3d9150610c33565b6040513d86823e3d90fd5b50346101d757806003193601126101d7576020600854604051908152f35b50346101d75760403660031901126101d757610c9b61217a565b60243590610ca761236e565b610caf61240d565b6001600160a01b0390811691610cc6831515612ec6565b610cd1811515612f0a565b6040516370a0823160e01b8152306004820152602092908381602481885afa908115610dc2578691610d95575b508211610d50578181610d397fc47d27fd39a471117fc0e9b9713ab14c3b4cafb5eeb0aae4177d2817244d5d25946040946001541688612f56565b600154169382519182524290820152a36001815580f35b60405162461bcd60e51b815260048101849052601a60248201527f496e73756666696369656e7420746f6b656e2062616c616e63650000000000006044820152606490fd5b90508381813d8311610dbb575b610dac81836120e4565b81010312610b39575138610cfe565b503d610da2565b6040513d88823e3d90fd5b50346101d757806003193601126101d7576001546040516001600160a01b039091168152602090f35b50346101d757806003193601126101d757610e0f61236e565b610e176123c6565b6001805460ff60a01b1916600160a01b1790556040513381527f62e78cea01bee320cd4e420270b5ea74000d11b0c9f74754ebdbfc544b05a25890602090a180f35b50346101d75760603660031901126101d757610e7361217a565b6001600160401b03604435818111610fc457610e939036906004016121a4565b9290610e9d61236e565b610ea561240d565b610ead6123c6565b6004543a11610f8a5784916001600160a01b037f0000000000000000000000000000000000000000000000000000000000000000811691823b15610f865760c4859188604051998a97889687946310ac2ddf60e21b8652306004870152166024850152602435604485015260a060648501528160a48501528484013783838284010152836084830152601f801991011681010301925af18015610f7b57610f57575b826001815580f35b8111610f67576040523880610f4f565b634e487b7160e01b82526041600452602482fd5b6040513d85823e3d90fd5b8480fd5b60405162461bcd60e51b815260206004820152601260248201527108ec2e640e0e4d2c6ca40e8dede40d0d2ced60731b6044820152606490fd5b8380fd5b50346101d757806003193601126101d7576040517f00000000000000000000000000000000000000000000000000000000000000006001600160a01b03168152602090f35b50346101d75760603660031901126101d75760443560243560043561103061236e565b80151580611156575b1561111c5781151580611110575b156110d4578215611097577f6d05db271e19f930af71c4765de54ef86294762644c20f4d6fd2609d057d3c7b9260609282600255806003558160045560405192835260208301526040820152a180f35b60405162461bcd60e51b8152602060048201526015602482015274496e76616c6964206d61782067617320707269636560581b6044820152606490fd5b60405162461bcd60e51b8152602060048201526014602482015273496e76616c6964206d617820736c69707061676560601b6044820152606490fd5b506103e8821115611047565b60405162461bcd60e51b8152602060048201526012602482015271125b9d985b1a59081b5a5b881c1c9bd99a5d60721b6044820152606490fd5b506103e8811115611039565b50346101d757806003193601126101d75761117b61236e565b600180546001600160a01b0319811690915581906001600160a01b03167f8be0079c531659141344cd1fd0a4f28419497f9722a3daafe3b4186f6b6457e08280a380f35b50346101d75760203660031901126101d7576020906040906001600160a01b036111e761217a565b168152600983522054604051908152f35b50346101d757806003193601126101d757602060ff60015460a01c166040519015158152f35b50346101d75760203660031901126101d757600435600c548110156106625761124690612201565b5060018060a01b0380825416906001830154169160028101546003820154916112bb60048201546112796005840161228c565b90600684015495600860ff60078701541695015495604051998a998a5260208a01526040890152606088015260808701526101208060a0880152860190612332565b9260c0850152151560e08401526101008301520390f35b50346101d757806003193601126101d7576112eb61236e565b804780159081156112fa575050f35b82809291819260018060a01b0360015416908390611328575bf11561131c5780f35b604051903d90823e3d90fd5b506108fc611313565b50346101d757806003193601126101d757602061134c612eb1565b604051908152f35b50346101d757806003193601126101d7576020600c54604051908152f35b50346101d757806003193601126101d7576020604051732626664c2603336e57b271c5c0b26f421741e4818152f35b50346101d757806003193601126101d7576113ba61236e565b60015460ff8160a01c16156114025760ff60a01b19166001556040513381527f5db9ee0a495bf2e6ff9c91a7834c1ba4fdd244a5e8aa4e537bd38aeae4b073aa90602090a180f35b60405162461bcd60e51b815260206004820152601460248201527314185d5cd8589b194e881b9bdd081c185d5cd95960621b6044820152606490fd5b50346101d757806003193601126101d7576020600454604051908152f35b50346101d75760a03660031901126101d75761147661217a565b506024356001600160a01b038116036101d7576001600160401b036064358181116114da576114a99036906004016121d1565b5050608435908111610662576114c39036906004016121d1565b505060408051600181526064604435046020820152f35b8280fd5b50346101d757806003193601126101d7576020600354604051908152f35b50346101d75760a03660031901126101d75761151661217a565b6064356001600160a01b03811691908290036114da576084356001600160401b038111610fc45761154b9036906004016121a4565b90927f00000000000000000000000000000000000000000000000000000000000000006001600160a01b03163303611f51573003611f0c575a926020818381010312610f86578035906001600160401b038211611f085760c08282018483010312611f0857604051926115bd84612093565b6115c8838301612190565b84526115d8602084840101612190565b602085015281830160408181013590860152606001356001600160401b038111611f0457818301601f8286860101011215611f045780848401013561161c81612357565b9161162a60405193846120e4565b818352602083019084860160208460051b838a8a0101010111611e2857906020828888010101915b60208460051b828a8a010101018310611ee9575050505060608501526001600160401b036080848401013511611ee557818101838301608081013501601f011215611ee55781830160808101350135906116ab82612357565b916116b960405193846120e4565b808352602083019180850160208360051b6080898901013589890101010111611ee157848601608081013501602001925b858701608081013501600584901b016020018410611e8657505050509060a09291608085015201013560a08201528390604051611726816120ae565b8581529160405163572c610360e11b81526020600482015260018060a01b03835116602482015260018060a01b036020840151166044820152604083015160648201528681606085015160c0608483015280518060e484015260206101048401920190845b818110611e61575050506080860151906023198382030160a4840152815180825260208201916020808360051b83010194019286915b838310611e30575050505050819060a087015160c4830152038183305af1908188918993611d97575b50611d885750506117fe86955b5a90612463565b82519360406020850151940151916040514260208201526bffffffffffffffffffffffff19808860601b1660408301528660601b1660548201528360688201523360601b6088820152607c81528060a08101106001600160401b0360a083011117611d745760a081016040528051602082012061187d60a08301612061565b6001600160a01b0388811660a0840152871660c083015260e08201859052610100820186905261012082018390526101408201849052426101608301528915156101808301526101a0820152600c5468010000000000000000811015611d60578060016118ed9201600c55612201565b919091611d4c5760a081015182546001600160a01b039182166001600160a01b031991821617845560c083015160018501805491909316911617905560e08101516002830155610100810151600383015561012081015160048301556101408101518051906001600160401b038211611d385761196d6005850154612252565b8d601f8211611cf1575b9050506020908d601f8411600114611c555793837fed7eba35acf844a173245a4fd7397564c70edbcd3764df0a10e30712c021e59f9a999896946008946101a094611a499a9892611c4a575b50508160011b916000199060031b1c19161760058501555b610160810151600685015560078401610180820151151560ff801983541691161790550151910155611a0e600654612e70565b60065589611a1e82600854612486565b600855611bb4575b60405194859485526020850152604084015260a0606084015260a0830190612332565b4260808301526001600160a01b0394851695909416930390a36044359160243590611a748483612486565b6040516370a0823160e01b81523060048201526001600160a01b039094169590936020816024818a5afa91821561131c5790818693611b7c575b505010611b2c577fe7055bb7f757aae8cfbf6ea2247e26371914425f5500c1d720f0746ae1ff880393606093611b0e907f00000000000000000000000000000000000000000000000000000000000000006001600160a01b031688612493565b604051928352602083015215156040820152a2602060405160018152f35b60405162461bcd60e51b815260206004820152602260248201527f496e73756666696369656e742062616c616e636520746f207265706179206c6f60448201526130b760f11b6064820152608490fd5b915091506020823d602011611bac575b81611b99602093836120e4565b810103126101d757508390513880611aae565b3d9150611b8c565b611bbf600754612e70565b600755611bce85600554612486565b6005556001600160a01b0388168b52600960205260408b208054611bf3908790612486565b90556001600160a01b0388168b52600a60205260408b208054611c17908690612486565b90556040516020818451611c2e8183858901612157565b8101600b815203019020611c43868254612486565b9055611a26565b0151905038806119c3565b919060058601835260208320925b601f1985168110611cd95750936001846008946101a094611a499a987fed7eba35acf844a173245a4fd7397564c70edbcd3764df0a10e30712c021e59f9e9d9c9a98601f19811610611cc0575b505050811b0160058501556119db565b015160001960f88460031b161c19169055388080611cb0565b91926020600181928685015181550194019201611c63565b60209060058701815220601f840160051c810160208510611d31575b8f5b601f840160051c83018210611d2657915050611977565b81556001018f611d0f565b5080611d0d565b634e487b7160e01b8d52604160045260248dfd5b634e487b7160e01b8b5260048b905260248bfd5b634e487b7160e01b8b52604160045260248bfd5b634e487b7160e01b8a52604160045260248afd5b915092506117fe6001956117f7565b915091503d908189823e611dab82826120e4565b6040818381010312611e2c578051906020810151906001600160401b038211611e2857838101601f838301011215611e28578181015190611deb82612105565b94611df960405196876120e4565b8286528101602083858401010111611e24576020611e1c93818701920101612157565b9091386117ea565b8b80fd5b8a80fd5b8880fd5b92955092955092602080611e50600193601f198682030187528951612332565b9701930193018c95938795926117c1565b82516001600160a01b031684528c95508694506020938401939092019160010161178b565b8335906001600160401b038211611e24578683018888016080810135018301603f011215611e245760209182918291611ed4908a8701908b8d01608081013501018085013590604001612120565b81520194019390506116ea565b8980fd5b8680fd5b6020808093611ef786612190565b8152019301929150611652565b8780fd5b8580fd5b60405162461bcd60e51b815260206004820152601f60248201527f496e69746961746f72206d757374206265207468697320636f6e7472616374006044820152606490fd5b60405162461bcd60e51b815260206004820152601860248201527f43616c6c6572206d757374206265204141564520706f6f6c00000000000000006044820152606490fd5b50346101d75760203660031901126101d757600435906001600160401b0382116101d757366023830112156101d7576020611ff081611fdd36600487013560248801612120565b8160405193828580945193849201612157565b8101600b81520301902054604051908152f35b50346101d757806003193601126101d757602061134c612e7f565b9050346106625781600319360112610662577f00000000000000000000000000000000000000000000000000000000000000006001600160a01b03168152602090f35b61012081019081106001600160401b0382111761207d57604052565b634e487b7160e01b600052604160045260246000fd5b60c081019081106001600160401b0382111761207d57604052565b602081019081106001600160401b0382111761207d57604052565b604081019081106001600160401b0382111761207d57604052565b90601f801991011681019081106001600160401b0382111761207d57604052565b6001600160401b03811161207d57601f01601f191660200190565b92919261212c82612105565b9161213a60405193846120e4565b829481845281830111610b39578281602093846000960137010152565b60005b83811061216a5750506000910152565b818101518382015260200161215a565b600435906001600160a01b0382168203610b3957565b35906001600160a01b0382168203610b3957565b9181601f84011215610b39578235916001600160401b038311610b395760208381860195010111610b3957565b9181601f84011215610b39578235916001600160401b038311610b39576020808501948460051b010111610b3957565b600c5481101561223c57600990600c600052027fdf6966c971051c3d54ec59162606531493a51404a002842f56009d7e5cf4a8c70190600090565b634e487b7160e01b600052603260045260246000fd5b90600182811c92168015612282575b602083101461226c57565b634e487b7160e01b600052602260045260246000fd5b91607f1691612261565b90604051918260008254926122a084612252565b90818452600194858116908160001461230f57506001146122cc575b50506122ca925003836120e4565b565b9093915060005260209081600020936000915b8183106122f75750506122ca935082010138806122bc565b855488840185015294850194879450918301916122df565b9150506122ca94506020925060ff191682840152151560051b82010138806122bc565b9060209161234b81518092818552858086019101612157565b601f01601f1916010190565b6001600160401b03811161207d5760051b60200190565b6001546001600160a01b0316330361238257565b606460405162461bcd60e51b815260206004820152602060248201527f4f776e61626c653a2063616c6c6572206973206e6f7420746865206f776e65726044820152fd5b60ff60015460a01c166123d557565b60405162461bcd60e51b815260206004820152601060248201526f14185d5cd8589b194e881c185d5cd95960821b6044820152606490fd5b60026000541461241e576002600055565b60405162461bcd60e51b815260206004820152601f60248201527f5265656e7472616e637947756172643a207265656e7472616e742063616c6c006044820152606490fd5b9190820391821161247057565b634e487b7160e01b600052601160045260246000fd5b9190820180921161247057565b60405163095ea7b360e01b602082018181526001600160a01b0385166024840152604480840196909652948252949390926124cf6064856120e4565b83516000926001600160a01b039291858416918591829182855af1906124f36126b2565b82612582575b5081612577575b5015612510575b50505050509050565b6040519660208801521660248601528060448601526044855260808501908582106001600160401b038311176125635750612558939461255391604052826125cc565b6125cc565b803880808080612507565b634e487b7160e01b81526041600452602490fd5b90503b151538612500565b8051919250811591821561259a575b505090386124f9565b6125ad92506020809183010191016125b4565b3880612591565b90816020910312610b3957518015158103610b395790565b60405161262a916001600160a01b03166125e5826120c9565b6000806020958685527f5361666545524332303a206c6f772d6c6576656c2063616c6c206661696c656487860152868151910182855af16126246126b2565b916126e2565b80519082821592831561269a575b505050156126435750565b6084906040519062461bcd60e51b82526004820152602a60248201527f5361666545524332303a204552433230206f7065726174696f6e20646964206e6044820152691bdd081cdd58d8d9595960b21b6064820152fd5b6126aa93508201810191016125b4565b388281612638565b3d156126dd573d906126c382612105565b916126d160405193846120e4565b82523d6000602084013e565b606090565b9192901561274457508151156126f6575090565b3b156126ff5790565b60405162461bcd60e51b815260206004820152601d60248201527f416464726573733a2063616c6c20746f206e6f6e2d636f6e74726163740000006044820152606490fd5b8251909150156127575750805190602001fd5b60405162461bcd60e51b81526020600482015290819061277b906024830190612332565b0390fd5b80511561223c5760200190565b80516001101561223c5760400190565b805182101561223c5760209160051b010190565b81156127ba570490565b634e487b7160e01b600052601260045260246000fd5b9194939290916001600160a01b0316906127eb868284612493565b734752ba5dbc23f44d87826276bf6fd6b1c372ad24926001600160a01b03919091169190838303612a105750505081518201936020908184818801970312610b3957818401516001600160401b0394858211610b3957019286603f85011215610b39578284015161285b81612357565b9760409561286b87519a8b6120e4565b828a52858a019087829460051b820101928311610b39578701905b8282106129f15750505061012c4201804211612470579092979185519384926338ed173960e01b845260a484019a600485015260009a8b9586602487015260a060448701525180915260c485019290865b898282106129ce57505050508380928692306064840152608483015203925af19384156129c457869461293b575b5050505080519060001982019182116129275761292392935061279c565b5190565b634e487b7160e01b84526011600452602484fd5b90919293503d8087843e61294f81846120e4565b8201918381840312611ee5578051918211611ee5570181601f82011215611f085780519061298861297f83612357565b955195866120e4565b818552838086019260051b820101928311611ee5578301905b8282106129b5575050505038808080612905565b815181529083019083016129a1565b83513d88823e3d90fd5b83516001600160a01b031686528e985089975094850194909201916001016128d7565b81516001600160a01b0381168103610b39578152908601908601612886565b90919394959250732626664c2603336e57b271c5c0b26f421741e48193848114600014612b7657506020948581805181010312610b39578501519362ffffff8516809503610b395761012c420180421161247057604051906101008201928284106001600160401b0385111761207d5760409384529482526001600160a01b0393841682890190815282840197885230606084019081526080840192835260a08401978852600060c0850181815260e08601828152965163414bf38960e01b8152955188166004870152925187166024860152985162ffffff166044850152518516606484015290516084830152945160a4820152935160c4850152511660e48301529091908390839061010490829085905af1928315612b69578193612b38575b50505090565b9091809350813d8311612b62575b612b5081836120e4565b810103126101d7575051388080612b32565b503d612b46565b50604051903d90823e3d90fd5b91949093509073ba12222222228d8ba445958a75a0704d566bf2c803612d4d57602081805181010312610b39576020015191604093845193612bb785612093565b845260006020850152848401526001600160a01b0316606083015260808201528151612be2816120ae565b6000815260a0820152815190608082018281106001600160401b0382111761207d5783523082526000602083015230838301526000606083015261012c420142116124705760a0602091612ca0936060865195869485946352bbbe2960e01b865260e06004870152805160e487015260ff8882015116610104870152600180831b038a82015116610124870152600180831b0384820151166101448701526080810151610164870152015160c06101848601526101a4850190612332565b82516001600160a01b03908116602486015286840151151560448601528884015116606485015291015115156084830152600060a483018190524261012c0160c484015291900390829073ba12222222228d8ba445958a75a0704d566bf2c85af1918215612d435750600091612d14575090565b90506020813d602011612d3b575b81612d2f602093836120e4565b81010312610b39575190565b3d9150612d22565b513d6000823e3d90fd5b60405162461bcd60e51b815260206004820152600f60248201526e0aadce6eae0e0dee4e8cac840888ab608b1b6044820152606490fd5b6001600160a01b0316734752ba5dbc23f44d87826276bf6fd6b1c372ad248114612e4a57732626664c2603336e57b271c5c0b26f421741e4818114612e245773ba12222222228d8ba445958a75a0704d566bf2c814612e0057604051612de9816120c9565b60078152662ab735b737bbb760c91b602082015290565b604051612e0c816120c9565b60088152672130b630b731b2b960c11b602082015290565b50604051612e31816120c9565b6009815268556e6973776170563360b81b602082015290565b50604051612e57816120c9565b60098152682ab734b9bbb0b82b1960b91b602082015290565b60001981146124705760010190565b6006548015612eab576007549060648202918083046064149015171561247057612ea8916127b0565b90565b50600090565b6006548015612eab57612ea8906008546127b0565b15612ecd57565b60405162461bcd60e51b8152602060048201526015602482015274496e76616c696420746f6b656e206164647265737360581b6044820152606490fd5b15612f1157565b60405162461bcd60e51b815260206004820152601760248201527f416d6f756e74206d75737420626520706f7369746976650000000000000000006044820152606490fd5b60405163a9059cbb60e01b60208201526001600160a01b039290921660248301526044808301939093529181526122ca916125536064836120e456fea2646970667358221220e5248d8f6d9fe1ab6178141cb50c8fd002bacd8adff1d97cf513a4e7343a107b64736f6c63430008140033",
  "linkReferences": {},
  "deployedLinkReferences": {}
}