{
  "_format": "hh-sol-artifact-1",
  "contractName": "MockERC20",
  "sourceName": "contracts/MockERC20.sol",
  "abi": [
    {
      "inputs": [
        {
          "internalType": "string",
          "name": "name",
          "type": "string"
        },
        {
          "internalType": "string",
          "name": "symbol",
          "type": "string"
        },
        {
          "internalType": "uint256",
          "name": "initialSupply",
          "type": "uint256"
        }
      ],
      "stateMutability": "nonpayable",
      "type": "constructor"
    },
    {
      "anonymous": false,
      "inputs": [
        {
          "indexed": true,
          "internalType": "address",
          "name": "owner",
          "type": "address"
        },
        {
          "indexed": true,
          "internalType": "address",
          "name": "spender",
          "type": "address"
        },
        {
          "indexed": false,
          "internalType": "uint256",
          "name": "value",
          "type": "uint256"
        }
      ],
      "name": "Approval",
      "type": "event"
    },
    {
      "anonymous": false,
      "inputs": [
        {
          "indexed": true,
          "internalType": "address",
          "name": "from",
          "type": "address"
        },
        {
          "indexed": true,
          "internalType": "address",
          "name": "to",
          "type": "address"
        },
        {
          "indexed": false,
          "internalType": "uint256",
          "name": "value",
          "type": "uint256"
        }
      ],
      "name": "Transfer",
      "type": "event"
    },
    {
      "inputs": [
        {
          "internalType": "address",
          "name": "owner",
          "type": "address"
        },
        {
          "internalType": "address",
          "name": "spender",
          "type": "address"
        }
      ],
      "name": "allowance",
      "outputs": [
        {
          "internalType": "uint256",
          "name": "",
          "type": "uint256"
        }
      ],
      "stateMutability": "view",
      "type": "function"
    },
    {
      "inputs": [
        {
          "internalType": "address",
          "name": "spender",
          "type": "address"
        },
        {
          "internalType": "uint256",
          "name": "amount",
          "type": "uint256"
        }
      ],
      "name": "approve",
      "outputs": [
        {
          "internalType": "bool",
          "name": "",
          "type": "bool"
        }
      ],
      "stateMutability": "nonpayable",
      "type": "function"
    },
    {
      "inputs": [
        {
          "internalType": "address",
          "name": "account",
          "type": "address"
        }
      ],
      "name": "balanceOf",
      "outputs": [
        {
          "internalType": "uint256",
          "name": "",
          "type": "uint256"
        }
      ],
      "stateMutability": "view",
      "type": "function"
    },
    {
      "inputs": [
        {
          "internalType": "address",
          "name": "from",
          "type": "address"
        },
        {
          "internalType": "uint256",
          "name": "amount",
          "type": "uint256"
        }
      ],
      "name": "burn",
      "outputs": [],
      "stateMutability": "nonpayable",
      "type": "function"
    },
    {
      "inputs": [],
      "name": "decimals",
      "outputs": [
        {
          "internalType": "uint8",
          "name": "",
          "type": "uint8"
        }
      ],
      "stateMutability": "view",
      "type": "function"
    },
    {
      "inputs": [
        {
          "internalType": "address",
          "name": "spender",
          "type": "address"
        },
        {
          "internalType": "uint256",
          "name": "subtractedValue",
          "type": "uint256"
        }
      ],
      "name": "decreaseAllowance",
      "outputs": [
        {
          "internalType": "bool",
          "name": "",
          "type": "bool"
        }
      ],
      "stateMutability": "nonpayable",
      "type": "function"
    },
    {
      "inputs": [
        {
          "internalType": "address",
          "name": "spender",
          "type": "address"
        },
        {
          "internalType": "uint256",
          "name": "addedValue",
          "type": "uint256"
        }
      ],
      "name": "increaseAllowance",
      "outputs": [
        {
          "internalType": "bool",
          "name": "",
          "type": "bool"
        }
      ],
      "stateMutability": "nonpayable",
      "type": "function"
    },
    {
      "inputs": [
        {
          "internalType": "address",
          "name": "to",
          "type": "address"
        },
        {
          "internalType": "uint256",
          "name": "amount",
          "type": "uint256"
        }
      ],
      "name": "mint",
      "outputs": [],
      "stateMutability": "nonpayable",
      "type": "function"
    },
    {
      "inputs": [],
      "name": "name",
      "outputs": [
        {
          "internalType": "string",
          "name": "",
          "type": "string"
        }
      ],
      "stateMutability": "view",
      "type": "function"
    },
    {
      "inputs": [],
      "name": "symbol",
      "outputs": [
        {
          "internalType": "string",
          "name": "",
          "type": "string"
        }
      ],
      "stateMutability": "view",
      "type": "function"
    },
    {
      "inputs": [],
      "name": "totalSupply",
      "outputs": [
        {
          "internalType": "uint256",
          "name": "",
          "type": "uint256"
        }
      ],
      "stateMutability": "view",
      "type": "function"
    },
    {
      "inputs": [
        {
          "internalType": "address",
          "name": "to",
          "type": "address"
        },
        {
          "internalType": "uint256",
          "name": "amount",
          "type": "uint256"
        }
      ],
      "name": "transfer",
      "outputs": [
        {
          "internalType": "bool",
          "name": "",
          "type": "bool"
        }
      ],
      "stateMutability": "nonpayable",
      "type": "function"
    },
    {
      "inputs": [
        {
          "internalType": "address",
          "name": "from",
          "type": "address"
        },
        {
          "internalType": "address",
          "name": "to",
          "type": "address"
        },
        {
          "internalType": "uint256",
          "name": "amount",
          "type": "uint256"
        }
      ],
      "name": "transferFrom",
      "outputs": [
        {
          "internalType": "bool",
          "name": "",
          "type": "bool"
        }
      ],
      "stateMutability": "nonpayable",
      "type": "function"
    }
  ],
  "bytecode": "0x60406080815234620003cb5762000f14803803806200001e81620003d0565b9283398101606082820312620003cb5781516001600160401b039290838111620003cb578262000050918301620003f6565b9260209283830151828111620003cb5786916200006f918501620003f6565b92015193805191808311620002cb5760038054936001938486811c96168015620003c0575b88871014620003aa578190601f9687811162000354575b508890878311600114620002ed57600092620002e1575b505060001982841b1c191690841b1781555b8451918211620002cb5760049485548481811c91168015620002c0575b88821014620002ab5785811162000260575b508690858411600114620001f557938394918492600095620001e9575b50501b92600019911b1c19161782555b3315620001aa5750600254908382018092116200019557506000917fddf252ad1be2c89b69c2b068fc378daa952ba7f163c4a11628f55a4df523b3ef9160025533835282815284832084815401905584519384523393a351610aab9081620004698239f35b601190634e487b7160e01b6000525260246000fd5b60649285519262461bcd60e51b845283015260248201527f45524332303a206d696e7420746f20746865207a65726f2061646472657373006044820152fd5b01519350388062000120565b9190601f198416928760005284896000209460005b8b898383106200024857505050106200022d575b50505050811b01825562000130565b01519060f884600019921b161c19169055388080806200021e565b8686015189559097019694850194889350016200020a565b86600052876000208680860160051c8201928a8710620002a1575b0160051c019085905b8281106200029457505062000103565b6000815501859062000284565b925081926200027b565b602287634e487b7160e01b6000525260246000fd5b90607f1690620000f1565b634e487b7160e01b600052604160045260246000fd5b015190503880620000c2565b90869350601f19831691856000528a6000209260005b8c8282106200033d575050841162000324575b505050811b018155620000d4565b015160001983861b60f8161c1916905538808062000316565b8385015186558a9790950194938401930162000303565b90915083600052886000208780850160051c8201928b8610620003a0575b918891869594930160051c01915b82811062000390575050620000ab565b6000815585945088910162000380565b9250819262000372565b634e487b7160e01b600052602260045260246000fd5b95607f169562000094565b600080fd5b6040519190601f01601f191682016001600160401b03811183821017620002cb57604052565b919080601f84011215620003cb5782516001600160401b038111620002cb576020906200042c601f8201601f19168301620003d0565b92818452828287010111620003cb5760005b8181106200045457508260009394955001015290565b85810183015184820184015282016200043e56fe608060408181526004918236101561001657600080fd5b600092833560e01c91826306fdde031461069057508163095ea7b31461066657816318160ddd1461064757816323b872dd1461057d578163313ce56714610561578163395093511461051157816340c10f191461044e57816370a082311461041757816395d89b41146102f85781639dc29fac146101d7578163a457c2d71461012f57508063a9059cbb146100ff5763dd62ed3e146100b457600080fd5b346100fb57806003193601126100fb57806020926100d06107b1565b6100d86107cc565b6001600160a01b0391821683526001865283832091168252845220549051908152f35b5080fd5b50346100fb57806003193601126100fb5760209061012861011e6107b1565b6024359033610805565b5160018152f35b905082346101d457826003193601126101d45761014a6107b1565b918360243592338152600160205281812060018060a01b0386168252602052205490828210610183576020856101288585038733610973565b608490602086519162461bcd60e51b8352820152602560248201527f45524332303a2064656372656173656420616c6c6f77616e63652062656c6f77604482015264207a65726f60d81b6064820152fd5b80fd5b839150346100fb57826003193601126100fb576101f26107b1565b6001600160a01b0316906024359082156102ab5782845283602052848420549082821061025d57508184957fddf252ad1be2c89b69c2b068fc378daa952ba7f163c4a11628f55a4df523b3ef936020938688528785520381872055816002540360025551908152a380f35b608490602087519162461bcd60e51b8352820152602260248201527f45524332303a206275726e20616d6f756e7420657863656564732062616c616e604482015261636560f01b6064820152fd5b608490602086519162461bcd60e51b8352820152602160248201527f45524332303a206275726e2066726f6d20746865207a65726f206164647265736044820152607360f81b6064820152fd5b8383346100fb57816003193601126100fb57805190828454600181811c9080831692831561040d575b60209384841081146103fa578388529081156103de5750600114610389575b505050829003601f01601f191682019267ffffffffffffffff8411838510176103765750829182610372925282610768565b0390f35b634e487b7160e01b815260418552602490fd5b8787529192508591837f8a35acfbc15ff81a39ae7d344fd709f28e8600b4aa8c65c6b64bfe7fe36bd19b5b8385106103ca5750505050830101858080610340565b8054888601830152930192849082016103b4565b60ff1916878501525050151560051b8401019050858080610340565b634e487b7160e01b895260228a52602489fd5b91607f1691610321565b5050346100fb5760203660031901126100fb5760209181906001600160a01b0361043f6107b1565b16815280845220549051908152f35b9190503461050d578060031936011261050d576104696107b1565b6001600160a01b031691602435919083156104cb57506020827fddf252ad1be2c89b69c2b068fc378daa952ba7f163c4a11628f55a4df523b3ef926104b187956002546107e2565b60025585855284835280852082815401905551908152a380f35b6020606492519162461bcd60e51b8352820152601f60248201527f45524332303a206d696e7420746f20746865207a65726f2061646472657373006044820152fd5b8280fd5b5050346100fb57806003193601126100fb5761012860209261055a6105346107b1565b338352600186528483206001600160a01b038216845286529184902054602435906107e2565b9033610973565b5050346100fb57816003193601126100fb576020905160128152f35b839150346100fb5760603660031901126100fb576105996107b1565b6105a16107cc565b91846044359460018060a01b0384168152600160205281812033825260205220549060001982036105db575b602086610128878787610805565b84821061060457509183916105f96020969561012895033383610973565b9193948193506105cd565b606490602087519162461bcd60e51b8352820152601d60248201527f45524332303a20696e73756666696369656e7420616c6c6f77616e63650000006044820152fd5b5050346100fb57816003193601126100fb576020906002549051908152f35b5050346100fb57806003193601126100fb576020906101286106866107b1565b6024359033610973565b8490843461050d578260031936011261050d5782600354600181811c9080831692831561075e575b60209384841081146103fa578388529081156103de575060011461070857505050829003601f01601f191682019267ffffffffffffffff8411838510176103765750829182610372925282610768565b600387529192508591837fc2575a0e9e593c00f959f8c92f12db2869c3395a3b0502d05e2516446f71f85b5b83851061074a5750505050830101858080610340565b805488860183015293019284908201610734565b91607f16916106b8565b6020808252825181830181905290939260005b82811061079d57505060409293506000838284010152601f8019910116010190565b81810186015184820160400152850161077b565b600435906001600160a01b03821682036107c757565b600080fd5b602435906001600160a01b03821682036107c757565b919082018092116107ef57565b634e487b7160e01b600052601160045260246000fd5b6001600160a01b0390811691821561092057169182156108cf5760008281528060205260408120549180831061087b57604082827fddf252ad1be2c89b69c2b068fc378daa952ba7f163c4a11628f55a4df523b3ef958760209652828652038282205586815220818154019055604051908152a3565b60405162461bcd60e51b815260206004820152602660248201527f45524332303a207472616e7366657220616d6f756e7420657863656564732062604482015265616c616e636560d01b6064820152608490fd5b60405162461bcd60e51b815260206004820152602360248201527f45524332303a207472616e7366657220746f20746865207a65726f206164647260448201526265737360e81b6064820152608490fd5b60405162461bcd60e51b815260206004820152602560248201527f45524332303a207472616e736665722066726f6d20746865207a65726f206164604482015264647265737360d81b6064820152608490fd5b6001600160a01b03908116918215610a2457169182156109d45760207f8c5be1e5ebec7d5bd14f71427d1e84f3dd0314c0f7b2291e5b200ac8c7c3b925918360005260018252604060002085600052825280604060002055604051908152a3565b60405162461bcd60e51b815260206004820152602260248201527f45524332303a20617070726f766520746f20746865207a65726f206164647265604482015261737360f01b6064820152608490fd5b60405162461bcd60e51b8152602060048201526024808201527f45524332303a20617070726f76652066726f6d20746865207a65726f206164646044820152637265737360e01b6064820152608490fdfea2646970667358221220a90efcdbd4fb4879e053aa68b54a3a5b289dc1a17a3595d09a74bf3f18e5e42764736f6c63430008140033",
  "linkReferences": {},
  "deployedLinkReferences": {}
}