{
  "_format": "hh-sol-artifact-1",
  "contractName": "MockPool",
  "sourceName": "backend/contracts/MockPoolAddressesProvider.sol",
  "abi": [
    {
      "anonymous": false,
      "inputs": [
        {
          "indexed": true,
          "internalType": "address",
          "name": "target",
          "type": "address"
        },
        {
          "indexed": true,
          "internalType": "address",
          "name": "initiator",
          "type": "address"
        },
        {
          "indexed": true,
          "internalType": "address",
          "name": "asset",
          "type": "address"
        },
        {
          "indexed": false,
          "internalType": "uint256",
          "name": "amount",
          "type": "uint256"
        },
        {
          "indexed": false,
          "internalType": "uint256",
          "name": "interestRateMode",
          "type": "uint256"
        },
        {
          "indexed": false,
          "internalType": "uint256",
          "name": "premium",
          "type": "uint256"
        },
        {
          "indexed": false,
          "internalType": "uint16",
          "name": "referralCode",
          "type": "uint16"
        }
      ],
      "name": "FlashLoan",
      "type": "event"
    },
    {
      "inputs": [
        {
          "internalType": "address",
          "name": "asset",
          "type": "address"
        },
        {
          "internalType": "uint256",
          "name": "amount",
          "type": "uint256"
        },
        {
          "internalType": "uint256",
          "name": "interestRateMode",
          "type": "uint256"
        },
        {
          "internalType": "uint16",
          "name": "referralCode",
          "type": "uint16"
        },
        {
          "internalType": "address",
          "name": "onBehalfOf",
          "type": "address"
        }
      ],
      "name": "borrow",
      "outputs": [],
      "stateMutability": "nonpayable",
      "type": "function"
    },
    {
      "inputs": [
        {
          "internalType": "address",
          "name": "receiverAddress",
          "type": "address"
        },
        {
          "internalType": "address",
          "name": "asset",
          "type": "address"
        },
        {
          "internalType": "uint256",
          "name": "amount",
          "type": "uint256"
        },
        {
          "internalType": "bytes",
          "name": "params",
          "type": "bytes"
        },
        {
          "internalType": "uint16",
          "name": "referralCode",
          "type": "uint16"
        }
      ],
      "name": "flashLoanSimple",
      "outputs": [],
      "stateMutability": "nonpayable",
      "type": "function"
    },
    {
      "inputs": [
        {
          "internalType": "address",
          "name": "asset",
          "type": "address"
        },
        {
          "internalType": "uint256",
          "name": "amount",
          "type": "uint256"
        },
        {
          "internalType": "uint256",
          "name": "interestRateMode",
          "type": "uint256"
        },
        {
          "internalType": "address",
          "name": "onBehalfOf",
          "type": "address"
        }
      ],
      "name": "repay",
      "outputs": [
        {
          "internalType": "uint256",
          "name": "",
          "type": "uint256"
        }
      ],
      "stateMutability": "nonpayable",
      "type": "function"
    },
    {
      "inputs": [
        {
          "internalType": "address",
          "name": "asset",
          "type": "address"
        },
        {
          "internalType": "uint256",
          "name": "amount",
          "type": "uint256"
        },
        {
          "internalType": "address",
          "name": "onBehalfOf",
          "type": "address"
        },
        {
          "internalType": "uint16",
          "name": "referralCode",
          "type": "uint16"
        }
      ],
      "name": "supply",
      "outputs": [],
      "stateMutability": "nonpayable",
      "type": "function"
    },
    {
      "inputs": [
        {
          "internalType": "address",
          "name": "asset",
          "type": "address"
        },
        {
          "internalType": "uint256",
          "name": "amount",
          "type": "uint256"
        },
        {
          "internalType": "address",
          "name": "to",
          "type": "address"
        }
      ],
      "name": "withdraw",
      "outputs": [
        {
          "internalType": "uint256",
          "name": "",
          "type": "uint256"
        }
      ],
      "stateMutability": "nonpayable",
      "type": "function"
    }
  ],
  "bytecode": "0x608080604052346100165761029e908161001c8239f35b600080fdfe608080604052600436101561001357600080fd5b600090813560e01c90816342b0b77c1461012c57508063573ade81146100f3578063617ba037146100c357806369328dec146100935763a415bcad1461005857600080fd5b346100905760a036600319011261009057610071610226565b5061007a610257565b506084356001600160a01b038116036100905780f35b80fd5b5034610090576060366003190112610090576100ad610226565b506100b6610241565b5060206040516024358152f35b5034610090576080366003190112610090576100dd610226565b506100e6610241565b506100ef610257565b5080f35b50346100905760803660031901126100905761010d610226565b506064356001600160a01b038116036100905760206040516024358152f35b9050346102225760a036600319011261022257610147610226565b6024356001600160a01b03818116939184900361021e5760443560643567ffffffffffffffff80821161021a573660238301121561021a57816004013590811161021a5736910160240111610216576084359061ffff8216809203610212576009810290808204600914811517156101fe57916127107fb15a931ea801b56bc8ac75fd70ac0319a2ff7f06dc7b6e9a59714167d8879ca394926080948752896020880152046040860152606085015233941692a480f35b634e487b7160e01b88526011600452602488fd5b8680fd5b8580fd5b8780fd5b8480fd5b5080fd5b600435906001600160a01b038216820361023c57565b600080fd5b604435906001600160a01b038216820361023c57565b6064359061ffff8216820361023c5756fea2646970667358221220b419bf4939bbee55011decd7ca3d74a51b607a781210585cce043dc528d4491264736f6c63430008140033",
  "linkReferences": {},
  "deployedLinkReferences": {}
}