{
  "_format": "hh-sol-artifact-1",
  "contractName": "MockPoolAddressesProvider",
  "sourceName": "backend/contracts/MockPoolAddressesProvider.sol",
  "abi": [
    {
      "inputs": [],
      "stateMutability": "nonpayable",
      "type": "constructor"
    },
    {
      "inputs": [],
      "name": "getACLAdmin",
      "outputs": [
        {
          "internalType": "address",
          "name": "",
          "type": "address"
        }
      ],
      "stateMutability": "view",
      "type": "function"
    },
    {
      "inputs": [],
      "name": "getACLManager",
      "outputs": [
        {
          "internalType": "address",
          "name": "",
          "type": "address"
        }
      ],
      "stateMutability": "view",
      "type": "function"
    },
    {
      "inputs": [
        {
          "internalType": "bytes32",
          "name": "id",
          "type": "bytes32"
        }
      ],
      "name": "getAddress",
      "outputs": [
        {
          "internalType": "address",
          "name": "",
          "type": "address"
        }
      ],
      "stateMutability": "view",
      "type": "function"
    },
    {
      "inputs": [],
      "name": "getMarketId",
      "outputs": [
        {
          "internalType": "string",
          "name": "",
          "type": "string"
        }
      ],
      "stateMutability": "view",
      "type": "function"
    },
    {
      "inputs": [],
      "name": "getPool",
      "outputs": [
        {
          "internalType": "address",
          "name": "",
          "type": "address"
        }
      ],
      "stateMutability": "view",
      "type": "function"
    },
    {
      "inputs": [],
      "name": "getPoolConfigurator",
      "outputs": [
        {
          "internalType": "address",
          "name": "",
          "type": "address"
        }
      ],
      "stateMutability": "view",
      "type": "function"
    },
    {
      "inputs": [],
      "name": "getPoolDataProvider",
      "outputs": [
        {
          "internalType": "address",
          "name": "",
          "type": "address"
        }
      ],
      "stateMutability": "view",
      "type": "function"
    },
    {
      "inputs": [],
      "name": "getPriceOracle",
      "outputs": [
        {
          "internalType": "address",
          "name": "",
          "type": "address"
        }
      ],
      "stateMutability": "view",
      "type": "function"
    },
    {
      "inputs": [],
      "name": "getPriceOracleSentinel",
      "outputs": [
        {
          "internalType": "address",
          "name": "",
          "type": "address"
        }
      ],
      "stateMutability": "view",
      "type": "function"
    },
    {
      "inputs": [
        {
          "internalType": "address",
          "name": "newAclAdmin",
          "type": "address"
        }
      ],
      "name": "setACLAdmin",
      "outputs": [],
      "stateMutability": "nonpayable",
      "type": "function"
    },
    {
      "inputs": [
        {
          "internalType": "address",
          "name": "newAclManager",
          "type": "address"
        }
      ],
      "name": "setACLManager",
      "outputs": [],
      "stateMutability": "nonpayable",
      "type": "function"
    },
    {
      "inputs": [
        {
          "internalType": "bytes32",
          "name": "id",
          "type": "bytes32"
        },
        {
          "internalType": "address",
          "name": "newAddress",
          "type": "address"
        }
      ],
      "name": "setAddress",
      "outputs": [],
      "stateMutability": "nonpayable",
      "type": "function"
    },
    {
      "inputs": [
        {
          "internalType": "string",
          "name": "newMarketId",
          "type": "string"
        }
      ],
      "name": "setMarketId",
      "outputs": [],
      "stateMutability": "nonpayable",
      "type": "function"
    },
    {
      "inputs": [
        {
          "internalType": "address",
          "name": "newPoolConfiguratorImpl",
          "type": "address"
        }
      ],
      "name": "setPoolConfiguratorImpl",
      "outputs": [],
      "stateMutability": "nonpayable",
      "type": "function"
    },
    {
      "inputs": [
        {
          "internalType": "address",
          "name": "newDataProvider",
          "type": "address"
        }
      ],
      "name": "setPoolDataProvider",
      "outputs": [],
      "stateMutability": "nonpayable",
      "type": "function"
    },
    {
      "inputs": [
        {
          "internalType": "address",
          "name": "newPoolImpl",
          "type": "address"
        }
      ],
      "name": "setPoolImpl",
      "outputs": [],
      "stateMutability": "nonpayable",
      "type": "function"
    },
    {
      "inputs": [
        {
          "internalType": "address",
          "name": "newPriceOracle",
          "type": "address"
        }
      ],
      "name": "setPriceOracle",
      "outputs": [],
      "stateMutability": "nonpayable",
      "type": "function"
    },
    {
      "inputs": [
        {
          "internalType": "address",
          "name": "newPriceOracleSentinel",
          "type": "address"
        }
      ],
      "name": "setPriceOracleSentinel",
      "outputs": [],
      "stateMutability": "nonpayable",
      "type": "function"
    }
  ],
  "bytecode": "0x60808060405234610139576007546001908181811c9116801561012f575b602082101461011957601f81116100d0575b50507f54657374204d61726b65740000000000000000000000000000000000000000166007556102ba8181016001600160401b038111838210176100ba578291610bb2833903906000f080156100ae57600080546001600160a01b0319166001600160a01b0392909216919091179055604051610a73908161013f8239f35b6040513d6000823e3d90fd5b634e487b7160e01b600052604160045260246000fd5b6007600052601f0160051c7fa66cc928b5edb82af9bd49922954155ab7b0942694bea4ce44661d9a8736c688908101905b81811061010e575061002f565b600081558201610101565b634e487b7160e01b600052602260045260246000fd5b90607f169061001d565b600080fdfe608060408181526004918236101561001657600080fd5b600092833560e01c918263026b1d5f14610840575081630e67178c1461081857816321f8a721146107e7578163530e784f146107ae578163568ef470146106755781635eb88d3d1461064c578163631adfca14610623578163707cd716146105fa57816374944cec146105c157816376d84ffc1461058a578163a156440614610554578163ca446dd914610374578163e44e9ed11461033b578163e4ca28b714610302578163e860accb146102d9578163ed301ca9146102a0578163f67b184714610116575063fca513a8146100eb57600080fd5b3461011257816003193601126101125760025490516001600160a01b039091168152602090f35b5080fd5b833461029d576020918260031936011261011257803567ffffffffffffffff9182821161029557366023830112156102955781013591821161029957602490368284830101116102955761016b60075461087f565b601f8111610237575b508394601f84116001146101b457509383948394936101a7575b5050508160011b916000199060031b1c19161760075580f35b010135905083808061018e565b601f198416957fa66cc928b5edb82af9bd49922954155ab7b0942694bea4ce44661d9a8736c688939186905b88821061021d575050846001969710610201575b50505050811b0160075580f35b60001960f88660031b161c1992010135169055838080806101f4565b8060018497868395968901013581550196019201906101e0565b7fa66cc928b5edb82af9bd49922954155ab7b0942694bea4ce44661d9a8736c688601f850160051c81019187861061028b575b601f0160051c01905b8181106102805750610174565b858155600101610273565b909150819061026a565b8380fd5b8280fd5b80fd5b833461029d57602036600319011261029d576001600160a01b036102c2610864565b166001600160601b0360a01b600354161760035580f35b50503461011257816003193601126101125760065490516001600160a01b039091168152602090f35b833461029d57602036600319011261029d576001600160a01b03610324610864565b166001600160601b0360a01b600154161760015580f35b833461029d57602036600319011261029d576001600160a01b0361035d610864565b166001600160601b0360a01b600654161760065580f35b9190503461029957366003190112610112576024356001600160a01b03811690823590829003610295577f5d5c2d2522b7f6ec8d1c86f44956b9ecd4376b1842cd263d54a5368aa149486d81036103d9575082546001600160a01b0319161782555080f35b7f7ac30f54e4a5d88ecad45a0103446836c9967d1e8d22f2fbe70930162fb0624b8103610419575090506001600160601b0360a01b600154161760015580f35b7fdd24a0f121e5ab7c3e97c63eaaf859e0b46792c3e0edfd86e2b3ad50f63011d88103610459575090506001600160601b0360a01b600254161760025580f35b7fc287a3aa39c31ece62d3fa9ff394eec87eda2b6600ae0d39b3edebe7593fce728103610499575090506001600160601b0360a01b600354161760035580f35b7f7b712d922b13ad4caade18fe1173c3b60a52cf9139e1553859c706733397224481036104d3575081546001600160a01b03191617905580f35b9091507f850bfd4b118fcb6d899cca9a9fb41471772c200f1c36c2493c98d3bc7a305d65810361051457506001600160601b0360a01b600554161760055580f35b7f5164d5c7193030abda56ab2da6b1ecfb83373a1a97075675ab8548ca2be633d91461053e575080f35b6001600160601b0360a01b600654161760065580f35b833461029d57602036600319011261029d576001600160a01b03610576610864565b82546001600160a01b031916911617815580f35b839034610112576020366003190112610112576001600160a01b036105ad610864565b82546001600160a01b031916911617905580f35b833461029d57602036600319011261029d576001600160a01b036105e3610864565b166001600160601b0360a01b600554161760055580f35b50503461011257816003193601126101125760035490516001600160a01b039091168152602090f35b50503461011257816003193601126101125760015490516001600160a01b039091168152602090f35b50503461011257816003193601126101125760055490516001600160a01b039091168152602090f35b82843461029d578060031936011261029d5781518181926007546106988161087f565b808552906001908181169081156107905750600114610736575b5050601f801994859203011682019482861067ffffffffffffffff871117610723575091849192828552602090818452845191828186015281955b83871061070b5750508394508582601f949501015201168101030190f35b868101820151898801890152958101958895506106ed565b634e487b7160e01b825260419052602490fd5b600784528392507fa66cc928b5edb82af9bd49922954155ab7b0942694bea4ce44661d9a8736c6885b82841061077557505050820160200186806106b2565b8054602085890181019190915287965090930192810161075f565b9150506020925060ff191682850152151560051b83010186806106b2565b833461029d57602036600319011261029d576001600160a01b036107d0610864565b166001600160601b0360a01b600254161760025580f35b82843461029d57602036600319011261029d5750610807602092356108b9565b90516001600160a01b039091168152f35b9050346102995782600319360112610299575490516001600160a01b03909116815260209150f35b84903461011257816003193601126101125790546001600160a01b03168152602090f35b600435906001600160a01b038216820361087a57565b600080fd5b90600182811c921680156108af575b602083101461089957565b634e487b7160e01b600052602260045260246000fd5b91607f169161088e565b7f5d5c2d2522b7f6ec8d1c86f44956b9ecd4376b1842cd263d54a5368aa149486d81036108f057506000546001600160a01b031690565b7f7ac30f54e4a5d88ecad45a0103446836c9967d1e8d22f2fbe70930162fb0624b810361092757506001546001600160a01b031690565b7fdd24a0f121e5ab7c3e97c63eaaf859e0b46792c3e0edfd86e2b3ad50f63011d8810361095e57506002546001600160a01b031690565b7fc287a3aa39c31ece62d3fa9ff394eec87eda2b6600ae0d39b3edebe7593fce72810361099557506003546001600160a01b031690565b7f7b712d922b13ad4caade18fe1173c3b60a52cf9139e1553859c706733397224481036109cc57506004546001600160a01b031690565b7f850bfd4b118fcb6d899cca9a9fb41471772c200f1c36c2493c98d3bc7a305d658103610a0357506005546001600160a01b031690565b7f5164d5c7193030abda56ab2da6b1ecfb83373a1a97075675ab8548ca2be633d914610a2e57600090565b6006546001600160a01b03169056fea2646970667358221220ad55eb80456c1e45f29293502e8fad162c8994233f81154aa67400a45007d09864736f6c63430008140033608080604052346100165761029e908161001c8239f35b600080fdfe608080604052600436101561001357600080fd5b600090813560e01c90816342b0b77c1461012c57508063573ade81146100f3578063617ba037146100c357806369328dec146100935763a415bcad1461005857600080fd5b346100905760a036600319011261009057610071610226565b5061007a610257565b506084356001600160a01b038116036100905780f35b80fd5b5034610090576060366003190112610090576100ad610226565b506100b6610241565b5060206040516024358152f35b5034610090576080366003190112610090576100dd610226565b506100e6610241565b506100ef610257565b5080f35b50346100905760803660031901126100905761010d610226565b506064356001600160a01b038116036100905760206040516024358152f35b9050346102225760a036600319011261022257610147610226565b6024356001600160a01b03818116939184900361021e5760443560643567ffffffffffffffff80821161021a573660238301121561021a57816004013590811161021a5736910160240111610216576084359061ffff8216809203610212576009810290808204600914811517156101fe57916127107fb15a931ea801b56bc8ac75fd70ac0319a2ff7f06dc7b6e9a59714167d8879ca394926080948752896020880152046040860152606085015233941692a480f35b634e487b7160e01b88526011600452602488fd5b8680fd5b8580fd5b8780fd5b8480fd5b5080fd5b600435906001600160a01b038216820361023c57565b600080fd5b604435906001600160a01b038216820361023c57565b6064359061ffff8216820361023c5756fea2646970667358221220b419bf4939bbee55011decd7ca3d74a51b607a781210585cce043dc528d4491264736f6c63430008140033",
  "linkReferences": {},
  "deployedLinkReferences": {}
}