{
  "_format": "hh-sol-artifact-1",
  "contractName": "TriangularArbitrage",
  "sourceName": "contracts/TriangularArbitrage.sol",
  "abi": [
    {
      "inputs": [
        {
          "internalType": "address",
          "name": "_addressProvider",
          "type": "address"
        }
      ],
      "stateMutability": "nonpayable",
      "type": "constructor"
    },
    {
      "anonymous": false,
      "inputs": [
        {
          "indexed": false,
          "internalType": "uint256",
          "name": "maxGasPrice",
          "type": "uint256"
        },
        {
          "indexed": false,
          "internalType": "uint256",
          "name": "maxSlippageBps",
          "type": "uint256"
        },
        {
          "indexed": false,
          "internalType": "uint256",
          "name": "minProfitUSD",
          "type": "uint256"
        }
      ],
      "name": "ConfigUpdated",
      "type": "event"
    },
    {
      "anonymous": false,
      "inputs": [
        {
          "indexed": true,
          "internalType": "address",
          "name": "previousOwner",
          "type": "address"
        },
        {
          "indexed": true,
          "internalType": "address",
          "name": "newOwner",
          "type": "address"
        }
      ],
      "name": "OwnershipTransferred",
      "type": "event"
    },
    {
      "anonymous": false,
      "inputs": [
        {
          "indexed": false,
          "internalType": "address",
          "name": "account",
          "type": "address"
        }
      ],
      "name": "Paused",
      "type": "event"
    },
    {
      "anonymous": false,
      "inputs": [
        {
          "indexed": true,
          "internalType": "address",
          "name": "token",
          "type": "address"
        },
        {
          "indexed": false,
          "internalType": "uint256",
          "name": "amount",
          "type": "uint256"
        },
        {
          "indexed": true,
          "internalType": "address",
          "name": "recipient",
          "type": "address"
        }
      ],
      "name": "ProfitWithdrawn",
      "type": "event"
    },
    {
      "anonymous": false,
      "inputs": [
        {
          "indexed": true,
          "internalType": "address",
          "name": "tokenA",
          "type": "address"
        },
        {
          "indexed": true,
          "internalType": "address",
          "name": "tokenB",
          "type": "address"
        },
        {
          "indexed": false,
          "internalType": "int256",
          "name": "spreadBps",
          "type": "int256"
        },
        {
          "indexed": false,
          "internalType": "uint256",
          "name": "impliedPrice",
          "type": "uint256"
        },
        {
          "indexed": false,
          "internalType": "uint256",
          "name": "externalPrice",
          "type": "uint256"
        },
        {
          "indexed": false,
          "internalType": "bool",
          "name": "isProfitable",
          "type": "bool"
        }
      ],
      "name": "SpreadMonitored",
      "type": "event"
    },
    {
      "anonymous": false,
      "inputs": [
        {
          "indexed": true,
          "internalType": "address",
          "name": "tokenA",
          "type": "address"
        },
        {
          "indexed": true,
          "internalType": "address",
          "name": "tokenB",
          "type": "address"
        },
        {
          "indexed": true,
          "internalType": "address",
          "name": "tokenC",
          "type": "address"
        },
        {
          "indexed": false,
          "internalType": "uint256",
          "name": "amountIn",
          "type": "uint256"
        },
        {
          "indexed": false,
          "internalType": "uint256",
          "name": "profit",
          "type": "uint256"
        },
        {
          "indexed": false,
          "internalType": "uint256",
          "name": "gasUsed",
          "type": "uint256"
        },
        {
          "indexed": false,
          "internalType": "bool",
          "name": "successful",
          "type": "bool"
        }
      ],
      "name": "TriangularArbitrageExecuted",
      "type": "event"
    },
    {
      "anonymous": false,
      "inputs": [
        {
          "indexed": false,
          "internalType": "address",
          "name": "account",
          "type": "address"
        }
      ],
      "name": "Unpaused",
      "type": "event"
    },
    {
      "inputs": [],
      "name": "ADDRESSES_PROVIDER",
      "outputs": [
        {
          "internalType": "contract IPoolAddressesProvider",
          "name": "",
          "type": "address"
        }
      ],
      "stateMutability": "view",
      "type": "function"
    },
    {
      "inputs": [],
      "name": "BALANCER_VAULT",
      "outputs": [
        {
          "internalType": "address",
          "name": "",
          "type": "address"
        }
      ],
      "stateMutability": "view",
      "type": "function"
    },
    {
      "inputs": [],
      "name": "CURVE_POOL_DAI_USDC",
      "outputs": [
        {
          "internalType": "address",
          "name": "",
          "type": "address"
        }
      ],
      "stateMutability": "view",
      "type": "function"
    },
    {
      "inputs": [],
      "name": "CURVE_POOL_USDC_GHO",
      "outputs": [
        {
          "internalType": "address",
          "name": "",
          "type": "address"
        }
      ],
      "stateMutability": "view",
      "type": "function"
    },
    {
      "inputs": [],
      "name": "DAI",
      "outputs": [
        {
          "internalType": "address",
          "name": "",
          "type": "address"
        }
      ],
      "stateMutability": "view",
      "type": "function"
    },
    {
      "inputs": [],
      "name": "DAI_USD_FEED",
      "outputs": [
        {
          "internalType": "address",
          "name": "",
          "type": "address"
        }
      ],
      "stateMutability": "view",
      "type": "function"
    },
    {
      "inputs": [],
      "name": "ETH_USD_FEED",
      "outputs": [
        {
          "internalType": "address",
          "name": "",
          "type": "address"
        }
      ],
      "stateMutability": "view",
      "type": "function"
    },
    {
      "inputs": [],
      "name": "GHO",
      "outputs": [
        {
          "internalType": "address",
          "name": "",
          "type": "address"
        }
      ],
      "stateMutability": "view",
      "type": "function"
    },
    {
      "inputs": [],
      "name": "POOL",
      "outputs": [
        {
          "internalType": "contract IPool",
          "name": "",
          "type": "address"
        }
      ],
      "stateMutability": "view",
      "type": "function"
    },
    {
      "inputs": [],
      "name": "USDC",
      "outputs": [
        {
          "internalType": "address",
          "name": "",
          "type": "address"
        }
      ],
      "stateMutability": "view",
      "type": "function"
    },
    {
      "inputs": [],
      "name": "USDC_USD_FEED",
      "outputs": [
        {
          "internalType": "address",
          "name": "",
          "type": "address"
        }
      ],
      "stateMutability": "view",
      "type": "function"
    },
    {
      "inputs": [],
      "name": "WETH",
      "outputs": [
        {
          "internalType": "address",
          "name": "",
          "type": "address"
        }
      ],
      "stateMutability": "view",
      "type": "function"
    },
    {
      "inputs": [],
      "name": "ZRX_API_URL",
      "outputs": [
        {
          "internalType": "string",
          "name": "",
          "type": "string"
        }
      ],
      "stateMutability": "view",
      "type": "function"
    },
    {
      "inputs": [
        {
          "components": [
            {
              "internalType": "address",
              "name": "tokenA",
              "type": "address"
            },
            {
              "internalType": "address",
              "name": "tokenB",
              "type": "address"
            },
            {
              "internalType": "address",
              "name": "tokenC",
              "type": "address"
            },
            {
              "internalType": "address",
              "name": "poolAB",
              "type": "address"
            },
            {
              "internalType": "address",
              "name": "poolBC",
              "type": "address"
            },
            {
              "internalType": "address",
              "name": "poolCA",
              "type": "address"
            },
            {
              "internalType": "uint256",
              "name": "amountIn",
              "type": "uint256"
            },
            {
              "internalType": "uint256",
              "name": "minProfitBps",
              "type": "uint256"
            },
            {
              "internalType": "bool",
              "name": "useBalancer",
              "type": "bool"
            },
            {
              "internalType": "bool",
              "name": "useCurve",
              "type": "bool"
            }
          ],
          "internalType": "struct TriangularArbitrage.TriangularPath",
          "name": "path",
          "type": "tuple"
        },
        {
          "internalType": "uint256",
          "name": "amountIn",
          "type": "uint256"
        }
      ],
      "name": "_performSwapAB",
      "outputs": [
        {
          "internalType": "uint256",
          "name": "amountOut",
          "type": "uint256"
        }
      ],
      "stateMutability": "nonpayable",
      "type": "function"
    },
    {
      "inputs": [
        {
          "components": [
            {
              "internalType": "address",
              "name": "tokenA",
              "type": "address"
            },
            {
              "internalType": "address",
              "name": "tokenB",
              "type": "address"
            },
            {
              "internalType": "address",
              "name": "tokenC",
              "type": "address"
            },
            {
              "internalType": "address",
              "name": "poolAB",
              "type": "address"
            },
            {
              "internalType": "address",
              "name": "poolBC",
              "type": "address"
            },
            {
              "internalType": "address",
              "name": "poolCA",
              "type": "address"
            },
            {
              "internalType": "uint256",
              "name": "amountIn",
              "type": "uint256"
            },
            {
              "internalType": "uint256",
              "name": "minProfitBps",
              "type": "uint256"
            },
            {
              "internalType": "bool",
              "name": "useBalancer",
              "type": "bool"
            },
            {
              "internalType": "bool",
              "name": "useCurve",
              "type": "bool"
            }
          ],
          "internalType": "struct TriangularArbitrage.TriangularPath",
          "name": "path",
          "type": "tuple"
        },
        {
          "internalType": "uint256",
          "name": "amountIn",
          "type": "uint256"
        }
      ],
      "name": "_performSwapBC",
      "outputs": [
        {
          "internalType": "uint256",
          "name": "amountOut",
          "type": "uint256"
        }
      ],
      "stateMutability": "nonpayable",
      "type": "function"
    },
    {
      "inputs": [
        {
          "components": [
            {
              "internalType": "address",
              "name": "tokenA",
              "type": "address"
            },
            {
              "internalType": "address",
              "name": "tokenB",
              "type": "address"
            },
            {
              "internalType": "address",
              "name": "tokenC",
              "type": "address"
            },
            {
              "internalType": "address",
              "name": "poolAB",
              "type": "address"
            },
            {
              "internalType": "address",
              "name": "poolBC",
              "type": "address"
            },
            {
              "internalType": "address",
              "name": "poolCA",
              "type": "address"
            },
            {
              "internalType": "uint256",
              "name": "amountIn",
              "type": "uint256"
            },
            {
              "internalType": "uint256",
              "name": "minProfitBps",
              "type": "uint256"
            },
            {
              "internalType": "bool",
              "name": "useBalancer",
              "type": "bool"
            },
            {
              "internalType": "bool",
              "name": "useCurve",
              "type": "bool"
            }
          ],
          "internalType": "struct TriangularArbitrage.TriangularPath",
          "name": "path",
          "type": "tuple"
        },
        {
          "internalType": "uint256",
          "name": "amountIn",
          "type": "uint256"
        }
      ],
      "name": "_performSwapCA",
      "outputs": [
        {
          "internalType": "uint256",
          "name": "amountOut",
          "type": "uint256"
        }
      ],
      "stateMutability": "nonpayable",
      "type": "function"
    },
    {
      "inputs": [
        {
          "internalType": "address",
          "name": "asset",
          "type": "address"
        },
        {
          "internalType": "uint256",
          "name": "amount",
          "type": "uint256"
        },
        {
          "internalType": "uint256",
          "name": "premium",
          "type": "uint256"
        },
        {
          "internalType": "address",
          "name": "initiator",
          "type": "address"
        },
        {
          "internalType": "bytes",
          "name": "params",
          "type": "bytes"
        }
      ],
      "name": "executeOperation",
      "outputs": [
        {
          "internalType": "bool",
          "name": "",
          "type": "bool"
        }
      ],
      "stateMutability": "nonpayable",
      "type": "function"
    },
    {
      "inputs": [
        {
          "components": [
            {
              "internalType": "address",
              "name": "tokenA",
              "type": "address"
            },
            {
              "internalType": "address",
              "name": "tokenB",
              "type": "address"
            },
            {
              "internalType": "address",
              "name": "tokenC",
              "type": "address"
            },
            {
              "internalType": "address",
              "name": "poolAB",
              "type": "address"
            },
            {
              "internalType": "address",
              "name": "poolBC",
              "type": "address"
            },
            {
              "internalType": "address",
              "name": "poolCA",
              "type": "address"
            },
            {
              "internalType": "uint256",
              "name": "amountIn",
              "type": "uint256"
            },
            {
              "internalType": "uint256",
              "name": "minProfitBps",
              "type": "uint256"
            },
            {
              "internalType": "bool",
              "name": "useBalancer",
              "type": "bool"
            },
            {
              "internalType": "bool",
              "name": "useCurve",
              "type": "bool"
            }
          ],
          "internalType": "struct TriangularArbitrage.TriangularPath",
          "name": "path",
          "type": "tuple"
        }
      ],
      "name": "executeTriangularArbitrage",
      "outputs": [],
      "stateMutability": "nonpayable",
      "type": "function"
    },
    {
      "inputs": [
        {
          "internalType": "address",
          "name": "tokenA",
          "type": "address"
        },
        {
          "internalType": "address",
          "name": "tokenB",
          "type": "address"
        },
        {
          "internalType": "address",
          "name": "tokenC",
          "type": "address"
        },
        {
          "internalType": "uint256",
          "name": "amount",
          "type": "uint256"
        }
      ],
      "name": "executeTriangularArbitrageWithAEON",
      "outputs": [],
      "stateMutability": "nonpayable",
      "type": "function"
    },
    {
      "inputs": [
        {
          "internalType": "bytes32",
          "name": "",
          "type": "bytes32"
        }
      ],
      "name": "executions",
      "outputs": [
        {
          "internalType": "uint256",
          "name": "startAmount",
          "type": "uint256"
        },
        {
          "internalType": "uint256",
          "name": "amountAfterAB",
          "type": "uint256"
        },
        {
          "internalType": "uint256",
          "name": "amountAfterBC",
          "type": "uint256"
        },
        {
          "internalType": "uint256",
          "name": "finalAmount",
          "type": "uint256"
        },
        {
          "internalType": "uint256",
          "name": "profit",
          "type": "uint256"
        },
        {
          "internalType": "uint256",
          "name": "gasUsed",
          "type": "uint256"
        },
        {
          "internalType": "bool",
          "name": "successful",
          "type": "bool"
        },
        {
          "internalType": "uint256",
          "name": "timestamp",
          "type": "uint256"
        },
        {
          "internalType": "bytes32",
          "name": "txHash",
          "type": "bytes32"
        }
      ],
      "stateMutability": "view",
      "type": "function"
    },
    {
      "inputs": [],
      "name": "maxGasPrice",
      "outputs": [
        {
          "internalType": "uint256",
          "name": "",
          "type": "uint256"
        }
      ],
      "stateMutability": "view",
      "type": "function"
    },
    {
      "inputs": [],
      "name": "maxSlippageBps",
      "outputs": [
        {
          "internalType": "uint256",
          "name": "",
          "type": "uint256"
        }
      ],
      "stateMutability": "view",
      "type": "function"
    },
    {
      "inputs": [],
      "name": "minProfitUSD",
      "outputs": [
        {
          "internalType": "uint256",
          "name": "",
          "type": "uint256"
        }
      ],
      "stateMutability": "view",
      "type": "function"
    },
    {
      "inputs": [],
      "name": "owner",
      "outputs": [
        {
          "internalType": "address",
          "name": "",
          "type": "address"
        }
      ],
      "stateMutability": "view",
      "type": "function"
    },
    {
      "inputs": [],
      "name": "pause",
      "outputs": [],
      "stateMutability": "nonpayable",
      "type": "function"
    },
    {
      "inputs": [],
      "name": "paused",
      "outputs": [
        {
          "internalType": "bool",
          "name": "",
          "type": "bool"
        }
      ],
      "stateMutability": "view",
      "type": "function"
    },
    {
      "inputs": [],
      "name": "renounceOwnership",
      "outputs": [],
      "stateMutability": "nonpayable",
      "type": "function"
    },
    {
      "inputs": [],
      "name": "successfulExecutions",
      "outputs": [
        {
          "internalType": "uint256",
          "name": "",
          "type": "uint256"
        }
      ],
      "stateMutability": "view",
      "type": "function"
    },
    {
      "inputs": [
        {
          "internalType": "address",
          "name": "",
          "type": "address"
        }
      ],
      "name": "tokenProfits",
      "outputs": [
        {
          "internalType": "uint256",
          "name": "",
          "type": "uint256"
        }
      ],
      "stateMutability": "view",
      "type": "function"
    },
    {
      "inputs": [],
      "name": "totalExecutions",
      "outputs": [
        {
          "internalType": "uint256",
          "name": "",
          "type": "uint256"
        }
      ],
      "stateMutability": "view",
      "type": "function"
    },
    {
      "inputs": [],
      "name": "totalProfitUSD",
      "outputs": [
        {
          "internalType": "uint256",
          "name": "",
          "type": "uint256"
        }
      ],
      "stateMutability": "view",
      "type": "function"
    },
    {
      "inputs": [
        {
          "internalType": "address",
          "name": "newOwner",
          "type": "address"
        }
      ],
      "name": "transferOwnership",
      "outputs": [],
      "stateMutability": "nonpayable",
      "type": "function"
    },
    {
      "inputs": [],
      "name": "unpause",
      "outputs": [],
      "stateMutability": "nonpayable",
      "type": "function"
    },
    {
      "inputs": [
        {
          "internalType": "uint256",
          "name": "_maxGasPrice",
          "type": "uint256"
        },
        {
          "internalType": "uint256",
          "name": "_maxSlippageBps",
          "type": "uint256"
        },
        {
          "internalType": "uint256",
          "name": "_minProfitUSD",
          "type": "uint256"
        }
      ],
      "name": "updateConfig",
      "outputs": [],
      "stateMutability": "nonpayable",
      "type": "function"
    },
    {
      "inputs": [
        {
          "internalType": "address",
          "name": "token",
          "type": "address"
        },
        {
          "internalType": "uint256",
          "name": "amount",
          "type": "uint256"
        }
      ],
      "name": "withdrawProfits",
      "outputs": [],
      "stateMutability": "nonpayable",
      "type": "function"
    }
  ],
  "bytecode": "0x60c0806040523462000150576004602062002be4803803809162000024828762000155565b85396001600160a01b039384916200004091908101906200018f565b16806080526040519283809263026b1d5f60e01b82525afa8015620001445782916000916200010f575b501660a0526001600081815581546001600160a81b0319811633600881811b610100600160a81b0316929092179094556040519491901c16907f8be0079c531659141344cd1fd0a4f28419497f9722a3daafe3b4186f6b6457e09080a3640ba43b740060075561012c600855600a600955612a339081620001b1823960805181611618015260a05181818161036f01528181610c320152818161106801526113a00152f35b62000135915060203d81116200013c575b6200012c818362000155565b8101906200018f565b386200006a565b503d62000120565b6040513d6000823e3d90fd5b600080fd5b601f909101601f19168101906001600160401b038211908210176200017957604052565b634e487b7160e01b600052604160045260246000fd5b908160209103126200015057516001600160a01b038116810362000150579056fe608080604052600436101561001357600080fd5b600090813560e01c9081630542975c14611604575080630c41841b1461158f5780631b11d0ff14610ff75780632a59d97514610fd957806337f7290914610f775780633de39c1114610f595780633f4ba83a14610ec45780634259d32514610e4d57806343656f1114610e1e578063465c474514610def578063489880c314610dd15780635c975abb14610dae578063642f7d5e14610d90578063697659f214610d57578063715018a614610cf6578063732e969314610cc757806373ad494614610c615780637535d24614610c1c5780638456cb5914610bc257806389a3027114610b935780638bdcdb9314610b645780638da5cb5b14610b3757806394d8572a14610b0857806396150e0814610a80578063a96b637c14610708578063aafc965114610661578063ad5c46481461063e578063ae3701db14610620578063b8d008f3146105f1578063bc163846146105c2578063c4aa7395146105a4578063d2fb97d2146104c5578063dd575af6146102a9578063e0bab4c41461027a5763f2fde38b146101a257600080fd5b34610277576020366003190112610277576101bb6116b8565b6101c36117f2565b6001600160a01b038181169182156102235760018054610100600160a81b03198116600893841b610100600160a81b031617909155901c167f8be0079c531659141344cd1fd0a4f28419497f9722a3daafe3b4186f6b6457e0600080a380f35b60405162461bcd60e51b815260206004820152602660248201527f4f776e61626c653a206e6577206f776e657220697320746865207a65726f206160448201526564647265737360d01b6064820152608490fd5b80fd5b503461027757806003193601126102775760206040517350c5725949a6f0c72e6c4a641f24049a917db0cb8152f35b503461027757610140806003193601126104c1576102c6366116f4565b6102ce611a07565b6102d66119c3565b60c08101916102e78351151561184d565b6102f56007543a1115611898565b81516001600160a01b03929083161515806104b2575b806104a3575b80610499575b8061048a575b1561043b5761033361032e82612117565b6118f4565b60405191610344602084018361194c565b825261016082019367ffffffffffffffff8511938386108517610427576040869052915190518693927f000000000000000000000000000000000000000000000000000000000000000081169216823b15610423576310ac2ddf60e21b8752306101648501526101848401526101a483015260a06101c48301528491829084906103d26102048201826117b2565b6101e482018390520361015f1901925af18015610418576103f6575b826001815580f35b6104045760405238806103ee565b634e487b7160e01b82526041600452602482fd5b6040513d85823e3d90fd5b8480fd5b634e487b7160e01b87526041600452602487fd5b60405162461bcd60e51b815260206004820152602160248201527f547269616e67756c61724172626974726167653a20494e56414c49445f5041546044820152600960fb1b6064820152608490fd5b50601760e0820151101561031d565b5083511515610317565b50826040820151161515610311565b5082602082015116151561030b565b5080fd5b503461027757610160366003190112610277576104e1366116f4565b9050610144356104f2333014611f10565b610100820151156105235760209161051b9160018060a01b036060818451169301511691611f9a565b604051908152f35b610120820151156105515760209161054c9160018060a01b0360608184511693015116916120e4565b61051b565b60405162461bcd60e51b815260206004820152602560248201527f547269616e67756c61724172626974726167653a204e4f5f4445585f53504543604482015264125192515160da1b6064820152608490fd5b50346102775780600319360112610277576020600854604051908152f35b5034610277578060031936011261027757602060405173ba12222222228d8ba445958a75a0704d566bf2c88152f35b503461027757806003193601126102775760206040517340d16fc0246ad3160ccc09b8d0d3a2cd28ae6c2f8152f35b50346102775780600319360112610277576020600954604051908152f35b50346102775780600319360112610277576040516006602160991b018152602090f35b50346102775760403660031901126102775761067b6116b8565b602435906106876117f2565b7fe6fee221bb8a85476104e6b67ae7b66010866c78f60f8ce4946f80da6ce04df0602060018060a01b0380931692838652600382526106cc60408720548611156127fd565b83865260038252604086206106e2868254611a5d565b90556106f6858260015460081c16866120ab565b60015460081c1693604051908152a380f35b5034610277576080366003190112610277576107226116b8565b602435906001600160a01b03808316918284036104235760443582811694858203610a7c5786606435936107546117f2565b61075c611a07565b6107646119c3565b61076f85151561184d565b61077d6007543a1115611898565b8561079c8261079687610790888461285a565b9761285a565b9661285a565b9116956006602160991b01808814918a918315610a72575b507350c5725949a6f0c72e6c4a641f24049a917db0cb96878a14978815610a54575b8815610a36575b886109e2575b506040516107f081611647565b8a8152602098898201918d83526040810195865284606082019a168a528460808201941684528460a082019816885260c08101918c8352601760e083015261010082019715158852151561012082015261084c61032e82612117565b60248b86835116604051928380926370a0823160e01b82523060048301525afa998a156109d6579961099b575b509184806108a08196946108c19c9d83806108b19951169251915116908c511515926129ba565b9251169251169087511515926129ba565b92511693511691511515926129ba565b8181111561095657816108d391611a5d565b612710908181029181830414901517156109425791610922601761091b7ff2aa5682c140be372eabb1a3244d5d41a87a4f4fc9c4c48891e85fc0d5f987869694608096611f7a565b10156127fd565b875a91604051938452830152604082015260016060820152a46001815580f35b634e487b7160e01b88526011600452602488fd5b60405162461bcd60e51b815260048101849052601e60248201527f547269616e67756c61724172626974726167653a204e4f5f50524f46495400006044820152606490fd5b9391949850918a84813d83116109cf575b6109b68183611696565b810103126109cb579251979390929184610879565b8f80fd5b503d6109ac565b604051903d90823e3d90fd5b9097508a148015610a19575b80156109fc575b96386107e3565b507340d16fc0246ad3160ccc09b8d0d3a2cd28ae6c2f8a146109f5565b5073036cbd53842c5426634e7929541ec2318f3dcf7e8a146109ee565b7340d16fc0246ad3160ccc09b8d0d3a2cd28ae6c2f8b1498506107dd565b73036cbd53842c5426634e7929541ec2318f3dcf7e8b1498506107d6565b8a149250386107b4565b8680fd5b503461027757602036600319011261027757604061012091600435815260026020522080549060018101549060028101546003820154600483015460058401549160ff600686015416936008600787015496015496604051988952602089015260408801526060870152608086015260a0850152151560c084015260e0830152610100820152f35b5034610277578060031936011261027757602060405173d276fcf34d54a9267738e680a72b7eaf2e54f2e48152f35b503461027757806003193601126102775760015460405160089190911c6001600160a01b03168152602090f35b5034610277578060031936011261027757602060405173591e79239a7d679378ec8c847e5038150364c78f8152f35b5034610277578060031936011261027757602060405173036cbd53842c5426634e7929541ec2318f3dcf7e8152f35b5034610277578060031936011261027757610bdb6117f2565b610be36119c3565b600160ff19815416176001557f62e78cea01bee320cd4e420270b5ea74000d11b0c9f74754ebdbfc544b05a2586020604051338152a180f35b50346102775780600319360112610277576040517f00000000000000000000000000000000000000000000000000000000000000006001600160a01b03168152602090f35b5034610277576060366003190112610277577f6d05db271e19f930af71c4765de54ef86294762644c20f4d6fd2609d057d3c7b6060600435604435602435610ca76117f2565b82600755806008558160095560405192835260208301526040820152a180f35b50346102775780600319360112610277576020604051734dece678ceceb27446b35c672dc7d61f30bad69e8152f35b5034610277578060031936011261027757610d0f6117f2565b60018054610100600160a81b03198116909155819060081c6001600160a01b03167f8be0079c531659141344cd1fd0a4f28419497f9722a3daafe3b4186f6b6457e08280a380f35b5034610277576020366003190112610277576020906040906001600160a01b03610d7f6116b8565b168152600383522054604051908152f35b50346102775780600319360112610277576020600454604051908152f35b5034610277578060031936011261027757602060ff600154166040519015158152f35b50346102775780600319360112610277576020600654604051908152f35b50346102775780600319360112610277576020604051737f39c581f595b53c5cb19bd0b3f8da6c935e2ca08152f35b5034610277578060031936011261027757602060405173d30e2101a97dcbaebcbc04f14c3f624e67a351658152f35b50346102775761016036600319011261027757602090610e6c366116f4565b610144359150610e7d303314611f10565b61012081015115610ea65761051b9160018060a01b0360a08160408501511693015116916120e4565b61054c9160018060a01b0360a0816040850151169301511691611f9a565b5034610277578060031936011261027757610edd6117f2565b60015460ff811615610f1d5760ff19166001557f5db9ee0a495bf2e6ff9c91a7834c1ba4fdd244a5e8aa4e537bd38aeae4b073aa6020604051338152a180f35b60405162461bcd60e51b815260206004820152601460248201527314185d5cd8589b194e881b9bdd081c185d5cd95960621b6044820152606490fd5b50346102775780600319360112610277576020600754604051908152f35b5034610277578060031936011261027757610fd5604051610f978161167a565b602081527f68747470733a2f2f6170692e30782e6f72672f737761702f76312f71756f746560208201526040519182916020835260208301906117b2565b0390f35b50346102775780600319360112610277576020600554604051908152f35b50346102775760a0366003190112610277576110116116b8565b6064356001600160a01b03811691908290036114e2576084359167ffffffffffffffff831161158b573660238401121561158b57826004013567ffffffffffffffff811161042357830190366024830111610423577f00000000000000000000000000000000000000000000000000000000000000006001600160a01b0316330361153a5730036114e657826101409103126114e25761114b610144604051936110ba85611647565b6110c6602482016116d3565b85526110d4604482016116d3565b60208601526110e5606482016116d3565b60408601526110f6608482016116d3565b606086015261110760a482016116d3565b608086015261111860c482016116d3565b60a086015260e481013560c086015261010481013560e086015261113f61012482016116e7565b610100860152016116e7565b6101208301525a9161116a61116260243583611db3565b935a90611a5d565b6040516370a0823160e01b8152306004820152939091906020856024816001600160a01b0388165afa9485156114d757869561149f575b506111b0604435602435611a80565b9485811061144857856111c291611a5d565b825160208401516040850151604051924260208501526bffffffffffffffffffffffff199283809260601b16604086015260601b16605484015260601b166068820152602435607c820152607c81528060a081011067ffffffffffffffff60a0830111176114345760a081016040526020815191012061124482602435611a80565b904360001981011161142057604051918261012081011067ffffffffffffffff6101208501111761140c57988260087ff2aa5682c140be372eabb1a3244d5d41a87a4f4fc9c4c48891e85fc0d5f9878695936113c89c610120608097016040526024358452846020850152846040850152606084015284868401528960a084015260c08301881515815260e084019042825261010085019260001943014084528652600260205260a060408720958051875560208101516001880155604081015160028801556060810151600388015589810151600488015501516005860155600685019051151560ff80198354169116179055516007840155519101558461134e6004546127ee565b6004556113d3575b50845160208087015160409788015188516024358152928301949094529681019790975293151560608701526001600160a01b039081169594811694931692a46001600160a01b037f000000000000000000000000000000000000000000000000000000000000000081169116611a8d565b602060405160018152f35b6040906113e16005546127ee565b60055586516001600160a01b031681526003602052208054611404908390611a80565b905538611356565b634e487b7160e01b8a52604160045260248afd5b634e487b7160e01b89526011600452602489fd5b634e487b7160e01b88526041600452602488fd5b60405162461bcd60e51b815260206004820152602960248201527f547269616e67756c61724172626974726167653a20494e53554646494349454e604482015268545f42414c414e434560b81b6064820152608490fd5b9094506020813d6020116114cf575b816114bb60209383611696565b810103126114cb575193386111a1565b8580fd5b3d91506114ae565b6040513d88823e3d90fd5b8280fd5b60405162461bcd60e51b815260206004820152602660248201527f547269616e67756c61724172626974726167653a20494e56414c49445f494e496044820152652a24a0aa27a960d11b6064820152608490fd5b60405162461bcd60e51b815260206004820152602360248201527f547269616e67756c61724172626974726167653a20494e56414c49445f43414c6044820152622622a960e91b6064820152608490fd5b8380fd5b503461027757610160366003190112610277576020906115ae366116f4565b6101443591506115bf303314611f10565b610120810151156115e75761051b9160018060a01b03608081868501511693015116916120e4565b61054c9160018060a01b0360808186850151169301511691611f9a565b9050346104c157816003193601126104c1577f00000000000000000000000000000000000000000000000000000000000000006001600160a01b03168152602090f35b610140810190811067ffffffffffffffff82111761166457604052565b634e487b7160e01b600052604160045260246000fd5b6040810190811067ffffffffffffffff82111761166457604052565b90601f8019910116810190811067ffffffffffffffff82111761166457604052565b600435906001600160a01b03821682036116ce57565b600080fd5b35906001600160a01b03821682036116ce57565b359081151582036116ce57565b6101409060031901126116ce576040519061170e82611647565b816001600160a01b0360043581811681036116ce57825260243581811681036116ce57602083015260443581811681036116ce57604083015260643581811681036116ce57606083015260843581811681036116ce57608083015260a43590811681036116ce5760a082015260c43560c082015260e43560e08201526101043580151581036116ce57610100820152610124359081151582036116ce576101200152565b919082519283825260005b8481106117de575050826000602080949584010152601f8019910116010190565b6020818301810151848301820152016117bd565b60015460081c6001600160a01b0316330361180957565b606460405162461bcd60e51b815260206004820152602060248201527f4f776e61626c653a2063616c6c6572206973206e6f7420746865206f776e65726044820152fd5b1561185457565b606460405162461bcd60e51b815260206004820152602060248201527f547269616e67756c61724172626974726167653a205a45524f5f414d4f554e546044820152fd5b1561189f57565b60405162461bcd60e51b815260206004820152602760248201527f547269616e67756c61724172626974726167653a204741535f50524943455f5460448201526609e9ebe90928e960cb1b6064820152608490fd5b156118fb57565b60405162461bcd60e51b815260206004820152602360248201527f547269616e67756c61724172626974726167653a204e4f545f50524f46495441604482015262424c4560e81b6064820152608490fd5b60018060a01b0380825116835280602083015116602084015280604083015116604084015280606083015116606084015280608083015116608084015260a08201511660a083015260c081015160c083015260e081015160e083015261010080820151151590830152610120809101511515910152565b60ff600154166119cf57565b60405162461bcd60e51b815260206004820152601060248201526f14185d5cd8589b194e881c185d5cd95960821b6044820152606490fd5b600260005414611a18576002600055565b60405162461bcd60e51b815260206004820152601f60248201527f5265656e7472616e637947756172643a207265656e7472616e742063616c6c006044820152606490fd5b91908203918211611a6a57565b634e487b7160e01b600052601160045260246000fd5b91908201809211611a6a57565b91909181158015611b4d575b15611ae95760405163095ea7b360e01b60208201526001600160a01b0390931660248401526044830191909152611ae79190611ae282606481015b03601f198101845283611696565b611bd2565b565b60405162461bcd60e51b815260206004820152603660248201527f5361666545524332303a20617070726f76652066726f6d206e6f6e2d7a65726f60448201527520746f206e6f6e2d7a65726f20616c6c6f77616e636560501b6064820152608490fd5b50604051636eb1769f60e11b81523060048201526001600160a01b0384811660248301526020908290604490829086165afa908115611bc657600091611b95575b5015611a99565b906020823d8211611bbe575b81611bae60209383611696565b8101031261027757505138611b8e565b3d9150611ba1565b6040513d6000823e3d90fd5b60018060a01b031690604051611be78161167a565b6020928382527f5361666545524332303a206c6f772d6c6576656c2063616c6c206661696c6564848301526000808486829651910182855af13d15611d0c573d9167ffffffffffffffff8311611cf85790611c6293929160405192611c5588601f19601f8401160185611696565b83523d868885013e611d16565b805191821591848315611cd4575b505050905015611c7d5750565b6084906040519062461bcd60e51b82526004820152602a60248201527f5361666545524332303a204552433230206f7065726174696f6e20646964206e6044820152691bdd081cdd58d8d9595960b21b6064820152fd5b9193818094500103126104c157820151908115158203610277575080388084611c70565b634e487b7160e01b85526041600452602485fd5b90611c6292916060915b91929015611d785750815115611d2a575090565b3b15611d335790565b60405162461bcd60e51b815260206004820152601d60248201527f416464726573733a2063616c6c20746f206e6f6e2d636f6e74726163740000006044820152606490fd5b825190915015611d8b5750805190602001fd5b60405162461bcd60e51b815260206004820152908190611daf9060248301906117b2565b0390fd5b9060405163697dcbe960e11b8152611dce600482018461194c565b610144828183015260209061016494600095838582818a305af1879581611ee1575b50611dfe5750505050505090565b604051630c41841b60e01b815294611e19600487018461194c565b83860152838582818a305af1879581611eae575b50611e3b5750505050505090565b604051634259d32560e01b81529484938693611e5b90600486019061194c565b8301528187305af19182918593611e7e575b5050611e7857505090565b11919050565b9080929350813d8311611ea7575b611e968183611696565b8101031261158b5751903880611e6d565b503d611e8c565b9095508481813d8311611eda575b611ec68183611696565b81010312611ed657519438611e2d565b8780fd5b503d611ebc565b9095508481813d8311611f09575b611ef98183611696565b81010312611ed657519438611df0565b503d611eef565b15611f1757565b60405162461bcd60e51b815260206004820152602260248201527f547269616e67756c61724172626974726167653a20494e5445524e414c5f4f4e6044820152614c5960f01b6064820152608490fd5b81810292918115918404141715611a6a57565b8115611f84570490565b634e487b7160e01b600052601260045260246000fd5b6001600160a01b031692918115919082801561202d575b15611ae95760405163095ea7b360e01b602082015273ba12222222228d8ba445958a75a0704d566bf2c8602482015260448082018490528152608081019067ffffffffffffffff8211818310176116645761200f9160405286611bd2565b60638202928284046063141715611a6a576064611ae79304946120ab565b50604051636eb1769f60e11b815230600482015273ba12222222228d8ba445958a75a0704d566bf2c86024820152602081604481895afa908115611bc65760009161207a575b5015611fb1565b906020823d82116120a3575b8161209360209383611696565b8101031261027757505138612073565b3d9150612086565b60405163a9059cbb60e01b60208201526001600160a01b0390921660248301526044820192909252611ae791611ae28260648101611ad4565b90916120fb918391906001600160a01b0316611a8d565b6103e390818102918183041490151715611a6a576103e8900490565b60408051633fabe5a360e21b80825260a09360049392600091908681878173d276fcf34d54a9267738e680a72b7eaf2e54f2e45afa928381928295612600575b506125a157505090506000906001905b600085518581528881898173591e79239a7d679378ec8c847e5038150364c78f5afa91828192829461254f575b506124ed575050506000916001945b600090875190815289818a8173d30e2101a97dcbaebcbc04f14c3f624e67a351655afa91828192829461249b575b50612439575050506000946001905b8215612431575b508115612429575b5061241d5761226a9360018060a01b0392836060840151169461224361221e6101008601978851151590612652565b9686612234816080890151168351151590612652565b9c870151169051151590612652565b9960c085019661227088519c8d61226a600095670de0b6b3a7640000809e81978295611f67565b04611f67565b04908b82111561241257508a61228591611a5d565b99612710808c02908c8204148c1517156123fd576017916122a591611f7a565b10155b156123ee576122c4946122bc94511661273a565b958251611a80565b8281029281840414901517156123d957516122de91611f7a565b60009184156123975750839081811061234b576122fb9250611a5d565b9061271091828102928184041490151715612336575060269161231d91611f7a565b60008112612329571190565b612332906129d5565b1190565b601190634e487b7160e01b6000525260246000fd5b61235491611a5d565b916127109283810293818504149015171561238457505061237a60269261237f92611f7a565b6129d5565b61231d565b634e487b7160e01b825260119052602490fd5b5162461bcd60e51b8152602081850181905260248201527f41454f4e4d6174683a20494e56414c49445f45585445524e414c5f50524943456044820152606490fd5b601184634e487b7160e01b6000525260246000fd5b50505050505050505050600090565b60118b634e487b7160e01b6000525260246000fd5b9a50600090506122a8565b50505050505050600090565b9050386121ef565b9150386121e7565b81979297131561245857612451610e10919742611a5d565b11906121e0565b875162461bcd60e51b81526020818b0152601e60248201527f436861696e6c696e6b4f7261636c653a20494e56414c49445f505249434500006044820152606490fd5b8c809295508194503d83116124e6575b6124b58183611696565b81010312610277576124c6826129e6565b5060208201516124dd6080606085015194016129e6565b509192386121d1565b503d6124ab565b81949294131561250c57612505610e10919442611a5d565b11946121a3565b865162461bcd60e51b81526020818a0152601e60248201527f436861696e6c696e6b4f7261636c653a20494e56414c49445f505249434500006044820152606490fd5b8b809295508194503d831161259a575b6125698183611696565b810103126102775761257a826129e6565b5060208201516125916080606085015194016129e6565b50919238612194565b503d61255f565b8113156125bd576125b6610e10919342611a5d565b1190612167565b845162461bcd60e51b8152602081880152601e60248201527f436861696e6c696e6b4f7261636c653a20494e56414c49445f505249434500006044820152606490fd5b89809296508194503d831161264b575b61261a8183611696565b810103126102775761262b826129e6565b5060208201516126426080606085015194016129e6565b50919338612157565b503d612610565b901561265e5750600090565b604051630176f71760e71b815290602090829060049082906001600160a01b03165afa908115611bc657600091612709575b50670de0b6b3a7640000906000828211156126e45750670de0b6b3a763ffff198101908111611a6a575b81810290808204831490151715611a6a578166470de4df8200009104116126de5790565b50600090565b908203908282116126f557506126ba565b634e487b7160e01b81526011600452602490fd5b906020823d8211612732575b8161272260209383611696565b8101031261027757505138612690565b3d9150612715565b90926001600160a01b03909116917350c5725949a6f0c72e6c4a641f24049a917db0cb83146127d0575073036cbd53842c5426634e7929541ec2318f3dcf7e82146127b457506006602160991b011461279a5750670de0b6b3a764000090565b6402540be40090818102918183041490151715611a6a5790565b6402540be400808202935081159184041417159050611a6a5790565b925050506402540be40090818102918183041490151715611a6a5790565b6000198114611a6a5760010190565b1561280457565b60405162461bcd60e51b815260206004820152602860248201527f547269616e67756c61724172626974726167653a20494e53554646494349454e6044820152671517d41493d1925560c21b6064820152608490fd5b6001600160a01b0390811691907350c5725949a6f0c72e6c4a641f24049a917db0cb808414908161299a575b8115612968575b50156128ae57505050734dece678ceceb27446b35c672dc7d61f30bad69e90565b73036cbd53842c5426634e7929541ec2318f3dcf7e908184149384612948575b8415612910575b505050506000146128f857737f39c581f595b53c5cb19bd0b3f8da6c935e2ca090565b73ba12222222228d8ba445958a75a0704d566bf2c890565b7340d16fc0246ad3160ccc09b8d0d3a2cd28ae6c2f14935090918361293c575b505050388080806128d5565b16149050388080612930565b8382167340d16fc0246ad3160ccc09b8d0d3a2cd28ae6c2f1494506128ce565b73036cbd53842c5426634e7929541ec2318f3dcf7e851491508161298e575b503861288d565b90508183161438612987565b83831673036cbd53842c5426634e7929541ec2318f3dcf7e149150612886565b92156129cc576129c992611f9a565b90565b6129c9926120e4565b600160ff1b8114611a6a5760000390565b519069ffffffffffffffffffff821682036116ce5756fea26469706673582212209458aea415eeabd7905c83241ff65a7102741f16489a0b32e21d9a06114e619464736f6c63430008140033",
  "linkReferences": {},
  "deployedLinkReferences": {}
}